:020000040800F2
:10000000E8F6012025030008133F0008453D0008DD
:10001000113F0008C9210008098000080000000005
:100020000000000000000000000000004154000833
:10003000DD27000800000000D1530008096D00080A
:100040003F0300083F0300083F0300083F03000888
:100050003F0300083F0300083F0300083F03000878
:100060003F0300083F0300083F0300083F03000868
:100070003F0300083F0300083F0300083F03000858
:100080003F0300083F0300083F0300083F03000848
:10009000D12100083F0300083F0300083F03000888
:1000A0003F0300083F0300083F0300083F03000828
:1000B000596D0008656D0008716D00083F03000868
:1000C0003F0300083F0300083F0300083F03000808
:1000D0003F030008357200083F0300084172000822
:1000E0003F0300083F0300083F0300083F030008E8
:1000F0003F0300083F0300083F0300083F030008D8
:100100003F0300083F0300083F0300083F030008C7
:100110003F0300083F0300083F0300083F030008B7
:100120003F030008792600083F0300083F0300084A
:100130003F0300083F0300083F0300083F03000897
:100140003F0300083F0300083F030008153F000875
:100150003F0300083F0300083F0300083F03000877
:100160003F0300083F0300083F0300083F03000867
:100170003F0300083F0300083F03000800000000A1
:100180003F0300083F03000800F002F800F0BAF84F
:100190000AA090E8000C82448344AAF10107DA45E2
:1001A00001D100F0AFF8AFF2090EBAE80F0013F07A
:1001B000010F18BFFB1A43F0010318479CE403002A
:1001C000BCE403000A444FF0000C10F8013B13F0AC
:1001D000070408BF10F8014B1D1108BF10F8015BA0
:1001E000641E05D010F8016B641E01F8016BF9D193
:1001F00013F0080F1EBF10F8014BAD1C0C1B09D1EA
:100200006D1E58BF01F801CBFAD505E014F8016B5B
:1002100001F8016B6D1EF9D59142D6D370470000ED
:100220000023002400250026103A28BF78C1FBD8FF
:10023000520728BF30C148BF0B6070476E2900F0DD
:100240009C85702900F08982662920F04E846529FA
:1002500020F04B84672920F04884612920F04784EE
:1002600003681B0A28BF41F08001692900F06481FE
:10027000642900F06181752900F05E816F2900F02A
:100280001782782900F05582E92900F0EF85E429EA
:1002900000F0EC85F52900F0E985EF2900F01482E3
:1002A000F82900F054820368DB0928BF41F080017F
:1002B000632900F0A685732900F0AB85E32900F0DF
:1002C000C985F32900F0CE85002070471FB520F0C6
:1002D000FFFB9DE8030000F099FC00F0BBFE04006A
:1002E0000020002120F0D8F9401C6060002000218F
:1002F00020F0E8F9E06001F0B5FA1FBD10B501F09B
:100300001AFB10BD01F052FB1146FFF7DFFF1AF098
:10031000B1FE01F0E5FC03B4FFF7F0FF03BC00F011
:100320008FFE00000948804709480047FEE7FEE7C6
:10033000FEE7FEE7FEE7FEE7FEE7FEE7FEE7FEE795
:1003400004480549054A064B70470000496D0008FE
:1003500089010008E8D00120E8F60120E8E001204A
:10036000E8E0012070B50446051F00F02FFC00688E
:10037000002C14BF446870BD002C18BFAC423CBFB9
:1003800020466468F8D301680A18AA4218BF45607D
:1003900003D12A6805461144016028684119A14229
:1003A0001CBF6C6070BD616869602168084428608A
:1003B00070BD00007CB51D4616460C00009007D0AD
:1003C0004142A14202D32044401E01E04FF0FF30E1
:1003D000064B7B442A4669460190304600F0E7FC14
:1003E000002C02D0009A002111707CBD090A000087
:1003F0000FB4044910B503AA029800F00FFD10BC19
:100400005DF814FB4C0200200FB41CB5084B06AA83
:100410007B4469460090059800F0C9FC0446002022
:10042000694600F0D7FC20461CBC5DF814FB0000B8
:10043000C10900000FB41CB50C0007AA009007D03A
:100440004142A14202D32044401E01E04FF0FF3060
:10045000074B7B4469460190069800F0A8FC0021F8
:10046000002C01D0009A11701CBC5DF814FB000038
:100470008909000070B5044685690068C10601D588
:10048000302600E02026C00707D070BDD4E9012146
:1004900030469047206A401C20626D1EF6D570BD24
:1004A00070B5044685690078C00707D170BDD4E9EE
:1004B000012120209047206A401C20626D1EF6D545
:1004C00070BD09684A0501D540B27047C905FCD521
:1004D00000B2704709684A0501D5C0B27047C90526
:1004E000FCD580B2704770B50C460546012A05D090
:1004F0002878800600D5EA69002302E0012305E0A0
:100500005B1C934202D2E05C0028F9D1A869E6188E
:10051000C01AA861286A184428622846FFF7AAFF73
:1005200004E0D5E9012114F8010B9047B442F8D357
:100530002846FFF7B5FF70BD2DE9F04106460024BF
:1005400010687529314616A510D0FFF7BAFF0028AC
:1005500002DA404213A507E031688A0701D512A5E7
:1005600002E0490704D511A5012401E0FFF7B2FF1D
:1005700000210A2206F1240709E0B0FBF2FCB0FBDF
:10058000F2F302FB1C00303078541846491C002856
:10059000F3D123462A463046BDE8F04100F094BB33
:1005A000000000002D0000002B00000020000000D3
:1005B0002DE9FF5F15468A460446DFF8AC80F84413
:1005C0000027D8E900103E46CDE9001010E03AF8C7
:1005D00016106A4602A800F0D6FC411C07D021780C
:1005E000890603D5E269391891420DD80744761C73
:1005F0002078800602D5E069B84205DDAE42E6DB30
:100600003AF816000028E2D1A069C01BA06120467C
:10061000FFF730FFD8E90010CDE90010002017E007
:100620003AF818106A4602A800F0ADFCB0F1FF3F9E
:1006300081460BD000250DF1080B05E0D4E901211E
:100640001BF8050090476D1C4D45F7D308F10100DC
:10065000B0428046E4DB206A384420622046FFF73F
:100660001FFFBDE8FF9F00003205020030B40021EB
:1006700000F1240408E002F00705D208303542EA10
:100680004372DB086554491C52EA0305F3D1046840
:10069000002310A2250708D504F020040C4304D041
:1006A000C46901230CA2641EC46130BC00F00CBB01
:1006B00010B5044621461068FFF70CFF024620469D
:1006C000BDE810400023D1E7D21D22F00701D1E997
:1006D0000023CBE70000000030000000F0B40D461E
:1006E0000188090502D5214C7C4402E01F4C7C4462
:1006F0000E34002100F1240608E002F00F07120971
:10070000E75D42EA03721B097754491C52EA03076A
:10071000F3D102780023120704D5702D06D009B159
:10072000022311342246F0BC00F0CEBA012310346B
:10073000F8E770B504460D4621461068FFF7CAFE7B
:10074000024629462046BDE870400023C6E7D21D78
:1007500022F00703D3E90023C0E70368126843F0DF
:10076000200303600823C3610023B7E710040200DD
:100770002DE9F05F894604464FF0000ADFF874B1B6
:10078000FB44C0F820A02046E1688847002874D0C8
:10079000252806D0D4E901219047206A401C206218
:1007A000F1E700265F462046E16888472028054695
:1007B00007DB312D05D2781910F8200C08B106435B
:1007C000F1E7B00701D526F00406C4F81CA0002705
:1007D000C4F818A02A2D09D028461FF055FF38B3B9
:1007E00004EB8708303DC8F8185019E059F8041B8D
:1007F000204604EB87029161E1688847012F054696
:1008000018D1E069002820DA26F020061DE0D8F88B
:10081000180000EB800005EB40003038C8F81800E5
:100820002046E168884705461FF02EFF0028EED1DC
:10083000012F0AD02E2D08D12046E16888477F1C61
:100840000546022F46F02006C4DBA069002803DA23
:10085000404246F00106A061F00701D026F01006E4
:100860006C2D0BD0682D09D04C2D39D06A2D35D088
:10087000742D35D07A2D33D016E038E0E1682F465C
:1008800020468847B842054609D16C2F26D04FF440
:100890008060E168064320468847054604E06C2FE7
:1008A0001AD04FF4807006430DB3A5F1410019280A
:1008B00002D8203546F400664A462946204626607E
:1008C0004E46FFF7BBFC80B101280BD0F61D26F089
:1008D000070000F1080956E74020E4E78020D8E748
:1008E0000020D6E706F104094DE7284652E7206AC2
:1008F000BDE8F09FA00302002DE9F04791460F46A6
:1009000080460446002614F8015B2DB100F056F92C
:100910000068405DC007F6D12B2D02D02D2D18D0D8
:10092000641E4A463946204600F0DEFA27B139688F
:10093000A14201D1C7F800804FF0020471050BD528
:100940004042002803DD00F045F90460A007BDE83F
:10095000F08746F48066E4E70028F8DA00F03AF918
:1009600004606FF00040F2E701490AF031B900007D
:100970004C02002010B5044603E00AF029F9401C9F
:1009800009D014F8010B05490028F6D1BDE8104044
:100990000A200AF01DB94FF0FF3010BD4C020020B4
:1009A00030B505460B462A4613F8014B12F8010BE9
:1009B00008B1A042F8D01CB1002802D06D1CF1E7AC
:1009C000284630BD40EA010310B59B070FD1042A29
:1009D0000DD310C808C9121F9C42F8D020BA19BA0A
:1009E000884201D9012010BD4FF0FF3010BD1AB16F
:1009F000D30703D0521C07E0002010BD10F8013BC4
:100A000011F8014B1B1B07D110F8013B11F8014BEA
:100A10001B1B01D1921EF1D1184610BD40EA010303
:100A2000024630B59B0710D14FF0013400E008C2F8
:100A300008C91D1B9D4315EAC41FF8D013F0FF0120
:100A400002F8011B0DD01B0AF8E711F8013B002B3F
:100A500002F8013B05D011F8013B002B02F8013BE5
:100A6000F3D130BD10B5431C02E010F8011B71B189
:100A70008107FAD14FF0013202C88C1A8C4314EA74
:100A8000C211F9D0C01A0A0603D0C01E10BDC01A88
:100A900010BD0A0401D0801E10BD0902FCD0401E0A
:100AA00010BD40EA010370B59B072ED14FF001360F
:100AB000042A2AD308C810C99D1B9D43121F15EA9A
:100AC000C61517D0D8B2E1B2401A50EA056110D16C
:100AD00098B2A1B2401A50EA05410AD123F07F40F2
:100AE00024F07F41401A50EA052102D1180EA0EBF4
:100AF000146070BDA342DBD018BA21BA884201D974
:100B0000012070BD4FF0FF3070BD0AB9002070BDEC
:100B100010F8013B11F8014B63B1A3420AD1521EF8
:100B200008D010F8013B11F8014B1BB1A34201D1D1
:100B3000521EEDD1181B70BD30B44FF0013C50F87F
:100B4000042B51F8043BCCFA52F4D51A20D1FCB94D
:100B500050F8042B51F8043BCCFA52F4D51A17D1B3
:100B6000B4B950F8042B51F8043BCCFA52F4D51A1E
:100B70000ED16CB950F8042B51F8043BCCFA52F466
:100B8000D51A05D1002CDAD030BC4FF000007047E8
:100B900029BAB1FA81F111F01801D1F12000844095
:100BA000F2D1CA40CB4012F0FF0213F0FF0330BC79
:100BB000D01A7047704770477047000010B500F0BA
:100BC00049FA001D10BD00BFD1FA0100004870476E
:100BD000FC02002000487047F40200207047704774
:100BE0007047704738B504460A4600206946AFF39F
:100BF0000080002808BF38BD02460099204600F05A
:100C000034FA012038BD012000F0C8BEF8B5AFF3BA
:100C10000080054600200C46102000BF0646A8199B
:100C2000A0420DD9324669460020AFF3008007008C
:100C300008BF00F0B3FE0098A04218BF0546C419D3
:100C4000FFF7C4FF05600746F01D20F007004619B6
:100C5000284600F003FAB44208BFF8BDA21B314693
:100C60003868BDE8F84000F000BA70B50646FFF7F6
:100C7000ADFF056806F10B0020F00704B4429CBFED
:100C8000002070BD2B466A68BAB11068A04210D32C
:100C900004F1080188423CBF5068586007D351688E
:100CA000101941601168091B016058601460101D23
:100CB00070BD13465268002AE7D121462846FFF747
:100CC00091FF0028DED170BD2DE9F0470D46994611
:100CD0009246044600F124080168880604D5E069BC
:100CE00021F01001216000E00120A84201DD471B36
:100CF00000E00027A1697A1902EB0900081AA06137
:100D00002078C00602D42046FFF7B4FB002608E096
:100D1000D4E901211AF806009047206A401C761C8D
:100D200020624E45F4DB2078C0060AD52046FFF746
:100D3000A1FB06E0D4E9012130209047206A401C45
:100D40002062381EA7F10107F4DC07E0D4E9012195
:100D500018F805009047206A401C2062281EA5F163
:100D60000105F3DC2046FFF79BFB2078000602D547
:100D70000220BDE8F0870120FBE711680268006AE5
:100D8000530501D508700AE0D30501D5088006E0B7
:100D9000130603D5C217C1E9000200E00860012074
:100DA0007047000001694A1C02610878704700B56D
:100DB0008FB0CDE901310021059105497944CDE994
:100DC000031011466846FFF7D3FC0FB000BD0000CA
:100DD000E5FFFFFF0A6802F8010B0A607047D1E9DE
:100DE00000239A4202D2531C0B601070704710B55A
:100DF000436913B1AFF3008001E0FFF774FB0120FA
:100E000010BD127800F124010A7000224A700122FC
:100E1000EDE711684FF0FF32E9E70000074B70B5CE
:100E20000D467B44FFF7C3FF0446284600F016FD3D
:100E300010B14FF0FF3070BD204670BDAB9D00007B
:100E400010B5436913B1AFF3008001E0FFF7B0FBC9
:100E5000012010BD128800F1240182840022C28486
:100E60000122EDE711684FF0FF32E9E72DE9F0418B
:100E70008046D21D22F007020025D2E90002F529A2
:100E800015A614D0011E72F1000106DA0023D0EB82
:100E9000030063EB020211A608E0D8F800108B07EC
:100EA00001D50FA602E0490701D50EA6012511467E
:100EB000002408F1240704E000F0F1F830323A553C
:100EC000641C50EA0102F7D12B46324621464046C7
:100ED000BDE8F041FFF7F8BE000000002D00000063
:100EE0002B000000200000002DE9F05F824615462F
:100EF0008B4600270AF10104B9460078302801D05A
:100F00009DB113E014F8010B0127782803D058286D
:100F100001D045B10AE00DB1102D07D1002714F81A
:100F2000010B102502E0082500E00A250026B04646
:100F30000EE005FB080005FB06F101271FFA80F80B
:100F400001EB1046B6F5803F00D3B94614F8010B0B
:100F5000294600F075FC0028EBDABBF1000F05D044
:100F60000FB1641E00E05446CBF80040B9F1000F09
:100F700006D0FFF72FFE02210160C81EBDE8F09FDA
:100F800048EA0640FAE72DE9F04116460C460546C8
:100F9000FFF714FE036893F80101012807D0FF2C26
:100FA00012D8185D80B101202C70BDE8F081D3F813
:100FB00007013246214603F20713C7182846BC46EC
:100FC000BDE8F041002360474FF0FF30EDE710B57A
:100FD000203AC0F00B80B1E81850A0E81850B1E8F2
:100FE0001850A0E81850203ABFF4F5AF5FEA027C31
:100FF00024BFB1E81850A0E8185044BF18C918C061
:10100000BDE810405FEA827C24BF51F8043B40F801
:10101000043B08BF7047D20728BF31F8023B48BFE6
:1010200011F8012B28BF20F8023B48BF00F8012B24
:10103000704708B569468DF800000320ABBE08BDB7
:1010400001491820ABBEFEE72600020000487047A9
:10105000F4020020004870471403002000210160C2
:10106000C0E90110704710207047034640688C4665
:10107000002818BF88423CBF03464068F8D3186870
:101080001844884207D00CF1030020F00700001D2F
:10109000411A521A0146081D0A60FFF763B930B5BC
:1010A000B0F10A0271F100034FEA900E4EEA817E20
:1010B000B0EB0E0061EB91014FEA101E4EEA017E8B
:1010C00010EB0E0041EB11114FEA102E4EEA016EAB
:1010D00010EB0E0041EB11214FEA104E4EEA014E8B
:1010E00010EB0E0041EB1141401841F100014FEAB5
:1010F000D00040EA41704FEAD1014FEA810444EA4E
:10110000907410EB800544EB01046D1944EB04046A
:10111000521BA3414FF0000348BF0A3200D530BD37
:10112000401C41F1000130BD2DE9FF4F0C461E4629
:101130004FF0FF378BB0D2E90001DDF860800A90F4
:101140008A46C1F30A5505B93D46002108464FF0CD
:101150000000BAF1000F00F4400005DA00EB800057
:101160004FF4400101EA50004FEA9059B9F1010FE4
:1011700000DDB9460A9850EA4A000ED044F61050F5
:10118000A5F2FF3545432F14B8F1000F1ED075426C
:10119000291E1EDDC9F100021CE0B8F1010F4FF05D
:1011A000000001D0302103E0F24305E02154401C4F
:1011B000B042FBDB30460022002121540B99C1F8DC
:1011C0000880C1E900200FB0BDE8F08FBD1B6D1C89
:1011D000DEE74A4600DA694206A800F04DFC06AB9D
:1011E00093E8070003AB83E8070050460A991EF016
:1011F0006BFE8DE80700A0F500501F3800900398A3
:10120000002D0ADD42F21F014A460844002303A9CB
:10121000039068461FF0D4F809E0A0F500504A4654
:101220001F38002303A9039068461FF0DEF88DE8FD
:1012300007000004000C03D04FF0FF30410800E02D
:101240001046B8F1000F03D00022009215461EE0B0
:10125000751E05D4FFF723FF303262556D1EF9D598
:10126000B3460122084302D000227F1C04E020780C
:10127000302801D100227F1E002A099784D01DE06A
:10128000112D07DAFFF70BFF303262556D1C50EA63
:101290000102F5D1084302D00098C8B10EE0002148
:1012A000681E05E0235C625C63542254401E491CA6
:1012B0008142F7DBAB46A81B401E0990002004F8D2
:1012C0000B000B98099AC0F80880C0E9002B7AE758
:1012D00011264FF0000857E72DE9F04F88460446E5
:1012E000D21D22F0070191B0D1E90001CDE90A0138
:1012F0001FF0B2F902460B98C00F01D02D2007E075
:101300002068810701D52B2002E0202101EAC000DE
:10131000032A099001D0072A05DB034641462046EF
:1013200000F06AFB0BE12078800601D5E06900E05F
:101330000620B8F1650F814606D0B8F1660F18D0C7
:10134000B8F1670F70D131E00020B9F1110F0090B2
:1013500001DB112301E009F101030AAA01A90CA88C
:10136000FFF7E2FEDDE90C70002609F10105834676
:1013700047E001204B4600904FF000470AAA01A920
:101380000CA8FFF7D1FEDDE90DB00C995D460026F3
:1013900010B909F101000D18B9EB050003D4C0F133
:1013A000FF3609F10105A5EB09002BE0B9F1010FAA
:1013B00001DA4FF001090020B9F1110F0090484601
:1013C00001DD112300E003460AAA01A90CA8FFF7DA
:1013D000ABFEDDE90C704D46002683462078000701
:1013E0000AD4AB4500DA5D4601A8012D04DD4119A0
:1013F00011F8011C302907D04F4502DA17F1040F0C
:1014000004DA012082460FE06D1EEEE7002F02DCB9
:10141000ED1B3E4403E0781CA84200DD7D1CB81B98
:1014200000F1010A4FF000472078000703D4AA45D5
:1014300001DB4FF0FF3A0021B7F1004F0DF14308F7
:101440008DF8431024D002202B23002F01DA7F4295
:101450002D230A21021EA0F1010000DC5FB197FBE1
:10146000F1FC97FBF1F201FB1C7C17460CF1300CF0
:1014700008F801CDEEE7A8F1010003702188090505
:1014800001D5452100E06521A0F1010800F8011C0B
:1014900009980FA9A1EB0807FF1D00B10120411910
:1014A00001EBEA70A1693844081A401EA061207857
:1014B000C00602D42046FEF7DDFF099828B1D4E922
:1014C00001219047206A401C20622078C00622D566
:1014D0002046FEF7CFFF1EE0002E04DBB34502DD01
:1014E00001A8805D00E03020D4E901219047206A06
:1014F000401C2062761CAAF101005FEA000A0AD1B2
:10150000FFF7A8FDC0680168405CD4E9012190475D
:10151000206A401C2062281EA5F10105DCDC07E0E2
:10152000D4E9012118F8010B9047206A401C206281
:10153000381EA7F10107F3DC2046FEF7B1FF0320B8
:1015400011B041E62DE9F04F04460D46D21D22F0C0
:10155000070089B0D0E90097484639461FF07CF86B
:101560000246F80F01D02D2307E02068810701D53E
:101570002B2302E0202101EAC0038DF820300BB1BB
:10158000012000E00020032A824601D0072A04DB64
:101590002946204600F030FA3FE12078800601D449
:1015A0000D2500E0E569C7F30A560D2D49DA002143
:1015B0004FEA175B08464FF00000002F00F4400090
:1015C00007DA00EB80004FF4400100EBD07001EA35
:1015D00060008115012901DD4FF0FF3100224FEA43
:1015E000850CBCF1180F06D31346ACF118004FF070
:1015F0008052C24003E04FF4801323FA0CF30CF145
:101600000C0CBCF1200F04D3ACF1200C09FA0CF047
:1016100001E007FA0CF000294FF0004801DD18B98D
:101620000FE00ED140450CD319EB02095F4121B9FF
:10163000404502D19F4329EA0209BBEB175F00D066
:10164000761C2088000502D57B48784402E07A4861
:101650007844193808AA302302F80A30037C0AF1CA
:101660000101002E0AF1020A53546A4602DC4FF0CF
:10167000300101E04FF031014FF001088DF800100A
:1016800002D0A6F2FF3603E059EA470100D06B4EC4
:10169000002D02DC2178090704D54FF002082E2125
:1016A0008DF80110C44600210BE0C7F303433F014E
:1016B000C35C491C6D1E02F80830052908F10108B9
:1016C00001DA002DF1DC00210CE000EB1973491C5C
:1016D0001B786D1E082902F808304FEA091908F135
:1016E000010801DA002DF0DC21688B0602D516E036
:1016F000A8F10108E04505DD02EB080313F8013C01
:10170000302BF5D0B8F1000F09DD02EB080313F818
:10171000013C2E2B03D1090701D4A8F10108002DAB
:1017200005DD3E2102F808106D1E08F10108407C1D
:10173000002E02F8080008F1010804DA2D20764294
:1017400002F8080002E02B2002F808000A214FF4FA
:101750007A70864208F101080BDB96FBF0F3303318
:1017600002F8083096FBF0F308F1010800FB13665D
:1017700001E0642E0CDB642096FBF0F3303302F8BA
:10178000083096FBF0F308F1010800FB136601E056
:101790000A2E06DB96FBF1F0303002F8080008F163
:1017A000010896FBF1F001FB1060303002F80800F0
:1017B000A16908F1010808EB050202EB0A00081A0A
:1017C000A0612078C00602D42046FEF753FE216AAD
:1017D00008AE01EB0A00206204E0D4E9012116F80A
:1017E000010B9047BAF1010AF7D22078C00602D562
:1017F0002046FEF73FFE6E4609E016F8010B3E2834
:101800000FD0D4E901219047206A401C2062B8F132
:101810000108F2D22046FEF743FE09B00320BDE8DE
:10182000F08F206A2844206203E0D4E901213020AF
:1018300090476D1EEBD3F8E7FAF4010002FCFFFFBE
:101840003A2800D2303820F02002412A01D3A2F1F8
:101850003700884201D34FF0FF307047007B00F023
:101860008000704710B54248542100F077FA414893
:10187000542100F073FA4048542100F06FFA3F49B8
:101880003B483C4A3F4B08603D490A603A49196071
:10189000531C0365481C1065012008653B48344A09
:1018A00039A1784400F07EF920B9384878440A38E4
:1018B00000F024FA37482F4A35A1784400F072F935
:1018C00020B9344878440A3800F018FA32482A4AD5
:1018D0002FA1784400F066F920B92F4878440A38DF
:1018E00000F00CFA40232248DC000021224600F0E0
:1018F00035F920B125487844543800F0FFF91D48E7
:1019000022464023002100F029F920B121487844E3
:10191000543800F0F3F9184822461023002100F053
:101920001DF9002806D01C487844BDE81040563800
:1019300000F0E4B910BD104870B5006D20F001044E
:101940000B4800F0A7F90B4800F0A4F90A4800F092
:10195000A1F909E0206D20F00105204600F09AF978
:101960002046FEF7FFFC2C46002CF3D170BD000092
:10197000F80100204C020020A002002000000020FE
:10198000040000200800002072000000AEC903001F
:10199000770000009DC903008DC9030010B500F059
:1019A000B5F9BDE8104000F0A4B970477546FFF7DF
:1019B0004DFBAE4605006946534620F007008546BC
:1019C00018B020B5FEF7BCFCBDE820404FF0000683
:1019D0004FF000074FF000084FF0000BAC46ACE8AA
:1019E000C009ACE8C009ACE8C009ACE8C00921F006
:1019F00007018D46704700002DE9F0411F4604465F
:101A000003260168072A01F4006004DB08B116A56B
:101A100005E016A503E008B115A500E015A521F025
:101A200010002060A069C01EA0610FB1401EA0611F
:101A30002046FEF71FFD4FB1D4E9012138469047FB
:101A4000206A401C2062C01C206206E0206AFAE77F
:101A5000D4E9012115F8010B9047761EF8D22046F3
:101A6000FEF71EFDBDE8F0814E414E006E616E0036
:101A7000494E4600696E66002DE9F04781461646DC
:101A80008AB0354878440DC88DE80D003248784456
:101A9000801C03AC0DC884E80D0041F69B3008445F
:101AA000372190FBF1F290FBF1F5A5F1800501FBE8
:101AB00012041B3C02D56442012000E00020DFF844
:101AC00098A080460027FA44AAF1BE0A0EE0E0077B
:101AD0000AD03246684607EB470101230AEB810131
:101AE0001EF083FC8DE8070064107F1C002CEED1F3
:101AF000194F7F44AE3F19E0E80715D007EB0410FB
:101B00000DF1180A90E80E008AE80E00C068F04255
:101B100001D1981908903246012306A903A81EF0A6
:101B200064FC03AB83E807006D10641C002DE3D157
:101B30004FF0010332466946B8F1000F03A802D006
:101B40001EF03EFC01E01EF050FCC9E90001C9F89E
:101B500008200AB0BDE8F08750F1010070B5C468F4
:101B6000A50713D0650211D4B2F5807F09D0B2F574
:101B7000007F06D0B2F5806F08D1012300F1240167
:101B800006E05D1E6FF07F46B54201D3012070BDB7
:101B90000161C361416024F470611143C1600020A0
:101BA00070BD00002DE9F0410C461646070047D0F5
:101BB000104600F06FF82078611C61280AD0722866
:101BC00002D077283CD102E00125002405E002255F
:101BD000042402E0082448F2020511F8010B2B2826
:101BE00006D0622809D011F8010C74280AD00BE045
:101BF00045F0030544F00204EFE745F0040544F026
:101C00000104EAE744F010043846214607F044FA9C
:101C1000411C15D00021316171604FF40071F560F5
:101C2000F1617061200704D530460222002100F0E6
:101C3000BDF8306D40F0010030653046BDE8F08100
:101C40000020FBE72DE9F0410D460646104C206DC3
:101C5000C10704D0410804D020F00104F7E7224670
:101C60000EE05420FFF701F807000ED0206D47F07A
:101C70000101084354212065384600F06FF83A46C8
:101C800029463046BDE8F0418CE70020D6E7000049
:101C9000F80100202DE9F04704464FF000094FF00D
:101CA000FF37C568D4E90486A80707D0204600F0AE
:101CB0002DF9304607F0DEF9002802DA3846BDE893
:101CC000F087280502D54046FEF74CFB4C21204604
:101CD00000F044F8206D20F0010020654846EEE752
:101CE00010B50446AFF300802046BDE81040FEF773
:101CF00012BB002801D0FFF7A3B9704710B500F060
:101D000063F9BDE81040FFF7F4BF000010B50128EB
:101D100005D0002103A000F03DF9012010BD09A16C
:101D2000F8E7000053494752544D454D3A204F754E
:101D300074206F662068656170206D656D6F7279C3
:101D4000000000003A2048656170206D656D6F727B
:101D50007920636F72727570746564004FF00002D1
:101D600000B5134694469646203922BFA0E80C5091
:101D7000A0E80C50B1F12001BFF4F7AF090728BF6C
:101D8000A0E80C5048BF0CC05DF804EB890028BFE8
:101D900040F8042B08BF704748BF20F8022B11F011
:101DA000804F18BF00F8012B704700002DE9F0416B
:101DB000044616460D464769007B80072ED03846FC
:101DC00007F062F950BB3EB3012E02D0022E25D19E
:101DD00004E0204600F012F905441DE038460020DA
:101DE00000BFE168002841F01001E16005DA2046FB
:101DF00000F058F80120BDE8F081C9030BD56268F6
:101E0000E16A914200D81146A26911442269891AF7
:101E1000814200DD08460544002D01DA0220EAE790
:101E2000E16A6068E268814206D29103E06203D50C
:101E300022F4003141F01002A6690027AE4213DC03
:101E4000E16A814201D90B4600E0034603EB060C30
:101E50002369ACEB030CAC4506DD814201D98C460D
:101E600000E084469C4505D1A760276042F0200031
:101E7000A5620DE0AD1BE669AE1B8142A66000D9EC
:101E80000846C01A281A20605819606022F0200005
:101E900003490840E060002084F84870ABE7000088
:101EA000BFCFD7FFC16821F4001141F08001C160AC
:101EB00000218160016070472DE9F047814614469A
:101EC0000E464FF0FF383248D5685769054209D0B1
:101ED0003846A1694FF0FF30002811DB2C48C04381
:101EE0000540E5602B4632464946384607F000F982
:101EF000A16920F00042B21A11440028A16103D068
:101F00002046FFF7CFFF4046BDE8F08770B5044696
:101F10000569C06A6168884200D80846E16821F412
:101F20002011E160C90312D5A84208D02246411B06
:101F30002846FFF7C1FF10B14FF0FF3070BD002001
:101F4000E562C4E90150E06820F48030E0600020E0
:101F500070BD10B50446C06820F02000E060A16AA2
:101F6000A06988420DD02046FFF7D0FFE06820F43A
:101F7000405040F01000E060A06AA0612069E0627B
:101F8000606044F24001E0688843E06010BD0000FA
:101F90001000020070B505460C460A2000E06D1CDA
:101FA000FFF747F835B128780028F8D102E0641C23
:101FB000FFF73FF814B120780028F8D1BDE8704051
:101FC0000A20FFF736B8000010B5014602A0FFF75F
:101FD000E1FF012010BD00005349475254524544CF
:101FE0003A2052656469726563743A2063616E27B2
:101FF00074206F70656E3A200000000010B5014635
:10200000C268900703D0900607D5886A0AE0FEF7F9
:10201000E1FD01210160881E10BD8B6948681844EC
:102020000B69C01A91F848301BB191F84910401A59
:1020300010BD1103FCD50028FADD401E10BD53EA87
:10204000020C00F069802DE9F04B4FF00006002BE8
:102050001FBFB3FA83F503FA05F424FA05F65E40D0
:1020600012BF1643B2FA82F502FA05F4C5F1200553
:102070001EBF22FA05FC44EA0C04203556EA044C43
:102080004FEA144418BF641C4FF000084FF00009D9
:10209000904271EB030C39D3002919BFB1FA81F7D3
:1020A00001FA07F6B0FA80F700FA07F6C7F1200741
:1020B0001EBF20FA07FC46EA0C062037B6FBF4FCEC
:1020C000A7EB0507103F07F01F0BCBF120062CFAFA
:1020D00006F60CFA0BFB44BFB3460026202FA4BF24
:1020E0005E464FF0000B5BEA060C08BF4FF0010B99
:1020F00019EB0B0948EB0608ABFB027C06FB02CC94
:102100000BFB03CCC01B71EB0C01C1E70B46024675
:1021100041464846BDE8F08B13B5084318BF4FF061
:10212000FF300146AFF30080BDE81C407047032A32
:1021300040F2308010F0030C00F0158011F8013BE4
:10214000BCF1020F624498BF11F801CB00F8013BCB
:1021500038BF11F8013BA2F1040298BF00F801CB8F
:1021600038BF00F8013B11F003033EF430AF083AEA
:10217000C0F0088051F8043B083A51F804CBA0E8BD
:102180000810F5E7121D5CBF51F8043B40F8043B12
:10219000AFF30080D20724BF11F8013B11F801CB47
:1021A00048BF11F8012B24BF00F8013B00F801CB18
:1021B00048BF00F8012B704702F0FF0343EA0322F7
:1021C00042EA0242FFF7CCBDFEE70000000000003B
:1021D0002DE9F04F87B0DFF890733868466945689D
:1021E0008268C1680469D0F818C0F30702D14FF0C3
:1021F000000A2FE0D3070CD001238360930708D493
:1022000053075ABF4FF4805303EA422A4FF4006A3F
:1022100001E04FF0000AD3050CD54FF480738360C2
:10222000930507D453055ABF02F400634AEAC30A70
:102230000AF5005AD3030DD54FF48033836093031E
:1022400008D453034FBF0AF5004A4FF4803303EA22
:10225000D2029244320705D5CA0642BF1022C2609C
:102260004AF4007A720703D5090744BF0821C16008
:10227000B10740F1FA80C168890700F0F68097F84D
:1022800020100139012911D8C168890711D0D0F86F
:10229000B021D0F8B011CDF810C0CDE902545207EA
:1022A0000DD4490DB14A0D4611610AE04FF480206A
:1022B00001E04FF40010796A08437862D5E0AB4939
:1022C0000D69D0F8B021D0F8B421D0F8B421D0F8FD
:1022D000B421D0F8B821D0F8B831D0F8B811D0F87E
:1022E000B871D0F8BCB1D0F8BCC1D0F8BCE1D0F81E
:1022F000BC81D0F80C9049F020044FEA1C29C4603E
:10230000180A8DF81420CDF804B08DF818B08DF8A7
:1023100019908DF81500080C4FEA1E418DF8160033
:10232000380E8DF81A108DF817004FEA1860DFF894
:1023300028878DF81B00002088F84E004FF480702D
:10234000B5F5BE6FA8F84C0040F07F8098F80F40BC
:10235000122C55D1864A0A270120DFF818B20D4603
:1023600088F81C000020D38B118988F8100092F89F
:1023700071001BBA09BA8BF82A001B0C090CB3FBBD
:10238000F7F3ABF82C108BF83630138C52891BBA4C
:1023900012BA1B0C120CB3FBF7F3B2FBF7F20428D2
:1023A0008BF837308BF8382025D8DFE800F022038F
:1023B000080D120002F020FC9FED690B0DE002F009
:1023C0001BFC9FED650B08E002F016FC9FED600B17
:1023D00003E002F011FC9FED5A0B53EC102B1EF0A2
:1023E00087F99FED590B53EC102B1EF081F91EF06D
:1023F000D9FA8BF81C005E489021FFF7AFFC294604
:102400000198C0B2FC280DD15FFA89F0FB2809D1F0
:10241000C8B2FA2806D14FF480700024A8F80F0043
:10242000012001E098F8100078B1112C0DD8504827
:10243000002105AA00EBC400082903D0535C4354D3
:102440000131F9E7601C88F80F0088480F21C06D42
:102450001AF004FE98F84300DDF810C0DDE90254DC
:10246000414F10B1012088F81100700606D5E00632
:1024700004D5386810214AF4806A0161B00604D599
:10248000200702D5386808210161F00601D53868B7
:102490000069B00304D5E80602D538681021416010
:1024A000F00304D5280702D53868082141603004BC
:1024B00039D5680734D5C6F30021F005023101EAA9
:1024C0000C01B20558BF0CEAD0710CF00400720583
:1024D00048BF01444AEA010A300521D51CF07000CA
:1024E0001ED010380009052815D8DFE800F00306D3
:1024F000090C0F124AF0080A0DE04AF0100A0AE02F
:102500004AF0200A07E04AF0400A04E04AF0800A54
:1025100001E04AF4807A3868816921F070018161B4
:10252000386804214160BAF1000F03D0786A40EAAC
:102530000A00786207B0BDE8F08F00BF00BF00BF9F
:102540009A9999999999F53F000000000000084078
:102550000AD7A3703D0AF93F83C0CAA145B6FD3F23
:10256000EC51B81E85EB044090D0012064CD0120D1
:102570001C05002030D0012021290ED0202918D19F
:1025800011680D4B43F8301003EBC0001179017155
:1025900051794171917981710BE0074951F83030DF
:1025A00001EBC0001360017911714179517180799B
:1025B00090710020704700BFD0C8012000207047F4
:1025C00028494FF4077210FB0211034A02EBC010B6
:1025D000C1F804020020704750C80120F8B5204E11
:1025E0000D46012114464FF407720027402386F858
:1025F0004E101C49A6F84C7010FB02111A4A3044C8
:10260000C1F80452117C002908BF4FF4007390F800
:10261000471010462A4605F041FA96F84F00012867
:102620000AD1124F0721F86D1AF018FD96F84F00E5
:102630003F6E002808BF07460D480022C1192368D5
:102640009A4203D2AB5C8B540132F8E7F9180022AE
:102650004254012086F84F00044801660020F8BD6E
:10266000E8CC012018C3012034C501205CCE012034
:10267000D8C8012000207047F8B50020554C564AB4
:1026800008210090D4E91660D56837688140394246
:102690000CD0226813685B0708D5136823F0040385
:1026A0001360B160616D41F00101616501218140FC
:1026B000394208D022685269120604D5B160616DB2
:1026C00041F00201616504218140394208D022684D
:1026D0001268920704D5B160616D41F00401616533
:1026E000102101FA00F23A4218D021680B681B074A
:1026F00014D5B2600B680A685B0306D4D20506D411
:102700000A6822F008020A6001E0110301D4216C7A
:1027100000E0A16C11B120468847E06D202101FA4C
:1027200000F23A4234D021680B68DB0630D5B26043
:1027300094F835300A68052B16D122F016020A608B
:102740004A6922F080024A61226CA36C1A4303D0CA
:102750000A6822F008020A603F2101FA00F0B06026
:1027600002F000FD216D2FE00868520308D4C00577
:102770000AD4086820F01000086002F0F3FC03E0BF
:10278000000301D4616C00E0E16B09B11148884796
:10279000606DF0B1606DC00715D005214FF4165083
:1027A00084F83510B5FBF0F021680A6822F00102C8
:1027B0000A60009A01328242009202D80A68D20767
:1027C000F7D102F0CFFCE16C19B10248BDE8F84046
:1027D0000847F8BDEC030020440100207047EFF3E8
:1027E000108072B6FEE790F83510022909D1052154
:1027F00080F835100068016821F0010101600020B7
:102800007047802141650120704700000349013075
:10281000CA68CB689B1A8342FBD3704764CD012002
:102820002DE9FC4F614A08244FF0010B4FF0000ADC
:102830004FF0000E90425E4A08BF072402444FEA60
:10284000B223072B38BF4FEAB22400940022102A8B
:1028500008BFBDE8FC8F0B680BFA02F6334200F0AC
:102860009E804F6807F00309A9F10103012B14D8DA
:1028700003238468CD6803FA0EF39C4305FA0EF532
:102880006FEA030873462C438460C7F3001445685D
:102890009440B5432C4344600BE04FF0030CB9F176
:1028A000030F0CFA0EF36FEA030801D1734622E01E
:1028B0005300C4688D6804EA08049D402C43B9F1B4
:1028C000020FC46016D10AF01C040F2505FA04FC9F
:1028D0006FF0030505EA520707443D6A25EA0C0C30
:1028E0000D6905FA04F444EA0C043C624F6807F0F1
:1028F000030C00E0CC4604680CFA03F304EA080475
:10290000234317F4403F036049D000232B4C294F49
:1029100022F0030501932368BC463D4443F4804301
:10292000236023680F2403F4804301930AF00C030F
:10293000019F9C40224FB846EF5927EA0404009FAC
:1029400007FA03F3234345F80830DCF808304D68F4
:1029500043EA0604EF0258BF23EA0604164BCCF8FC
:102960000840AF0298461B6843EA060458BF23EAB2
:102970000604C8F80040AF03DCF8043043EA06045C
:1029800058BF23EA0604CCF80440ED03DCF800301D
:1029900043EA060458BF23EA0604CCF800400AF1D3
:1029A000040A0EF1020E013251E700BF001C024082
:1029B0000000FEBF003C01400C3C01404438024096
:1029C00008FCFFFF7CB5044600251F480195816B7C
:1029D00041F001018163816B01F0010101910199D5
:1029E0000168016806680168D0F8F80300F0C0FBD0
:1029F000164916F4E0564FF0804340F2E7328D61FD
:102A000018BF0126B040C1E902520D61104EB0FB63
:102A1000F6F00138C1E90030084600F0EDFB00B1E6
:102A20007CBD0A4800F0C4FC0028F9D109484FF0E9
:102A300080510F2C0160F3D81C200F2100F00EF8FC
:102A40000548012101717CBD083802404C0400207A
:102A500040420F0000E100E0E8CC012010B500F09A
:102A60000F03104C0E4A043B23440C33B0F1FF3FDC
:102A7000C8BF831820684FF0FF34C0F30220C21E85
:102A800080F0070038BF0022042828BF042004FA81
:102A900000F021EA000090400001187010BD00BF56
:102AA00000E400E00CED00E070B5436A99B1846A7F
:102AB0000139CDB203EB144300F5827425B140CC4B
:102AC000013D03EB1643F9E700EB810043EA0241C5
:102AD000C0F8041170BD43EA0241816270BD00007C
:102AE00010B501463C48D0F8084551B101F023FF2C
:102AF00021D1D4F8B8028269EAB12046BDE810407D
:102B0000104701EBC10100EB8100D0F88C22D4F812
:102B1000940203280FD1D4E9570398420CD9C01A64
:102B20009842C4F85C0138BF034620460021BDE846
:102B3000104004F0B3BF10BD01F0FDFE05D1D4F884
:102B4000B802016909B1204688472046BDE8104017
:102B500004F00BBE81B0204A00231168009300F0FE
:102B60000F03000603EBC30302EB830303F13C02F4
:102B700058BF03F51F725078012815D101F5106078
:102B8000117849014258B2F1FF3F22DC734602F04E
:102B900023F89E46009B01330093009B934218D874
:102BA0000B58002BF6D414E001F530601178490180
:102BB0004258B2F1FF3F0CDC734602F00DF89E461E
:102BC000009B01330093009B934202D80B58002BCB
:102BD000F6D401B0704700BF0CBE01202DE9FC47C0
:102BE000DFF88425D2F808A592F8C4548AF8AA52CE
:102BF0000AF2AA2892F8C5348AF8AB3292F8C69441
:102C000092F8C77449EA0720AAF8AC0292F8C814EF
:102C100092F8C94441EA04260124AAF8AE62B2F847
:102C2000CA24AAF8B022CAF89822CAF8944205F039
:102C30001F04022C0AD0012C19D0B4BB15F060017E
:102C40003DD040290AD0202908D09BE115F060042E
:102C500058D0402C02D0202C40F09481DAF8B802F1
:102C600041468268504602B0BDE8F047104715F073
:102C7000600018BF40281FD19AF89C020138022832
:102C800000F2808111F0F00F40F07C81DAF8B80298
:102C90004146826850469047BAF8B012002940F089
:102CA0003A82002800F0F78135E205F080015046B5
:102CB000BDE8FC4704F018BF2028DDD062E1092BF5
:102CC00000F26081DFE813F00A0055005E01600049
:102CD0005E01670099005E01AF00BD009AF89C029A
:102CE0000138022800F24E81022A40F04B81DAF8C6
:102CF000A40203225146002808BF012241F80C2FEC
:102D00005046F3E063B1012B22D0032B40F03A810F
:102D10009AF89C32032B00F0B980022B20D031E1CD
:102D20009AF89C02032800F0BE80022840F02A8115
:102D3000480640F0278101F07F00090600EB800083
:102D40000AEB800000F1140258BF00F5AA72C9E036
:102D50009AF89C22032A00F0CB80022A40F01281CC
:102D6000480600F00F81504604F0BEFE5046802118
:102D70009EE79AF89C120139022900F2038101288A
:102D800040F0C981002003E0012840F0C481012007
:102D9000CAF8A4027FE1002E40F0F480002A40F03F
:102DA000F1807F2800F2EE809AF89C02032800F060
:102DB000E980DAF810038AF89E9290F8BC14012991
:102DC00013D080F838900168D1F8002822F4FE6210
:102DD000C1F80028002280F8BC2409F07F00D1F857
:102DE000002842EA0010C1F8000801F079FFB9F1AB
:102DF000000F00F03781022035E10020ADF8060019
:102E0000781E062800F28081DFE810F00700C1007C
:102E1000C9007E017E01D600E200DAF8B4129AF809
:102E200010000A685CE1012A40F0AC809AF89C022C
:102E3000411E022980F09B800020514641F8080F76
:102E400099E0CA4D19F0FE0F85F8009040F09A8085
:102E50009AF89C02032800F0DB80022840F0F780FB
:102E6000B9F1000F00F01781DAF8B802CAF804903F
:102E7000002800F0878002685046494690470028A5
:102E800040F0808001F02CFF0320ECE0002840F0AF
:102E90000281480600F0FF80002A40F0FC80504686
:102EA00004F022FEF7E001F00F0211F0800002EBC7
:102EB00082020AEB820214BF928CB2F86421002ACB
:102EC00060D001F07F03002841F0800103EB830212
:102ED0000AEB820404F1140208BF04F5AA728029E7
:102EE00040F084800020106050461146022244E0E9
:102EF000002840F01081480600F02381DAF8100322
:102F000001F00F0243689A4200F21B81090602EBAE
:102F1000C20100EB81015DBF002381F87D3201F524
:102F20001F71012344BF81F83D303C3100230A70FA
:102F30008B7090F8BC34012B00F0038101234C7896
:102F400080F8BC340368012C03EB421240F0E580AA
:102F5000D2F8003923F40013C2F80039097901F0DE
:102F6000FE01022940F0EA8002F51061E2E0032848
:102F700008D10AF104015046012202B0BDE8F04731
:102F800004F0E6BB5046BDE8FC4704F0D6BB9AF817
:102F90001010DAF8B802002969D0C16A68E0B9F106
:102FA000050F00F27D80DFE809F00385898D91959A
:102FB000DAF8B402426890E09AF81000002840F075
:102FC000A380DAF8B802416B0DF1060088478AE069
:102FD0009AF81000002840F09780DAF8B802016BE8
:102FE0000DF1060088470146072046E003EBC301C8
:102FF000DAF81033002803EB810101F13E0308BF2A
:1030000001F27E23187800283FF46CAF01206AE7B4
:10301000B9F1000F33D0DAF8040048453BD0DAF8B4
:10302000B812002900F090804A68C1B2504690471B
:10303000DAF8B80229780028CAF8041000F086806F
:10304000026850469047002840F0808023E05046B8
:1030500004F073FBDAF8B80200285CD042685046EE
:10306000494600E601208AF89C02BDE8FC87816A97
:103070000DF10600884701460220487034E0022026
:10308000CAF804908AF89C02DAF8B80218B14268CB
:103090005046002190475046BDE8FC4704F065BB10
:1030A000DAF8B802836B7BB30DF10602504649464D
:1030B000984718E0DAF8B40282680EE0DAF8B40251
:1030C000C2680AE0DAF8B402026906E0DAF8B4028B
:1030D000426902E0DAF8B4028269AAB19AF81000F3
:1030E0000DF1060190470146BAF8B0228AB1BDF849
:1030F000060048B1904238BF02465046ADF806205F
:1031000004F026FBBDE8FC87504604F016FBBDE842
:10311000FC8701F0E5FDBDE8FC87D2F8003B23F415
:103120000013C2F8003B097901F0FE01022905D124
:1031300002F530610A6842F080520A60002180F88E
:10314000BC1401F0CDFD89E5CAF80490504604F0A6
:10315000F4FADAF8B80200283FF44DAE42689AF863
:1031600004105046904746E60CBE012008BC0120E2
:1031700004480549054AC0680968C1F38221515CC9
:10318000C840704744010020083802406BE2030841
:1031900010B590F83C400223012C2AD080F83D3035
:1031A00003685C6824F070040C439968B3F1804FA5
:1031B0005C6014D0974CA34211D0974CA3420ED020
:1031C000964CA3420BD0964CA34208D0954CA342F8
:1031D00005D0954CA34202D0944CA34203D121F0D8
:1031E0008001114399600023012180F83C3080F870
:1031F0003D10184610BD00BF2DE9FF4100284FD0FB
:10320000044690F83D00002840F09A8020685C4A0F
:10321000002184F83C10904244D05A49884254D04E
:103220005949884240F08C800025584802224FF0CE
:1032300040664FF4005C40274FF4006E4FF4806806
:103240000395416841F0010141605249406800F036
:10325000010003900398CB684F4880F835204F4A0F
:10326000C0E90855C0E906C580E8C40000F10C06B5
:1032700086E82041166826F00106166080F8345072
:1032800005681668F60735D0CA68D21A052A2A4694
:10329000F7D920214165032180F83510FFF79FFA07
:1032A00001206AE039480291016841F002010160A1
:1032B0000521006800F00200029002981D20FFF72F
:1032C000CDFB33484FF0005112E0002001902F4811
:1032D000016841F0040101600521006800F004006C
:1032E000019001981E20FFF7B9FB29484FF080415B
:1032F000016025E011682A4B19402A4B19431160DF
:10330000516921F0070151616FF00F0140F2FF3266
:1033100051FA85F125EA02025F2988BF04328265ED
:103320001823B1FBF3F120A3595C3F238B4093603A
:10333000002260624265C1650121846380F8351016
:103340000220211D84F83D00206803F017FD0120B4
:1033500084F8460084F83E0084F83F0084F840007A
:1033600084F8410084F8420084F8430084F8440063
:1033700084F8450084F83D00002004B0BDE8F081E9
:1033800000040040000800400000014040380240B6
:1033900000E100E064CD0120EC030020286402403D
:1033A0003F8010F0402C000C00061016000610168E
:1033B00090F83D1001291CBF01207047022180F8C0
:1033C0003D100068C168B0F1804F41F00101C1605B
:1033D00014D01049884211D00F4988420ED00F49AD
:1033E00088420BD00E49884208D00E49884205D049
:1033F0000D49884202D0C049884204D1816801F059
:103400000701062903D0016841F001010160002095
:10341000704700BF0004004000080040000C00405E
:10342000001800400000014000400140000401403D
:1034300010B590F83C2004460220012A62D084F89E
:103440003D0001204FF6777384F83C0020688268C5
:103450009A4382600A68C2B1102A16D0202A14D07A
:10346000302A12D0402A17D0502A1ED0602A25D0E8
:10347000B2F5005F3AD0B2F5805F3CD0702A42D1FD
:1034800001F0A7FD41F0770134E0816821F070017F
:10349000114341F007012DE001F036FC20688168FE
:1034A00041F0470121F0300124E001F02DFC2068BB
:1034B000816841F0570121F020011BE0026A22F0EF
:1034C000100202624A68C968836923F4704343EAC0
:1034D0000131036A816123F0A00141EA0211016216
:1034E000816841F0670121F0100103E001F071FDF6
:1034F00041F4804181600020002184F83C100121CA
:1035000084F83D1010BD0120F6E7000010B5044618
:103510000068016989070FD5C16889070CD56FF06C
:1035200002010161012121778169890702D100F03F
:10353000ABF82068002121770169490710D5C168DF
:1035400049070DD56FF004010161022121778169DE
:1035500011F4407F02D100F097F820680021217714
:10356000016909070FD5C16809070CD56FF008017B
:10357000016104212177C169890702D100F084F833
:103580002068002121770169C90610D5C168C906E4
:103590000DD56FF01001016108212177C16911F487
:1035A000407F02D100F070F8206800212177016986
:1035B000C90744D0C168C90741D06FF00101B0F11B
:1035C000804F016103D12C49CA680132CA602B497E
:1035D0008C4214D02A498C4231D12A4991F83220A8
:1035E000013281F83220D2B2642A11D1002281F84E
:1035F000322091F83320013281F833200AE021494A
:10360000002281F823201C49CA6B0132CA6316E0EC
:1036100091F83320D2B23C2A08D1002281F833201D
:1036200091F83420013281F8342001E091F83420FF
:10363000D2B23C2A02BF002281F834204A860169B6
:10364000090605D5C168090644BF6FF08001016114
:103650000169490605D5C168490644BF6FF04001BC
:1036600001610169890605D5C168890644BF6FF00B
:103670002001016110BD00BF64CD0120A403002022
:1036800040560120E8CC012010B55E4C0022216894
:10369000606A4A63CA6822F40072CA60FFF7A3F83E
:1036A0002068624A016A21F001010162016A016237
:1036B00040F4806191420DD1016A41F21112114230
:1036C00008D1016A40F24442114203D1416C21F415
:1036D00000414164016A41F21112114208D1016AAC
:1036E00040F24442114203D1016821F0010101601E
:1036F000012084F83E0010BD00040140F0B5414AAD
:1037000092F83E1002297CD092F83E10012978D11F
:1037100002213F4C82F83E101168536A3A4ADA643B
:103720003A4AC3E90F4293F83420012A69D00124B0
:103730009A6D83F8344093F83540012C1EBF002069
:1037400083F83400F0BD022501F1340483F83550CC
:1037500000255D651D689E68DB6D2F68402E27F48F
:1037600080272F6068602B48064608BF2646AE605B
:1037700008BF04463F20EC6098409060B1F1804F54
:10378000286840F016002860286840F0080028608B
:10379000286840F001002860C86840F40070C860E4
:1037A000086A20F001000862086A40F0010008621F
:1037B0001ED0194881421BD01848814218D01848A1
:1037C000814215D01748814212D01748814206D055
:1037D0001648814203D01648814209D00DE0486C5A
:1037E000124A40F40040486441F48060904204D1A1
:1037F000886800F00700062803D0086840F0010040
:103800000860F0BDCC1A0020BF6E0008B76E00083B
:10381000556E0008AC150020000400400008004070
:10382000000C00400018004000000140000401406E
:1038300000400140F8B5044600680268C168456967
:10384000130756D001F4907605F00105761954D08F
:10385000D60705D0CE0503D5266C46F001062664B2
:10386000560704D51DB1266C46F00206266496075D
:1038700004D51DB1266C46F004062664002B07D53E
:1038800001F020035B1903D0236C43F00803236489
:10389000236C002B00F0AF80920605D5890603D576
:1038A000204603F045FB20684169226C01F040018D
:1038B00002F00802891802BF00202064F8BD01F060
:1038C000FAFC01D02068FAE701F031F9FCD1206B55
:1038D000012802D101F0EFF8FCD101F055FD20687C
:1038E0004169490640F1878001F0DCFC3BD020684B
:1038F000FAE7930601D58B0643D4236B012B03D142
:10390000D30601D5CB0641D4130601D50B060BD443
:10391000520670D549066ED5C16821F04001C160DC
:10392000202084F83D0066E094F83D10212962D102
:10393000A168B1F5805F03D12169002900F0908072
:10394000216A4A1C226209784160E18C0139E184D4
:10395000090450D1C16821F08001C160C16841F003
:103960004001C160F8BDA06B002844D04849016502
:10397000FEF739FF00283ED0A06B016DBDE8F8408E
:1039800008472046BDE8F84003F0D2BA0021009174
:10399000016800914168009100994169490613D47A
:1039A000E18DA28DE38D33B38A4201D123E02068FB
:1039B00001F081FCFBD101F0BAF8FCD101F0E4FC8C
:1039C00001F079F8FCD116E0A16B0A68526893B255
:1039D0008BB1A58DAB420ED2E285C969B1F5807F6E
:1039E00054D050E8030F216820F4807041E80302AE
:1039F00012B12068F5E7F8BD01F099F8FCD1206814
:103A000001F050FCFBD101F0BFFC01F054F8FCD1F7
:103A1000CB4AD368A06B816D90F83550022D27D129
:103A20000568066C2F6827F016072F606F6927F06E
:103A300080076F610EB9866C1EB12E6826F00806ED
:103A40002E602E6826F001062E602E68F60712D032
:103A5000D668F61A062EF8D320214165032110E01E
:103A6000216A31F8022B6FF35F22216242606CE71A
:103A70008021416507E0C26D3F2303FA02F28A60AC
:103A8000012180F83510002180F83410E08DF8BD58
:103A9000276F000880B370B586B0044690F83D00EB
:103AA00000285DD10025142184F83C5001A8FEF7C0
:103AB00055F920686449884220D0644988424FD132
:103AC00000206349252500904A6942F010024A61AE
:103AD0004A6902F010020092009A0090086840F0D3
:103AE00001000860086800F0010000904FF4C06019
:103AF0000190009857481DE00120704754480095F8
:103B0000016941F480210161016901F48021009182
:103B1000009900952725016841F0020101600068C5
:103B200000F0020000904FF4406001900098494876
:103B300000F5806007210591032104910021039184
:103B40000221029101A9FEF76BFE28460621FEF72D
:103B500085FF05F00700012101FA00F03E490860E9
:103B6000242049F20C6684F83D002068D4E9021351
:103B7000E269C56825F40055C560056925F440551E
:103B80002B4303612369C56819436369B54319432E
:103B900011432943C1604169A36921F4407119436C
:103BA00041612E4940F4806088420AD12C4828495E
:103BB0002C4BC06851F8281CC1F34231595CC840F5
:103BC00002E0FFF7D5FAE26919216368A0FB010161
:103BD000B2F5004F10D15A00DB0FFEF730FA01F0BA
:103BE000C1FB03EBC000B0FBF1F04FF4F87101EA48
:103BF000400100F007000DE09A009B0FFEF71FFA4E
:103C000001F0B0FB03EB0010B0FBF1F000F0F001AD
:103C100000F00F0001EB0211084421688860086978
:103C200020F490400861486920F02A004861C86883
:103C300040F40050C86000202021206484F83D102A
:103C400084F83E1006B070BD0048004000100140EE
:103C5000303802400000024004E100E0001401405E
:103C6000440100206BE2030890F83E20202A1FD177
:103C7000F1B190F83C20012A1AD0002201230263FE
:103C8000C385026481622221838580F83C2080F80C
:103C90003E100168006918B1C86840F48070C860BF
:103CA000486940F001004861C86840F02000C860E1
:103CB00070470000F8B5044690F83D00202836D142
:103CC0000D46A1B394F83C00012830D000202121FA
:103CD000206484F83D101A49A284CE68E284A16869
:103CE000B1F5805F01D1216931B3002784F83C0030
:103CF000E08CB0B120468021324603F06BFAB0B9B7
:103D000025B115F8010B2168486006E037F8021B61
:103D1000206800256FF35F214160E08C0138E0846A
:103D2000E6E720464021324603F054FA00B1F8BDE0
:103D3000202084F83D00F8BD2F460025D6E700BFBF
:103D400064CD0120FEE770B501310023372472B144
:103D5000060F01F8023B04EB1075B0F1204F38BF9D
:103D600006F1300501F8035C013A0001EFE770BD90
:103D700009482A212B2201800021418041800280B4
:103D80002C224180418002804FF4163212B14180D2
:103D9000013AFBE7704700BFFEFF0F642DE9F84FC3
:103DA000DFF8648164206426C047584DF020C321A9
:103DB0004FF0380C4FF03A0A4FF0050B4FF0010E60
:103DC000102313274FF02909E0240B2225F8020CB9
:103DD0002980962125F8020C2980362125F8021C1D
:103DE000B421A5F800C025F802ACA5F800B025F86C
:103DF000021CB121A5F800E025F8021C80212980D1
:103E00002B80C02325F8023C2980C1212E80092661
:103E1000002325F8021CC2212F8025F8021CA721AF
:103E20002980C52125F8021CE8212E8025F8021CD6
:103E3000402129808A21298019212B802B80A5F8F7
:103E400000902980A52129803321298025F8024C62
:103E5000062428802C802A8007222A802C802E226B
:103E60004724A5F800B02A8029802C801724A5F8C3
:103E700000A02C8016242C8031242A802C80E12460
:103E800025F8024C0D2428802E802C8008242E80BA
:103E90002C8023242C802A80298046212C242980D0
:103EA0003221A5F800C02F802F802C8029803C2152
:103EB00025F8020C298025F8020C69202880212091
:103EC00025F8020C2B2025F8020C3F202B802B809C
:103ED000A5F800E028802A2025F8020CDF202B809E
:103EE0002B80A5F800E02880112025F8020C78200E
:103EF000C047322025F8029CC04725F8024CBDE897
:103F0000F84FFFF735BF00BF0D2800080000106410
:103F1000FEE7FEE72DE9F04F89B0DFF8F0A8DAF808
:103F20000090D9F81400C00740F0538400F0C6FF99
:103F3000014200F04E84D9F80808C0F30D20CAF8F9
:103F4000FC0400F0BBFF0840800705D5D9F8140039
:103F500000F00200C9F8140000F0B0FF09F5006895
:103F60000840C00648463FD5D9F8180020F0100098
:103F7000C9F81800D9F82050C5F3434005F00F04E4
:103F800006281AD0022848462AD147F6F07015EACA
:103F90000006484624D004EBC40035090AEB80072C
:103FA00048462A46D7F88C1204F004F8D7F88C0259
:103FB00000EB1610C7F88C0207E00AF2C44148462D
:103FC000082203F0F7FFC5F30A1504EBC4000AEB5F
:103FD0008000D0F89C122944C0F89C12DAF8000046
:103FE000816941F01001816141698269CDF80C80DD
:103FF0001140090340F1D480D0F81818D0F81C08FB
:104000000AF527784FF430674FF0000B0840040C96
:10401000002C00F0C180E00700F0B380DAF8000067
:1040200039188A68D0F8143803EA0206F20751D02A
:1040300009EB070201239360036C8A68DAF81050D9
:10404000012D21D115072BD4950641D412F0280F4C
:1040500040D1D04DAB4201D9120426D458F8042CDB
:1040600009696FF3DF41511AB7F5306FC8F80010D6
:1040700029D1DAF89422002A00F08A80DAF88C023A
:104080000844CAF88C021EE0C24D05F58075AB42AB
:104090000ED1100409D4900644BF2020886012E09D
:1040A000BC48834216D9100414D54FF4004010E0E8
:1040B000B7F5306F07D1DAF8941221B90AF2C44289
:1040C000002103F079FE5FFA8BF0FEF709FD01E0B5
:1040D0002020886030071DD509EB07000821AD4B73
:1040E0008160DAF8001078180A6C81689A420FD95A
:1040F000090444BF4FF400418160FEF76FFDDAF818
:104100001000012806D1DAF8000000F005FF01E0F8
:10411000FEF764FDF00642BF09EB07001021816045
:10412000B00721D5D9F81400000604D503994868D2
:1041300040F48060486018F81D0C012810D1002060
:1041400008F81D0CDAF80805D0F8B81241B190F85B
:104150009C22032A04D14A6A12B15FFA8BF190477C
:1041600009EB070002218160B00642BF09EB07009E
:1041700020218160B00442BF09EB07004FF40051D9
:10418000816008F12408203764080BF1010B3FE738
:104190000AF2C442012194E7DAF80000DDF80C804D
:1041A00000F037FF490340F13481D0F81818D0F8F7
:1041B0001C080026CDF81090084084B209F5106064
:1041C0000690002C00F02181E00700F01B81DAF856
:1041D0000000059406F00F077501D0F81018D0F80C
:1041E0003428FA40D201D2B2114300EB4612D2F881
:1041F0000829039B089601EA02095FEAC9716DD09C
:1042000001245A6B04FA07F122EA01015963069965
:1042100029448C60DAF8101001290ED106EBC60192
:104220000AEB8101D1E912231A44CA64DAF8541066
:10423000314302D100F070FE089EDAF808453006DE
:104240000CD000F078FB49D1D4F8B8024269002ABA
:1042500044D0F1B220469047089E3FE006EBC600EE
:104260000AEB8000C16CD4F8940202282FD1D4E963
:104270000702904205D9821A2046E26103F058FAFB
:104280001FE00ED1A16981420BD3D4F8980281427C
:1042900007D200F071FD03F04BFA0020C4F8980239
:1042A0000FE000F048FB05D1D4F8B802C16809B1AD
:1042B000204688472046802103F016FC0520C4F8DC
:1042C000940200F059FD002303F0E8FB089E94F8E7
:1042D000A002012804BF002084F8A0025FEA097050
:1042E00003D506980821284481605FEAC96003D598
:1042F0000698102128448160059C5FEA4960029776
:1043000003D506984021284481605FEA897020D552
:104310000498314603F02AFE089E06EBC6000AEB1D
:10432000800010F83F1F01290FD100210170DAF839
:104330000805D0F8B81241B190F89C22032A04D1A4
:104340000A6A12B1F1B29047089E069802212844E9
:1043500081605FEA0960DDF8109053D506EBC60076
:104360000AEB800BD84658F8540F474657F8082FE9
:10437000904247D35BF8481FDAF80030A0EB020AFE
:104380008A4588BF8A460793E9180BF1040501F5B1
:1043900010691DE00A30544FDFF87044DBF800303C
:1043A000A0EB020A2968F2B2247C00949A4588BFE7
:1043B0009A4607981FFA8AF303F016FE2868089EAB
:1043C00050442860386800EB0A02D8F800003A60D0
:1043D000D9F818300AF103019BB2B3EB910F28BF53
:1043E0009042D9D8DFF824A4DDE90494904209D89A
:1043F0000299079A01208840D2F8341821EA000077
:10440000C2F8340864080136DBE6DAF80000DDF8AB
:104410000C8000F0FEFDB1F1FF3F1BDCD8F804106A
:1044200021F00101C8F804109AF8F414012903D10D
:1044300000218AF8F41409E0DAF8081591F89C22B2
:10444000042A04BF91F89D2281F89C22416901F061
:104450000041416100F0DDFD09051ED5D8F80810C6
:10446000C90716D0DAF8081591F89C2281F89D2228
:10447000042281F89C22D0F8001E41F00101C0F80E
:10448000001EDAF8201021B1E1490A6842F0060264
:104490000A60416901F40061416100F0BAFDC9049C
:1044A00056D5D9F8041821F00101C9F804181021D3
:1044B00003F05CFDDAF80410D64B09F530604FF6D6
:1044C0007F3291B1A0F500740139A260C45824F480
:1044D0000014C4508260046824F40014046004686A
:1044E00044F0006404602030EBE7D8F81C0040F092
:1044F0000110C8F81C00DAF8300040B1D8F8840088
:1045000040F00B00C8F8840008F1440008E0D8F837
:10451000140042F22B010843C8F8140008F11000FF
:1045200001680AF2C44241F00B010160D8F80000B2
:1045300020F4FE60C8F80000DAF800009AF81010C5
:1045400003F03AFCDAF80000416901F4805141615E
:1045500000F05FFD890440F18880D0F8001940F236
:10456000FF72ADA39143C0F80019D0F8041841F4CC
:104570008071C0F80418D0F8082802F006019207EC
:10458000595CCAF80C1002D44FF4105231E0A44A1E
:10459000A44BA54CD2681344A34202D24FF47052EC
:1045A00027E0A24BA24C1344A34202D24FF4605224
:1045B0001FE0A04BA04C1344A34202D24FF4505230
:1045C00017E09E4B9E4C1344A34202D24FF440523C
:1045D0000FE09C4B9C4C1344A34202D24FF4305248
:1045E00007E09A4B9A4C1344A34280F0F5804FF4B5
:1045F0002052C36823F47053C360C3681A43012375
:10460000C2600122022903D0002940F0FD8000236E
:10461000DAF80855002185F89C222B74C5F8A412FD
:104620006960C5F89412D5F8B812D1B14A6812B1D0
:10463000284600219047284600210022402340249C
:1046400003F0D6F901262846802100224023C5F830
:104650006041A5F8646103F0CBF9DAF80000AE849C
:104660002C62416901F40051416100F0D2FC09075C
:1046700012D5DAF80815D1F8B8224AB191F89C326F
:10468000032B05D1D2691AB108469047DAF8000029
:10469000416901F00801416100F0BBFC090619D530
:1046A000D9F818000AF2A324012520F08000C9F8E7
:1046B0001800DAF8040085420AD22178012904D1D1
:1046C000E8B2FEF747FADAF8040024340135F2E7DD
:1046D000DAF8000000F09DFCC90222D5DAF80400E7
:1046E0000AF1630409F5126501260127874212D2F7
:1046F00029686278012A0AD1B1F1FF3F07DC47F04F
:1047000080002670C0B2FEF725FADAF804002035E2
:1047100024340137EAE7DAF80000416901F4801136
:10472000416100F076FC890233D5DAF8FC44DAF80E
:1047300004300AF5297109F532624FF0010C0126A7
:1047400004F001049E4220D217680D78012D12D189
:10475000B7F1FF3F0FDC07F48035A5420BD1D9F844
:10476000185045F08005C9F8185001F801CCD9F867
:1047700014502D0603D5203224310136E2E7D8F853
:10478000041041F40071C8F80410416901F40011EB
:10479000416100F03EFC490003D5416901F08041D0
:1047A000416100F036FC490713D5446861070DD517
:1047B000DAF80825012182F89C12D2F8B8322BB120
:1047C00011795B6810469847DAF800004168214388
:1047D000416009B0BDE8F08F1E4B1F4C1344A3424B
:1047E000FFF4D2AE1D4B1E4C1344A34202D24FF431
:1047F0000052FEE61B4B1C4C13444FF4C052A34224
:1048000038BF4FF4E052F4E6FDF7E9FF0CBE01209B
:1048100010ED00E000FEFFFF000F020F0F0F02007F
:1048200044010020405327FF00350C00401E1BFFB1
:1048300040420F0000DC0BFF804F1200808CF9FE1D
:1048400020D6130060B6E5FE60E3160000D3CEFE6E
:1048500040771B00C05BB3FEC091210000CA91FEEF
:1048600020753800E05459FEE09C41000A2205EB17
:104870000710406808440199FCF73EB84A4615F015
:104880009BBA4FF61F03043201EA030401F4FC61F2
:10489000034000F4FC60D20844EA014143EA0040CE
:1048A000401A504301EB50107047BDF92E00616A69
:1048B000079ABDF9303041F6FF7670472846164614
:1048C0001F46CDF84C9008F0B7B8284616461F464C
:1048D000CDF84C9008F0C4B8284608F0C1B8139839
:1048E0000AF0EFBB40420024CDF80890CDE91A0051
:1048F00028461C947047002203F0C4BB112212F01A
:1049000048BE132212F045BE4DF808ED81EA52214F
:10491000C9B218F073FA0AF808005DF808EB70479E
:1049200000EB80015020012400EB41034A00A0204D
:104930000121EF2A704794F89C0203287047ADF8D4
:104940007A100B9ABDF8A610594409B28A427047F2
:10495000BDF96C1050463A46234609F02FB80520A1
:1049600086F8FC03D6F8FC0300F007000528704722
:10497000BDF972002CB28442704701463846104798
:10498000CDF8008010F0F8B94A60910010F098BAA4
:10499000BAF8002012F0FDBD05B0BDE8F08F00228E
:1049A0000EF02EBBD8F8440051463047D8F80C0022
:1049B000484742F2D171284742F2D171884270478C
:1049C00009B21BB20190304609F060BA2A4653463C
:1049D000CDF800B010F0D0B9324603F09FBB32469C
:1049E00009F000BE324603F04DBBADF862000D98F1
:1049F0005A3000B25847002108F09ABE602212F0E7
:104A0000C8BD3046294612F0F8BC304659463A46F1
:104A1000534604F08FBA044611F006BADAF848009B
:104A200021464847DAF8480029463847DAF848006E
:104A3000D8F834400F21304729463A46434630479C
:104A40002946324643464847C82018F0E3BA46187C
:104A5000B8B2ADF8740002208DF8600070472E20C7
:104A6000FBF782BF3A460EF0CBBA013109B291FB97
:104A7000F2F1084401B230467047322212F089BD8B
:104A8000A1F1140005287047064620460021704712
:104A90008DF8A000139829460AF013BB2046FBF7B7
:104AA0007FBF2046214603F0C2BAB068006850F8C4
:104AB000250013F033BA206850E8030F216820F076
:104AC000100041E80302002A70470FFA8AF23944C5
:104AD0000BB21A9920470022686B00F13001204682
:104AE000304700216C2212F054BD0021042212F044
:104AF00050BDA06806F0A8B9384609F087BD384611
:104B000032462B4648472146CDE90B9B0A90384652
:104B100050474046294610F017BBDAF8240040F40D
:104B20000030CAF8240005208AF820007047206869
:104B300050E8050F216820F0010041E80502002A35
:104B40007047BDF96C100E9B224608F037BFBDF9C7
:104B50006C102246334608F031BFBDF96E50E01BA1
:104B6000013000B2B9F1000F70470A980F9900B2F6
:104B70000FFA81FBABEB00077047306C40F48040CC
:104B80003064306C00F4804070470024CDE91A0096
:104B90002846CDF808901C947047511A013109B28B
:104BA000081A022190FBF1F0704701462046104799
:104BB000024630460F210EF023BAADF8A480ADF8BE
:104BC0005800BDF8B000704702463846294603F049
:104BD000B7BF502018F01EBA0A5842F000620A50BF
:104BE0000A5842F080420A5042F2107270474FF465
:104BF00070214FF6FF72704708461BF002BFD9F8CC
:104C00003000D9F83C10119014917047C1F3C502DF
:104C10006FF0070101EBC2017047BDF85E00BDF8FF
:104C20006210081A01307047ADF8740002208DF848
:104C3000600014AF7047C0F808800D985A3880B2F1
:104C40005A2870470D4611F053BF686B042200F1DB
:104C5000A001204630470B980E9988427047682281
:104C600012F097BCADF86400099816F06FB85A308E
:104C700000B24847A56000203246D9F824300090A1
:104C80007047013000B290FBF1F07047DDF848B09A
:104C9000DDF820800C9C049D70470844ADF83E1060
:104CA0000138ADF842007047ADF834009BF80800B9
:104CB0008DF84400704784F8480020460FF096BDF8
:104CC000686B082200F1A80120463047079816F0CB
:104CD0003DB8A18A228B511A013109B2401A70479E
:104CE000504602F042BD304610F0D8B820F0070020
:104CF0008146406859F8081B704704461AF09CBB6F
:104D000004468068002870474B68CA68194602F05C
:104D1000F9B8DAF84800D8F834507047DAF84800A3
:104D2000D8F834407047B9F1000FADF87A50ADF8BB
:104D300076507047129F504631463A4610F046B9B9
:104D4000BDF83E00BDF84210081A0130704701441A
:104D5000ADF85A10BDF85E1008447047C9F8382005
:104D6000D9F838207047297A2C6801F07F00704705
:104D700000F0030001287047204600210022704700
:104D8000204609F02BBA204613F0B6B8204612F0A0
:104D900049BB20461AF00EBBC4E90000C4E902007A
:104DA0007047204612F030B8D8F83400FF21704721
:104DB000D8F83400B7F856107047BBF81400C94350
:104DC00046187047B9F81600B9F81A10081A0130D9
:104DD0007047069106F0F2BE284608F07DBC2846D2
:104DE00010F04AB8284608F0F5B9284610F056B831
:104DF000011BADF8E010291908445318ADF8E40080
:104E0000101BADF8E630ADF8E20070471FFA8AF0EB
:104E10004EF201027047054611F025BF002106F051
:104E20009FBE002100220024FEF7B2B9A0680068EE
:104E300050F82560F06908427047216AA26A01446F
:104E400010442162A0627047C0F34513C1F34514BA
:104E5000C1F3C425704749460090204615F0F8BFBD
:104E60002146CDE90B9B0A907047214602F08CBC8D
:104E7000A4EB0B0110FB05F001EBD030A8F8020009
:104E800006F15A0000B238472146FBF7B1BA214675
:104E9000CDF83490CDE90BB90A907047404609F03F
:104EA000A1BB404608F096B9404609F0AFBBC38CA1
:104EB000028D0446D01A05B2002D7047D9F81400AF
:104EC000D9F81810704740F00100F062F06A00F065
:104ED0000100704782EA5121C9B217F08FBF52F822
:104EE0000C1C022332F8042C009070475A3000B298
:104EF00015F02CBF4843642190FBF1F07047484304
:104F00001FFA89F1B0FBF1F288427047032213F0D7
:104F1000C2BC572212F03DBB0AF2C442012102F08A
:104F20004BBFBDF96C70BDF87040BDF97250704751
:104F30006FF30F0119447047044610F005B94FF4A0
:104F4000FA7018F067B8BDF95010279832B22346AE
:104F500008F034BD204606F003BE20464FF48031F1
:104F60007047B9F81400B9F81810BBF81820081ADF
:104F70000221013000B290FBF1F0BBF81410511A7D
:104F80006FF00102013109B291FBF2F10E18704786
:104F90002146ADF85660ADF8526010F0FEB800EB57
:104FA000800001EB80007047D8F83C00294613F0E0
:104FB0007FBF00EB80015020A022012300EB4100C5
:104FC000490090FBF2F00122EF2970471C2110F0FC
:104FD000BBB8D1E90123C9681A4342EA01218268BA
:104FE00022F47F421143816081687047707FB6F977
:104FF0001430129AA7EB090100900BEB090015F091
:1050000027BF096801EB8002526841F82020013077
:10501000704741698269114070470BEB090110FB31
:1050200005F001EBD030A8F8040030B238474DF855
:1050300008ED7F21044613F027FF2046002113F0DE
:105040001FFF20464FF6FF7113F02EFF204613F08E
:1050500028FF204613F01CFF204613F01CFF2046BB
:105060005DF808EB13F01ABF686B002200F1B00185
:1050700020463047DDF820800146424602F0D7BF87
:105080000446D0E90B204FF48061002300910021F9
:105090000FF072BE089902206FF0010291FBF0F050
:1050A0000FFA89F191FBF2F10844704720460DF0A8
:1050B000A7BF20464FF40031704720464FF48021AF
:1050C00070470022686B00F118012046304700212C
:1050D000102212F05EBAB4F92030E08BD4E9051248
:1050E0001844009030460FF047BE00EB800150207E
:1050F0004FF0FF3300EB410249006FF09F00EF29B2
:10510000704742F2D17130470144ADF85810BDF8F4
:105110005C100844BDF85A10ADF85C007047BBF84D
:105120001A10BBF81600C94308447047284612F00D
:1051300043BE0A9902206FF0010291FBF0F0099939
:1051400009B291FBF2F1704721F4C041B1F5FA6F59
:1051500070470698DDE90732AAEB07010090304658
:1051600015F076BE002084F83400012084F8350064
:105170007047B08A318B0FFA8AF2081A049901300D
:1051800001FA80F191427047014602F050BFA08AB7
:10519000BDF83810BDF83A200144ADF83810E18A66
:1051A0000A44ADF83A20BDF83C201044ADF83C006C
:1051B000BDF83E000844704702463046294603F0D9
:1051C000BFBC59463A46534630470D46064612F094
:1051D000E0B90090404608F05DBC414609F071BF5F
:1051E0003046294612F046B902EB82015200C0B2A5
:1051F000C9B2D2B21AF010BA204618F07DBD2046CE
:1052000012F00AB920464FF440317047204612F0A0
:10521000D3BDD8F83400012207F05EBB28464FF416
:1052200080317047159D22B24FF0000A15FB002215
:10523000081A0A9D0130704711440844A8F800106C
:10524000471EB5F91400A8F8047070470021162213
:1052500012F09FB90021012212F09BB905F109015A
:10526000FEF702BDF06B40F08050F063F06B00F091
:1052700080500A900A98704711919DF8561001F0DD
:10528000FE008DF856000020704700EB800001EB17
:10529000800059461AF0B8B805900598CDF81490DA
:1052A000F06A704750E8050F216820F0400041E89F
:1052B0000502002A704750E8030F216820F490701F
:1052C00041E80302002A70476FF00200BDF9585010
:1052D00005940230ADF85400704704EBD030ADF8BF
:1052E0006400704701EBD030A8F800000FFA8AF094
:1052F000384701EBD030A8F806007047686B4FF4D0
:10530000003200F1280120463047DDF82080204699
:105310002146424602F08BBEADF866000A9800B204
:1053200070472A460DF06CBE6FEA0802ADB20DF16F
:105330005008ADF87840CDF85CA0F11900FB0630BC
:1053400011444618B8B2ADF8740002208DF8600020
:1053500070470130ADF8E200BDF8E6000130ADF86D
:10536000E600704764216FF06303B0FBF1F202FBCB
:10537000030032237047D1F81C68A5403543C1F8BB
:105380001C5801EB44117047202084F83E00002097
:1053900020637047081A0FFA8AF10130884270477B
:1053A000ADF8AC10618B0144ADF8B210E18A081A77
:1053B0007047204612F0EDB8204611F00DBC1222C5
:1053C00012F0E7B8B9F81400B9F81810081A7047C5
:1053D000EFF30980BFF36F8F154B1A681EF0100FA3
:1053E00008BF20ED108A20E9F04F10602DE9090078
:1053F0004FF0500080F31188BFF34F8FBFF36F8FD2
:105400001AF0B4F84FF0000080F31188BDE80900ED
:1054100019680868B0E8F04F1EF0100F08BFB0EC34
:10542000108A80F30988BFF36F8F704700BF00BFF9
:105430004CCE012000000000000000000000000031
:10544000074B19680868B0E8F04F80F30988BFF38C
:105450006F8F4FF0000080F31188704700BF00BFCE
:105460004CCE012082B0DFF83CB2DFF834A2DFF886
:105470003882C54F8DA54FF000090BF1090001904E
:10548000C2484C300090DAF85C00082117F06AFE40
:105490000028F8D001994046FEF7E6FB7F4E4FF416
:1054A0008070306080203060FFF749FD4FF40000CD
:1054B00030604FF08070306001208BF81B00284670
:1054C000FAF796FF00269BF8060068B9FFF7C7FABF
:1054D000B6F57A7F05D24FF4967017F09BFD013632
:1054E000F1E778A0FBF746FA7D482C46804D7FA176
:1054F0000022C0E91799C0E919997AA0A847064681
:105500007CA000210122A84706407EA07FA10022A6
:10551000A847064061487E49012E1DD14FF4800204
:105520004FF0010942508B488BF81B90FBF722FA91
:1055300002208BF81B008848FBF71CFA87480125DE
:105540008BF81B90FAF754FF9BF8070080B9FFF720
:1055500086FAFFF779FAF7E74022425001208BF8EC
:105560001B006CA0FBF706FA25468BF843903AE047
:10557000BA467B487B4FB8477B48B847FFF7DFFC0C
:1055800002208BF81B007948B84779488BF81B50EC
:10559000FAF72EFF4FF000099BF8080020B9FFF73B
:1055A0005EFAFFF751FAF7E76D486E4FB84771485A
:1055B000B8473A49564A4FF40000012588506E48D2
:1055C0008BF81B50B8475746DFF8D4A0DFF8D880D7
:1055D0008BF84350012E254605D16848684917F0DD
:1055E00073FE68498860397C7869FFF7D8F9EFF372
:1055F000058000287FF447AF62480668002E3FF41C
:1056000042AF19F019FF06F10409484619F0D2FE1D
:10561000B06A18B106F1180019F0CCFE009849469E
:1056200019F0F2FE96F858004FF00009012808BF63
:1056300086F8589019F01EFFDAF8000028B119F02A
:10564000FBFE18F04BF919F015FFF86EDFF85880E3
:10565000B0427FF418AFDAF8000058B1DAF804006D
:1056600090B9F7484FF080510160BFF34F8FBFF3FF
:105670006F8F08E7F148C06CB96F88420CBFC7F85C
:105680006C9019F073FFFEE64FF0500080F3118824
:10569000BFF36F8FBFF34F8FFEE700BF18180240B4
:1056A0005CCE0120E8CC012094040020776169746D
:1056B000696E6720666F7220636F6E6E65637469D2
:1056C0006E672E000A2042433236305920436F6EF7
:1056D0006E6563746564204661696C6564210000D1
:1056E000D8CE012041542B43494D49003436300077
:1056F000D598000841542B5153434C4B203D20304A
:105700000000000041542B4353510000435351000B
:1057100000FCFFFF2A2A2A2A2A2A2A2A2A2A2A2A97
:105720002A2A2A2A2A2A2A2A2A4243323630592069
:10573000496E6974204661696C757265212A2A2A4E
:105740002A2A2A2A2A2A2A2A2A2A2A2A2A2A2A2AB9
:105750002A2A0D0058E30308B2E30308D8E403083B
:1057600029E403087509000892E30308A9E2030885
:105770001EE50308A0E3030820E30308915700088F
:10578000F00B020864CD0120E0CD012054CF0120B0
:10579000ADF55E7DDFF8A482DFF894B2A94D4FF03D
:1057A000010908F13800089008F14C000790DBF877
:1057B0005C00012117F0D6FC0746EFF3058040B3EB
:1057C000002F54AF00F01681A87B002856D09E48C9
:1057D00085F81B90FBF7CEF8FFF7B1FB0220002401
:1057E000E8769A48C8E90044C8E90244FBF7C2F8E1
:1057F000974885F81B90FAF7FBFDE87900286ED1F1
:10580000FFF72DF9FFF720F9601C1D2C0446F4D991
:10581000F0E088480468002CD2D08748C06EA042CF
:105820000FD019F009FEDBF80C906669DBF810A0C8
:1058300019F020FE4E454FF0010918BF564540F0C3
:10584000DC8019F0F9FD04F1040A504619F0B2FDAC
:10585000A06A18B104F1180019F0ACFD764EF06E94
:10586000316F0131A042316764D0B06F0138B06749
:10587000204617F009FF18F031F862E0284610F8CA
:10588000111F002900F0B480784976A87322FBF735
:105890009EFB774938468722FBF799FBAC7A002CB0
:1058A00068D07449B1F828A0C87F4B8C0A8C91F855
:1058B00033C091F81EE091F82E9091F82F6091F886
:1058C0003210CDE900A002A8CDF8149006914FF057
:1058D0000109394680E8405009A806466BE05D485A
:1058E0005D4EB0475D48B047FFF729FB022000241A
:1058F000E8765B48C8E90044C8E90244B047594823
:1059000085F81B90FAF774FD287A40B9FFF7A7F8DD
:10591000FFF79AF8601C3B2C0446F5D96AE04D4825
:10592000FBF728F85048FBF725F8FFF708FB05F1CF
:105930000E005DE00898514619F066FD706F013069
:10594000706719F097FDDBF8000000283FF438AFCE
:105950003948C06EA0427FF433AFDBF80400002862
:105960005CD137484FF080510160BFF34F8FBFF3D8
:105970006F8F25E73F484146D8468346B0F82CC094
:10598000B0F830E090F82460027F437F90F82570F3
:1059900090F826009BF82AA09BF82B90C3468846D7
:1059A0008DE84050CDE90370CDE905A909AE4FF06F
:1059B000010976A93046FAF727FD84F00100A872A4
:1059C0003046FBF74FF893AC02462BA133462046F6
:1059D000FAF71AFD02202146E87630A0FAF708FD12
:1059E0002FA0214685F81B90FAF702FD05F1110062
:1059F00000210170FFF728F8D9E60798864206D003
:105A00000898864218BF002E3FF4DAAE19E7A06A64
:105A100000287FF416AF94F8580012E74FF05000BA
:105A200080F31188BFF36F8FBFF34F8FFEE700BF86
:105A30005CCE012064CD0120E0CD012054CF0120B7
:105A400004ED00E0E8CC0120D7E20308B2E303084C
:105A5000D8E4030829E403087509000892E3030861
:105A6000A9E203081EE50308A0E303085CE50308B8
:105A7000D0E5030830D0012041542B514D545055EE
:105A8000423D302C302C302C312C2268656C6C6FF0
:105A9000222C25642C222573220D0A002573000078
:105AA00073656E642025730082B00E4D0E4E0FA4F8
:105AB000E86E17F0CFFB95F84D0001280AD195F854
:105AC0003210F06D95F8333095F83420009121466E
:105AD0000FF018F9E86E17F0DDFB012017F09AFAC5
