:020000040800F2
:1000000040EE0120250300083F3E0008713C000837
:100010003D3E0008C9210008C17900080000000029
:1000200000000000000000000000000091530008E4
:10003000392700080000000021530008C1660008AD
:100040003F0300083F0300083F0300083F03000888
:100050003F0300083F0300083F0300083F03000878
:100060003F0300083F0300083F0300083F03000868
:100070003F0300083F0300083F0300083F03000858
:100080003F0300083F0300083F0300083F03000848
:10009000CD2100083F0300083F0300083F0300088C
:1000A0003F0300083F0300083F0300083F03000828
:1000B000116700081D670008296700083F03000852
:1000C0003F0300083F0300083F0300083F03000808
:1000D0003F030008E96B00083F030008F56B0008C8
:1000E0003F0300083F0300083F0300083F030008E8
:1000F0003F0300083F0300083F0300083F030008D8
:100100003F0300083F0300083F0300083F030008C7
:100110003F0300083F0300083F0300083F030008B7
:100120003F030008D52500083F0300083F030008EF
:100130003F0300083F0300083F0300083F03000897
:100140003F0300083F0300083F030008413E00084A
:100150003F0300083F0300083F0300083F03000877
:100160003F0300083F0300083F0300083F03000867
:100170003F0300083F0300083F03000800000000A1
:100180003F0300083F03000800F002F800F0BAF84F
:100190000AA090E8000C82448344AAF10107DA45E2
:1001A00001D100F0AFF8AFF2090EBAE80F0013F07A
:1001B000010F18BFFB1A43F001031847B8DB030017
:1001C000D8DB03000A444FF0000C10F8013B13F099
:1001D000070408BF10F8014B1D1108BF10F8015BA0
:1001E000641E05D010F8016B641E01F8016BF9D193
:1001F00013F0080F1EBF10F8014BAD1C0C1B09D1EA
:100200006D1E58BF01F801CBFAD505E014F8016B5B
:1002100001F8016B6D1EF9D59142D6D370470000ED
:100220000023002400250026103A28BF78C1FBD8FF
:10023000520728BF30C148BF0B6070476E2900F0DD
:100240009C85702900F0898266291FF0D087652976
:100250001FF0CD8767291FF0CA8761291FF0C98762
:1002600003681B0A28BF41F08001692900F06481FE
:10027000642900F06181752900F05E816F2900F02A
:100280001782782900F05582E92900F0EF85E429EA
:1002900000F0EC85F52900F0E985EF2900F01482E3
:1002A000F82900F054820368DB0928BF41F080017F
:1002B000632900F0A685732900F0AB85E32900F0DF
:1002C000C985F32900F0CE85002070471FB51FF0C7
:1002D00081FF9DE8030000F099FC00F0BBFE0400E4
:1002E000002000211FF04AFF401C60600020002118
:1002F0001FF05AFFE06001F0B5FA1FBD10B501F024
:100300001AFB10BD01F052FB1146FFF7DFFF1AF098
:100310007FFB01F0E5FC03B4FFF7F0FF03BC00F046
:100320008FFE00000948804709480047FEE7FEE7C6
:10033000FEE7FEE7FEE7FEE7FEE7FEE7FEE7FEE795
:1003400004480549054A064B70470000016700084C
:100350008901000840C8012040EE012040D801205A
:1003600040D8012070B50446051F00F02FFC00683E
:10037000002C14BF446870BD002C18BFAC423CBFB9
:1003800020466468F8D301680A18AA4218BF45607D
:1003900003D12A6805461144016028684119A14229
:1003A0001CBF6C6070BD616869602168084428608A
:1003B00070BD00007CB51D4616460C00009007D0AD
:1003C0004142A14202D32044401E01E04FF0FF30E1
:1003D000064B7B442A4669460190304600F0E7FC14
:1003E000002C02D0009A002111707CBD090A000087
:1003F0000FB4044910B503AA029800F00FFD10BC19
:100400005DF814FB4C0200200FB41CB5084B06AA83
:100410007B4469460090059800F0C9FC0446002022
:10042000694600F0D7FC20461CBC5DF814FB0000B8
:10043000C10900000FB41CB50C0007AA009007D03A
:100440004142A14202D32044401E01E04FF0FF3060
:10045000074B7B4469460190069800F0A8FC0021F8
:10046000002C01D0009A11701CBC5DF814FB000038
:100470008909000070B5044685690068C10601D588
:10048000302600E02026C00707D070BDD4E9012146
:1004900030469047206A401C20626D1EF6D570BD24
:1004A00070B5044685690078C00707D170BDD4E9EE
:1004B000012120209047206A401C20626D1EF6D545
:1004C00070BD09684A0501D540B27047C905FCD521
:1004D00000B2704709684A0501D5C0B27047C90526
:1004E000FCD580B2704770B50C460546012A05D090
:1004F0002878800600D5EA69002302E0012305E0A0
:100500005B1C934202D2E05C0028F9D1A869E6188E
:10051000C01AA861286A184428622846FFF7AAFF73
:1005200004E0D5E9012114F8010B9047B442F8D357
:100530002846FFF7B5FF70BD2DE9F04106460024BF
:1005400010687529314616A510D0FFF7BAFF0028AC
:1005500002DA404213A507E031688A0701D512A5E7
:1005600002E0490704D511A5012401E0FFF7B2FF1D
:1005700000210A2206F1240709E0B0FBF2FCB0FBDF
:10058000F2F302FB1C00303078541846491C002856
:10059000F3D123462A463046BDE8F04100F094BB33
:1005A000000000002D0000002B00000020000000D3
:1005B0002DE9FF5F15468A460446DFF8AC80F84413
:1005C0000027D8E900103E46CDE9001010E03AF8C7
:1005D00016106A4602A800F0D6FC411C07D021780C
:1005E000890603D5E269391891420DD80744761C73
:1005F0002078800602D5E069B84205DDAE42E6DB30
:100600003AF816000028E2D1A069C01BA06120467C
:10061000FFF730FFD8E90010CDE90010002017E007
:100620003AF818106A4602A800F0ADFCB0F1FF3F9E
:1006300081460BD000250DF1080B05E0D4E901211E
:100640001BF8050090476D1C4D45F7D308F10100DC
:10065000B0428046E4DB206A384420622046FFF73F
:100660001FFFBDE8FF9F000036FC010030B40021F1
:1006700000F1240408E002F00705D208303542EA10
:100680004372DB086554491C52EA0305F3D1046840
:10069000002310A2250708D504F020040C4304D041
:1006A000C46901230CA2641EC46130BC00F00CBB01
:1006B00010B5044621461068FFF70CFF024620469D
:1006C000BDE810400023D1E7D21D22F00701D1E997
:1006D0000023CBE70000000030000000F0B40D461E
:1006E0000188090502D5214C7C4402E01F4C7C4462
:1006F0000E34002100F1240608E002F00F07120971
:10070000E75D42EA03721B097754491C52EA03076A
:10071000F3D102780023120704D5702D06D009B159
:10072000022311342246F0BC00F0CEBA012310346B
:10073000F8E770B504460D4621461068FFF7CAFE7B
:10074000024629462046BDE870400023C6E7D21D78
:1007500022F00703D3E90023C0E70368126843F0DF
:10076000200303600823C3610023B7E714FB0100E3
:100770002DE9F05F894604464FF0000ADFF874B1B6
:10078000FB44C0F820A02046E1688847002874D0C8
:10079000252806D0D4E901219047206A401C206218
:1007A000F1E700265F462046E16888472028054695
:1007B00007DB312D05D2781910F8200C08B106435B
:1007C000F1E7B00701D526F00406C4F81CA0002705
:1007D000C4F818A02A2D09D028461FF0C7FC38B34A
:1007E00004EB8708303DC8F8185019E059F8041B8D
:1007F000204604EB87029161E1688847012F054696
:1008000018D1E069002820DA26F020061DE0D8F88B
:10081000180000EB800005EB40003038C8F81800E5
:100820002046E168884705461FF0A0FC0028EED16D
:10083000012F0AD02E2D08D12046E16888477F1C61
:100840000546022F46F02006C4DBA069002803DA23
:10085000404246F00106A061F00701D026F01006E4
:100860006C2D0BD0682D09D04C2D39D06A2D35D088
:10087000742D35D07A2D33D016E038E0E1682F465C
:1008800020468847B842054609D16C2F26D04FF440
:100890008060E168064320468847054604E06C2FE7
:1008A0001AD04FF4807006430DB3A5F1410019280A
:1008B00002D8203546F400664A462946204626607E
:1008C0004E46FFF7BBFC80B101280BD0F61D26F089
:1008D000070000F1080956E74020E4E78020D8E748
:1008E0000020D6E706F104094DE7284652E7206AC2
:1008F000BDE8F09FA4FA01002DE9F04791460F46AC
:1009000080460446002614F8015B2DB100F056F92C
:100910000068405DC007F6D12B2D02D02D2D18D0D8
:10092000641E4A463946204600F0DEFA27B139688F
:10093000A14201D1C7F800804FF0020471050BD528
:100940004042002803DD00F045F90460A007BDE83F
:10095000F08746F48066E4E70028F8DA00F03AF918
:1009600004606FF00040F2E7014909F007BE0000A3
:100970004C02002010B5044603E009F0FFFD401CC6
:1009800009D014F8010B05490028F6D1BDE8104044
:100990000A2009F0F3BD4FF0FF3010BD4C020020DB
:1009A00030B505460B462A4613F8014B12F8010BE9
:1009B00008B1A042F8D01CB1002802D06D1CF1E7AC
:1009C000284630BD40EA010310B59B070FD1042A29
:1009D0000DD310C808C9121F9C42F8D020BA19BA0A
:1009E000884201D9012010BD4FF0FF3010BD1AB16F
:1009F000D30703D0521C07E0002010BD10F8013BC4
:100A000011F8014B1B1B07D110F8013B11F8014BEA
:100A10001B1B01D1921EF1D1184610BD40EA010303
:100A2000024630B59B0710D14FF0013400E008C2F8
:100A300008C91D1B9D4315EAC41FF8D013F0FF0120
:100A400002F8011B0DD01B0AF8E711F8013B002B3F
:100A500002F8013B05D011F8013B002B02F8013BE5
:100A6000F3D130BD10B5431C02E010F8011B71B189
:100A70008107FAD14FF0013202C88C1A8C4314EA74
:100A8000C211F9D0C01A0A0603D0C01E10BDC01A88
:100A900010BD0A0401D0801E10BD0902FCD0401E0A
:100AA00010BD40EA010370B59B072ED14FF001360F
:100AB000042A2AD308C810C99D1B9D43121F15EA9A
:100AC000C61517D0D8B2E1B2401A50EA056110D16C
:100AD00098B2A1B2401A50EA05410AD123F07F40F2
:100AE00024F07F41401A50EA052102D1180EA0EBF4
:100AF000146070BDA342DBD018BA21BA884201D974
:100B0000012070BD4FF0FF3070BD0AB9002070BDEC
:100B100010F8013B11F8014B63B1A3420AD1521EF8
:100B200008D010F8013B11F8014B1BB1A34201D1D1
:100B3000521EEDD1181B70BD30B44FF0013C50F87F
:100B4000042B51F8043BCCFA52F4D51A20D1FCB94D
:100B500050F8042B51F8043BCCFA52F4D51A17D1B3
:100B6000B4B950F8042B51F8043BCCFA52F4D51A1E
:100B70000ED16CB950F8042B51F8043BCCFA52F466
:100B8000D51A05D1002CDAD030BC4FF000007047E8
:100B900029BAB1FA81F111F01801D1F12000844095
:100BA000F2D1CA40CB4012F0FF0213F0FF0330BC79
:100BB000D01A7047704770477047000010B500F0BA
:100BC00049FA001D10BD00BFB5F50100004870478F
:100BD000FC02002000487047F40200207047704774
:100BE0007047704738B504460A4600206946AFF39F
:100BF0000080002808BF38BD02460099204600F05A
:100C000034FA012038BD012000F0C8BEF8B5AFF3BA
:100C10000080054600200C46102000BF0646A8199B
:100C2000A0420DD9324669460020AFF3008007008C
:100C300008BF00F0B3FE0098A04218BF0546C419D3
:100C4000FFF7C4FF05600746F01D20F007004619B6
:100C5000284600F003FAB44208BFF8BDA21B314693
:100C60003868BDE8F84000F000BA70B50646FFF7F6
:100C7000ADFF056806F10B0020F00704B4429CBFED
:100C8000002070BD2B466A68BAB11068A04210D32C
:100C900004F1080188423CBF5068586007D351688E
:100CA000101941601168091B016058601460101D23
:100CB00070BD13465268002AE7D121462846FFF747
:100CC00091FF0028DED170BD2DE9F0470D46994611
:100CD0009246044600F124080168880604D5E069BC
:100CE00021F01001216000E00120A84201DD471B36
:100CF00000E00027A1697A1902EB0900081AA06137
:100D00002078C00602D42046FFF7B4FB002608E096
:100D1000D4E901211AF806009047206A401C761C8D
:100D200020624E45F4DB2078C0060AD52046FFF746
:100D3000A1FB06E0D4E9012130209047206A401C45
:100D40002062381EA7F10107F4DC07E0D4E9012195
:100D500018F805009047206A401C2062281EA5F163
:100D60000105F3DC2046FFF79BFB2078000602D547
:100D70000220BDE8F0870120FBE711680268006AE5
:100D8000530501D508700AE0D30501D5088006E0B7
:100D9000130603D5C217C1E9000200E00860012074
:100DA0007047000001694A1C02610878704700B56D
:100DB0008FB0CDE901310021059105497944CDE994
:100DC000031011466846FFF7D3FC0FB000BD0000CA
:100DD000E5FFFFFF0A6802F8010B0A607047D1E9DE
:100DE00000239A4202D2531C0B601070704710B55A
:100DF000436913B1AFF3008001E0FFF774FB0120FA
:100E000010BD127800F124010A7000224A700122FC
:100E1000EDE711684FF0FF32E9E70000074B70B5CE
:100E20000D467B44FFF7C3FF0446284600F016FD3D
:100E300010B14FF0FF3070BD204670BD57970000D5
:100E400010B5436913B1AFF3008001E0FFF7B0FBC9
:100E5000012010BD128800F1240182840022C28486
:100E60000122EDE711684FF0FF32E9E72DE9F0418B
:100E70008046D21D22F007020025D2E90002F529A2
:100E800015A614D0011E72F1000106DA0023D0EB82
:100E9000030063EB020211A608E0D8F800108B07EC
:100EA00001D50FA602E0490701D50EA6012511467E
:100EB000002408F1240704E000F0F1F830323A553C
:100EC000641C50EA0102F7D12B46324621464046C7
:100ED000BDE8F041FFF7F8BE000000002D00000063
:100EE0002B000000200000002DE9F05F824615462F
:100EF0008B4600270AF10104B9460078302801D05A
:100F00009DB113E014F8010B0127782803D058286D
:100F100001D045B10AE00DB1102D07D1002714F81A
:100F2000010B102502E0082500E00A250026B04646
:100F30000EE005FB080005FB06F101271FFA80F80B
:100F400001EB1046B6F5803F00D3B94614F8010B0B
:100F5000294600F075FC0028EBDABBF1000F05D044
:100F60000FB1641E00E05446CBF80040B9F1000F09
:100F700006D0FFF72FFE02210160C81EBDE8F09FDA
:100F800048EA0640FAE72DE9F04116460C460546C8
:100F9000FFF714FE036893F80101012807D0FF2C26
:100FA00012D8185D80B101202C70BDE8F081D3F813
:100FB00007013246214603F20713C7182846BC46EC
:100FC000BDE8F041002360474FF0FF30EDE710B57A
:100FD000203AC0F00B80B1E81850A0E81850B1E8F2
:100FE0001850A0E81850203ABFF4F5AF5FEA027C31
:100FF00024BFB1E81850A0E8185044BF18C918C061
:10100000BDE810405FEA827C24BF51F8043B40F801
:10101000043B08BF7047D20728BF31F8023B48BFE6
:1010200011F8012B28BF20F8023B48BF00F8012B24
:10103000704708B569468DF800000320ABBE08BDB7
:1010400001491820ABBEFEE72600020000487047A9
:10105000F4020020004870471403002000210160C2
:10106000C0E90110704710207047034640688C4665
:10107000002818BF88423CBF03464068F8D3186870
:101080001844884207D00CF1030020F00700001D2F
:10109000411A521A0146081D0A60FFF763B930B5BC
:1010A000B0F10A0271F100034FEA900E4EEA817E20
:1010B000B0EB0E0061EB91014FEA101E4EEA017E8B
:1010C00010EB0E0041EB11114FEA102E4EEA016EAB
:1010D00010EB0E0041EB11214FEA104E4EEA014E8B
:1010E00010EB0E0041EB1141401841F100014FEAB5
:1010F000D00040EA41704FEAD1014FEA810444EA4E
:10110000907410EB800544EB01046D1944EB04046A
:10111000521BA3414FF0000348BF0A3200D530BD37
:10112000401C41F1000130BD2DE9FF4F0C461E4629
:101130004FF0FF378BB0D2E90001DDF860800A90F4
:101140008A46C1F30A5505B93D46002108464FF0CD
:101150000000BAF1000F00F4400005DA00EB800057
:101160004FF4400101EA50004FEA9059B9F1010FE4
:1011700000DDB9460A9850EA4A000ED044F61050F5
:10118000A5F2FF3545432F14B8F1000F1ED075426C
:10119000291E1EDDC9F100021CE0B8F1010F4FF05D
:1011A000000001D0302103E0F24305E02154401C4F
:1011B000B042FBDB30460022002121540B99C1F8DC
:1011C0000880C1E900200FB0BDE8F08FBD1B6D1C89
:1011D000DEE74A4600DA694206A800F04DFC06AB9D
:1011E00093E8070003AB83E8070050460A991EF016
:1011F000DDFB8DE80700A0F500501F380090039834
:10120000002D0ADD42F21F014A460844002303A9CB
:10121000039068461EF046FE09E0A0F500504A46DD
:101220001F38002303A9039068461EF050FE8DE886
:1012300007000004000C03D04FF0FF30410800E02D
:101240001046B8F1000F03D00022009215461EE0B0
:10125000751E05D4FFF723FF303262556D1EF9D598
:10126000B3460122084302D000227F1C04E020780C
:10127000302801D100227F1E002A099784D01DE06A
:10128000112D07DAFFF70BFF303262556D1C50EA63
:101290000102F5D1084302D00098C8B10EE0002148
:1012A000681E05E0235C625C63542254401E491CA6
:1012B0008142F7DBAB46A81B401E0990002004F8D2
:1012C0000B000B98099AC0F80880C0E9002B7AE758
:1012D00011264FF0000857E72DE9F04F88460446E5
:1012E000D21D22F0070191B0D1E90001CDE90A0138
:1012F0001EF024FF02460B98C00F01D02D2007E0FE
:101300002068810701D52B2002E0202101EAC000DE
:10131000032A099001D0072A05DB034641462046EF
:1013200000F06AFB0BE12078800601D5E06900E05F
:101330000620B8F1650F814606D0B8F1660F18D0C7
:10134000B8F1670F70D131E00020B9F1110F0090B2
:1013500001DB112301E009F101030AAA01A90CA88C
:10136000FFF7E2FEDDE90C70002609F10105834676
:1013700047E001204B4600904FF000470AAA01A920
:101380000CA8FFF7D1FEDDE90DB00C995D460026F3
:1013900010B909F101000D18B9EB050003D4C0F133
:1013A000FF3609F10105A5EB09002BE0B9F1010FAA
:1013B00001DA4FF001090020B9F1110F0090484601
:1013C00001DD112300E003460AAA01A90CA8FFF7DA
:1013D000ABFEDDE90C704D46002683462078000701
:1013E0000AD4AB4500DA5D4601A8012D04DD4119A0
:1013F00011F8011C302907D04F4502DA17F1040F0C
:1014000004DA012082460FE06D1EEEE7002F02DCB9
:10141000ED1B3E4403E0781CA84200DD7D1CB81B98
:1014200000F1010A4FF000472078000703D4AA45D5
:1014300001DB4FF0FF3A0021B7F1004F0DF14308F7
:101440008DF8431024D002202B23002F01DA7F4295
:101450002D230A21021EA0F1010000DC5FB197FBE1
:10146000F1FC97FBF1F201FB1C7C17460CF1300CF0
:1014700008F801CDEEE7A8F1010003702188090505
:1014800001D5452100E06521A0F1010800F8011C0B
:1014900009980FA9A1EB0807FF1D00B10120411910
:1014A00001EBEA70A1693844081A401EA061207857
:1014B000C00602D42046FEF7DDFF099828B1D4E922
:1014C00001219047206A401C20622078C00622D566
:1014D0002046FEF7CFFF1EE0002E04DBB34502DD01
:1014E00001A8805D00E03020D4E901219047206A06
:1014F000401C2062761CAAF101005FEA000A0AD1B2
:10150000FFF7A8FDC0680168405CD4E9012190475D
:10151000206A401C2062281EA5F10105DCDC07E0E2
:10152000D4E9012118F8010B9047206A401C206281
:10153000381EA7F10107F3DC2046FEF7B1FF0320B8
:1015400011B041E62DE9F04F04460D46D21D22F0C0
:10155000070089B0D0E90097484639461EF0EEFDF5
:101560000246F80F01D02D2307E02068810701D53E
:101570002B2302E0202101EAC0038DF820300BB1BB
:10158000012000E00020032A824601D0072A04DB64
:101590002946204600F030FA3FE12078800601D449
:1015A0000D2500E0E569C7F30A560D2D49DA002143
:1015B0004FEA175B08464FF00000002F00F4400090
:1015C00007DA00EB80004FF4400100EBD07001EA35
:1015D00060008115012901DD4FF0FF3100224FEA43
:1015E000850CBCF1180F06D31346ACF118004FF070
:1015F0008052C24003E04FF4801323FA0CF30CF145
:101600000C0CBCF1200F04D3ACF1200C09FA0CF047
:1016100001E007FA0CF000294FF0004801DD18B98D
:101620000FE00ED140450CD319EB02095F4121B9FF
:10163000404502D19F4329EA0209BBEB175F00D066
:10164000761C2088000502D57B48784402E07A4861
:101650007844193808AA302302F80A30037C0AF1CA
:101660000101002E0AF1020A53546A4602DC4FF0CF
:10167000300101E04FF031014FF001088DF800100A
:1016800002D0A6F2FF3603E059EA470100D06B4EC4
:10169000002D02DC2178090704D54FF002082E2125
:1016A0008DF80110C44600210BE0C7F303433F014E
:1016B000C35C491C6D1E02F80830052908F10108B9
:1016C00001DA002DF1DC00210CE000EB1973491C5C
:1016D0001B786D1E082902F808304FEA091908F135
:1016E000010801DA002DF0DC21688B0602D516E036
:1016F000A8F10108E04505DD02EB080313F8013C01
:10170000302BF5D0B8F1000F09DD02EB080313F818
:10171000013C2E2B03D1090701D4A8F10108002DAB
:1017200005DD3E2102F808106D1E08F10108407C1D
:10173000002E02F8080008F1010804DA2D20764294
:1017400002F8080002E02B2002F808000A214FF4FA
:101750007A70864208F101080BDB96FBF0F3303318
:1017600002F8083096FBF0F308F1010800FB13665D
:1017700001E0642E0CDB642096FBF0F3303302F8BA
:10178000083096FBF0F308F1010800FB136601E056
:101790000A2E06DB96FBF1F0303002F8080008F163
:1017A000010896FBF1F001FB1060303002F80800F0
:1017B000A16908F1010808EB050202EB0A00081A0A
:1017C000A0612078C00602D42046FEF753FE216AAD
:1017D00008AE01EB0A00206204E0D4E9012116F80A
:1017E000010B9047BAF1010AF7D22078C00602D562
:1017F0002046FEF73FFE6E4609E016F8010B3E2834
:101800000FD0D4E901219047206A401C2062B8F132
:101810000108F2D22046FEF743FE09B00320BDE8DE
:10182000F08F206A2844206203E0D4E901213020AF
:1018300090476D1EEBD3F8E7FEEB010002FCFFFFC3
:101840003A2800D2303820F02002412A01D3A2F1F8
:101850003700884201D34FF0FF307047007B00F023
:101860008000704710B54248542100F077FA414893
:10187000542100F073FA4048542100F06FFA3F49B8
:101880003B483C4A3F4B08603D490A603A49196071
:10189000531C0365481C1065012008653B48344A09
:1018A00039A1784400F07EF920B9384878440A38E4
:1018B00000F024FA37482F4A35A1784400F072F935
:1018C00020B9344878440A3800F018FA32482A4AD5
:1018D0002FA1784400F066F920B92F4878440A38DF
:1018E00000F00CFA40232248DC000021224600F0E0
:1018F00035F920B125487844543800F0FFF91D48E7
:1019000022464023002100F029F920B121487844E3
:10191000543800F0F3F9184822461023002100F053
:101920001DF9002806D01C487844BDE81040563800
:1019300000F0E4B910BD104870B5006D20F001044E
:101940000B4800F0A7F90B4800F0A4F90A4800F092
:10195000A1F909E0206D20F00105204600F09AF978
:101960002046FEF7FFFC2C46002CF3D170BD000092
:10197000F80100204C020020A002002000000020FE
:10198000040000200800002072000000B2C0030024
:1019900077000000A1C0030091C0030010B500F063
:1019A000B5F9BDE8104000F0A4B970477546FFF7DF
:1019B0004DFBAE4605006946534620F007008546BC
:1019C00018B020B5FEF7BCFCBDE820404FF0000683
:1019D0004FF000074FF000084FF0000BAC46ACE8AA
:1019E000C009ACE8C009ACE8C009ACE8C00921F006
:1019F00007018D46704700002DE9F0411F4604465F
:101A000003260168072A01F4006004DB08B116A56B
:101A100005E016A503E008B115A500E015A521F025
:101A200010002060A069C01EA0610FB1401EA0611F
:101A30002046FEF71FFD4FB1D4E9012138469047FB
:101A4000206A401C2062C01C206206E0206AFAE77F
:101A5000D4E9012115F8010B9047761EF8D22046F3
:101A6000FEF71EFDBDE8F0814E414E006E616E0036
:101A7000494E4600696E66002DE9F04781461646DC
:101A80008AB0354878440DC88DE80D003248784456
:101A9000801C03AC0DC884E80D0041F69B3008445F
:101AA000372190FBF1F290FBF1F5A5F1800501FBE8
:101AB00012041B3C02D56442012000E00020DFF844
:101AC00098A080460027FA44AAF1BE0A0EE0E0077B
:101AD0000AD03246684607EB470101230AEB810131
:101AE0001EF0F5F98DE8070064107F1C002CEED184
:101AF000194F7F44AE3F19E0E80715D007EB0410FB
:101B00000DF1180A90E80E008AE80E00C068F04255
:101B100001D1981908903246012306A903A81EF0A6
:101B2000D6F903AB83E807006D10641C002DE3D1E8
:101B30004FF0010332466946B8F1000F03A802D006
:101B40001EF0B0F901E01EF0C2F9C9E90001C9F8C0
:101B500008200AB0BDE8F08754E8010070B5C468F9
:101B6000A50713D0650211D4B2F5807F09D0B2F574
:101B7000007F06D0B2F5806F08D1012300F1240167
:101B800006E05D1E6FF07F46B54201D3012070BDB7
:101B90000161C361416024F470611143C1600020A0
:101BA00070BD00002DE9F0410C461646070047D0F5
:101BB000104600F06FF82078611C61280AD0722866
:101BC00002D077283CD102E00125002405E002255F
:101BD000042402E0082448F2020511F8010B2B2826
:101BE00006D0622809D011F8010C74280AD00BE045
:101BF00045F0030544F00204EFE745F0040544F026
:101C00000104EAE744F010043846214606F020FFBC
:101C1000411C15D00021316171604FF40071F560F5
:101C2000F1617061200704D530460222002100F0E6
:101C3000BDF8306D40F0010030653046BDE8F08100
:101C40000020FBE72DE9F0410D460646104C206DC3
:101C5000C10704D0410804D020F00104F7E7224670
:101C60000EE05420FFF701F807000ED0206D47F07A
:101C70000101084354212065384600F06FF83A46C8
:101C800029463046BDE8F0418CE70020D6E7000049
:101C9000F80100202DE9F04704464FF000094FF00D
:101CA000FF37C568D4E90486A80707D0204600F0AE
:101CB0002DF9304606F0BAFE002802DA3846BDE8B3
:101CC000F087280502D54046FEF74CFB4C21204604
:101CD00000F044F8206D20F0010020654846EEE752
:101CE00010B50446AFF300802046BDE81040FEF773
:101CF00012BB002801D0FFF7A3B9704710B500F060
:101D000063F9BDE81040FFF7F4BF000010B50128EB
:101D100005D0002103A000F03DF9012010BD09A16C
:101D2000F8E7000053494752544D454D3A204F754E
:101D300074206F662068656170206D656D6F7279C3
:101D4000000000003A2048656170206D656D6F727B
:101D50007920636F72727570746564004FF00002D1
:101D600000B5134694469646203922BFA0E80C5091
:101D7000A0E80C50B1F12001BFF4F7AF090728BF6C
:101D8000A0E80C5048BF0CC05DF804EB890028BFE8
:101D900040F8042B08BF704748BF20F8022B11F011
:101DA000804F18BF00F8012B704700002DE9F0416B
:101DB000044616460D464769007B80072ED03846FC
:101DC00006F03EFE50BB3EB3012E02D0022E25D1BE
:101DD00004E0204600F012F905441DE038460020DA
:101DE00000BFE168002841F01001E16005DA2046FB
:101DF00000F058F80120BDE8F081C9030BD56268F6
:101E0000E16A914200D81146A26911442269891AF7
:101E1000814200DD08460544002D01DA0220EAE790
:101E2000E16A6068E268814206D29103E06203D50C
:101E300022F4003141F01002A6690027AE4213DC03
:101E4000E16A814201D90B4600E0034603EB060C30
:101E50002369ACEB030CAC4506DD814201D98C460D
:101E600000E084469C4505D1A760276042F0200031
:101E7000A5620DE0AD1BE669AE1B8142A66000D9EC
:101E80000846C01A281A20605819606022F0200005
:101E900003490840E060002084F84870ABE7000088
:101EA000BFCFD7FFC16821F4001141F08001C160AC
:101EB00000218160016070472DE9F047814614469A
:101EC0000E464FF0FF383248D5685769054209D0B1
:101ED0003846A1694FF0FF30002811DB2C48C04381
:101EE0000540E5602B4632464946384606F0DCFDA3
:101EF000A16920F00042B21A11440028A16103D068
:101F00002046FFF7CFFF4046BDE8F08770B5044696
:101F10000569C06A6168884200D80846E16821F412
:101F20002011E160C90312D5A84208D02246411B06
:101F30002846FFF7C1FF10B14FF0FF3070BD002001
:101F4000E562C4E90150E06820F48030E0600020E0
:101F500070BD10B50446C06820F02000E060A16AA2
:101F6000A06988420DD02046FFF7D0FFE06820F43A
:101F7000405040F01000E060A06AA0612069E0627B
:101F8000606044F24001E0688843E06010BD0000FA
:101F90001000020070B505460C460A2000E06D1CDA
:101FA000FFF747F835B128780028F8D102E0641C23
:101FB000FFF73FF814B120780028F8D1BDE8704051
:101FC0000A20FFF736B8000010B5014602A0FFF75F
:101FD000E1FF012010BD00005349475254524544CF
:101FE0003A2052656469726563743A2063616E27B2
:101FF00074206F70656E3A200000000010B5014635
:10200000C268900703D0900607D5886A0AE0FEF7F9
:10201000E1FD01210160881E10BD8B6948681844EC
:102020000B69C01A91F848301BB191F84910401A59
:1020300010BD1103FCD50028FADD401E10BD53EA87
:10204000020C00F069802DE9F04B4FF00006002BE8
:102050001FBFB3FA83F503FA05F424FA05F65E40D0
:1020600012BF1643B2FA82F502FA05F4C5F1200553
:102070001EBF22FA05FC44EA0C04203556EA044C43
:102080004FEA144418BF641C4FF000084FF00009D9
:10209000904271EB030C39D3002919BFB1FA81F7D3
:1020A00001FA07F6B0FA80F700FA07F6C7F1200741
:1020B0001EBF20FA07FC46EA0C062037B6FBF4FCEC
:1020C000A7EB0507103F07F01F0BCBF120062CFAFA
:1020D00006F60CFA0BFB44BFB3460026202FA4BF24
:1020E0005E464FF0000B5BEA060C08BF4FF0010B99
:1020F00019EB0B0948EB0608ABFB027C06FB02CC94
:102100000BFB03CCC01B71EB0C01C1E70B46024675
:1021100041464846BDE8F08B13B5084318BF4FF061
:10212000FF300146AFF30080BDE81C407047032A32
:1021300040F2308010F0030C00F0158011F8013BE4
:10214000BCF1020F624498BF11F801CB00F8013BCB
:1021500038BF11F8013BA2F1040298BF00F801CB8F
:1021600038BF00F8013B11F003033EF430AF083AEA
:10217000C0F0088051F8043B083A51F804CBA0E8BD
:102180000810F5E7121D5CBF51F8043B40F8043B12
:10219000AFF30080D20724BF11F8013B11F801CB47
:1021A00048BF11F8012B24BF00F8013B00F801CB18
:1021B00048BF00F8012B704702F0FF0343EA0322F7
:1021C00042EA0242FFF7CCBDFEE700002DE9F04FE6
:1021D00085B0DFF8F082D8F8000046694768826869
:1021E000C168D0F810908469F30701D100252EE072
:1021F000D3070CD001238360930708D453075ABF39
:102200004FF4805303EA42254FF4006500E00025B7
:10221000D3050CD54FF480738360930507D4530521
:102220005ABF02F4006345EAC30505F50055D30320
:102230000DD54FF480338360930308D453034FBF0D
:1022400005F500454FF4803303EAD2021544320706
:1022500005D5CA0642BF1022C26045F40075720758
:1022600003D5090744BF0821C160B10740F1B98017
:10227000C168890700F0B58098F82010013901295C
:102280000DD8C16889070DD0D0F8B021D0F8B011B1
:10229000049452070ED44B0D8B490B600CE04FF4A5
:1022A000802001E04FF40010D8F824100843C8F84B
:1022B000240096E084490B68D0F8B011D0F8B4112E
:1022C000D0F8B411D0F8B411D0F8B8110291D0F808
:1022D000B841D0F8B8A1D0F8B8C1D0F8BC1101917C
:1022E000240A4FEA1A4AD0F8BC11D0F8BCB1D0F891
:1022F000BC210392D0F80CE04EF02002C260AF4A3D
:10230000002082F842004FF48070A2F840000A0AD0
:1023100040F213214FEA1C604FEA1B4C8B421FD046
:10232000039993464FEA116E40F212218B422BD053
:10233000224640F21121049C8B4245D16349C8706A
:10234000029881F802A04A7008705FFA8CF040EAA7
:102350000E20C8800198C0B240EA0B20888033E08C
:102360005A498A73029A81F80FC081F80AA00A724A
:10237000A4F128024A72019A40EA02200A2280B29D
:10238000B0FBF2F088811EE0504B3238AEF13201E2
:10239000D874AAF13200D975ACF132019874019861
:1023A00099754B4900F0FE0040EA0B2080B201EB2A
:1023B00050009882029800F0FE0040EA042080B2AB
:1023C00001EB50001882049C7F480F21006D1AF029
:1023D00093FBDFF8F0BE9BF8370010B101208BF8BB
:1023E0000F00700648BF5FEAC9603DD4B00648BF21
:1023F0005FEA09703FD4F00602D5D8F80000006902
:10240000B00305D5F80603D5D8F8000010214160C7
:10241000F00305D5380703D5D8F80000082141603E
:10242000300445D578073FD5C6F30021F0050231C9
:102430002140B20558BF04EAD07104F004007205CF
:1024400048BF01440D4330052ED514F070002BD049
:1024500010380009052821D8DFE800F0031215180C
:102460001B1E45F0080519E0D8F80000102145F4BE
:1024700080650161BAE7D8F8000008210161BAE778
:1024800045F010050AE045F0200507E045F040055D
:1024900004E045F0800501E045F48075D8F80000BF
:1024A000816921F070018161D8F800000421416048
:1024B00025B1D8F824002843C8F8240005B0BDE8A9
:1024C000F08F00BFECC70120D4C4012094C70120C5
:1024D000F0D8FFFF21290ED0202918D111680D4B0B
:1024E00043F8301003EBC00011790171517941714B
:1024F000917981710BE0074951F8303001EBC00050
:1025000013600179117141795171807990710020C6
:10251000704700BF40C001200020704728494FF499
:10252000077210FB0211034A02EBC010C1F804024B
:1025300000207047C0BF0120F8B58F4E0D46012125
:1025400014464FF407720027402386F842101C49B6
:10255000A6F8407010FB02111A4A3044C1F8045228
:10256000117C002908BF4FF4007390F83B1010460F
:102570002A4604F06FFF96F8430001280AD1124F53
:102580000721386D1AF0B8FA96F843007F6D0028DD
:1025900008BF07460D480022C11923689A4203D29A
:1025A000AB5C8B540132F8E7F91800224254012049
:1025B00086F84300044841650020F8BD58C4012056
:1025C00088BA0120A4BC0120CCC5012048C001204C
:1025D00000207047F8B50020554C564A082100905D
:1025E000D4E91660D5683768814039420CD022683A
:1025F00013685B0708D5136823F004031360B16008
:10260000616D41F00101616501218140394208D0CD
:1026100022685269120604D5B160616D41F0020171
:10262000616504218140394208D02268126892070E
:1026300004D5B160616D41F004016165102101FABA
:1026400000F23A4218D021680B681B0714D5B2601B
:102650000B680A685B0306D4D20506D40A6822F028
:1026600008020A6001E0110301D4216C00E0A16CB2
:1026700011B120468847E06D202101FA00F23A426C
:1026800034D021680B68DB0630D5B26094F8353061
:102690000A68052B16D122F016020A604A6922F058
:1026A00080024A61226CA36C1A4303D00A6822F0AC
:1026B00008020A603F2101FA00F0B06002F0EBFC72
:1026C000216D2FE00868520308D4C0050AD40868B9
:1026D00020F01000086002F0DEFC03E0000301D4EB
:1026E000616C00E0E16B09B111488847606DF0B1A1
:1026F000606DC00715D005214FF4165084F83510D1
:10270000B5FBF0F021680A6822F001020A60009A25
:1027100001328242009202D80A68D207F7D102F051
:10272000BAFCE16C19B10248BDE8F8400847F8BDB1
:10273000EC030020440100207047EFF3108072B6D4
:10274000FEE790F83510022909D1052180F83510EF
:102750000068016821F001010160002070478021BC
:102760004165012070470000924901308A6F8B6FEC
:102770009B1A8342FBD3704758C401202DE9FC4FBC
:10278000614A08244FF0010B4FF0000A4FF0000E91
:1027900090425E4A08BF072402444FEAB223072B47
:1027A00038BF4FEAB22400940022102A08BFBDE8C7
:1027B000FC8F0B680BFA02F6334200F09E804F68E4
:1027C00007F00309A9F10103012B14D8032384683E
:1027D000CD6803FA0EF39C4305FA0EF56FEA030881
:1027E00073462C438460C7F3001445689440B54396
:1027F0002C4344600BE04FF0030CB9F1030F0CFACB
:102800000EF36FEA030801D1734622E05300C46857
:102810008D6804EA08049D402C43B9F1020FC4609E
:1028200016D10AF01C040F2505FA04FC6FF003050D
:1028300005EA520707443D6A25EA0C0C0D6905FAC2
:1028400004F444EA0C043C624F6807F0030C00E017
:10285000CC4604680CFA03F304EA0804234317F493
:10286000403F036049D000232B4C294F22F0030541
:1028700001932368BC463D4443F4804323602368AE
:102880000F2403F4804301930AF00C03019F9C4042
:10289000224FB846EF5927EA0404009F07FA03F3D2
:1028A000234345F80830DCF808304D6843EA060455
:1028B000EF0258BF23EA0604164BCCF80840AF02DB
:1028C00098461B6843EA060458BF23EA0604C8F882
:1028D0000040AF03DCF8043043EA060458BF23EAA3
:1028E0000604CCF80440ED03DCF8003043EA0604AB
:1028F00058BF23EA0604CCF800400AF1040A0EF19E
:10290000020E013251E700BF001C02400000FEBF72
:10291000003C01400C3C01404438024008FCFFFFF1
:102920007CB5044600251F480195816B41F00101EB
:102930008163816B01F001010191019901680168D6
:1029400006680168D0F8F80300F0C0FB164916F4D9
:10295000E0564FF0804340F2E7328D6118BF012608
:10296000B040C1E902520D61104EB0FBF6F00138E3
:10297000C1E90030084600F0EDFB00B17CBD0A481B
:1029800000F0AEFC0028F9D109484FF080510F2C1F
:102990000160F3D81C200F2100F00EF8054801213A
:1029A00001717CBD083802404C04002040420F00F9
:1029B00000E100E058C4012010B500F00F03104CF6
:1029C0000E4A043B23440C33B0F1FF3FC8BF8318C9
:1029D00020684FF0FF34C0F30220C21E80F00700D1
:1029E00038BF0022042828BF042004FA00F021EA9E
:1029F000000090400001187010BD00BF00E400E02E
:102A00000CED00E070B5436A99B1846A0139CDB22A
:102A100003EB144300F5827425B140CC013D03EB78
:102A20001643F9E700EB810043EA0241C0F80411C4
:102A300070BD43EA0241816270BD000010B50146DD
:102A40003C48D0F8084551B101F026FF21D1D4F817
:102A5000B8028269EAB12046BDE81040104701EB98
:102A6000C10100EB8100D0F88C22D4F89402032835
:102A70000FD1D4E9570398420CD9C01A9842C4F830
:102A80005C0138BF034620460021BDE8104004F039
:102A9000E1BC10BD01F000FF05D1D4F8B802016916
:102AA00009B1204688472046BDE8104004F039BBF4
:102AB00081B0204A00231168009300F00F03000644
:102AC00003EBC30302EB830303F13C0258BF03F59E
:102AD0001F725078012815D101F510601178490155
:102AE0004258B2F1FF3F22DC734602F017F89E46CF
:102AF000009B01330093009B934218D80B58002B86
:102B0000F6D414E001F53060117849014258B2F171
:102B1000FF3F0CDC734602F001F89E46009B013338
:102B20000093009B934202D80B58002BF6D401B0BF
:102B3000704700BF7CB501202DE9FC47DFF88425F4
:102B4000D2F808A592F8C4548AF8AA520AF2AA2820
:102B500092F8C5348AF8AB3292F8C69492F8C774EA
:102B600049EA0720AAF8AC0292F8C81492F8C944BE
:102B700041EA04260124AAF8AE62B2F8CA24AAF8EF
:102B8000B022CAF89822CAF8944205F01F04022C19
:102B90000AD0012C19D0B4BB15F060013DD04029FA
:102BA0000AD0202908D09BE115F0600458D0402CB1
:102BB00002D0202C40F09481DAF8B80241468268B5
:102BC000504602B0BDE8F047104715F0600018BF4E
:102BD00040281FD19AF89C020138022800F2808117
:102BE00011F0F00F40F07C81DAF8B80241468268BB
:102BF00050469047BAF8B012002940F03A820028B7
:102C000000F0F78135E205F080015046BDE8FC4751
:102C100004F046BC2028DDD062E1092B00F260817F
:102C2000DFE813F00A0055005E0160005E016700F6
:102C300099005E01AF00BD009AF89C02013802289D
:102C400000F24E81022A40F04B81DAF8A4020322FE
:102C50005146002808BF012241F80C2F5046F3E0EE
:102C600063B1012B22D0032B40F03A819AF89C32B9
:102C7000032B00F0B980022B20D031E19AF89C029E
:102C8000032800F0BE80022840F02A81480640F068
:102C9000278101F07F00090600EB80000AEB80002D
:102CA00000F1140258BF00F5AA72C9E09AF89C22FC
:102CB000032A00F0CB80022A40F01281480600F07F
:102CC0000F81504604F0ECFB504680219EE79AF8B5
:102CD0009C120139022900F20381012840F0C981C8
:102CE000002003E0012840F0C4810120CAF8A402BA
:102CF0007FE1002E40F0F480002A40F0F1807F2830
:102D000000F2EE809AF89C02032800F0E980DAF8DD
:102D100010038AF89E9290F8BC14012913D080F811
:102D200038900168D1F8002822F4FE62C1F800282A
:102D3000002280F8BC2409F07F00D1F8002842EA84
:102D40000010C1F8000802F02FF8B9F1000F00F0F0
:102D50003781022035E10020ADF80600781E0628F4
:102D600000F28081DFE810F00700C100C9007E0199
:102D70007E01D600E200DAF8B4129AF810000A6870
:102D80005CE1012A40F0AC809AF89C02411E0229C5
:102D900080F09B800020514641F8080F99E0CA4D11
:102DA00019F0FE0F85F8009040F09A809AF89C0286
:102DB000032800F0DB80022840F0F780B9F1000F13
:102DC00000F01781DAF8B802CAF80490002800F081
:102DD00087800268504649469047002840F080802E
:102DE00001F0E2FF0320ECE0002840F002814806F9
:102DF00000F0FF80002A40F0FC80504604F050FBB9
:102E0000F7E001F00F0211F0800002EB82020AEB02
:102E1000820214BF928CB2F86421002A60D001F0C3
:102E20007F03002841F0800103EB83020AEB820458
:102E300004F1140208BF04F5AA72802940F08480CE
:102E40000020106050461146022244E0002840F065
:102E50001081480600F02381DAF8100301F00F0218
:102E600043689A4200F21B81090602EBC20100EBA3
:102E700081015DBF002381F87D3201F51F710123BF
:102E800044BF81F83D303C3100230A708B7090F8CC
:102E9000BC34012B00F0038101234C7880F8BC3452
:102EA0000368012C03EB421240F0E580D2F80039B0
:102EB00023F40013C2F80039097901F0FE01022958
:102EC00040F0EA8002F51061E2E0032808D10AF13F
:102ED00004015046012202B0BDE8F04704F014B9E5
:102EE0005046BDE8FC4704F004B99AF81010DAF82F
:102EF000B802002969D0C16A68E0B9F1050F00F293
:102F00007D80DFE809F00385898D9195DAF8B402B8
:102F1000426890E09AF81000002840F0A380DAF8A8
:102F2000B802416B0DF1060088478AE09AF810005C
:102F3000002840F09780DAF8B802016B0DF1060026
:102F400088470146072046E003EBC301DAF8103357
:102F5000002803EB810101F13E0308BF01F27E234B
:102F6000187800283FF46CAF01206AE7B9F1000F30
:102F700033D0DAF8040048453BD0DAF8B81200291B
:102F800000F090804A68C1B250469047DAF8B80223
:102F900029780028CAF8041000F08680026850469C
:102FA0009047002840F0808023E0504604F0A1F8CC
:102FB000DAF8B80200285CD042685046494600E67C
:102FC00001208AF89C02BDE8FC87816A0DF10600A9
:102FD000884701460220487034E00220CAF8049075
:102FE0008AF89C02DAF8B80218B14268504600210B
:102FF00090475046BDE8FC4704F093B8DAF8B802B1
:10300000836B7BB30DF1060250464946984718E0A2
:10301000DAF8B40282680EE0DAF8B402C2680AE0B4
:10302000DAF8B402026906E0DAF8B402426902E0B2
:10303000DAF8B4028269AAB19AF810000DF106011B
:1030400090470146BAF8B0228AB1BDF8060048B1EF
:10305000904238BF02465046ADF8062004F054F8BE
:10306000BDE8FC87504604F044F8BDE8FC8701F059
:103070009BFEBDE8FC87D2F8003B23F40013C2F8A6
:10308000003B097901F0FE01022905D102F530610A
:103090000A6842F080520A60002180F8BC1401F0F6
:1030A00083FE89E5CAF80490504604F022F8DAF865
:1030B000B80200283FF44DAE42689AF8041050461A
:1030C000904746E67CB5012078B3012004480549C5
:1030D000054AC0680968C1F38221515CC840704745
:1030E00044010020083802406FD9030810B590F859
:1030F0003C400223012C2AD080F83D3003685C68F4
:1031000024F070040C439968B3F1804F5C6014D0D4
:103110008C4CA34211D08C4CA3420ED08B4CA342BA
:103120000BD08B4CA34208D08A4CA34205D08A4CCA
:10313000A34202D0894CA34203D121F08001114364
:1031400099600023012180F83C3080F83D1018463A
:1031500010BD00BF2DE9FF4100284FD0044690F874
:103160003D00002840F09A802068514A002184F8F0
:103170003C10904244D04F49884254D04E49884236
:1031800040F08C8000254D4802224FF040664FF4FD
:10319000005C40274FF4006E4FF48068039541684F
:1031A00041F0010141604749406800F0010003908F
:1031B00003988B6F444880F83520444AC0E908558D
:1031C000C0E906C580E8C40000F10C0686E820418D
:1031D000166826F00106166080F8345005681668F7
:1031E000F60735D08A6FD21A052A2A46F7D9202148
:1031F0004165032180F83510FFF79FFA012053E065
:103200002E480291016841F0020101600521006829
:1032100000F00200029002981D20FFF7CDFB284825
:103220004FF0005112E0002001902448016841F065
:10323000040101600521006800F00400019001987C
:103240001E20FFF7B9FB1E484FF08041016025E0CA
:1032500011681F4B19401F4B19431160516921F030
:10326000070151616FF00F0140F2FF3251FA85F111
:1032700025EA02025F2988BF043282651823B1FB68
:10328000F3F115A3595C3F238B40936000226062E9
:103290004265C1650121846380F8351001F0B4FAFC
:1032A000012001F0A4FF002004B0BDE8F08100BFC0
:1032B0000004004000080040000001404038024087
:1032C00000E100E058C40120EC0300202864024023
:1032D0003F8010F0402C000C00061016000610165F
:1032E00090F83D1001291CBF01207047022180F891
:1032F0003D100068C168B0F1804F41F00101C1602C
:1033000014D01049884211D00F4988420ED00F497D
:1033100088420BD00E49884208D00E49884205D019
:103320000D49884202D0BF49884204D1816801F02A
:103330000701062903D0016841F001010160002066
:10334000704700BF0004004000080040000C00402F
:10335000001800400000014000400140000401400E
:1033600010B590F83C2004460220012A62D084F86F
:103370003D0001204FF6777384F83C002068826896
:103380009A4382600A68C2B1102A16D0202A14D04B
:10339000302A12D0402A17D0502A1ED0602A25D0B9
:1033A000B2F5005F3AD0B2F5805F3CD0702A42D1CE
:1033B00001F0A8FD41F0770134E0816821F070014F
:1033C000114341F007012DE001F06AFC206881689B
:1033D00041F0470121F0300124E001F061FC206858
:1033E000816841F0570121F020011BE0026A22F0C0
:1033F000100202624A68C968836923F4704343EA91
:103400000131036A816123F0A00141EA02110162E6
:10341000816841F0670121F0100103E001F072FDC5
:1034200041F4804181600020002184F83C1001219A
:1034300084F83D1010BD0120F6E7000010B50446E9
:103440000068016989070FD5C16889070CD56FF03D
:1034500002010161012121778169890702D100F010
:10346000A9F82068002121770169490710D5C168B2
:1034700049070DD56FF004010161022121778169AF
:1034800011F4407F02D100F095F8206800212177E7
:10349000016909070FD5C16809070CD56FF008014C
:1034A000016104212177C169890702D100F082F806
:1034B0002068002121770169C90610D5C168C906B5
:1034C0000DD56FF01001016108212177C16911F458
:1034D000407F02D100F06EF8206800212177016959
:1034E000C90743D0C168C90740D06FF00101B0F1EE
:1034F000804F016103D12B498A6F01328A672A49C3
:103500008C4214D029498C4230D1264991F826208A
:10351000013281F82620D2B2642A10D1002281F82B
:10352000262091F82720013281F8272009E01D4943
:103530000022CA751E49CA6A0132CA6216E091F8B1
:103540002720D2B23C2A08D1002281F8272091F806
:103550002820013281F8282001E091F82820D2B2F9
:103560003C2A02BF002281F82820CA84016909068A
:1035700005D5C168090644BF6FF08001016101698A
:10358000490605D5C168490644BF6FF04001016195
:103590000169890605D5C168890644BF6FF020011D
:1035A000016110BD58C40120A4030020B0550120C2
:1035B000D4C4012010B55E4C00222168606A4A63C1
:1035C000CA6822F40072CA60FFF7BBF82068624A3A
:1035D000016A21F001010162016A016240F4806127
:1035E00091420DD1016A41F21112114208D1016AD2
:1035F00040F24442114203D1416C21F40041416444
:10360000016A41F21112114208D1016A40F24442AA
:10361000114203D1016821F001010160012084F809
:103620003E0010BD00040140F0B5414A92F83E1042
:1036300002297CD092F83E10012978D102213F4C1A
:1036400082F83E101168536A3A4ADA643A4AC3E98A
:103650000F4293F83420012A69D001249A6D83F82F
:10366000344093F83540012C1EBF002083F834000D
:10367000F0BD022501F1340483F8355000255D6565
:103680001D689E68DB6D2F68402E27F480272F6011
:1036900068602B48064608BF2646AE6008BF044651
:1036A0003F20EC6098409060B1F1804F286840F076
:1036B00016002860286840F008002860286840F05C
:1036C00001002860C86840F40070C860086A20F0F3
:1036D00001000862086A40F0010008621ED0194823
:1036E00081421BD01848814218D01848814215D019
:1036F0001748814212D01748814206D016488142AD
:1037000003D01648814209D00DE0486C124A40F4BB
:103710000040486441F48060904204D1886800F021
:103720000700062803D0086840F001000860F0BDDB
:103730003C1A0020776800086F6800080D680008D0
:103740001C1500200004004000080040000C004050
:10375000001800400000014000040140004001400A
:10376000F8B5044600680268C1684569130756D079
:1037700001F4907605F00105761954D0D60705D0EE
:10378000CE0503D5266C46F001062664560704D5FF
:103790001DB1266C46F002062664960704D51DB1BD
:1037A000266C46F004062664002B07D501F02003A2
:1037B0005B1903D0236C43F008032364236C002BB4
:1037C00000F0AF80920605D5890603D5204603F0A8
:1037D0008BF820684169226C01F0400102F0080278
:1037E000891802BF00202064F8BD01F039FD01D026
:1037F0002068FAE701F073F9FCD1206B012802D1AF
:1038000001F02EF9FCD101F03DFD20684169490627
:1038100040F1878001F01BFD3BD02068FAE793065A
:1038200001D58B0643D4236B012B03D1D30601D5DD
:10383000CB0641D4130601D50B060BD4520670D526
:1038400049066ED5C16821F04001C160202084F88E
:103850003D0066E094F83D10212962D1A168B1F5E0
:10386000805F03D12169002900F09080216A4A1C01
:10387000226209784160E18C0139E184090450D168
:10388000C16821F08001C160C16841F04001C160A0
:10389000F8BDA06B002844D048490165FEF751FFF0
:1038A00000283ED0A06B016DBDE8F84008472046D7
:1038B000BDE8F84003F018B80021009101680091BC
:1038C0004168009100994169490613D4E18DA28DA8
:1038D000E38D33B38A4201D123E0206801F0C0FCBC
:1038E000FBD101F0FCF8FCD101F0CCFC01F0B8F800
:1038F000FCD116E0A16B0A68526893B28BB1A58D1A
:10390000AB420ED2E285C969B1F5807F54D050E850
:10391000030F216820F4807041E8030212B120688F
:10392000F5E7F8BD01F0DBF8FCD1206801F08FFC71
:10393000FBD101F0A7FC01F093F8FCD1A06BCB4ABE
:10394000816D936F90F83550022D27D10568066C74
:103950002F6827F016072F606F6927F080076F61C7
:103960000EB9866C1EB12E6826F008062E602E68F1
:1039700026F001062E602E68F60712D0966FF61A12
:10398000062EF8D320214165032110E0216A31F889
:10399000022B6FF35F22216242606CE78021416558
:1039A00007E0C26D3F2303FA02F28A60012180F82A
:1039B0003510002180F83410E08DF8BDDF68000874
:1039C00080B370B586B0044690F83D0000285DD104
:1039D0000025142184F83C5001A8FEF7BFF92068A7
:1039E0006449884220D0644988424FD1002063490D
:1039F000252500904A6942F010024A614A6902F0A6
:103A000010020092009A0090086840F001000860DF
:103A1000086800F0010000904FF4C0600190009829
:103A200057481DE00120704754480095016941F452
:103A300080210161016901F48021009100990095C4
:103A40002725016841F002010160006800F00200D2
:103A500000904FF4406001900098494800F5806064
:103A60000721059103210491002103910221029174
:103A700001A9FEF783FE28460621FEF79DFF05F00B
:103A80000700012101FA00F03E490860242049F2B4
:103A90000C6684F83D002068D4E90213E269C56829
:103AA00025F40055C560056925F440552B43036195
:103AB0002369C56819436369B54319431143294311
:103AC000C1604169A36921F44071194341612E49E4
:103AD00040F4806088420AD12C4828492C4BC068A9
:103AE00051F8281CC1F34231595CC84002E0FFF78D
:103AF000EDFAE26919216368A0FB0101B2F5004FFC
:103B000010D15A00DB0FFEF79AFA01F0FEFB03EB2F
:103B1000C000B0FBF1F04FF4F87101EA400100F091
:103B200007000DE09A009B0FFEF789FA01F0EDFB0C
:103B300003EB0010B0FBF1F000F0F00100F00F001B
:103B400001EB0211084421688860086920F4904064
:103B50000861486920F02A004861C86840F40050B4
:103B6000C86000202021206484F83D1084F83E10B5
:103B700006B070BD004800400010014030380240DF
:103B80000000024004E100E0001401404401002074
:103B90006FD9030890F83E20202A1FD1F1B190F888
:103BA0003C20012A1AD0002201230263C38502644B
:103BB00081622221838580F83C2080F83E100168D4
:103BC000006918B1C86840F48070C860486940F066
:103BD00001004861C86840F02000C86070470000DC
:103BE000F8B5044690F83D00202836D10D46A1B323
:103BF00094F83C00012830D000202121206484F872
:103C00003D101A49A2848E6FE284A168B1F5805FED
:103C100001D1216931B3002784F83C00E08CB0B1B8
:103C200020468021324602F0B1FFB0B925B115F827
:103C3000010B2168486006E037F8021B2068002568
:103C40006FF35F214160E08C0138E084E6E72046B5
:103C50004021324602F09AFF00B1F8BD202084F8DE
:103C60003D00F8BD2F460025D6E700BF58C401200F
:103C7000FEE770B501310023372472B1060F01F859
:103C8000023B04EB1075B0F1204F38BF06F1300550
:103C900001F8035C013A0001EFE770BD09482A21F1
:103CA0002B22018000214180418002802C22418012
:103CB000418002804FF4163212B14180013AFBE795
:103CC000704700BFFEFF0F642DE9F84FDFF86481F5
:103CD00064206426C047584DF020C3214FF0380CB3
:103CE0004FF03A0A4FF0050B4FF0010E1023132747
:103CF0004FF02909E0240B2225F8020C2980962197
:103D000025F8020C2980362125F8021CB421A5F8DB
:103D100000C025F802ACA5F800B025F8021CB121BE
:103D2000A5F800E025F8021C802129802B80C02303
:103D300025F8023C2980C1212E800926002325F880
:103D4000021CC2212F8025F8021CA7212980C52131
:103D500025F8021CE8212E8025F8021C402129802C
:103D60008A21298019212B802B80A5F80090298099
:103D7000A52129803321298025F8024C062428809A
:103D80002C802A8007222A802C802E224724A5F806
:103D900000B02A8029802C801724A5F800A02C8050
:103DA00016242C8031242A802C80E12425F8024C12
:103DB0000D2428802E802C8008242E802C80232403
:103DC0002C802A80298046212C2429803221A5F8A4
:103DD00000C02F802F802C8029803C2125F8020CE8
:103DE000298025F8020C69202880212025F8020C62
:103DF0002B2025F8020C3F202B802B80A5F800E01B
:103E000028802A2025F8020CDF202B802B80A5F8A3
:103E100000E02880112025F8020C7820C0473220CD
:103E200025F8029CC04725F8024CBDE8F84FFFF783
:103E300035BF00BF6927000800001064FEE7FEE7F9
:103E40002DE9F04F89B0DFF8F0A8DAF80090D9F842
:103E50001400C00740F0538400F06BFE014200F0F4
:103E60004E84D9F80808C0F30D20CAF8FC0400F00D
:103E700060FE0840800705D5D9F8140000F0020064
:103E8000C9F8140000F055FE09F500680840C006A6
:103E900048463FD5D9F8180020F01000C9F818009E
:103EA000D9F82050C5F3434005F00F0406281AD076
:103EB000022848462AD147F6F07015EA000648461F
:103EC00024D004EBC40035090AEB800748462A4693
:103ED000D7F88C1203F04AFDD7F88C0200EB1610CD
:103EE000C7F88C0207E00AF2C4414846082203F0F2
:103EF0003DFDC5F30A1504EBC4000AEB8000D0F8C1
:103F00009C122944C0F89C12DAF80000816941F043
:103F10001001816141698269CDF80C80114009036B
:103F200040F1D480D0F81818D0F81C080AF527788A
:103F30004FF430674FF0000B0840040C002C00F0E9
:103F4000C180E00700F0B380DAF8000039188A6811
:103F5000D0F8143803EA0206F20751D009EB070241
:103F600001239360036C8A68DAF81050012D21D187
:103F700015072BD4950641D412F0280F40D1D04D0F
:103F8000AB4201D9120426D458F8042C09696FF306
:103F9000DF41511AB7F5306FC8F8001029D1DAF8AF
:103FA0009422002A00F08A80DAF88C020844CAF8C9
:103FB0008C021EE0C24D05F58075AB420ED1100497
:103FC00009D4900644BF2020886012E0BC48834298
:103FD00016D9100414D54FF4004010E0B7F5306F37
:103FE00007D1DAF8941221B90AF2C442002103F091
:103FF000BFFB5FFA8BF0FEF721FD01E02020886017
:1040000030071DD509EB07000821AD4B8160DAF8B8
:10401000001078180A6C81689A420FD9090444BFCD
:104020004FF400418160FEF787FDDAF810000128A7
:1040300006D1DAF8000000F04DFD01E0FEF77CFD4E
:10404000F00642BF09EB070010218160B00721D5BF
:10405000D9F81400000604D50399486840F480603C
:10406000486018F81D0C012810D1002008F81D0C1C
:10407000DAF80805D0F8B81241B190F89C22032A6A
:1040800004D14A6A12B15FFA8BF1904709EB07003D
:1040900002218160B00642BF09EB07002021816048
:1040A000B00442BF09EB07004FF40051816008F1F2
:1040B0002408203764080BF1010B3FE70AF2C442E1
:1040C000012194E7DAF80000DDF80C8000F009FF28
:1040D000490340F13481D0F81818D0F81C080026A4
:1040E000CDF81090084084B209F510600690002CBD
:1040F00000F02181E00700F01B81DAF80000059450
:1041000006F00F077501D0F81018D0F83428FA40DF
:10411000D201D2B2114300EB4612D2F80829039B18
:10412000089601EA02095FEAC9716DD001245A6B51
:1041300004FA07F122EA01015963069929448C60C7
:10414000DAF8101001290ED106EBC6010AEB810145
:10415000D1E912231A44CA64DAF85410314302D167
:1041600000F0B8FC089EDAF8084530060CD000F0E4
:1041700093FB49D1D4F8B8024269002A44D0F1B285
:1041800020469047089E3FE006EBC6000AEB800001
:10419000C16CD4F8940202282FD1D4E907029042CE
:1041A00005D9821A2046E26102F09EFF1FE00ED17F
:1041B000A16981420BD3D4F89802814207D200F062
:1041C000D9FD02F091FF0020C4F898020FE000F042
:1041D00063FB05D1D4F8B802C16809B1204688470D
:1041E0002046802103F05CF90520C4F8940200F019
:1041F000C1FD002303F02EF9089E94F8A0020128C7
:1042000004BF002084F8A0025FEA097003D5069875
:104210000821284481605FEAC96003D5069810210F
:1042200028448160059C5FEA4960029703D506989F
:104230004021284481605FEA897020D50498314686
:1042400003F070FB089E06EBC6000AEB800010F836
:104250003F1F01290FD100210170DAF80805D0F8BD
:10426000B81241B190F89C22032A04D10A6A12B113
:10427000F1B29047089E06980221284481605FEAC7
:104280000960DDF8109053D506EBC6000AEB800BF1
:10429000D84658F8540F474657F8082F904247D34E
:1042A0005BF8481FDAF80030A0EB020A8A4588BFA5
:1042B0008A460793E9180BF1040501F510691DE022
:1042C0000A30544FDFF87044DBF80030A0EB020AEC
:1042D0002968F2B2247C00949A4588BF9A460798D0
:1042E0001FFA8AF303F05CFB2868089E504428609C
:1042F000386800EB0A02D8F800003A60D9F81830A4
:104300000AF103019BB2B3EB910F28BF9042D9D8B9
:10431000DFF824A4DDE90494904209D80299079AB1
:1043200001208840D2F8341821EA0000C2F834088D
:1043300064080136DBE6DAF80000DDF80C8000F0F6
:10434000D0FDB1F1FF3F1BDCD8F8041021F00101D2
:10435000C8F804109AF8F414012903D100218AF84E
:10436000F41409E0DAF8081591F89C22042A04BF35
:1043700091F89D2281F89C22416901F00041416140
:1043800000F0AFFD09051ED5D8F80810C90716D0F2
:10439000DAF8081591F89C2281F89D22042281F810
:1043A0009C22D0F8001E41F00101C0F8001EDAF88E
:1043B000201021B1E1490A6842F006020A60416911
:1043C00001F40061416100F08CFDC90456D5D9F8B3
:1043D000041821F00101C9F80418102103F0A2FA11
:1043E000DAF80410D64B09F530604FF67F3291B100
:1043F000A0F500740139A260C45824F40014C4501C
:104400008260046824F400140460046844F00064CA
:1044100004602030EBE7D8F81C0040F00110C8F829
:104420001C00DAF8300040B1D8F8840040F00B00EE
:10443000C8F8840008F1440008E0D8F8140042F2FB
:104440002B010843C8F8140008F1100001680AF2B3
:10445000C44241F00B010160D8F8000020F4FE6076
:10446000C8F80000DAF800009AF8101003F080F99C
:10447000DAF80000416901F48051416100F031FD3A
:10448000890440F18880D0F8001940F2FF72ADA392
:104490009143C0F80019D0F8041841F48071C0F8B5
:1044A0000418D0F8082802F006019207595CCAF8EF
:1044B0000C1002D44FF4105231E0A44AA44BA54C86
:1044C000D2681344A34202D24FF4705227E0A24BA9
:1044D000A24C1344A34202D24FF460521FE0A04BFF
:1044E000A04C1344A34202D24FF4505217E09E4B0B
:1044F0009E4C1344A34202D24FF440520FE09C4B17
:104500009C4C1344A34202D24FF4305207E09A4B22
:104510009A4C1344A34280F0F5804FF42052C368B4
:1045200023F47053C360C3681A430123C26001229D
:10453000022903D0002940F0FD800023DAF8085555
:10454000002185F89C222B74C5F8A4126960C5F877
:104550009412D5F8B812D1B14A6812B12846002198
:1045600090472846002100224023402402F01CFFEF
:1045700001262846802100224023C5F86041A5F885
:10458000646102F011FFDAF80000AE842C62416928
:1045900001F40051416100F0A4FC090712D5DAF8DA
:1045A0000815D1F8B8224AB191F89C32032B05D1F5
:1045B000D2691AB108469047DAF80000416901F063
:1045C0000801416100F08DFC090619D5D9F81800E1
:1045D0000AF2A324012520F08000C9F81800DAF8B7
:1045E000040085420AD22178012904D1E8B2FEF7FD
:1045F0005FFADAF8040024340135F2E7DAF8000053
:1046000000F06FFCC90222D5DAF804000AF1630455
:1046100009F5126501260127874212D229686278BE
:10462000012A0AD1B1F1FF3F07DC47F08000267074
:10463000C0B2FEF73DFADAF8040020352434013721
:10464000EAE7DAF80000416901F48011416100F005
:1046500048FC890233D5DAF8FC44DAF804300AF56C
:10466000297109F532624FF0010C012604F00104B2
:104670009E4220D217680D78012D12D1B7F1FF3F6D
:104680000FDC07F48035A5420BD1D9F8185045F05E
:104690008005C9F8185001F801CCD9F814502D063E
:1046A00003D5203224310136E2E7D8F8041041F472
:1046B0000071C8F80410416901F40011416100F073
:1046C00010FC490003D5416901F08041416100F0CF
:1046D00008FC490713D5446861070DD5DAF80825A9
:1046E000012182F89C12D2F8B8322BB111795B68A3
:1046F00010469847DAF8000041682143416009B04C
:10470000BDE8F08F1E4B1F4C1344A342FFF4D2AE02
:104710001D4B1E4C1344A34202D24FF40052FEE63E
:104720001B4B1C4C13444FF4C052A34238BF4FF4F0
:10473000E052F4E6FEF701F87CB5012010ED00E050
:1047400000FEFFFF000F020F0F0F020044010020C8
:10475000405327FF00350C00401E1BFF40420F0056
:1047600000DC0BFF804F1200808CF9FE20D6130076
:1047700060B6E5FE60E3160000D3CEFE40771B0076
:10478000C05BB3FEC091210000CA91FE20753800C5
:10479000E05459FEE09C41000A2204EB05104068F9
:1047A00008440099FCF7A8B84A4614F0DBBF05900E
:1047B0000598CDF81490F86A7047D1F81C68A540A8
:1047C0003543C1F81C5801EB44117047081A0FFA21
:1047D0008AF1013088427047ADF8AC10618B01441A
:1047E000ADF8B210E18A081A7047122212F0A7BB86
:1047F000204612F0A4BB204611F0C4BEB9F8140044
:10480000B9F81810081A70470220211D84F83D00DD
:10481000206801F08FBFBDF92E00616A079ABDF9CB
:10482000303041F6FF76704713980AF020B94FF602
:104830001F03043201EA030401F4FC61034000F4A5
:10484000FC60D20844EA014143EA0040401A504368
:1048500001EB50107047002203F0F0B840420024F2
:10486000CDF80890CDE91A0028461C947047CDE990
:104870000B690E9003200D907047112212F05FBB60
:10488000132212F05CBB052087F8FC03D7F8FC0369
:1048900000F007000528704794F89C020328704731
:1048A0004DF808ED81EA5221C9B217F0F7FF0AF876
:1048B00008005DF808EB7047BDF96C100E9B2246AE
:1048C00008F052BDBDF96C102246334608F04CBDCD
:1048D00000EB80015020012400EB41034A00A0209E
:1048E0000121EF2A7047BDF96E50E01B013000B284
:1048F000B9F1000F7047511A013109B2081A0221AB
:1049000090FBF1F070474FF6FF711047CDF8008033
:104910000FF008BF42F2D1718842704742F2D17164
:10492000384709B21BB20190304608F085BFBAF88B
:10493000002012F004BB044610F04CBF2A46534638
:10494000CDF800B00FF0EEBE00220EF02FB83246C8
:1049500009F01EBB324603F071B8324603F0BAB814
:10496000ADF862000D985A3000B25847602212F03C
:10497000E6BA013109B291FBF2F1084401B23046C6
:104980007047064620460021704750FA84F008EB35
:10499000C000FEF749BEDAF8400021464847DAF881
:1049A000400029463847002108F098BBDAF840005B
:1049B000D8F824400F213047A06805F01BBFC8205D
:1049C00018F076B82E20FBF7CFBF3A460DF0EEBFB9
:1049D000322212F0B4BAA1F11400052870478DF804
:1049E000A000139829460AF042B8384632462B46B2
:1049F0004847384609F0E0BA4618B8B2ADF8740036
:104A000002208DF8600070472046214602F0EBBF7F
:104A10002046FBF7C5BFB068006850F8250012F0CB
:104A200053BF0022686A00F13001204630470FFA78
:104A30008AF239440BB21A99204700216C2212F0F5
:104A40007EBA0021042212F07ABA01463846104795
:104A50004046294610F04EB84A6091000FF006BF5C
:104A6000206850E8030F216820F0100041E803029D
:104A7000002A7047294632464346484729463A4667
:104A800043463047304659463A46534603F02EBF18
:104A90003046294612F087B930460FF0D5BE0A9845
:104AA0000F9900B20FFA81FBABEB00077047386C2F
:104AB00040F480403864386C00F480407047002433
:104AC000CDE91A002846CDF808901C94704757226B
:104AD00012F035BA0AF2C442012102F049BE206840
:104AE00050E8050F216820F0010041E80502002A86
:104AF0007047BDF96C70BDF87040BDF972507047D9
:104B00006FF30F0119447047069106F02DBDADF803
:104B1000A480ADF85800BDF8B00070470A5842F0C4
:104B200000620A500A5842F080420A5042F2107263
:104B30007047D9F81400D9F8181070474FF4702155
:104B40004FF6FF727047032213F07BBBA560002075
:104B50003246D9F82430009070470844ADF83E1032
:104B60000138ADF842007047129F504631463A4630
:104B70000FF002BF2146FBF73BBC214602F0E0BA32
:104B8000216AA26A014410442162A0627047D9F8E8
:104B90003000D9F83C10119014917047C1F3C50250
:104BA0006FF0070101EBC2017047BDF85E00BDF870
:104BB0006210081A0130704704461AF091B9044691
:104BC000806800287047ADF8740002208DF86000FE
:104BD00014AF7047C0F808800D985A3880B25A2830
:104BE0007047686A042200F1A0012046304768221D
:104BF00012F0A5B90B980E9988427047284607F025
:104C0000BFBF28460FF00EBE284608F03BBA284624
:104C10000FF01ABE013000B290FBF1F070470D4664
:104C200011F03CBCADF86400099815F05DBD5A3038
:104C300000B24847B9F1000FADF87A50ADF87650A0
:104C40007047686A082200F1A80120463047DDF865
:104C500048B0DDF820800C9C049D7047079815F043
:104C600043BDADF834009BF808008DF84400704750
:104C700084F8480020460FF08FBAA18A228B511A7F
:104C8000013109B2401A7047C9F83820D9F83820E4
:104C9000704720F007008146406859F8081B7047AC
:104CA0004B68CA68194601F009BEDAF84000D8F826
:104CB00024507047DAF84000D8F824407047024684
:104CC0003846294603F018BC49460090204615F0A6
:104CD0008DBDA068006850F82560F06908427047F3
:104CE000BDF83E00BDF84210081A0130704701447B
:104CF000ADF85A10BDF85E1008447047D8F824008B
:104D000040F48020C8F824007047D8F82400FF2120
:104D10007047D8F82400B7F84A107047297A2C68F1
:104D200001F07F00704700F003000128704705463E
:104D300011F06FBCC4E90000C4E902007047BBF881
:104D40001400C94346187047B9F81600B9F81A108C
:104D5000081A0130704720461AF080B8204612F039
:104D600037B8204611F026BD204608F00DBF20467A
:104D700012F098BD20460021002270470E910321B9
:104D8000CDE90C0102200B9070471FFA8AF04EF219
:104D9000010270472146ADF85660ADF852600FF041
:104DA000D2BE002106F0B2BB504602F0BAB90146AD
:104DB00020461047C0F34513C1F34514C1F3C42581
:104DC0007047404607F0DCBE404609F0F5B8404663
:104DD00009F0DEB840F00100F862F86A00F0010066
:104DE000704748431FFA89F1B0FBF1F288427047DF
:104DF0004843642190FBF1F07047011BADF8E010CF
:104E0000291908445318ADF8E400101BADF8E6303A
:104E1000ADF8E2007047C38C028D0446D01A05B28B
:104E2000002D704782EA5121C9B217F037BD024602
:104E300030460F210DF0BABD52F80C1C022332F897
:104E4000042C00907047502017F032BE04460FF03B
:104E500051BEA4EB0B0110FB05F001EBD030A8F81C
:104E6000020006F15A0000B238475A3000B215F07D
:104E70003BBCC6F10C0206FB07F002EB82015200BC
:104E8000C0B2C9B2D2B21AF01DB94FF4FA7017F01D
:104E90000FBEB9F81400B9F81810BBF81820081A9A
:104EA0000221013000B290FBF1F0BBF81410511A4E
:104EB0006FF00102013109B291FBF2F10E18704757
:104EC000BDF95010279832B2234608F04DBA20465B
:104ED0004FF480317047204606F018BB1C210FF0BC
:104EE00009BE416982691140704700EB8001502082
:104EF000A022012300EB4100490090FBF2F00122C7
:104F0000EF297047D1E90123C9681A4342EA012118
:104F1000826822F47F421143816081687047707F0C
:104F2000B6F91430129AA7EB090100900BEB0900B7
:104F300015F05CBC096801EB8002526841F8202042
:104F400001307047B4F92030E08BD4E905121844E1
:104F5000009030460FF0E6BB4DF808ED7F21044687
:104F600013F068FC2046002113F060FC20464FF649
:104F7000FF7113F06FFC204613F069FC204613F01C
:104F80005DFC204613F05DFC20465DF808EB13F055
:104F90005BBC686A002200F1B0012046304704463D
:104FA000D0E90B204FF480610023009100210FF025
:104FB000B9BB0BEB090110FB05F001EBD030A8F8F1
:104FC000040030B23847DDF820800146424602F046
:104FD0000ABD089902206FF0010291FBF0F00FFA70
:104FE00089F191FBF2F10844704720464FF480218B
:104FF000704720460DF0DABC20464FF40031704770
:105000000022686A00F11801204630470021102272
:1050100011F095BF6FEA0802ADB20DF15008ADF87E
:105020007840CDF85CA0F11900FB06301144461819
:10503000B8B2ADF8740002208DF86000704700EB44
:10504000800001EB800070470144ADF85810BDF8B6
:105050005C100844BDF85A10ADF85C007047BBF80E
:105060001A10BBF81600C943084470470A99022079
:105070006FF0010291FBF0F0099909B291FBF2F196
:10508000704721F4C041B1F5FA6F70472946CDE968
:105090000B9A0A907047002084F83400012084F8AD
:1050A000350070470698DDE90732AAEB070100904A
:1050B000304615F09BBBB08A318B0FFA8AF2081A82
:1050C0000499013001FA80F191427047414609F09C
:1050D000CEBC00EB800150204FF0FF3300EB4102CB
:1050E00049006FF09F00EF2970470090404608F09C
:1050F000A7B9284612F036BB28464FF480317047D6
:105100000D46064611F01BBFD8F8240040F40030CD
:10511000C8F82400052088F820007047204611F0C8
:1051200051BE204618F03ABB20464FF4403170473C
:1051300011440844A8F80010471EB5F91400A8F857
:105140000470704759463A4653463047A08ABDF826
:105150003810BDF83A200144ADF83810E18A0A440D
:10516000ADF83A20BDF83C201044ADF83C00BDF845
:105170003E0008447047159D22B24FF0000A15FB0F
:105180000022081A0A9D013070470021012211F007
:10519000D6BE0021162211F0D2BE014602F023BC79
:1051A0003046294611F03CBE05F10901FEF7F2BC7C
:1051B00002463046294603F09FB9F86B40F0805014
:1051C000F863F86B00F080500A900A987047ADF8C9
:1051D0007A100B9ABDF8A610594409B28A4270475A
:1051E000BDF96C1050463A46234608F0BDB884F825
:1051F000460084F83E0084F83F0084F8400084F8BC
:10520000410084F8420084F8430084F8440084F8A4
:10521000450084F83D007047BDF972002CB284420D
:105220007047686A4FF4003200F128012046304789
:1052300011919DF8561001F0FE008DF856000020E7
:10524000704742F2D171104705B0BDE8F08F50E8C9
:10525000050F216820F0400041E80502002A704750
:1052600050E8030F216820F4907041E80302002AFF
:1052700070476FF00200BDF9585005940230ADF848
:1052800054007047202084F83E00002020637047BF
:1052900004EBD030ADF864007047204612F062BADB
:1052A000284607F0B3B8284616461F46CDF84C905E
:1052B00007F0ACB8284616461F46CDF84C9007F0CC
:1052C00091B80130ADF8E200BDF8E6000130ADF86C
:1052D000E60070472A460DF069BB01EBD030A8F814
:1052E00000000FFA8AF0384701EBD030A8F806002A
:1052F0007047DDF8208020462146424602F073BB0D
:10530000ADF866000A9800B2704764216FF063033D
:10531000B0FBF1F202FB03003223704700000000F3
:10532000EFF30980BFF36F8F154B1A681EF0100F53
:1053300008BF20ED108A20E9F04F10602DE9090028
:105340004FF0500080F31188BFF34F8FBFF36F8F82
:1053500019F062FE4FF0000080F31188BDE80900EB
:1053600019680868B0E8F04F1EF0100F08BFB0ECE5
:10537000108A80F30988BFF36F8F704700BF00BFAA
:10538000B0C5012000000000000000000000000087
:10539000074B19680868B0E8F04F80F30988BFF33D
:1053A0006F8F4FF0000080F31188704700BF00BF7F
:1053B000B0C5012082B0DFF834B2DFF82CA2DFF8EC
:1053C0003082C24F8BA54FF000090BF1090001900C
:1053D000BF484C300090DAF85000082117F012FC5A
:1053E0000028F8D001994046FEF7D4FB7D4E4FF4DB
:1053F0008070306080203060FFF747FD4FF4000080
:1054000030604FF08070306001208BF8100028462B
:10541000FAF7EEFF00269BF8060068B9FFF7D2FA0C
:10542000B6F57A7F05D24FF4967017F041FB01363E
:10543000F1E776A0FBF79EFA7B482C467E4D7DA1D6
:105440000022C0E91599C0E9179978A0A847064637
:105450007AA000210122A84706407CA07DA100225D
:10546000A84706405F487C49012E1DD14FF48002B9
:105470004FF00109425089488BF81090FBF77AFAF7
:1054800002208BF810008648FBF774FA8548012546
:105490008BF81090FAF7ACFF9BF8070080B9FFF784
:1054A00091FAFFF78CFAF7E74022425001208BF87F
:1054B00010006AA0FBF75EFA25468BF837903AE0B9
:1054C000BA467948794FB8477948B847FFF7DDFCC5
:1054D00002208BF810007748B84777488BF81050B7
:1054E000FAF786FF4FF000099BF8080020B9FFF794
:1054F00069FAFFF764FAF7E76B486C4FB8476F48F3
:10550000B8473849544A4FF40000012588506C4888
:105510008BF81050B8475746DFF8CCA0DFF8D080A2
:105520008BF83750012E254605D16648664917F09D
:105530001BFCCBF874003979B868FFF705FAEFF374
:10554000058000287FF447AFDBF86C60002E3FF445
:1055500042AF19F0C5FC06F10409484619F07EFC7B
:10556000B06A18B106F1180019F078FC00984946A5
:1055700019F09EFC96F858004FF00009012808BF6A
:1055800086F8589019F0CAFC386F28B119F0A8FCB9
:1055900017F0EEFE19F0C2FC386EDFF85480B0420E
:1055A0007FF419AF386F50B1786F90B9F7484FF06A
:1055B00080510160BFF34F8FBFF36F8F0BE7F2484D
:1055C000C06CF96E88420CBFC7F8609019F024FDDA
:1055D00001E74FF0500080F31188BFF36F8FBFF3E6
:1055E0004F8FFEE718180240CCC5012058C4012097
:1055F0009404002077616974696E6720666F722079
:10560000636F6E6E656374696E672E000A20424395
:105610003236305920436F6E6E6563746564204680
:1056200061696C656421000044C6012041542B432C
:10563000494D4900343630008192000841542B51C5
:1056400053434C4B203D20300000000041542B437D
:10565000535100004353510000FCFFFF2A2A2A2A1D
:105660002A2A2A2A2A2A2A2A2A2A2A2A2A2A2A2A9A
:105670002A42433236305920496E697420466169A6
:105680006C757265212A2A2A2A2A2A2A2A2A2A2A73
:105690002A2A2A2A2A2A2A2A2A2A0D005CDA030818
:1056A000B6DA0308E9DB03082DDB030875090008F7
:1056B00096DA0308ADD9030838DC0308A4DA030836
:1056C00024DA0308D5560008F402020850C5012068
:1056D000B8C60120ADF55E7DDFF8AC82A74DDFF8DE
:1056E000A092DFF8A0B208F13800089008F14C0051
:1056F0000790286D012117F085FA0746EFF3058022
:1057000060B3002F54AF00F01B8199F80E00002801
:105710005DD09F48012689F81060FBF72BF9FFF751
:10572000B4FB0220002489F810009A48C8E900441C
:10573000C8E90244FBF71EF9974889F81060FAF7A8
:1057400057FE99F8070000286FD1FFF73BF9FFF7E4
:1057500036F9601C1D2C0446F3D9F1E0D9F86C40F1
:10576000002CCED0DBF86000A0420FD019F0B8FBBF
:105770008248056881486669D0F804A019F0CEFB1C
:10578000AE427E4D18BF564540F0DD8019F0A8FBB3
:1057900004F1040A504619F061FBA06A18B104F143
:1057A000180019F05BFBDBF86000DBF864100131D6
:1057B000A042CBF8641066D0DBF86C000138CBF85F
:1057C0006C00204617F0AAFC17F0D2FD64E04846B2
:1057D00010F80F1F002900F0B18076AD75497322D3
:1057E0002846FBF7F4FB744938468722FBF7EFFBAA
:1057F00099F80AB0714CBBF1000F66D0A089E67829
:1058000094F812A0E17CA57DE388A28894F817C0E3
:1058100094F802E0CDE9000602A8CDE905A5574DB0
:1058200080E8025009AC394665E05C485C4EB04700
:105830005C48B047FFF729FB0220002489F81000DC
:105840005948C8E90044C8E90244B047012089F832
:1058500010005648FAF7CCFD99F8080040B9FFF758
:10586000B1F8FFF7ACF8601C3B2C0446F4D967E0B4
:105870004A48FBF77FF84E48FBF77CF8FFF705FB3B
:1058800009F10E005AE00898514619F011FBDBF8B7
:1058900068000130CBF8680019F040FBDBF87000BD
:1058A00000283FF42EAFDBF86000A0427FF429AF60
:1058B000DBF87400002857D134484FF08051016064
:1058C000BFF34F8FBFF36F8F1BE72946257AB4F8DC
:1058D00010C0B4F814E0667AA77AA07B94F80FA001
:1058E000227863780095254DCDE901CECDE9036797
:1058F000CDE9050A09AC2046FAF786FD8BF00100D8
:1059000089F80A002046FBF7ADF893AE02462CA1B9
:1059100023463046FAF778FD0220314689F8100018
:1059200030A0FAF765FD0120314689F810002EA05D
:10593000FAF75EFDDFF84CB009F10F0000210170AD
:10594000FFF73DF8D5E60798864206D008988642CC
:1059500018BF002E3FF4D5AE18E7A06A00287FF4E8
:1059600015AF94F8580011E74FF0500080F31188FC
:10597000BFF36F8FBFF34F8FFEE700BFCCC5012091
:1059800058C4012050C50120B8C6012004ED00E034
:10599000DBD90308B6DA0308E9DB03082DDB0308CB
:1059A0007509000896DA0308ADD9030838DC030846
:1059B000A4DA030878DC0308ECDC030894C70120B0
:1059C00041542B514D545055423D302C302C302CED
:1059D000312C2268656C6C6F222C25642C22257377
:1059E000220D0A002573000073656E642025730084
:1059F00082B00E4D0E4E0FA4E86D17F079F995F8B0
:105A0000410001280AD195F82610306D95F827300D
:105A100095F82820009121460EF04AFEE86D17F017
:105A200087F9012017F044F8E6E700BF58C40120C9
:105A300050C50120253032643A253032643A253091
:105A40003264000086B0DFF8640BDFF8A886DFF868
:105A5000A8A6DFF8A896DFF8ACB6DFF8AC7604307D
:105A60000090D8F85000022117F0CCF80028F8D0A8
:105A7000DAF85C0017F03CF99AF8410001287AD175
:105A8000002055468AF8420016F016FFDFF87046EF
:105A900099F800205946606CB847B9F81420E069BD
:105AA000DFF86816B847B9F80C20A06B5946B8471C
:105AB000DFF85C6699F81220E06B3146B84799F838
:105AC0001620206C3146B84799F80A10A06A0122C6
:105AD00006F0D8FB99F80E000FF23C610FF2346229
