:020000040800F2
:10000000A8130010890200080D360008DD31000831
:100010000936000821150008754900080000000095
:100020000000000000000000000000008136000811
:10003000891B000800000000113600087D430008FD
:10004000A3020008A3020008A3020008A3020008FC
:10005000A3020008A3020008A3020008A3020008EC
:10006000A3020008A3020008A3020008A3020008DC
:10007000A3020008A3020008A3020008A3020008CC
:10008000A3020008A3020008A3020008A3020008BC
:1000900025150008A3020008A3020008A302000817
:1000A000A3020008A3020008A3020008A30200089C
:1000B000E5430008F1430008FD430008A3020008DF
:1000C000A3020008A3020008A3020008A30200087C
:1000D000A30200085D490008A3020008694900085E
:1000E000A3020008A3020008A3020008A30200085C
:1000F000A3020008A3020008A3020008A30200084C
:10010000A3020008A3020008A3020008A30200083B
:10011000A3020008A3020008A3020008A30200082B
:10012000A3020008B9190008A3020008A3020008EE
:10013000A3020008A3020008A3020008A30200080B
:10014000A3020008A3020008A3020008A3020008FB
:10015000A3020008A3020008A3020008A3020008EB
:10016000A3020008A3020008A3020008A3020008DB
:10017000A3020008A3020008A30200080000000078
:10018000A3020008A302000800F002F800F06CF8D7
:100190000AA090E8000C82448344AAF10107DA45E2
:1001A00001D100F061F8AFF2090EBAE80F0013F0C8
:1001B000010F18BFFB1A43F0010318472858060027
:1001C00058580600103A24BF78C878C1FAD85207A8
:1001D00024BF30C830C144BF04680C6070470000C1
:1001E0000023002400250026103A28BF78C1FBD840
:1001F000520728BF30C148BF0B607047692900F023
:10020000E580642900F0E280752900F0DF806F2925
:1002100000F07681782900F09D810368DB0928BF12
:1002200041F08001632900F0E083732900F0E58349
:10023000E32900F00384002070471FB549F080FDDA
:100240009DE8030000F04EFE00F004FD04000020D5
:10025000002149F05FFD401C606000F039FC1FBDCB
:1002600010B500F09EFC10BD00F0CFFC1146FFF76A
:10027000E4FF38F0E7F900F0D9FD03B4FFF7F0FF31
:1002800003BC00F013FC0000094880470948004700
:10029000FEE7FEE7FEE7FEE7FEE7FEE7FEE7FEE736
:1002A000FEE7FEE704480549054A064B7047000093
:1002B000D143000889010008A8010010A81300100C
:1002C000A8030010A80300100FB4044910B503AA36
:1002D000029800F097FB10BC5DF814FB9C00001026
:1002E0000FB41CB5074B06AA7B44694600900598DD
:1002F00000F059FB0020694600F068FB1CBC5DF86B
:1003000014FB0000E106000070B504468569006832
:10031000C10601D5302600E02026C00707D070BDF9
:10032000D4E9012130469047206A401C20626D1EAE
:10033000F6D570BD70B5044685690078C00707D151
:1003400070BDD4E9012120209047206A401C206222
:100350006D1EF6D570BD09684A0501D540B27047DB
:10036000C905FCD500B2704709684A0501D5C0B27D
:100370007047C905FCD580B2704770B50C4605467C
:10038000012A05D02878800600D5EA69002302E01A
:10039000012305E05B1C934202D2E05C0028F9D106
:1003A000A869E618C01AA861286A18442862284675
:1003B000FFF7AAFF04E0D5E9012114F8010B9047EB
:1003C000B442F8D32846FFF7B5FF70BD2DE9F041E0
:1003D0000646002410687529314616A510D0FFF78F
:1003E000BAFF002802DA404213A507E031688A0705
:1003F00001D512A502E0490704D511A5012401E0A9
:10040000FFF7B2FF00210A2206F1240709E0B0FB42
:10041000F2FCB0FBF2F302FB1C00303078541846BB
:10042000491C0028F3D123462A463046BDE8F04156
:1004300000F05BBA000000002D0000002B0000005F
:10044000200000002DE9FF5F15468A460446DFF8CC
:10045000AC80F8440027D8E900103E46CDE90010F2
:1004600010E03AF816106A4602A800F0F3FA411CB0
:1004700007D02178890603D5E269391891420DD851
:100480000744761C2078800602D5E069B84205DD75
:10049000AE42E6DB3AF816000028E2D1A069C01BA4
:1004A000A0612046FFF730FFD8E90010CDE9001029
:1004B000002017E03AF818106A4602A800F0CAFABD
:1004C000B0F1FF3F81460BD000250DF1080B05E090
:1004D000D4E901211BF8050090476D1C4D45F7D369
:1004E00008F10100B0428046E4DB206A3844206213
:1004F0002046FFF71FFFBDE8FF9F0000069904009C
:1005000070B5044621461068FFF72EFF002104F164
:10051000240505E000F007023032C0086A54491C87
:100520000028F7D12068002308A2050708D500F0AD
:100530002000084304D0E069012305A2401EE061C9
:100540002046BDE8704000F0D0B900000000000077
:100550003000000070B504460D4621461068FFF7D4
:1005600003FF2188090502D50F4A7A4402E00E4AAA
:100570007A440E32002104F1240305E000F00F0656
:100580000009965D5E54491C0028F7D120780023AD
:10059000000704D5702D02D009B102231132204684
:1005A000BDE8704000F0A1B9F69704002DE9F05FB6
:1005B000894604464FF0000ADFF874B1FB44C0F8E6
:1005C00020A02046E1688847002874D0252806D05E
:1005D000D4E901219047206A401C2062F1E70026FF
:1005E0005F462046E16888472028054607DB312D15
:1005F00005D2781910F8200C08B10643F1E7B007CE
:1006000001D526F00406C4F81CA00027C4F818A0E1
:100610002A2D09D0284649F076FB38B304EB870829
:10062000303DC8F8185019E059F8041B204604EB77
:1006300087029161E1688847012F054618D1E0697A
:10064000002820DA26F020061DE0D8F8180000EB7C
:10065000800005EB40003038C8F818002046E168FB
:100660008847054649F04FFB0028EED1012F0AD0FC
:100670002E2D08D12046E16888477F1C0546022FB1
:1006800046F02006C4DBA069002803DA404246F0A9
:100690000106A061F00701D026F010066C2D0BD0EA
:1006A000682D09D04C2D39D06A2D35D0742D35D018
:1006B0007A2D33D016E038E0E1682F46204688478F
:1006C000B842054609D16C2F26D04FF48060E1680E
:1006D000064320468847054604E06C2F1AD04FF4A5
:1006E000807006430DB3A5F14100192802D82035CA
:1006F00046F400664A462946204626604E46FFF7E5
:100700007DFD80B101280BD0F61D26F0070000F119
:10071000080956E74020E4E78020D8E70020D6E724
:1007200006F104094DE7284652E7206ABDE8F09F2C
:10073000CC97040010B5044603E00EF065FD401CA4
:1007400009D014F8010B05490028F6D1BDE8104086
:100750000A200EF059BD4FF0FF3010BD9C00001074
:1007600030B505460B462A4613F8014B12F8010B2B
:1007700008B1A042F8D01CB1002802D06D1CF1E7EE
:10078000284630BD40EA010310B59B070FD1042A6B
:100790000DD310C808C9121F9C42F8D020BA19BA4C
:1007A000884201D9012010BD4FF0FF3010BD1AB1B1
:1007B000D30703D0521C07E0002010BD10F8013B06
:1007C00011F8014B1B1B07D110F8013B11F8014B2D
:1007D0001B1B01D1921EF1D1184610BD40EA010346
:1007E000024630B59B0710D14FF0013400E008C23B
:1007F00008C91D1B9D4315EAC41FF8D013F0FF0163
:1008000002F8011B0DD01B0AF8E711F8013B002B81
:1008100002F8013B05D011F8013B002B02F8013B27
:10082000F3D130BD10B5431C02E010F8011B71B1CB
:100830008107FAD14FF0013202C88C1A8C4314EAB6
:10084000C211F9D0C01A0A0603D0C01E10BDC01ACA
:1008500010BD0A0401D0801E10BD0902FCD0401E4C
:1008600010BD00000000000030B44FF0013C50F813
:10087000042B51F8043BCCFA52F4D51A20D1FCB920
:1008800050F8042B51F8043BCCFA52F4D51A17D186
:10089000B4B950F8042B51F8043BCCFA52F4D51AF1
:1008A0000ED16CB950F8042B51F8043BCCFA52F439
:1008B000D51A05D1002CDAD030BC4FF000007047BB
:1008C00029BAB1FA81F111F01801D1F12000844068
:1008D000F2D1CA40CB4012F0FF0213F0FF0330BC4C
:1008E000D01A70477047704770472DE9F0470D46A2
:1008F00099469246044600F124080168880604D50A
:10090000E06921F01001216000E00120A84201DD32
:10091000471B00E00027A1697A1902EB0900081AB9
:10092000A0612078C00602D42046FFF7EDFC002627
:1009300008E0D4E901211AF806009047206A401C1B
:10094000761C20624E45F4DB2078C0060AD520468E
:10095000FFF7DAFC06E0D4E9012130209047206A55
:10096000401C2062381EA7F10107F4DC07E0D4E93F
:10097000012118F805009047206A401C2062281EBB
:10098000A5F10105F3DC2046FFF7D4FC2078000632
:1009900002D50220BDE8F0870120FBE701694A1C6F
:1009A00002610878704700B58FB0CDE901310021B0
:1009B000059105497944CDE9031011466846FFF7D2
:1009C000F5FD0FB000BD0000E5FFFFFF0A6802F86B
:1009D000010B0A60704710B5436913B1AFF3008093
:1009E00001E0FFF7CAFC012010BD127800F12401DC
:1009F0000A7000224A700122EDE711684FF0FF32C1
:100A0000E9E70000074B70B50D467B44FFF7CBFFCD
:100A10000446284600F058F810B14FF0FF3070BD82
:100A2000204670BDFBE7000010B5436913B1AFF37A
:100A3000008001E0FFF706FD012010BD128800F1E3
:100A4000240182840022C2840122EDE711684FF064
:100A5000FF32E9E72DE9F04116460C46054600F065
:100A60002BF8036893F80101012807D0FF2C12D856
:100A7000185D80B101202C70BDE8F081D3F807012A
:100A80003246214603F20713C7182846BC46BDE884
:100A9000F041002360474FF0FF30EDE708B56946AD
:100AA0008DF800000320ABBE08BD000001491820EE
:100AB000ABBEFEE72600020010B500F0CBF8001D2B
:100AC00010BD00BF51920400007B00F08000704711
:100AD00010B54248542100F0BEF94148542100F0BD
:100AE000BAF94048542100F0B6F93F493B483C4A26
:100AF0003F4B08603D490A603A491960531C036541
:100B0000481C1065012008653B48344A39A17844E7
:100B100000F0EEF820B9384878440A3800F094F92B
:100B200037482F4A35A1784400F0E2F820B934481C
:100B300078440A3800F088F932482A4A2FA17844CC
:100B400000F0D6F820B92F4878440A3800F07CF934
:100B500040232248DC000021224600F0A6F820B104
:100B600025487844543800F06FF91D482246402348
:100B7000002100F09AF820B121487844543800F060
:100B800063F9184822461023002100F08EF800284F
:100B900006D01C487844BDE81040563800F054B9DF
:100BA00010BD104870B5006D20F001040B4800F036
:100BB00017F90B4800F014F90A4800F011F909E0A0
:100BC000206D20F00105204600F00AF9204600F0D3
:100BD00045F82C46002CF3D170BD000048000010F1
:100BE0009C000010F0000010000000100400001035
:100BF00008000010720000009E4706007700000009
:100C00008D4706007D4706007047754600F04AF99B
:100C1000AE4605006946534620F00700854618B0E9
:100C200020B5FFF73FFBBDE820404FF000064FF036
:100C300000074FF000084FF0000BAC46ACE8C009CD
:100C4000ACE8C009ACE8C009ACE8C00921F0070174
:100C50008D467047004870476401001070B5044627
:100C6000051F00F023F90068002C14BF446870BD14
:100C7000002C18BFAC423CBF20466468F8D3016822
:100C80000A18AA4218BF456003D12A6805461144D4
:100C9000016028684119A1421CBF6C6070BD616889
:100CA000696021680844286070BD70B5C468A507F4
:100CB00013D0650211D4B2F5807F09D0B2F5007F60
:100CC00006D0B2F5806F08D1012300F1240106E0BF
:100CD0005D1E6FF07F46B54201D3012070BD0161FA
:100CE000C361416024F470611143C160002070BD94
:100CF0002DE9F0410C461646070047D0104600F09B
:100D00006FF82078611C61280AD0722802D07728F9
:100D10003CD102E00125002405E00225042402E084
:100D2000082448F2020511F8010B2B2806D062288E
:100D300009D011F8010C74280AD00BE045F0030526
:100D400044F00204EFE745F0040544F00104EAE74B
:100D500044F010043846214605F02EFC411C15D005
:100D60000021316171604FF40071F560F1617061D3
:100D7000200704D530460222002100F011F9306D21
:100D800040F0010030653046BDE8F0810020FBE70F
:100D90002DE9F0410D460646104C206DC10704D0E8
:100DA000410804D020F00104F7E722460EE0542069
:100DB00000F0C7F807000ED0206D47F0010108438E
:100DC00054212065384600F046F83A462946304618
:100DD000BDE8F0418CE70020D6E700004800001095
:100DE0002DE9F04704464FF000094FF0FF37C56882
:100DF000D4E90486A80707D0204600F081F93046E0
:100E000005F0C8FB002802DA3846BDE8F08728055F
:100E100002D54046FFF722FF4C21204600F01BF888
:100E2000206D20F0010020654846EEE710B504462D
:100E3000AFF300802046BDE81040FFF71EBA00283F
:100E400001D0FFF733BE704710B500F0B7F9BDE829
:100E50001040FFF7F4BF4FF0000200B51346944670
:100E60009646203922BFA0E80C50A0E80C50B1F102
:100E70002001BFF4F7AF090728BFA0E80C5048BF16
:100E80000CC05DF804EB890028BF40F8042B08BFB4
:100E9000704748BF20F8022B11F0804F18BF00F8B0
:100EA000012B70470048704744010010004870470C
:100EB0004C010010704770477047704738B50446C2
:100EC0000A4600206946AFF30080002808BF38BDFD
:100ED00002460099204600F0C4F9012038BD0120E7
:100EE00000F0FAB9F8B5AFF30080054600200C46D3
:100EF000102000BF0646A819A0420DD93246694607
:100F00000020AFF30080070008BF00F0E5F900986B
:100F1000A04218BF0546C419FFF7C8FF0560074681
:100F2000F01D20F007004619284600F093F9B4425E
:100F300008BFF8BDA21B31463868BDE8F84000F094
:100F400090B970B50646FFF7B1FF056806F10B00D2
:100F500020F00704B4429CBF002070BD2B466A6895
:100F6000BAB11068A04210D304F1080188423CBF16
:100F70005068586007D35168101941601168091B07
:100F8000016058601460101D70BD13465268002A3D
:100F9000E7D121462846FFF791FF0028DED170BD3A
:100FA0002DE9F041044616460D464769007B80074F
:100FB0002ED0384605F0F8FA50BB3EB3012E02D0D1
:100FC000022E25D104E0204600F065F905441DE01D
:100FD0003846002000BFE168002841F01001E160C0
:100FE00005DA204600F058F80120BDE8F081C90379
:100FF0000BD56268E16A914200D81146A26911449A
:101000002269891A814200DD08460544002D01DA73
:101010000220EAE7E16A6068E268814206D2910351
:10102000E06203D522F4003141F01002A6690027E6
:10103000AE4213DCE16A814201D90B4600E003466F
:1010400003EB060C2369ACEB030CAC4506DD8142D7
:1010500001D98C4600E084469C4505D1A7602760F5
:1010600042F02000A5620DE0AD1BE669AE1B814297
:10107000A66000D90846C01A281A20605819606076
:1010800022F0200003490840E060002084F8487006
:10109000ABE70000BFCFD7FFC16821F4001141F0DA
:1010A0008001C16000218160016070472DE9F04737
:1010B000814614460E464FF0FF383248D5685769CE
:1010C000054209D03846A1694FF0FF30002811DBF6
:1010D0002C48C0430540E5602B4632464946384619
:1010E00005F098FAA16920F00042B21A11440028D4
:1010F000A16103D02046FFF7CFFF4046BDE8F0874F
:1011000070B504460569C06A6168884200D808461F
:10111000E16821F42011E160C90312D5A84208D08A
:101120002246411B2846FFF7C1FF10B14FF0FF30A8
:1011300070BD0020E562C4E90150E06820F4803011
:10114000E060002070BD10B50446C06820F02000AB
:10115000E060A16AA06988420DD02046FFF7D0FF69
:10116000E06820F4405040F01000E060A06AA06108
:101170002069E062606044F24001E0688843E0601A
:1011800010BD00001000020070B505460C460A2094
:1011900000E06D1CFFF782FC35B128780028F8D1FB
:1011A00002E0641CFFF77AFC14B120780028F8D123
:1011B000BDE870400A20FFF771BC000010B5014681
:1011C00002A0FFF7E1FF012010BD00005349475284
:1011D000545245443A2052656469726563743A20FA
:1011E00063616E2774206F70656E3A200000000006
:1011F00010B5203AC0F00B80B1E81850A0E81850A4
:10120000B1E81850A0E81850203ABFF4F5AF5FEAF3
:10121000027C24BFB1E81850A0E8185044BF18C998
:1012200018C0BDE810405FEA827C24BF51F8043B3F
:1012300040F8043B08BF7047D20728BF31F8023B93
:1012400048BF11F8012B28BF20F8023B48BF00F827
:10125000012B704700210160C0E901107047102088
:101260007047034640688C46002818BF88423CBF40
:1012700003464068F8D318681844884207D00CF138
:10128000030020F00700001D411A521A0146081DF4
:101290000A60FFF7E3BC10B50146C268900703D0AF
:1012A000900607D5886A0AE000F01EF80121016067
:1012B000881E10BD8B69486818440B69C01A91F8E4
:1012C00048301BB191F84910401A10BD1103FCD5EC
:1012D0000028FADD401E10BD10B500F009F8BDE889
:1012E0001040FFF7ACBD00000048704744010010FB
:1012F00010B5012805D0002103A0FFF745FF01200C
:1013000010BD09A1F8E7000053494752544D454D1F
:101310003A204F7574206F662068656170206D6596
:101320006D6F7279000000003A2048656170206D91
:10133000656D6F727920636F727275707465640089
:1013400053EA020C00F069802DE9F04B4FF00006E3
:10135000002B1FBFB3FA83F503FA05F424FA05F650
:101360005E4012BF1643B2FA82F502FA05F4C5F1E7
:1013700020051EBF22FA05FC44EA0C04203556EA7B
:10138000044C4FEA144418BF641C4FF000084FF09F
:101390000009904271EB030C39D3002919BFB1FA4F
:1013A00081F701FA07F6B0FA80F700FA07F6C7F1FD
:1013B00020071EBF20FA07FC46EA0C062037B6FBC2
:1013C000F4FCA7EB0507103F07F01F0BCBF120063D
:1013D0002CFA06F60CFA0BFB44BFB3460026202F6E
:1013E000A4BF5E464FF0000B5BEA060C08BF4FF04F
:1013F000010B19EB0B0948EB0608ABFB027C06FB63
:1014000002CC0BFB03CCC01B71EB0C01C1E70B46FC
:10141000024641464846BDE8F08B13B5084318BF65
:101420004FF0FF300146AFF30080BDE81C4070472D
:10143000032A40F2308010F0030C00F0158011F800
:10144000013BBCF1020F624498BF11F801CB00F8D8
:10145000013B38BF11F8013BA2F1040298BF00F82C
:1014600001CB38BF00F8013B11F003033FF4C0AEDD
:10147000083AC0F0088051F8043B083A51F804CB10
:10148000A0E80810F5E7121D5CBF51F8043B40F8D6
:10149000043BAFF30080D20724BF11F8013B11F8E1
:1014A00001CB48BF11F8012B24BF00F8013B00F825
:1014B00001CB48BF00F8012B704702F0FF0343EA5D
:1014C000032242EA024200F00AB802F0FF0343EAB4
:1014D000032242EA0242FFF7C0BC4FF00002042997
:1014E000C0F0128010F0030C3FF4B7ACCCF1040C48
:1014F000BCF1020F18BF00F8012BA8BF20F8022B87
:10150000A1EB0C01FFF7A9BC5FEAC17C24BF00F886
:10151000012B00F8012B48BF00F8012B7047000099
:10152000FEE700002DE9F04F87B040F25C58C2F2B0
:101530000008D8F800004669D0F804B08268C16895
:10154000D0F810908769F30701D1002530E0D30768
:101550000ED00123950783600AD453075ABF4FF476
:10156000805303EA42254FF40065D30503D40FE00E
:101570000025D3050CD54FF480739405836007D400
:1015800053055ABF02F4006345EAC30505F500554B
:10159000D3030DD54FF480339403836008D45303F1
:1015A0004FBF05F500454FF4803303EAD2021544DE
:1015B000320706D511F010021EBF45F40075102247
:1015C000C260720704D511F008011CBF0821C16078
:1015D000B10762D5C16889075FD098F8201001393A
:1015E000012950D8C168890750D0D0F8B021D0F86F
:1015F000B011520740F284520297C2F200025ABF61
:10160000490D11601168D0F8B021D0F8B421D0F89C
:10161000B421D0F8B421D0F8B8E1D0F8B821D0F88E
:10162000B831D0F8B8A1D0F8BC71A1F291110197EE
:10163000D0F8BCC1D0F8BC71D0F8BC4105290094E9
:10164000C46844F02004C46000F2D180100A1A0C6F
:101650004FEA1A634FEA1C2A3F0CDFE801F00379D6
:101660008397A8B20EF0FE0141EA00204DF6F0018A
:1016700080B2CFF6FF7101EB500046F27E01C2F25C
:1016800001010882B3E04FF4802001E04FF4001024
:10169000D8F824100843C8F82400700608D519F0BB
:1016A000100005D0D8F8000045F4806510210161D4
:1016B000B00606D519F0080003D0D8F800000821BC
:1016C0000161F00602D5D8F800000069B00306D524
:1016D0001BF0100003D0D8F8000010214160F00387
:1016E00006D51BF0080003D0D8F80000082141609F
:1016F000300440F1FA805FEA4B7040F1F28006F46A
:10170000807007EA10202843B907014648BF41F01E
:101710000201B20558BF014678070D4648BF45F0A3
:101720000405700558BF0D46300540F1DA8017F00A
:10173000700000F0D68010380009052800F2CB8038
:10174000DFE800F003BBBEC1C4C745F00805C2E036
:1017500046F27E02AEF13201C2F2010232389174D9
:10176000D07444E046F27E01C2F201014870019853
:1017700081F800E0C0B240EA0A20888000988A70B0
:10178000000C67F30700CB70C88030E00EF0FE015C
:1017900041EA00204DF6F00180B2CFF6FF7101EB77
:1017A000500046F27E01C2F2010188821FE046F23B
:1017B0007E02AEF13201C2F2010232389175D0756B
:1017C00015E046F27E01C2F2010128384872019804
:1017D0008A72C87307F0FE0040EA0A2080B24CF615
:1017E000CD425043C00C81F808E08B73888140F2F1
:1017F0008850C2F200000068029F98B3EFF30581A1
:1018000069B36FF00101039148F68511C0F6040138
:10181000CDE9041046F2C060C2F20100D0F800A089
:101820000720BAF1000F06903DD0EFF30580102895
:1018300022D34EF2F031CEF20001405C4AF6C821CC
:10184000C2F201010978884216D24FF0500080F3AD
:101850001188BFF36F8FBFF34F8F00BFFEE70721E3
:1018600047F08EFB40F25850C2F200000021017098
:1018700070063FF514AF1BE74EF60450CEF20000A1
:101880004AF6CC218068C2F20101096800F4E060E8
:10189000884233D94FF0500080F31188BFF36F8F27
:1018A000BFF34F8FFEE74FF0500080F31188BFF376
:1018B0006F8FBFF34F8F00BFFEE745F010050AE0C2
:1018C00045F0200507E045F0400504E045F08005BF
:1018D00001E045F48075D8F80000816921F07001BD
:1018E0008161D8F800000421416025B1D8F82400B6
:1018F0002843C8F8240007B0BDE8F08F46F2FC6426
:10190000EFF311834FF0500080F31188BFF36F8F16
:10191000BFF34F8FC2F20104A06BE16B884219D272
:1019200094F84570A06BA16B226CBAB1606801910C
:1019300003A900971F46FFF77BFD216CD4E9010244
:101940003B460844009F01996060904224BF206894
:1019500060600EE083F31188029F83E7206840B93E
:10196000A068CDE9003147F043FFDDE900310020F8
:10197000A060481CFF2FA06317D1606AC0B1DAF8DD
:1019800030001C4647F0F6FF234688B14EF604515E
:101990004FF08050CEF2000183F311880860BFF34E
:1019A0004F8FBFF36F8F029F5CE7781C84F8450070
:1019B00083F31188029F55E7F0B581B000200090B5
:1019C00040F2440040F21414C1F20000C2F20004DC
:1019D0000268D4E9166048F2B51337680821C1F6E9
:1019E0004E3381403942A2FB03250CD02268136894
:1019F0005B0708D5136823F004031360B160616DC1
:101A000041F00101616501218140394208D022681D
:101A10005269120604D5B160616D41F00201616541
:101A200004218140394208D022681268920704D507
:101A3000B160616D41F004016165102101FA00F2AD
:101A40003A4216D021680B681B0712D5B2600B68AA
:101A50000A685B0306D4D20506D40A6822F008029D
:101A60000A6001E0110340D4216C11B1204688477F
:101A7000E06D202101FA00F23A4245D021680B685E
:101A8000DB0641D5B26094F835300A68052B1CD1CD
:101A900022F016020A604A6922F080024A61226C32
:101AA000A36C1A4303D00A6822F008020A603F219F
:101AB00001FA00F0B060012084F83500216D0020AB
:101AC000002984F8340055D15CE00868520310D432
:101AD000C00512D4086820F010000860012084F8C6
:101AE0003500002084F8340007E0A16C0029BDD146
:101AF000BFE7000301D4616C00E0E16B21B140F26B
:101B00001410C2F200008847606DD8B3606DC00742
:101B10002ED0052084F835002068A90A026822F03A
:101B200001020260009A01328A4200921AD80268C9
:101B3000D20717D0009A01328A42009212D8026866
:101B4000D2070FD0009A01328A4200920AD8026866
:101B5000D20707D0009A01328A42009202D8026866
:101B6000D207DFD1012084F83500002084F834004A
:101B7000E16C39B140F21410C2F2000001B0BDE8CE
:101B8000F040084701B0F0BD7047000010B540F2CA
:101B9000C01EC2F2000ED0F858C0DEF8003090F837
:101BA000351002293AD10168026C0C6824F0160441
:101BB0000C604C6924F080044C610AB9826C1AB143
:101BC0000A6822F008020A600A6822F001020A602C
:101BD0000A68D20725D0DEF80020D21A052A17D8C5
:101BE0000A68D2071DD0DEF80020D21A052A0FD8C5
:101BF0000A68D20715D0DEF80020D21A052A07D8C5
:101C00000A68D2070DD0DEF80020D21A052ADFD9E3
:101C100020214165032180F835100BE080214165CA
:101C200008E0C16D3F2202FA01F1CCF80810012151
:101C300080F83510002180F8341010BD2DE9F04FE8
:101C400082B000F13E4241F6004502F1FF77C4F256
:101C5000020508224FEAB726A84208BF0722072E2E
:101C600038BF4FEAB7224FF0010A002400274FF097
:101C70000008009209E000BF08F101080437B8F13C
:101C8000100F04F1020400F0B5800E680AFA08F99A
:101C900016EA090FF0D0D1F804A00AF0030BABF15B
:101CA0000106012E18D80322866802FA04FECA68CB
:101CB00026EA0E06A240324382604268CAF300154B
:101CC00022EA090205FA08F54FEA480C6FEA0E0607
:101CD0002A4342600CE000BF0322A240D643BBF17E
:101CE000030FA44604D1A4464FF0030B22E000BF2B
:101CF000C2688D68324005FA0CF52A43BBF1020F29
:101D0000C26017D16FF0030202EA5802024407F0E2
:101D10001C030F25D2F820E005FA03FA0D692EEA1C
:101D20000A0E05FA03F343EA0E031362D1F804A086
:101D30000AF0030B02680BFA0CF332401A431AF450
:101D4000403F4FF0010A026096D0002243F6440360
:101D50000192C4F202031A6843F6004E42F4804234
:101D60001A601A68C4F2010E02F480420192019ACC
:101D700028F003024FF6084C7244CFF6FF7C52F86D
:101D80000C3007F00C060F25B540AB43009D05FA5B
:101D900006F6334342F80C30DEF808204B6842EA7E
:101DA000090643F60C4CDD0258BF22EA0906CEF8BC
:101DB0000860C4F2010CDCF800209D0242EA09062A
:101DC00058BF22EA0906CCF80060DEF804209D0323
:101DD00042EA090658BF22EA0906CEF80460DEF896
:101DE0000020DB0342EA090658BF22EA0906CEF8C2
:101DF000006041E702B0BDE8F08F0000B0B582B0EE
:101E0000002143F608020191C4F20202936B45F2ED
:101E1000C72443F001039363936BC0F6060403F0F9
:101E200001030193019B1368136813681568D2F8C6
:101E3000F85340F24405C1F200052D68126813F40E
:101E4000E053C2F38222A25C18BF012325FA02F2FA
:101E50009A404DF68363C4F21B33A2FB032304466E
:101E60004FF0FF3040F2741500EB9340C2F20005D2
:101E70004FF0804240F2E733C5E900202846C5E92B
:101E800002132961A96100F07BF808B102B0B0BD6E
:101E900095F83D000128F9D1022085F83D00286819
:101EA00041F2FF72C168C4F20002904241F00101A8
:101EB000C1600DDC40F2FF71C4F20001884215DC04
:101EC000B0F1804F29D040F20041C4F2000122E07D
:101ED00040F2FF31C4F20101884212DC41F60001F8
:101EE000C4F20001884218D0002112E040F600013F
:101EF000C4F20001884210D040F60041C4F2000153
:101F000009E044F20001C4F20101884205D040F228
:101F10000041C4F20101884204D1816801F0070147
:101F2000062903D0016841F0010101604EF2001062
:101F3000CEF200004FF080510F2C0160A6D84EF673
:101F40000C51CEF2000109684FF0FF33C1F30221BA
:101F500081F00702042A28BF0422033903FA02F29F
:101F600038BF0021D24302FA01F1090180F81C13A5
:101F700040F2BC10C2F200000121017002B0B0BDFD
:101F800070B584B0002800F08F80044690F83D00C2
:101F9000002840F0EF80216840F20042C4F20002C5
:101FA0000020914284F83C0000F0818040F600005F
:101FB000C4F20000814200F0AB800020C4F20100B6
:101FC000814240F0D7804FF0000C43F64000CDF83E
:101FD0000CC0C4F20200416846F2284241F00101FF
:101FE0004160406840F2141100F001000390039832
:101FF000C2F20001C4F202024FF040604023C1E986
:10200000002001F108004FF4806E4FF400654FF49A
:10201000005680E8085001F1140040F2C01380E837
:102020006010C1E908CCC2F200030226186881F8EA
:10203000356081F834C0166826F00106166016680F
:10204000F60740F0B680106848F23F03CFF2100365
:10205000184040F0406040F43150106050696FF01B
:102060000F034AF6AB2653FA82F3CAF6AA26A3FB5D
:10207000066520F007005061280963A6305C40F235
:10208000FF36B2435F2B4FF03F0388BF0432C1E9F4
:10209000162003FA00F090600120C1F854C081F8C6
:1020A000350061628C6365E0012004B070BD43F6C9
:1020B00040010290C4F202010A6842F002020A6082
:1020C000096801F00201029102994EF60C51CEF21C
:1020D00000010968C1F3022181F00702042A28BF28
:1020E0000422033938BF01464FF0FF3090400522EB
:1020F00022EA000088404EF21D410001CEF20001AC
:1021000008704EF20010CEF200004FF0005130E0A7
:10211000002043F640010190C4F202010A6842F037
:1021200004020A60096801F00401019101994EF668
:102130000C51CEF200010968C1F3022181F00702BF
:10214000042A28BF0422033938BF01464FF0FF306C
:102150009040052222EA000088404EF21D41000115
:10216000CEF2000148704EF20010CEF200004FF0A7
:1021700080410160022084F83D002068211D02F0AA
:1021800043F9012084F8460084F83E0084F83F00BB
:1021900084F8400084F8410084F8420084F8430049
:1021A00084F8440084F8450084F83D00002004B021
:1021B00070BD0A681E68361A052E1BD81668F60709
:1021C0003FF441AF1E68361A052E13D81668F6077D
:1021D0003FF439AF1E68361A052E0BD81668F6077D
:1021E0003FF431AF1E68361A052E03D81668F6077D
:1021F000E0D128E720204865032081F83500EFF37F
:10220000108072B6FEE700BF00061016000610161A
:1022100080B590F83C20012A4FF0020200F0BF8008
:1022200080F83D20D0F800C04FF67772DCF8083017
:1022300023EA0202CCF808200B684F2B28DC1F2B66
:1022400043DD202B44D0302B42D0402B40F0A980DE
:10225000D1F804E0C968DCF82030DCF8202022F056
:102260000102CCF82020DCF8182022F0F00242EA2B
:10227000011123F00A0242EA0E02CCF81810CCF841
:102280002020DCF8081041F0470121F030017DE00A
:102290006F2B25DDB3F5005F46D0B3F5805F77D0B7
:1022A000702B7ED1D1E901E3C968DCF8082043EA4C
:1022B0000E0322F47F4243EA01211143CCF80810B7
:1022C000DCF8081041F0770160E00BB1102B68D109
:1022D000DCF8081021F07001194341F0070155E0C6
:1022E000502B34D0602B5CD1D1F804E0C968DCF805
:1022F000203023F01003CCF82030DCF81830DCF864
:10230000202023F4704322F0A00243EA013142EA84
:102310000E12CCF81810CCF82020DCF8081041F090
:10232000670121F0100131E0D1E901E3C968DCF86F
:10233000082043EA0E0322F47F4243EA01211143BD
:10234000CCF80810DCF8081041F480411EE0D1F808
:1023500004E0C968DCF82030DCF8202022F001021B
:10236000CCF82020DCF8182022F0F00242EA01111B
:1023700023F00A0242EA0E02CCF81810CCF8202012
:10238000DCF8081041F0570121F02001CCF80810CA
:102390000022012180F83D10002180F83C101046F9
:1023A00080BD0122F5E7000080B501680A69920747
:1023B00044BFCA685FEA827239D40A69520744BFCF
:1023C000CA685FEA427255D40A69120744BFCA68F4
:1023D0005FEA027272D40A69D20644BFCA685FEA31
:1023E000C26200F18E800A69D2071CBFCA685FEA28
:1023F000C27240F0AA800869000641BFC8685FEA5F
:1024000000606FF0800008610869400641BFC8683D
:102410005FEA40606FF0400008610869800641BFD4
:10242000C8685FEA80606FF02000086180BD6FF0CF
:1024300002020A618A69920740F0F88040F2905CDB
:10244000C2F2000CDCF800200021DCF824305163DB
:10245000D16821F40071D16093F83510022940F061
:10246000B380052183F8351019680B6823F0010348
:102470000B60ABE06FF004020A618A6912F4407FDE
:1024800040F0098140F2905CC2F2000CDCF80020C0
:102490000021DCF824305163D16821F40071D1604F
:1024A00093F83510022940F0C480052183F83510D7
:1024B00019680B6823F001030B60BCE06FF00802A1
:1024C0000A61CA69920740F01B8140F2905CC2F237
:1024D000000CDCF800200021DCF824305163D168C6
:1024E00021F40071D16093F83510022940F0D680B4
:1024F000052183F8351019680B6823F001030B6080
:10250000CEE06FF010020A61CA6912F4407F40F019
:102510002C8140F2905CC2F2000CDCF8002000211B
:10252000DCF824305163D16821F40071D16093F854
:102530003510022940F0E780052183F8351019682D
:102540000B6823F001030B60DFE06FF00102B1F1D3
:10255000804F0A6106D140F2C012C2F20002136835
:102560000133136040F2CC02C2F2000290421DD04F
:1025700046F2A402C2F2010290427FF43CAF46F25E
:102580007900C2F2010002780132D3B2642B0270EA
:1025900040F0EE8046F27A03C2F201031A784FF05F
:1025A000000C013280F800C01A70E6E049F6346091
:1025B000C2F200000022027049F63860C2F2000048
:1025C00002680132026016E780215965116A42F4FF
:1025D000806321F00101116240F20041D2F820E055
:1025E000C4F201018B42C2F820E00DD1116A41F220
:1025F0001113194208D1116A40F24443194203D120
:10260000516C21F400415164116A41F211131942D5
:1026100008D1116A40F24443194203D1116821F0F4
:102620000101116001218CF83E100168002202773F
:10263000C3E680215965116A42F4806321F00101EB
:10264000116240F20041D2F820E0C4F201018B4255
:10265000C2F820E00DD1116A41F21113194208D1DC
:10266000116A40F24443194203D1516C21F40041F4
:102670005164116A41F21113194208D1116A40F2F2
:102680004443194203D1116821F001011160012175
:102690008CF83E1001680022027795E6802159658A
:1026A000116A42F4806321F00101116240F200419D
:1026B000D2F820E0C4F201018B42C2F820E00DD133
:1026C000116A41F21113194208D1116A40F24443D0
:1026D000194203D1516C21F400415164116A41F255
:1026E0001113194208D1116A40F24443194203D12F
:1026F000116821F00101116001218CF83E10016880
:102700000022027767E680215965116A42F48063EE
:1027100021F00101116240F20041D2F820E0C4F240
:1027200001018B42C2F820E00DD1116A41F2111370
:10273000194208D1116A40F24443194203D1516C45
:1027400021F400415164116A41F21113194208D178
:10275000116A40F24443194203D1116821F001018A
:10276000116001218CF83E100168002202773AE6E0
:1027700046F27A02C2F201021278D2B23C2A0FD19A
:1027800046F27B03C2F201031A7846F27A0CC2F2D7
:10279000010C4FF0000E01328CF800E01A7004E0DA
:1027A00046F27B02C2F201021278D2B23C2A7FF4D6
:1027B00022AE0022027046F27B00C2F201000270DB
:1027C00046F27A00C2F20100027014E670B582B0DF
:1027D000044600680268064656F80C3F456902F058
:1027E0002F01202903F0200C08D1BCF1000F05D0E7
:1027F000204602B0BDE8704001F09EBE5FEA027E56
:102800001EBF05F0010503F4907111EB050140F0C6
:10281000CB80216B012905D112F0100118BF13F0F4
:10282000100132D1110622D513F080011FD094F887
:102830003D10212927D1A168B1F5805F03D121691D
:10284000002900F06182216A4A1C226209784160F5
:10285000E08C01380104E08415D1306820F080005C
:102860003060306840F04000306002B070BD50060B
:1028700009D513F0400006D0306820F040003060E9
:10288000202084F83D0002B070BD00210191016854
:1028900001914168019101994069400600F18E80E3
:1028A000A08DE28DE18D002918BF9042EBD056E853
:1028B000000F216820F4907041E80302CAB3206839
:1028C00050E8030F216820F4907041E8030282B3BE
:1028D000206850E8030F216820F4907041E803025B
:1028E0003AB3206850E8030F216820F4907041E863
:1028F0000302F2B1206850E8030FDAE7206850E8DD
:10290000050F216820F0010041E80502DAB12068D6
:1029100050E8050F216820F0010041E8050292B15E
:10292000206850E8050F216820F0010041E8050209
:102930004AB1206850E8050F216820F0010041E805
:102940000502002ADAD1202084F83E00002020630E
:10295000206850E8030F216820F0100041E80302CE
:10296000002A3FF490AF206850E8030F216820F060
:10297000100041E80302002A3FF485AF206850E8C8
:10298000030F216820F0100041E80302002A3FF401
:102990007AAF206850E8030F216820F0100041E86A
:1029A0000302002AD4D16EE7D10718BF13F4807157
:1029B00040F0B680510700F1B980BCE0A06B01681F
:1029C0004A6893B2002B3FF45EAFA18D8B42BFF4F7
:1029D0005AAFE285C069B0F5807F00F09E8056E86E
:1029E000000F216820F4807041E80302F2B12068F2
:1029F00050E8030F216820F4807041E80302AAB177
:102A0000206850E8030F216820F4807041E8030239
:102A100062B1206850E8030F216820F4807041E81B
:102A200003021AB1206850E8030FDAE7206850E883
:102A3000050F216820F0010041E80502DAB12068A5
:102A400050E8050F216820F0010041E8050292B12D
:102A5000206850E8050F216820F0010041E80502D8
:102A60004AB1206850E8050F216820F0010041E8D4
:102A70000502002ADAD1206850E8050F216820F00D
:102A8000400041E80502DAB1206850E8050F2168EE
:102A900020F0400041E8050292B1206850E8050F9F
:102AA000216820F0400041E805024AB1206850E862
:102AB000050F216820F0400041E80502002ADAD124
:102AC000202084F83E0000202063206850E8030F97
:102AD000216820F0100041E80302DAB1206850E8D4
:102AE000030F216820F0100041E8030292B1206832
:102AF00050E8030F216820F0100041E803024AB1BA
:102B0000206850E8030F216820F0100041E803021C
:102B1000002ADAD1A06BFFF739F8E08D02B070BD62
:102B2000216C41F001012164510704D51DB1216CD4
:102B300041F002012164910704D51DB1216C41F0DF
:102B400004012164BEF1000F06D55CEA050103D043
:102B5000216C41F008012164216C00293FF493AEFF
:102B600012F0200118BFBCF1000F03D0204601F085
:102B7000E3FC20684169226C01F0400102F0080288
:102B8000891800F0A68000BF50E8030F216820F4E8
:102B9000907041E80302C2B3206850E8030F216837
:102BA00020F4907041E803027AB3206850E8030FE4
:102BB000216820F4907041E8030232B3206850E8A5
:102BC000030F216820F4907041E80302EAB1206805
:102BD000DAE700BF206850E8050F216820F0010007
:102BE00041E80502DAB1206850E8050F216820F0BD
:102BF000010041E8050292B1206850E8050F216804
:102C000020F0010041E805024AB1206850E8050FB4
:102C1000216820F0010041E80502002ADAD1206B8A
:102C2000012824D1206850E8030F216820F010000B
:102C300041E80302DAB1206850E8030F216820F070
:102C4000100041E8030292B1206850E8030F2168A8
:102C500020F0100041E803024AB1206850E8030F59
:102C6000216820F0100041E80302002ADAD1202078
:102C700084F83E0000202063206850F8141F4906A5
:102C80007FF501AE50E8000F216820F0400041E8D8
:102C9000050212B3206850E8050F216820F04000BB
:102CA00041E80502CAB1206850E8050F216820F00C
:102CB000400041E8050282B1206850E8050F216814
:102CC00020F0400041E805023AB1206850E8050FC5
:102CD000DAE70020206402B070BDA06B00283FF44A
:102CE000D2AD44F22D51C0F60001016590F83510C7
:102CF000022911D1052180F835100068016821F002
:102D00000101016002B070BD216A31F8022B6FF33E
:102D10005F22426021629BE58021416502B0BDE8EF
:102D2000704001F003BC0000002804BF0120704780
:102D30002DE9F04186B0044690F83D0043F6300599
:102D400041F20006C4F202050028C4F201067AD15D
:102D5000216844F60002C4F200020020914284F887
:102D60003C00CDE90400CDE9020001901DD0B14244
:102D700069D1002000906969252741F0100169613F
:102D8000696901F01001009100990090286840F0F5
:102D900001002860286800F00100009000984FF4BE
:102DA000C060019006F5704019E00090296927275E
:102DB00041F480212961296901F480210091009961
:102DC0000090286840F002002860286800F00200A7
:102DD000009000984FF44060019006F57440022185
:102DE00002910321049107214FF00008059101A9E8
:102DF000CDF80C80FEF722FF4EF60C50CEF200000C
:102E000000684FF0FF32C0F3022080F00701042970
:102E100028BF0421033802FA01F14FF0050238BF40
:102E2000404622EA010101FA00F04EF20411CEF20E
:102E3000000100017A1882F8FC0207F00700012265
:102E400002FA00F00860242084F83D002768D4E9E5
:102E50000212E069FB6823F40053FB603B6923F432
:102E600040531A433A61D4E904231143FA681943E1
:102E700049F20C6301439A431143F9607969A269ED
:102E800021F440711143796106F580618F4240F26F
:102E900044014FF00A02C1F2000108BF0D22096887
:102EA00055F8283CB74208BF0D2223FA02F245F23A
:102EB000C72302F00702C0F606039A5C6368D1409C
:102EC0001922B0F5004FA1FB02011CD15A00DB0F03
:102ED000FEF736FA48F21F51C5F2EB11A0FB0123B1
:102EE0005A096FF0630302FB0300322303EBC000B7
:102EF000A0FB01014FF4F87000EA111000EB021082
:102F0000C1F342111AE09A009B0FFEF719FA48F23A
:102F10001F51C5F2EB11A0FB01235A096FF06303A7
:102F200002FB0300322303EB0010A0FB0101F020A1
:102F300000EA511000EB0210C1F343110844B860DD
:102F40003869202120F490403861786920F02A0007
:102F50007861F86840F40050F8600020206484F83C
:102F60003D1084F83E1006B0BDE8F081B0B590F891
:102F70003D30202B40F08C80002900F0898090F8B3
:102F80003C30012B08BFB0BD0024212340F2C01CFF
:102F9000046480F83D30C2F2000CDCF8003082841A
:102FA000C2848268B2F5805F07D10269002A1CBF23
:102FB0000A4621468E46114601E04FF0000E80F889
:102FC0003C40C48C0268C4B3002400BF15682D06C1
:102FD00022D4DCF80050ED1AB5F5803F5BD21568BD
:102FE0002D0619D4DCF80050ED1AB4EB154F52D170
:102FF00015682D0610D4DCF80050ED1AB4EB154F0F
:1030000049D115682D0607D4DCF80050ED1AB4EB51
:10301000154FDBD03FE000BF19B111F8015B5560DF
:1030200005E03EF8021B6FF35F2151600021C58C63
:10303000013DC584C58C002DC8D11168490624D432
:103040000021DCF80050ED1AB5F5803F77D2156805
:103050006D061AD4DCF80050ED1AB1EB154F6ED1A5
:1030600015686D0611D4DCF80050ED1AB1EB154F60
:1030700065D115686D0608D4DCF80050ED1AB1EB87
:10308000154F5CD115686D06DBD5202180F83D1009
:10309000B0BD00BF026852E8031F026821F4D0717E
:1030A00042E80313E3B1016851E8031F026821F409
:1030B000D07142E803139BB1016851E8031F026815
:1030C00021F4D07142E8031353B1016851E8031FA2
:1030D000026821F4D07142E80313002BDAD100BF5B
:1030E000016851E8051F026821F0010142E805135B
:1030F000DBB1016851E8051F026821F0010142E8D7
:10310000051393B1016851E8051F026821F0010120
:1031100042E805134BB1016851E8051F026821F030
:10312000010142E80513002BDAD1202180F83D107F
:1031300080F83E10002180F83C10B0BD026852E8D3
:10314000031F026821F4D07142E80313D3B301686E
:1031500051E8031F026821F4D07142E803138BB3D6
:10316000016851E8031F026821F4D07142E803139B
:1031700043B3016851E8031F026821F4D07142E8AB
:103180000313002BDAD11DE0016851E8051F026826
:1031900021F0010142E80513002BC6D0016851E877
:1031A000051F026821F0010142E80513002BBCD085
:1031B000016851E8051F026821F0010142E805138A
:1031C000002BB2D0016851E8051F026821F001010F
:1031D00042E80513002BD7D1A7E70000FEE7000067
:1031E0000020C6F210402A2120F8021C00212B22C8
:1031F0000180018020F8022C2C220180018020F81F
:10320000022C4FF4163200BF803A01800180018009
:1032100001800180018001800180018001800180A6
:103220000180018001800180018001800180018096
:103230000180018001800180018001800180018086
:103240000180018001800180018001800180018076
:103250000180018001800180018001800180018066
:103260000180018001800180018001800180018056
:103270000180018001800180018001800180018046
:103280000180018001800180018001800180018036
:103290000180018001800180018001800180018026
:1032A0000180018001800180018001800180018016
:1032B0000180018001800180018001800180018006
:1032C00001800180018001800180018001800180F6
:1032D00001800180018001800180018001800180E6
:1032E00001800180018001800180018001800180D6
:1032F00001800180018001800180018001800180C6
:10330000018001800180018001807FF47DAF7047E2
:103310002DE9F04740F2C011C2F20001086800BF79
:103320000A68121A642A0BD80A68121A642A07D883
:103330000A68121A642A03D80A68121A652AEFD397
:103340000020C6F21040F022C32320F8022C038094
:10335000962320F8022C0380362320F8023C4FF0FD
:10336000380C4FF03A084FF00509B423A0F800C01C
:1033700020F8028CA0F8009020F8023C4FF0010EDB
:10338000B123A0F800E020F8023C80231024038041
:103390000480C02420F8024C038064230380C123EE
:1033A00020F8023C4FF0130AC223A0F800A020F836
:1033B000023CA7230380C52320F8023C0927E82309
:1033C000078020F8023C402303808A2303800023E7
:1033D000292503800380058019250580A525058002
:1033E0003325E026058020F8026C06260B24028097
:1033F000068004800724048006802E244726A0F837
:1034000000900480058006801726A0F800800680C2
:1034100016260680312604800680E12620F8026CFC
:103420000D26028007800680082607800680232656
:103430000680048046242C2705800480A0F800C064
:10344000A0F800A0A0F800A00780322707803C2742
:1034500020F8022C078020F8022C69220280212209
:1034600020F8022C2B2220F8022C3F22038003801C
:10347000A0F800E002802A2220F8022CDF2203803C
:103480000380A0F800E00280112220F8022C0A68D4
:103490000B689B1A782B0BD80B689B1A782B07D8D4
:1034A0000B689B1A782B03D80B689B1A792BEFD3E8
:1034B000292220F8022C0A680B689B1A322B0BD8A1
:1034C0000B689B1A322B07D80B689B1A322B03D838
:1034D0000B689B1A332BEFD32C222A2120F8022CC5
:1034E00020F8021C00212B230180018020F8023CDF
:1034F0000180018020F8022C4FF41632803A0180BE
:1035000001800180018001800180018001800180B3
:1035100001800180018001800180018001800180A3
:103520000180018001800180018001800180018093
:103530000180018001800180018001800180018083
:103540000180018001800180018001800180018073
:103550000180018001800180018001800180018063
:103560000180018001800180018001800180018053
:103570000180018001800180018001800180018043
:103580000180018001800180018001800180018033
:103590000180018001800180018001800180018023
:1035A0000180018001800180018001800180018013
:1035B0000180018001800180018001800180018003
:1035C00001800180018001800180018001800180F3
:1035D00001800180018001800180018001800180E3
:1035E00001800180018001800180018001800180D3
:1035F00001800180018001800180018001807FF4D1
:103600007DAFBDE8F0870000FEE70000FEE70000A8
:10361000EFF30980BFF36F8F154B1A681EF0100F80
:1036200008BF20ED108A20E9F04F10602DE9090055
:103630004FF0500080F31188BFF34F8FBFF36F8FAF
:1036400045F010FB4FF0000080F31188BDE8090041
:1036500019680868B0E8F04F1EF0100F08BFB0EC12
:10366000108A80F30988BFF36F8F704700BF00BFD7
:10367000C061012000000000000000000000000008
:10368000074B19680868B0E8F04F80F30988BFF36A
:103690006F8F4FF0000080F31188704700BF00BFAC
:1036A000C061012088B041F6180640F28C5A4FF6EE
:1036B0000049C4F20206C2F2000ACFF6FF790124E3
:1036C00003E000BF642038F0EBFD40F2C821C2F2F5
:1036D000000191F83C0091F83E10202923D10128E7
:1036E00021D040F2C82240F20C30C2F20002002386
:1036F000C2F200001363906222209485D485136483
:1037000082F83E001169106882F83C3019B1C16836
:1037100041F48071C160416941F001014161C168BA
:1037200041F02001C16040F21031C2F2000191F875
:103730003C0091F83E10202923D1012821D040F2ED
:10374000103340F254300022C2F20003C2F20000F3
:103750001A63986222209C85DC851A6483F83E00F7
:103760001969186883F83C2019B1C16841F4807167
:10377000C160416941F001014161C16841F020012E
:10378000C1604FF480703060802030604FF4FA7078
:1037900038F086FD4FF4000030604FF080703060EC
:1037A0004FF47A60B04638F07BFD40F2C815C2F2A3
:1037B000000528464FF48071FDF74DFBA5A0A7A199
:1037C00004F034FA834628464FF48071FDF743FB3A
:1037D00040F2C611C2F20001087845F260470028A5
:1037E000C0F6060776D102208AF8000045F20530BF
:1037F000C0F606003946FCF767FDC82038F050FDDA
:1038000001208AF8000045F2EE20C0F60600394695
:10381000FCF75AFD40F2C611C2F2000108780028F8
:1038200058D102208AF8000045F20530C0F60600A3
:103830003946FCF749FDC82038F032FD01208AF8EE
:10384000000045F2EE20C0F606003946FCF73CFDCC
:1038500040F2C611C2F200010878D8BB02208AF8F3
:10386000000045F20530C0F606003946FCF72CFD95
:10387000C82038F015FD01208AF8000045F2EE203E
:10388000C0F606003946FCF71FFD40F2C611C2F231
:1038900000010878F0B902208AF8000045F20530EE
:1038A000C0F606003946FCF70FFDC82038F0F8FCDA
:1038B00001208AF8000045F2EE20C0F606003946E5
:1038C000FCF702FD40F2C611C2F2000108780028A0
:1038D00000F09C800020087045F2CF200125C0F642
:1038E000060039468AF80050FCF7EEFC5CA05EA1A9
:1038F00005EA0B0504F09AF92840012840D14FF45D
:10390000800048F8090040F28C5A45F25A30C2F261
:10391000000A0124C0F6060046468AF80040FCF77B
:1039200009FF45F26D4745F20D70C0F60607C0F677
:103930000600394604F07AF9054645F2ED30C0F646
:103940000600394604F072F9054045F21A40C0F607
:10395000060056A104F06AF928400138B0FA80F058
:103960004FEA501545F21C304FF08001C0F60600BA
:1039700008BF4FF400014FA208BF104609E000BF86
:1039800040F28C5A0025402138A0C2F2000A464677
:10399000012446F809108AF80040FCF7CBFE46F2F5
:1039A0001810C2F20100057043F6ED2049F6A0514F
:1039B000C0F60000C0F6040138F01EFE46F21C11ED
:1039C000C2F20101096840F214020029C2F20002A9
:1039D00010603FF477AE46F21410C2F201000068A6
:1039E00049F64445C2F200058DF80C002868CDE97F
:1039F00001110021069001A8CDE904118DF81C10D9
:103A000028600AF081FE069828605BE602208AF8AA
:103A1000000045F20530C0F606000E463946FCF7B8
:103A200053FCC82038F03CFC45F2EE200125C0F6DE
:103A3000060039468AF80050FCF746FC45F2DD20C6
:103A4000C0F6060039468AF80050FCF73DFC002518
:103A500035704BE741542B43494D49003436300013
:103A600041542B4353510000435351002A2A2A2A20
:103A70002A2A2A2A2A2A2A2A2A2A2A2A2A2A2A2AA6
:103A80002A42433236305920496E697420466169B2
:103A90006C757265212A2A2A2A2A2A2A2A2A2A2A7F
:103AA0002A2A2A2A2A2A2A2A2A2A0D00302C302CAD
:103AB000300000002A2A2A2A2A2A2A2A2A2A2A2ADE
:103AC0002A2A2A2A2A2A2A2A2A4D51545420494E7F
:103AD0004954204F4B2A2A2A2A2A2A2A2A2A2A2AC1
:103AE0002A2A2A2A2A2A2A2A2A2A0D00ADF56C7D9A
:103AF00040F2885840F2000A40F2585B46F2C01982
:103B000046F2F014C2F20008C2F2000AC2F2000B40
:103B1000C2F20109C2F2010402E0002145F0F4FA08
:103B2000D8F80000012138F083FCEFF3058100296B
:103B3000074640F0198140F21000C2F2000005680B
:103B4000002D00F01181D9F80000A8423BD04FF0C1
:103B5000500080F31188BFF36F8FBFF34F8F40F297
:103B60004000C1F200000268561C06607AB146F2BD
:103B7000F411C2F20101686923680968002E00F09F
:103B8000B68140F24006C1F20006326016E04EF601
:103B90000450CEF200000068000640F0BC8146F2FE
:103BA000F41140F24006C2F20101C1F20006686958
:103BB000236809683260002282F31188984218BF96
:103BC000884240F0C08040F240024FF0500080F345
:103BD0001188BFF36F8FBFF34F8FC1F200021168DE
:103BE000481C106039B94EF60451CEF20001096844
:103BF000090640F08681D5E902136A698B60EB689B
:103C000059605668291D8E4208BF536000236B61BE
:103C10001368013B13601268AA6AC2B1D5E9076351
:103C200005F11804B3602B6A46F2C0195E6056684D
:103C3000C2F20109A64208BF53600023AB621368B9
:103C400046F2F014013B13601268C2F2010446F21E
:103C5000C413C2F201031A6801321A60D9F80020B5
:103C6000AA421DD046F2E011C2F2010108680138F3
:103C7000086095F8590002280AD0012805D00028CC
:103C800040F05D81286B44F089FE284644F086FEB2
:103C90002068006800B32068C068C06840681DE004
:103CA00046F2C814C2F2010422686368AB609E68E1
:103CB000EE609E6871609960511C46F2DC126C6186
:103CC0002160C2F20102116846F2F0140131C2F221
:103CD0000104116078B901E14FF0FF3046F28861CC
:103CE000C2F20101086040F24000C1F20000006829
:103CF000002800F0F38040F240010138C1F20001D9
:103D0000086002D1002080F3118846F2E410C2F26C
:103D10000100006840B3D9F80000A84224D146F25F
:103D2000E810C2F201000068002840F0FE804EF664
:103D30000450CEF200004FF080510160BFF34F8F6E
:103D4000BFF36F8F10E046F2F811C2F20101884212
:103D500000F0BD8046F2C811C2F20101884218BFCE
:103D600000287FF430AF00BF002F3FF4D9AEEFF34F
:103D70000580B8B9DAF8000020F0010595B1C00758
:103D800003D1284645F074FA0CE0A868D9F8001071
:103D9000884203D0284645F06BFA18B1E868013034
:103DA000E86000BF9BF80000002875D140F28C50FD
:103DB0000121C2F20000017045F6EC0163A8C0F6D3
:103DC0000601F822FDF714FA46F27E03C2F201035F
:103DD000187A52461790188A93F803A01690988A7A
:103DE000CDF828A01590587A92461490987A0BAA8C
:103DF0001390987B5D461290D87B93F802B0119097
:103E0000D87CD97D82E803081798B3F804E00090C5
:103E10001698B3F8069001901598444602901498AD
:103E2000B3F80C80039013981E78049012985F7872
:103E300093F812C09B7D05901198AB4618ADCDE963
:103E40000898A04646F2C01946F2F014CDE90EC318
:103E50000690284663A932463B46C2F20109C2F2E7
:103E60000104CDF81CE0FCF73BFA2846FCF7DAFC2D
:103E7000A1AE0246304637A12B46FCF731FA40F29C
:103E80008C510220C2F2000108703BA03146FCF7C1
:103E90001BFA01208BF80000EFF3058000287FF467
:103EA0003FAEDAF8001021F0010000283FF438AEF0
:103EB000C9073FF432AE8168D9F8002091427FF4FF
:103EC0002FAEC1680139C1607FF42AAE25E6A86A29
:103ED00000287FF478AE95F8580074E64FF0500053
:103EE00080F31188BFF36F8FBFF34F8FFEE74FF062
:103EF000500080F31188BFF36F8FBFF34F8F00BF67
:103F0000FEE74FF0500080F31188BFF36F8FBFF3CF
:103F10004F8F00BFFEE74FF0500080F31188BFF3D2
:103F20006F8FBFF34F8F00BFFEE74FF0500080F35D
:103F30001188BFF36F8FBFF34F8F00BFFEE74FF0C5
:103F4000500080F31188BFF36F8FBFF34F8F00BF16
:103F5000FEE700BF41542B514D545055423D302C8B
:103F6000302C302C312C2268656C6C6F222C25642F
:103F70002C222573220D0A002573000082B040F226
:103F8000000646F2401846F27B0946F27A0A46F2EB
:103F9000790746F2C01BC2F20006C2F20108C2F263
:103FA0000109C2F2010AC2F2010722A4C2F2010B06
:103FB00006E000BF002145F0A7F8012038F070F9B5
:103FC000EFF30580B0B9306820F0010595B1C00766
:103FD00004D1284645F04CF90CE000BFA868DBF896
:103FE0000010884203D0284645F042F910B1E86835
:103FF0000130E860D8F8000099F800209AF8003005
:104000003D782146009524F069FFEFF305800028F4
:10401000D3D1316821F001000028CED0C907C9D022
:104020008168DBF800209142C7D1C1680139C160C5
:10403000C3D1BFE7253032643A253032643A2530A7
:104040003264000092B040F2885601A846F27E0821
:1040500045F2E17B45F2DC7446F20C1A44F65C173B
:1040600046F21019C2F200060830C2F20108C0F68A
:10407000060BC0F60604C2F2010AC0F60607C2F239
:104080000109009002E0002145F03EF8306802216D
:1040900038F0CEF90028F9D0EFF30580E0B940F20E
:1040A0000000C2F20000006820F00105A5B1C007C1
:1040B00003D1284645F0DCF80EE046F2C011C2F20A
:1040C0000101A8680968884203D0284645F0D0F865
:1040D00010B1E8680130E86000983821FCF7BBFEB9
:1040E0004FF00110119041F6D970C0F60100089010
:1040F0004BF6210046F27D02C0F60300C2F2010237
:10410000029092F9000098F80010CDE9090046F2FB
:104110009800C2F2010000680B9111700521019016
:1041200001A80C910DF088FF46F2F000C2F20100E8
:10413000006898F80020594624F0D0FE46F2F400BA
:10414000C2F201000068B8F8142045F2E671C0F62A
:10415000060124F0C3FE46F2F800C2F20100006836
:1041600098F80920594624F0B9FE46F2FC00C2F244
:104170000100006898F81220214624F0AFFE46F2B4
:104180000010C2F20100006898F81620214624F0C1
:10419000A5FE46F20410C2F20100006898F80A1069
:1041A00001220FF0E7F898F80E0045F28A71012815
:1041B000C0F6060145F2A972C0F6060208BF114614
:1041C000002846F20810C2F20100006845F29E7213
:1041D000C0F6060208BF114624F0FAFD98F80F1049
:1041E000DAF80000002948F2104248F2F0754FF06A
:1041F000550108BF46F23E3208BF48F210452DF087
:1042000035FCDAF800005621FF222DF02FFCDAF8F9
:10421000000057213A462DF029FCD9F8000055211D
:104220002A462DF023FCD9F800005621FF222DF05C
:104230001DFCD9F8000057213A462DF017FCEFF38A
:10424000058000287FF422AF40F20000C2F2000097
:10425000016821F0010000283FF418AFC9073FF4BE
:1042600012AF46F2C012C2F2010281681268914296
:104270007FF40CAFC1680139C1607FF407AF02E77A
:1042800088B040F2000646F27C0746F2C01B46F2B8
:10429000201449F64448C2F20006C2F201074FF06A
:1042A000000AC2F2010BC2F20104C2F200080DF1D1
:1042B000040905E0002144F027FF012037F0F0FF5A
:1042C000EFF30580B0B9306820F0010595B1C00763
:1042D00004D1284644F0CCFF0CE000BFA868DBF80E
:1042E0000010884203D0284644F0C2FF10B1E868AD
:1042F0000130E860387848BB2068816C01314FF0AC
:10430000440108BF2421405864281FD146F22410DC
:10431000C2F20100006801213970B8B146F29C0177
:10432000C2F20101CDE90100D8F800000968069049
:1043300048468DF80C10CDE904AA8DF81CA0C8F8E9
:1043400000900AF0E1F90698C8F8000033F0EEFAA0
:10435000EFF305800028B0D1316821F0010000287A
:10436000ABD0C907A6D08168DBF800209142A4D168
:10437000C1680139C160A0D19CE7000080B54EF250
:104380001000CEF20000006846F2E410C2F2010014
:104390000068002808BF80BD46F2E810C2F20100A4
:1043A00000684FF0500080F31188BFF36F8FBFF3A8
:1043B0004F8F45F043F930B14EF60450CEF2000075
:1043C0004FF080510160002080F3118880BD000013
:1043D0004EF68850CEF20000016841F47001016091
:1043E0007047000040F27410C2F20000FDF7DCBF1D
:1043F00040F2CC00C2F20000FDF7D6BF46F2A400A6
:10440000C2F20100FDF7D0BF10B540F6FF3E0368D1
:10441000C4F2000E40F2004C7045C4F2010C0FDCF7
:10442000B0F1804F19D040F20042C4F20002904235
:1044300013D040F60002C4F2000290420DD010E00A
:1044400040F60042C4F20002904206D0604504D01B
:104450000022C4F20102904203D14A6823F07003A3
:10446000134341F6FF72C4F2000290420DDC704526
:104470001FDCB0F1804F41D040F20042C4F2000294
:1044800090423BD040F6000221E043F6FF72C4F2B6
:104490000102904220DC42F20002C4F2000290428B
:1044A0002CD00022C4F20102904227D0604525D0D2
:1044B00028E040F60042C4F2000290421ED041F6CD
:1044C0000002C4F20002904218D041F60042C4F249
:1044D0000002904212D015E044F20002C4F2010240
:1044E00090420BD044F60002C4F20102904205D083
:1044F00044F20042C4F20102904203D1CA6823F49C
:104500004073134323F080024B69D1F800E08C68BC
:104510001A430260C46240F48062C0F828E0624539
:1045200004BF096901630121416110BD806B002155
:10453000C185C184704700002DE9F04182B0044676
:1045400090F83E00222820D1A268B2F5805F08D101
:104550002069002864D004F12800016822685268AC
:104560000AE0204650F8281F12B92269002AF5D027
:104570002268526802F07F020A700168013101600E
:10458000E08D01380104E08502D002B0BDE8F08181
:104590002068C16821F02001C160C16821F48071E8
:1045A000C160416921F001014161202184F83E1080
:1045B000216B01293DD10021216300BF50E8030F89
:1045C000216820F0100041E803022068DAB150E8C9
:1045D000030F216820F0100041E80302206892B127
:1045E00050E8030F216820F0100041E80302206822
:1045F0004AB150E8030F216820F0100041E803029F
:104600002068002ADAD10168C906BED500210191CF
:104610000168019140680190019802B0BDE8F08105
:104620002068A16A40686FF35F2021F8020BA16245
:10463000A6E744F60006C4F2000606F548418842A3
:1046400040F0938040F2C417C2F200073878FF2888
:1046500015D10020387040F25830C2F200004FF4FB
:104660008071FCF7F8FB40F2C82045F20A31C2F233
:104670000000C0F606010A22FEF778FC48E040F28E
:104680000C31C2F200010B7840F25832411CC2F2E8
:1046900000020A2B397013543AD1104410F8010C5F
:1046A0000D2835D140F21035CAB2C2F2000540F2F1
:1046B0005831C2F200012846FEF758FC95F83D003B
:1046C00095F83E100843C0B2212817D195F83D0057
:1046D00095F83E100843C0B221280FD195F83D004F
:1046E00095F83E100843C0B2212807D195F83D0047
:1046F00095F83E100843C0B22128DFD00020387062
:1047000040F25830C2F200004FF48071FCF7A3FB76
:1047100040F2C820C2F2000090F83C1090F83E2011
:10472000202A21D101291FD040F20C310022C2F2EF
:1047300000010263816201218185C1852221026419
:1047400080F83E10016980F83C200029016803D000
:10475000C86840F48070C860486940F00100486152
:10476000C86840F02000C8602068B0427FF40DAFF8
:1047700040F2C516C2F20006307840F21035FF282C
:10478000C2F2000515D10020307040F25840C2F24C
:1047900000004FF48071FCF75EFB40F2103045F2F0
:1047A0000A31C2F20000C0F606010A22FEF7DEFB63
:1047B000A3E040F25437C2F200073B7840F258427F
:1047C000411CC2F200020A2B3170135440F0958054
:1047D000104410F8010C0D2840F08F80022900F0E1
:1047E0008C8040F25844C2F200045AA120460322B1
:1047F000FBF7C8FF20B12088202801D024786CBBAB
:1048000040F25840C2F200004FF48071FCF723FBE5
:1048100095F83C0095F83E10002420291ED101286F
:104820001CD0002101202963AF62A885E8852220E1
:10483000296485F83E00286985F83C10002828681E
:1048400003D0C16841F48071C1604169002441F026
:1048500001014161C16841F02001C16040F2584846
:10486000C2F200083CA14046FBF77AFF90B340F249
:10487000C610C2F200000121017040F25840C2F29D
:1048800000004FF48071FCF7E6FA95F83C0095F8CB
:104890003E1020292FD101282DD00021012029638D
:1048A000AF62A885E8852220296485F83E00286942
:1048B00085F83C100028286803D0C16841F4807155
:1048C000C160416941F001014161C16841F02001CD
:1048D000C16010E00D2C0ED198F801000A280AD111
:1048E00042F62D50A8F8000040F2C810C2F20000B5
:1048F0004146FBF773FF0020307095F83C0095F8B7
:104900003E1020297FF441AE01283FF43EAE40F234
:1049100054300021C2F200002963A8620120A8855A
:10492000E8852220296485F83E00286985F83C1036
:104930000028286803D0C16841F48071C1604169D2
:1049400041F001014161C16841F02001C16002B044
:10495000BDE8F0810D0A00004F4B000040F2C82076
:10496000C2F20000FDF732BF40F21030C2F2000088
:10497000FDF72CBFFEE7000070B50346B1F900005B
:10498000B2F90040B1F902C0B2F90250B1F904E045
:10499000B2F90460A042B1F90610B2F90620C8BF0E
:1049A0000446AC451C80C8BF6546B6455D80B8BFAF
:1049B000764691429E80B8BF0A460020B4424FF02E
:1049C0000001D8BF01219542D8BF01200840DA80FC
:1049D00070BD00002DE9F04381B00C46B0F90070C5
:1049E000B1F900108F423DDBB0F90260B4F902105A
:1049F0008E4237DBB0F90490B4F90410894531DCFC
:104A0000B0F90680B4F9060080452BDC15466AB380
:104A1000694620462A46ADF80070ADF8026000F005
:104A200029F8F8B1694620462A46ADF80090ADF85D
:104A3000026000F01FF8A8B1694620462A46ADF88A
:104A40000070ADF8028000F015F858B169462046B4
:104A50002A46ADF80090ADF8028000F00BF801B0E6
:104A6000BDE8F083002001B0BDE8F083012001B073
:104A7000BDE8F0832DE9F041B1F90030B0F9004014
:104A8000A3420DDBB0F904E0734509DCB1F902C0C3
:104A9000B0F902108C4503DBB0F90650AC4502DDDD
:104AA0000020BDE8F081012A52DBAEEB04000130AA
:104AB00086B200EBD63006B2681A013087B200EB3E
:104AC000D73007B24FEA66087810B8EB670FB8BF67
:104AD00070109042A8BF1046021917B24218BB428C
:104AE00016B2D8BFB44515DD2A1ABB4212B22ADC71
:104AF000944528DB391809B2091B01EBD1714F101D
:104B000004EB610602EB6101401A9B1B604407FB4A
:104B100007F10EE0384400B2001B00EBD0704210E9
:104B200004EB600701EB6000DB1BACEB000002FB59
:104B300002F110FB00F013FB030200208A4298BF31
:104B40000120BDE8F081AEEB000424B2A34202DAFA
:104B50000120BDE8F081944516DAB445F8DC201A4E
:104B600002B2AEEB020202EBD27201EB620100EB89
:104B70006200ACEB01015710181A11FB01F107FBA1
:104B800007F210FB001113E0211A0CB2AEEB040780
:104B900007EBD77702EB6702801A01EB67016044ED
:104BA0007E10591A10FB00F006FB06F211FB010102
:104BB0000020914298BF0120BDE8F0812DE9F04F1F
:104BC0008FB049F63861C2F200010F6849F63468C7
:104BD000C2F20008012100BF88F8001098F80020F8
:104BE0007AB988F8001098F8002052B988F80010B7
:104BF00098F800202AB988F8001098F80020002AB8
:104C0000EAD000210C9149F6306149F65445C2F2D0
:104C10000001C2F20005002818BF00F10C012E7837
:104C2000096849F68040C2F20000002E016040F0A1
:104C30009F80086901222A7068B1426804465AB10F
:104C40005068144640B1426804462AB15068144680
:104C50000028F1D100E00024608C82070ED500BF4F
:104C600020F00200608420460CF07EFD608C8107FD
:104C7000F6D449F68040C2F200000168486900227B
:104C8000B0FA80F35B0933432A7021D101222A70E4
:104C9000426804464AB15068144630B1426804463E
:104CA0001AB1506814460028F2D1608C82070DD5E5
:104CB00020F00200608420460CF056FD608C8107D5
:104CC000F6D449F68040C2F2000001680020287046
:104CD000002E4DD1C86901222A7000BF68B1426818
:104CE00004465AB15068144640B1426804462AB19D
:104CF000506814460028F1D100E00024608C82073F
:104D00000ED500BF20F00200608420460CF02CFD80
:104D1000608C8107F6D449F68040C2F20000016839
:104D2000086A01222A7000BF68B1426804465AB17D
:104D30005068144640B1426804462AB1506814468F
:104D40000028F1D100E00024608C82070ED500BF5E
:104D500020F00200608420460CF006FD608C810784
:104D6000F6D449F68040C2F20000016800202870A5
:104D70000869002800F0EA80B1F8500149F6844241
:104D80000028C2F2000200F0E780002203460397E9
:104D900005E000BF034601329A4280F0AD808F18D3
:104DA00097F83071002FF6D1002B00F0A38001EBB3
:104DB000C20303F1300B03F1320903F1340A363335
:104DC0000026099303E000BF01368642E2D28B1928
:104DD00093F83031002BF7D1B242F5D001EBC2038A
:104DE00001EBC607B3F93050B7F93440A542EBDC0C
:104DF000B3F93450B7F93040A542E5DBB3F932508E
:104E0000B7F93640A542DFDCB3F93630B7F9327076
:104E1000BB42D9DB01EBC6070597B7F930C0B7F93C
:104E200032E0B7F93470CDF82890A7EB0C05BBF948
:104E3000003007950A9DCDF820B063450493B5F97D
:104E40000090B8BF9C46CDF82CA00B9CF145B4F95E
:104E500000A0CDF818E0B8BFCE46BA45C8BF574647
:104E6000059B099CB3F93650049BB4F90040AAEBAA
:104E7000030A069B0FFA87F80FFA8CFBA8EB0B08C6
:104E8000A5EB030BAC42C8BF2546A4EB09040AF10D
:104E90000109013404FB09F9079C08F1010804F138
:104EA000010A0BF1010404FB0A9A0FFA85F90FFAC3
:104EB0008EF4A9EB0404013404FB08F4DDF8289017
:104EC00049F634685445DDF82CA0DDF820B0C2F274
:104ED0000008BFF479AF0998012305808819ABF861
:104EE00000C0A9F800E0AAF8007080F83031B1F8ED
:104EF000500169E700234EE7B1F850A149F684421A
:104F00000020BAF1000FC2F20002106000F05682D9
:104F1000BAF1010F23DB01EB0A0090F82F210AB34D
:104F2000BAF1020F1BD390F82E21F2B1BAF1030FA0
:104F300015D390F82D21DAB1BAF1040F0FD390F800
:104F40002C01AAF1040A0028E2D113E00020A1F804
:104F500050010FB0BDE8F08F002010602EE24FF03E
:104F6000000A07E0AAF1010A04E0AAF1020A01E03E
:104F7000AAF1030A0868426B32B1904749F68040B3
:104F8000C2F2000001680868C068826922F001026C
:104F900082610868C068826922F002028261B1F809
:104FA000502191F82800002A40F0040281F82820BE
:104FB00000F089814FF002090DAE0025CDF824A044
:104FC0002AE0816962F341018161CBF808505846BB
:104FD00038F030FF49F68040C2F200000A9D0168B7
:104FE00001EBC500B0F93020B0F93470B0F93230BF
:104FF000B0F93600BA1A49F68447C2F20007C01A5F
:105000003B680132013000FB02303860B1F85001DA
:105010000135854280F03C81481990F83001002824
:10502000F4D1554505D10868C068826942F0010293
:105030008261086801EBC504C068826922F002023F
:10504000826108680A95C268D0F83CB0926804F1A1
:105050003005CBF800200269910749EA121101F0EE
:1050600003011AD0032949F68041C2F2000108BFAA
:105070000230096800880A4629B949F63062C2F24E
:1050800000021268CAB31268136949EA131303F0E5
:105090000303032B2FD1128830E0032918BF0230FD
:1050A00034F832CFB0F900002746B4F9042029883B
:1050B00037F8023F82420B9706DA49F68040C2F287
:1050C00000000068174632E049F68040C2F2000056
:1050D0000068074628B949F63067C2F200073F6802
:1050E0001FB33F683E6949EA161606F00306032E11
:1050F00019D13F881AE0528800E000220138013AB5
:1051000000230D93ADF83800ADF83A20CBF80460D9
:105110000968D1E90301826989077FF552AF42F03E
:105120000201354650E77F8800E00027013F006814
:10513000591AC6680131F668A2EB0C0209B2531C79
:10514000B6FBF1F9826919B28945C8BF8946AAB38D
:1051500000210D91ADF83810A9F101060DA9ADF8A7
:105160003A609047BDF83610BDF93A00411A013156
:1051700009B2894519DA00BF30B201281CDB49F6B3
:105180008040C2F200000068013E00680DA98269FB
:10519000ADF83A609047BDF83610BDF93A00411AB3
:1051A000013109B28945E7DB03E00FFA89F10129F2
:1051B00002DB00F1010901E04FF00009B4F9000041
:1051C0003EB209EB00014A1EB24280B20BDD002163
:1051D0003AE000BF584638F02DFE09FA84F14A1E25
:1051E000B24220462BDC2B880C46ADF834300B9BAA
:1051F0000FFA82FA1B88ADF8360049F68040C2F2F9
:105200000000ADF838300DAB0068ADF83A20CBF8AF
:105210000430CBF8083000685645C068BAB28168DF
:10522000CBF80010BCBFADF83A70BA461FFA8AF14D
:105230008A42CFD1816941F002018161CAE70FFA48
:105240008AF1DDF824A020464FF00209B1420DAEEC
:105250003FF4C0AE2988ADF834100B990988ADF839
:10526000360049F68040C2F200000068ADF8381000
:10527000ADF83A70CBF80460CBF808600068C068FD
:105280008168CBF80010816941F0020181619EE6DE
:1052900091F82820002802F0FB0281F8282000F075
:1052A0008D8001F1300414F0030011D0C61E18BF28
:1052B00080F00306751C20462946FCF70EF92C44A5
:1052C00086F0FF0506E000F0FB0081F8280075E09D
:1052D0004FF48075A5F1210020F01F0707F120068B
:1052E00020463146FBF7B7FDE81BA0F12005052D50
:1052F00034440AD3681F20F00306311D2046FBF713
:10530000AAFD3019041DA81B051F1DB12046294602
:10531000FCF7E3F849F68040C2F20000066806F5A3
:10532000987414F003000ED0C71E18BF80F0030756
:105330007D1C20462946FCF7D0F8701900F59874BA
:1053400087F01F0500E02025681F20F00307391DA6
:105350002046FBF780FDE81B011F03D038190430FD
:10536000FCF7BBF80020A6F8500149F63860C2F2FD
:1053700000000068012100BF88F8001098F80020A4
:105380007AB988F8001098F8002052B988F800100F
:1053900098F800202AB988F8001098F80020002A10
:1053A000EAD0039949F68442401A0C903068C2F260
:1053B0000002436A13B10C991268984745F6C07A07
:1053C000C2F2010ADAF8004045F6CC7740F21C0937
:1053D00045F6C47B0025C2F20107C1F20009C2F202
:1053E000010B00260CE000BF07EBC600817947F8EF
:1053F000365001F0FE01817185800136102E10D0EB
:1054000057F836100029F8D04945EDD0204632F043
:105410002BFCDBF80010081A38BF2846CBF8000038
:10542000E2E749F6C865C2F200052968002918BFFD
:10543000494509D0204632F017FCDBF80010081A65
:1054400038BF0020CBF80000E96900270029C5E932
:105450000077C5E902772F616F61AF6118BF4945D9
:1054600009D0204632F000FCDBF80010081A38BFE3
:105470000020CBF80000A96BC5E907770029C5E932
:105480000977EF622F636F6318BF494509D0204643
:1054900032F0EAFBDBF80010081A38BF0020CBF826
:1054A0000000696D00270029C5E90E77C5E910776E
:1054B000AF64EF642F6518BF494509D0204632F02C
:1054C000D3FBDBF80010081A38BF0020CBF800002F
:1054D00049F66046C2F200067469C5E91577C5E968
:1054E00017776F66AF66EF6649F68445002CC2F207
:1054F000000546D149F63060C2F20000006800287D
:1055000014BF016A00214DF6C050C0F6040026F019
:10551000D1FF044627F0E2F9204621217F222CF01A
:10552000A5FA2046202100222CF0A0FA2046552181
:105530004FF6FF722CF09AFA2046102103222CF02D
:1055400095FA2046112103222CF090FA20461221D0
:1055500003222CF08BFA2046132103222CF086FA2A
:1055600020465B2103222CF081FA45F27E71C0F6C1
:105570000601204623F02CFC2046062126F0D4FC10
:10558000746149F63860C2F2000031680068012297
:1055900088F8002098F800307BB988F8002098F847
:1055A000003053B988F8002098F800302BB988F8FB
:1055B000002098F80030002BEAD0411AB1F5967F10
:1055C0000CD2286841F28931884250D30C98D6E930
:1055D00001120844511CC6E9010148E0012100BF45
:1055E00088F8001098F800207AB988F8001098F828
:1055F000002052B988F8001098F800202AB988F8DD
:10560000001098F80020002AEAD049F68041C2F242
:10561000000109683060496829B108684FF47A715F
:10562000B1FBF0F000E06420B168024641B172685D
:105630004FF47A73002A08BF01225943B1FBF2F2FA
:105640000021C6E90111824288BF0246D6E9031053
:1056500010443061481C46F27801C2F20101097819
:10566000F060C1F1640368A1204623F037FC49F6DD
:105670007C45C2F200052C68002C41D149F630600F
:10568000C2F200000068002814BF016A00214DF634
:10569000C050C0F6040026F00DFF044627F01EF9A6
:1056A000204621217F222CF0E1F9204620210022F2
:1056B0002CF0DCF9204655214FF6FF722CF0D6F97C
:1056C0002046102103222CF0D1F92046112103227B
:1056D0002CF0CCF92046122103222CF0C7F92046E9
:1056E000132103222CF0C2F945F27E71C0F60601A7
:1056F000204623F06DFB2046042126F015FC2C608B
:1057000049F6784049F63861C2F20000C2F2000161
:1057100002680968012300BF88F8003098F800701B
:105720007FB988F8003098F8007057B988F80030D1
:1057300098F800702FB988F8003098F80070002FA2
:10574000EAD08A1AB2F5967F5BD9012288F8002048
:1057500098F800307BB988F8002098F8003053B9E9
:1057600088F8002098F800302BB988F8002098F8C5
:105770000030002BEAD0DAF80020016012F5A762B1
:105780002BD00026002000BF5368042B11D31F1F0D
:1057900027F003073A4423F0030703F00103BE4256
:1057A000314638BF3946002B1CBF0E4638440832FC
:1057B000EAD164224AF6AB2300FB02F1CAF6AA231F
:1057C000A1FB0313A2EBD33748B106FB02F1B1FBF7
:1057D000F0F1C1F16401CEB202E00020642700269E
:1057E000C0F5404040F2FE31820A08404AF2A10171
:1057F0004843830DF8B2009007A12046019623F09C
:105800006DFB0FB0BDE8F08F2575204650530A257B
:10581000752525204350550025752E2575206B4292
:10582000207573656420282564202525290A2564B0
:10583000252520667261672E000000002DE9F04FDB
:1058400085B00E9E1D46002B834608BFB6F5807FAF
:1058500068D0DDF83C800023019301A8ADF8081062
:10586000CDF80A30ADF80E20ADF81010ADF81220CA
:10587000294632464346071D00F1080900F10C0A8B
:105880002DF0D6F838462946324643462DF0D0F85A
:1058900048462946324643462DF0CAF85046294626
:1058A000324643462DF0C4F8BDF90410BDF9087026
:1058B000BDF90C60BDF91040B9423846BDF906C0CB
:1058C000BDF90A30B8BF0846A6422546B8BF3546DE
:1058D000A842B8BF0546B942C8BF0F46A642C8BFD6
:1058E0003446A742C8BF3C46A11CBDF90E60BDF9B5
:1058F00012409C451A46A5F10200B8BF6246A64276
:105900002546B8BF3546AA42B8BF15469C45C8BF14
:105910006346A642C8BF3446AF1EA342C8BF1C465A
:10592000A21C03E00139013A00200027ABF8000077
:10593000ABF80270ABF80410ABF8062005B0BDE878
:10594000F08F00002DE9F04383B0044638B949F6E2
:105950003060C2F200000468002C00F09F80D4F890
:1059600054010128C0F29A8094F82800400700F101
:105970009580002963D02068D0F810C0CCF30113C3
:1059800043F00203032B14BF0746871C3F88032BF9
:1059900014BF831C0346013F1B880FFA87F9B1F936
:1059A0000070B1F90260B1F90450013BB1F9062071
:1059B0000FFA83F827EAE77726EAE6714D45ADF856
:1059C0000470ADF80610A8BF4D464245ADF808502A
:1059D000B8BF1346AF42ADF80A305FDC1AB291424D
:1059E0005CDC5FEA8C7130D482690AB101A990470E
:1059F000B4F850E1BDF90410BDF90620BDF9083036
:105A0000BDF90AC0BEF1000F35D004F13000774671
:105A100004E000BF013F00F108001ED0B0F90050C3
:105A2000A942F7DBB0F90250AA42F3DBB0F9045007
:105A3000AB42EFDCB0F90650AC45EBDC2EE00020C9
:105A4000A4F8500103B0BDE8F083C9EA0840002182
:105A5000C4E90C106068012119E0BEF11F0F0CD9D8
:105A60004FF0000EA4F850E1C4F830E0A4F83490F0
:105A7000A4F8368008E04FF0000E04EBCE0001865B
:105A800042868386A0F836C060680EF10101A4F852
:105A9000501118B1017D01F0FE01017503B0BDE8A0
:105AA000F08300002DE9F047002853D043680446F6
:105AB000002B4FD040F21C0945F6C07845F6C47A59
:105AC0000026C1F20009C2F20108C2F2010A194619
:105AD00006E000BF002F08BFBDE8F08763683946C5
