:020000040800F2
:10000000702E0010E5020008614B0008314700081F
:100010005D4B00089520000885980008000000004E
:100020000000000000000000000000004166000821
:100030007D2E000800000000D1650008298000081E
:10004000FF020008FF020008FF020008FF0200088C
:10005000FF020008FF020008FF020008FF0200087C
:10006000FF020008FF020008FF020008FF0200086C
:10007000FF020008FF020008FF020008FF0200085C
:10008000FF020008FF020008FF020008FF0200084C
:1000900099200008FF020008FF020008FF02000884
:1000A000FF020008FF020008FF020008FF0200082C
:1000B000918000089D800008A9800008FF020008C8
:1000C000FF020008FF020008FF020008FF0200080C
:1000D000FF02000841870008FF0200084D87000862
:1000E000FF020008FF020008FF020008FF020008EC
:1000F000FF020008FF020008FF020008FF020008DC
:10010000FF020008FF020008FF020008FF020008CB
:10011000FF020008FF020008FF020008FF020008BB
:10012000FF020008AD2C0008FF020008FF020008D3
:10013000FF020008FF020008FF020008FF0200089B
:10014000FF020008FF020008FF020008654B0008DC
:10015000FF020008FF020008FF020008FF0200087B
:10016000FF020008FF020008FF020008FF0200086B
:10017000FF020008FF020008FF0200080000000064
:10018000FF020008FF02000800F002F800F09AF8F1
:100190000AA090E8000C82448344AAF10107DA45E2
:1001A00001D100F08FF8AFF2090EBAE80F0013F09A
:1001B000010F18BFFB1A43F001031847D092050046
:1001C00000930500103A24BF78C878C1FAD85207C6
:1001D00024BF30C830C144BF04680C6070470000C1
:1001E0000023002400250026103A28BF78C1FBD840
:1001F000520728BF30C148BF0B6070476E2900F01E
:100200007284702900F01F8266293BF052856529AF
:100210003BF04F8567293BF04C8561293BF04B85CE
:1002200003681B0A28BF41F08001692900F0FA80A9
:10023000642900F0F780752900F0F4806F2900F040
:10024000AD81782900F0EB81E92900F0AD84E42943
:1002500000F0AA84F52900F0A784EF2900F0AA8114
:10026000F82900F0EA810368DB0928BF41F080012A
:10027000632900F07784732900F07C84E32900F07F
:100280008784F32900F08C84002070471FB53BF071
:1002900003FD9DE8030001F0E3FB00F047FD0400CF
:1002A000002000213BF0CCFC401C606000200021BD
:1002B0003BF0DCFCE06001F01DF91FBD10B501F062
:1002C00082F910BD01F0B3F91146FFF7DFFF2EF000
:1002D0004FFF01F06DFB03B4FFF7F0FF03BC00F02C
:1002E0001BFD00000948804709480047FEE7FEE77C
:1002F000FEE7FEE7FEE7FEE7FEE7FEE7FEE7FEE7D6
:1003000004480549054A064B704700007D800008F7
:100310008901000870020010702E0010701E00107D
:10032000701E00107CB51D4616460C00009007D0CC
:100330004142A14202D32044401E01E04FF0FF3071
:10034000064B7B442A4669460190304600F0E5FBA7
:10035000002C02D0009A002111707CBDFB07000028
:1003600070B5044685690068C10601D5302600E0F5
:100370002026C00707D070BDD4E901213046904740
:10038000206A401C20626D1EF6D570BD70B5044613
:1003900085690078C00707D170BDD4E9012120200C
:1003A0009047206A401C20626D1EF6D570BD09681A
:1003B0004A0501D540B27047C905FCD500B2704767
:1003C00009684A0501D5C0B27047C905FCD580B29D
:1003D000704770B50C460546012A05D0287880067E
:1003E00000D5EA69002302E0012305E05B1C93428B
:1003F00002D2E05C0028F9D1A869E618C01AA86109
:10040000286A184428622846FFF7AAFF04E0D5E9C5
:10041000012114F8010B9047B442F8D32846FFF7A6
:10042000B5FF70BD2DE9F04106460024106875291E
:10043000314616A510D0FFF7BAFF002802DA404275
:1004400013A507E031688A0701D512A502E0490724
:1004500004D511A5012401E0FFF7B2FF00210A2213
:1004600006F1240709E0B0FBF2FCB0FBF2F302FB5B
:100470001C00303078541846491C0028F3D123461C
:100480002A463046BDE8F04100F0D4BA0000000032
:100490002D0000002B000000200000002DE9FF5F70
:1004A00015468A460446DFF8AC80F8440027D8E9B0
:1004B00000103E46CDE9001010E03AF816106A46EA
:1004C00002A800F0FEFB411C07D02178890603D565
:1004D000E269391891420DD80744761C20788006CD
:1004E00002D5E069B84205DDAE42E6DB3AF8160017
:1004F0000028E2D1A069C01BA0612046FFF730FFB1
:10050000D8E90010CDE90010002017E03AF81810E3
:100510006A4602A800F0D5FBB0F1FF3F81460BD040
:1005200000250DF1080B05E0D4E901211BF80500B9
:1005300090476D1C4D45F7D308F10100B04280464D
:10054000E4DB206A384420622046FFF71FFFBDE845
:10055000FF9F00000EB8030030B4002100F1240416
:1005600008E002F00705D208303542EA4372DB08A2
:100570006554491C52EA0305F3D10468002310A214
:10058000250708D504F020040C4304D0C4690123D6
:100590000CA2641EC46130BC00F04CBA10B5044615
:1005A00021461068FFF70CFF02462046BDE81040C8
:1005B0000023D1E7D21D22F00701D1E90023CBE7C8
:1005C0000000000030000000F0B40D46018809056D
:1005D00002D5214C7C4402E01F4C7C440E340021A7
:1005E00000F1240608E002F00F071209E75D42EA75
:1005F00003721B097754491C52EA0307F3D10278AE
:100600000023120704D5702D06D009B1022311343E
:100610002246F0BC00F00EBA01231034F8E770B5A2
:1006200004460D4621461068FFF7CAFE02462946D9
:100630002046BDE870400023C6E7D21D22F0070324
:10064000D3E90023C0E70368126843F02003036086
:100650000823C3610023B7E7ECB603002DE9F05F80
:10066000894604464FF0000ADFF874B1FB44C0F835
:1006700020A02046E1688847002874D0252806D0AD
:10068000D4E901219047206A401C2062F1E700264E
:100690005F462046E16888472028054607DB312D64
:1006A00005D2781910F8200C08B10643F1E7B0071D
:1006B00001D526F00406C4F81CA00027C4F818A031
:1006C0002A2D09D028463BF0B3FA38B304EB87084B
:1006D000303DC8F8185019E059F8041B204604EBC7
:1006E00087029161E1688847012F054618D1E069CA
:1006F000002820DA26F020061DE0D8F8180000EBCC
:10070000800005EB40003038C8F818002046E1684A
:10071000884705463BF08CFA0028EED1012F0AD01D
:100720002E2D08D12046E16888477F1C0546022F00
:1007300046F02006C4DBA069002803DA404246F0F8
:100740000106A061F00701D026F010066C2D0BD039
:10075000682D09D04C2D39D06A2D35D0742D35D067
:100760007A2D33D016E038E0E1682F4620468847DE
:10077000B842054609D16C2F26D04FF48060E1685D
:10078000064320468847054604E06C2F1AD04FF4F4
:10079000807006430DB3A5F14100192802D8203519
:1007A00046F400664A462946204626604E46FFF734
:1007B00025FD80B101280BD0F61D26F0070000F1C1
:1007C000080956E74020E4E78020D8E70020D6E774
:1007D00006F104094DE7284652E7206ABDE8F09F7C
:1007E0007CB603002DE9F04791460F46804604464B
:1007F000002614F8015B2DB100F010F90068405D8F
:10080000C007F6D12B2D02D02D2D18D0641E4A46DC
:100810003946204600F006FA27B13968A14201D1D5
:10082000C7F800804FF0020471050BD54042002844
:1008300003DD00F0FBF80460A007BDE8F08746F494
:100840008066E4E70028F8DA00F0F0F804606FF062
:100850000040F2E710B5044603E00FF0ADFB401C8A
:1008600009D014F8010B05490028F6D1BDE8104065
:100870000A200FF0A1BB4FF0FF3010BD6401001043
:10088000401ECAB210F8011F8A4202D00029F9D1D5
:100890000020704730B505460B462A4613F8014B39
:1008A00012F8010B08B1A042F8D01CB1002802D008
:1008B0006D1CF1E7284630BD40EA010310B59B07E7
:1008C0000FD1042A0DD310C808C9121F9C42F8D0BA
:1008D00020BA19BA884201D9012010BD4FF0FF306B
:1008E00010BD1AB1D30703D0521C07E0002010BD81
:1008F00010F8013B11F8014B1B1B07D110F8013B0D
:1009000011F8014B1B1B01D1921EF1D1184610BDED
:1009100040EA0103024630B59B0710D14FF0013485
:1009200000E008C208C91D1B9D4315EAC41FF8D08A
:1009300013F0FF0102F8011B0DD01B0AF8E711F8B4
:10094000013B002B02F8013B05D011F8013B002BC5
:1009500002F8013BF3D130BD10B5431C02E010F8A2
:10096000011B71B18107FAD14FF0013202C88C1A14
:100970008C4314EAC211F9D0C01A0A0603D0C01E73
:1009800010BDC01A10BD0A0401D0801E10BD09029E
:10099000FCD0401E10BD000030B44FF0013C50F8B8
:1009A000042B51F8043BCCFA52F4D51A20D1FCB9EF
:1009B00050F8042B51F8043BCCFA52F4D51A17D155
:1009C000B4B950F8042B51F8043BCCFA52F4D51AC0
:1009D0000ED16CB950F8042B51F8043BCCFA52F408
:1009E000D51A05D1002CDAD030BC4FF0000070478A
:1009F00029BAB1FA81F111F01801D1F12000844037
:100A0000F2D1CA40CB4012F0FF0213F0FF0330BC1A
:100A1000D01A7047704770477047000010B500F05B
:100A200085F9001D10BD00BF19B2030000487047D2
:100A30000C0200102DE9F0470D46994692460446F7
:100A400000F124080168880604D5E06921F010014E
:100A5000216000E00120A84201DD471B00E00027E3
:100A6000A1697A1902EB0900081AA0612078C00672
:100A700002D42046FFF774FC002608E0D4E90121E7
:100A80001AF806009047206A401C761C20624E45EA
:100A9000F4DB2078C0060AD52046FFF761FC06E0AB
:100AA000D4E9012130209047206A401C2062381E82
:100AB000A7F10107F4DC07E0D4E9012118F80500EB
:100AC0009047206A401C2062281EA5F10105F3DC36
:100AD0002046FFF75BFC2078000602D50220BDE827
:100AE000F0870120FBE711680268006A530501D511
:100AF00008700AE0D30501D5088006E0130603D587
:100B0000C217C1E9000200E0086001207047000040
:100B100001694A1C02610878704700B58FB0CDE9C1
:100B200001310021059105497944CDE903101146B1
:100B30006846FFF793FD0FB000BD0000E5FFFFFF23
:100B4000D1E900239A4202D2531C0B601070704707
:100B500010B5436913B1AFF3008001E0FFF739FC32
:100B6000012010BD127800F124010A7000224A70A1
:100B70000122EDE711684FF0FF32E9E710B5436954
:100B800013B1AFF3008001E0FFF788FC012010BD36
:100B9000128800F1240182840022C2840122EDE740
:100BA00011684FF0FF32E9E72DE9F0418046D21D90
:100BB00022F007020025D2E90002F52915A614D07B
:100BC000011E72F1000106DA0023D0EB030063EB93
:100BD000020211A608E0D8F800108B0701D50FA675
:100BE00002E0490701D50EA601251146002408F1AF
:100BF000240704E000F09EF830323A55641C50EAB5
:100C00000102F7D12B46324621464046BDE8F0416D
:100C1000FFF710BF000000002D0000002B000000B7
:100C2000200000002DE9F05F824615468B46002724
:100C30000AF10104B9460078302801D09DB113E0D3
:100C400014F8010B0127782803D0582801D045B1AA
:100C50000AE00DB1102D07D1002714F8010B102563
:100C600002E0082500E00A250026B0460EE005FB5C
:100C7000080005FB06F101271FFA80F801EB10467A
:100C8000B6F5803F00D3B94614F8010B294600F0B1
:100C900023FC0028EBDABBF1000F05D00FB1641E76
:100CA00000E05446CBF80040B9F1000F06D0FFF742
:100CB000BDFE02210160C81EBDE8F09F48EA064063
:100CC000FAE72DE9F04116460C460546FFF7A6FE69
:100CD000036893F80101012807D0FF2C12D8185D92
:100CE00080B101202C70BDE8F081D3F807013246B5
:100CF000214603F20713C7182846BC46BDE8F04159
:100D0000002360474FF0FF30EDE708B569468DF8E6
:100D100000000320ABBE08BD01491820ABBEFEE7B2
:100D200026000200004870470C020010004870477F
:100D30002C02001030B5B0F10A0271F100034FEA45
:100D4000900E4EEA817EB0EB0E0061EB91014FEA0E
:100D5000101E4EEA017E10EB0E0041EB11114FEA1E
:100D6000102E4EEA016E10EB0E0041EB11214FEAFE
:100D7000104E4EEA014E10EB0E0041EB11414018AF
:100D800041F100014FEAD00040EA41704FEAD10141
:100D90004FEA810444EA907410EB800544EB0104AF
:100DA0006D1944EB0404521BA3414FF0000348BFEC
:100DB0000A3200D530BD401C41F1000130BD2DE9A3
:100DC000FF4F0C461E464FF0FF378BB0D2E90001B3
:100DD000DDF860800A908A46C1F30A5505B93D46A0
:100DE000002108464FF00000BAF1000F00F4400067
:100DF00005DA00EB80004FF4400101EA50004FEAB1
:100E00009059B9F1010F00DDB9460A9850EA4A003D
:100E10000ED044F61050A5F2FF3545432F14B8F11B
:100E2000000F1ED07542291E1EDDC9F100021CE014
:100E3000B8F1010F4FF0000001D0302103E0F24380
:100E400005E02154401CB042FBDB3046002200216B
:100E500021540B99C1F80880C1E900200FB0BDE80A
:100E6000F08FBD1B6D1CDEE74A4600DA694206A81A
:100E700000F06AFC06AB93E8070003AB83E80700C9
:100E800050460A993AF0F3FA8DE80700A0F50050B1
:100E90001F3800900398002D0ADD42F21F014A46D8
:100EA0000844002303A9039068463AF05DFD09E079
:100EB000A0F500504A461F38002303A90390684656
:100EC0003AF067FD8DE807000004000C03D04FF0F6
:100ED000FF30410800E01046B8F1000F03D00022B7
:100EE000009215461EE0751E05D4FFF723FF303231
:100EF00062556D1EF9D5B3460122084302D0002287
:100F00007F1C04E02078302801D100227F1E002AB7
:100F1000099784D01DE0112D07DAFFF70BFF30325F
:100F200062556D1C50EA0102F5D1084302D00098C9
:100F3000C8B10EE00021681E05E0235C625C6354CA
:100F40002254401E491C8142F7DBAB46A81B401EC1
:100F50000990002004F80B000B98099AC0F808804B
:100F6000C0E9002B7AE711264FF0000857E72DE97A
:100F7000F04F88460446D21D22F0070191B0D1E916
:100F80000001CDE90A013AF03BFE02460B98C00F82
:100F900001D02D2007E02068810701D52B2002E039
:100FA000202101EAC000032A099001D0072A05DBAD
:100FB00003464146204600F087FB0BE1207880067F
:100FC00001D5E06900E00620B8F1650F814606D042
:100FD000B8F1660F18D0B8F1670F70D131E000207A
:100FE000B9F1110F009001DB112301E009F10103B8
:100FF0000AAA01A90CA8FFF7E2FEDDE90C700026A1
:1010000009F10105834647E001204B4600904FF06F
:1010100000470AAA01A90CA8FFF7D1FEDDE90DB02F
:101020000C995D46002610B909F101000D18B9EBC5
:10103000050003D4C0F1FF3609F10105A5EB090055
:101040002BE0B9F1010F01DA4FF001090020B9F1ED
:10105000110F0090484601DD112300E003460AAA63
:1010600001A90CA8FFF7ABFEDDE90C704D46002688
:101070008346207800070AD4AB4500DA5D4601A814
:10108000012D04DD411911F8011C302907D04F450D
:1010900002DA17F1040F04DA012082460FE06D1E18
:1010A000EEE7002F02DCED1B3E4403E0781CA84273
:1010B00000DD7D1CB81B00F1010A4FF000472078CD
:1010C000000703D4AA4501DB4FF0FF3A0021B7F136
:1010D000004F0DF143088DF8431024D002202B233C
:1010E000002F01DA7F422D230A21021EA0F1010008
:1010F00000DC5FB197FBF1FC97FBF1F201FB1C7C7C
:1011000017460CF1300C08F801CDEEE7A8F101000C
:1011100003702188090501D5452100E06521A0F172
:10112000010800F8011C09980FA9A1EB0807FF1D91
:1011300000B10120411901EBEA70A1693844081A95
:10114000401EA0612078C00602D42046FFF708F9AF
:10115000099828B1D4E901219047206A401C2062F7
:101160002078C00622D52046FFF7FAF81EE0002EB0
:1011700004DBB34502DD01A8805D00E03020D4E946
:1011800001219047206A401C2062761CAAF10100D0
:101190005FEA000A0AD1FFF7C9FDC0680168405C38
:1011A000D4E901219047206A401C2062281EA5F145
:1011B0000105DCDC07E0D4E9012118F8010B9047B8
:1011C000206A401C2062381EA7F10107F3DC20468C
:1011D000FFF7DCF8032011B041E600002DE9F04FE5
:1011E00004460D46D21D22F0070089B0D0E90097D1
:1011F000484639463AF004FD0246F80F01D02D2347
:1012000007E02068810701D52B2302E0202101EAB5
:10121000C0038DF820300BB1012000E00020032A2C
:10122000824601D0072A04DB2946204600F04CFA0A
:101230003FE12078800601D40D2500E0E569C7F381
:101240000A560D2D49DA00214FEA175B08464FF088
:101250000000002F00F4400007DA00EB80004FF49C
:10126000400100EBD07001EA60008115012901DD29
:101270004FF0FF3100224FEA850CBCF1180F06D366
:101280001346ACF118004FF08052C24003E04FF417
:10129000801323FA0CF30CF10C0CBCF1200F04D3D7
:1012A000ACF1200C09FA0CF001E007FA0CF000296F
:1012B0004FF0004801DD18B90FE00ED140450CD3C6
:1012C00019EB02095F4121B9404502D19F4329EA48
:1012D0000209BBEB175F00D0761C2088000502D501
:1012E0007B48784402E07A487844193808AA3023C9
:1012F00002F80A30037C0AF10101002E0AF1020A09
:1013000053546A4602DC4FF0300101E04FF03101E6
:101310004FF001088DF8001002D0A6F2FF3603E06E
:1013200059EA470100D06B4E002D02DC21780907F5
:1013300004D54FF002082E218DF80110C44600217B
:101340000BE0C7F303433F01C35C491C6D1E02F869
:101350000830052908F1010801DA002DF1DC00212F
:101360000CE000EB1973491C1B786D1E082902F86C
:1013700008304FEA091908F1010801DA002DF0DC04
:1013800021688B0602D516E0A8F10108E04505DDCD
:1013900002EB080313F8013C302BF5D0B8F1000F35
:1013A00009DD02EB080313F8013C2E2B03D10907DA
:1013B00001D4A8F10108002D05DD3E2102F8081036
:1013C0006D1E08F10108407C002E02F8080008F1AB
:1013D000010804DA2D20764202F8080002E02B20F2
:1013E00002F808000A214FF47A70864208F10108D9
:1013F0000BDB96FBF0F3303302F8083096FBF0F38A
:1014000008F1010800FB136601E0642E0CDB642088
:1014100096FBF0F3303302F8083096FBF0F308F156
:10142000010800FB136601E00A2E06DB96FBF1F0D3
:10143000303002F8080008F1010896FBF1F001FBDA
:101440001060303002F80800A16908F1010808EBCB
:10145000050202EB0A00081AA0612078C00602D437
:101460002046FEF77DFF216A08AE01EB0A002062EC
:1014700004E0D4E9012116F8010B9047BAF1010A02
:10148000F7D22078C00602D52046FEF769FF6E46E7
:1014900009E016F8010B3E280FD0D4E9012190474E
:1014A000206A401C2062B8F10108F2D22046FEF703
:1014B0006DFF09B00320BDE8F08F206A2844206248
:1014C00003E0D4E90121302090476D1EEBD3F8E70B
:1014D0002AAA030002FCFFFF3A2800D2303820F08D
:1014E0002002412A01D3A2F13700884201D34FF0F4
:1014F000FF30704710B54248542100F06EFA414861
:10150000542100F06AFA4048542100F066FA3F493D
:101510003B483C4A3F4B08603D490A603A491960E4
:10152000531C0365481C1065012008653B48344A7C
:1015300039A1784400F09EF920B9384878440A3837
:1015400000F044FA37482F4A35A1784400F092F968
:1015500020B9344878440A3800F038FA32482A4A28
:101560002FA1784400F086F920B92F4878440A3832
:1015700000F02CFA40232248DC000021224600F033
:1015800055F920B125487844543800F01FFA1D4819
:1015900022464023002100F049F920B12148784437
:1015A000543800F013FA184822461023002100F0A6
:1015B0003DF9002806D01C487844BDE81040563854
:1015C00000F004BA10BD104870B5006D20F00104A1
:1015D0000B4800F0C7F90B4800F0C4F90A4800F0C6
:1015E000C1F909E0206D20F00105204600F0BAF9AC
:1015F000204600F041F82C46002CF3D170BD0000CD
:101600001001001064010010B8010010000000106B
:10161000040000100800001072000000027E0500A7
:1016200077000000F17D0500E17D050070477546FB
:10163000FFF778FBAE4605006946534620F00700E9
:10164000854618B020B5FEF75BFEBDE820404FF0A0
:1016500000064FF000074FF000084FF0000BAC46BB
:10166000ACE8C009ACE8C009ACE8C009ACE8C00906
:1016700021F007018D46704770B50446051F00F044
:10168000D3F90068002C14BF446870BD002C18BF4B
:10169000AC423CBF20466468F8D301680A18AA42ED
:1016A00018BF456003D12A680546114401602868C7
:1016B0004119A1421CBF6C6070BD616869602168FE
:1016C0000844286070BD00002DE9F0411F46044623
:1016D00003260168072A01F4006004DB08B116A59F
:1016E00005E016A503E008B115A500E015A521F059
:1016F00010002060A069C01EA0610FB1401EA06153
:101700002046FEF72DFE4FB1D4E90121384690471F
:10171000206A401C2062C01C206206E0206AFAE7B2
:10172000D4E9012115F8010B9047761EF8D2204626
:10173000FEF72CFEBDE8F0814E414E006E616E005A
:10174000494E4600696E66002DE9F047814616460F
:101750008AB0354878440DC88DE80D003248784489
:10176000801C03AC0DC884E80D0041F69B30084492
:10177000372190FBF1F290FBF1F5A5F1800501FB1B
:1017800012041B3C02D56442012000E00020DFF877
:1017900098A080460027FA44AAF1BE0A0EE0E007AE
:1017A0000AD03246684607EB470101230AEB810164
:1017B0003AF0EFF88DE8070064107F1C002CEED1A2
:1017C000194F7F44AE3F19E0E80715D007EB04102E
:1017D0000DF1180A90E80E008AE80E00C068F04289
:1017E00001D1981908903246012306A903A83AF0BE
:1017F000D0F803AB83E807006D10641C002DE3D123
:101800004FF0010332466946B8F1000F03A802D039
:101810003AF0AAF801E03AF0BCF8C9E90001C9F8C9
:1018200008200AB0BDE8F08748A6030070B5C46878
:10183000A50713D0650211D4B2F5807F09D0B2F5A7
:10184000007F06D0B2F5806F08D1012300F124019A
:1018500006E05D1E6FF07F46B54201D3012070BDEA
:101860000161C361416024F470611143C1600020D3
:1018700070BD00002DE9F0410C461646070047D028
:10188000104600F06FF82078611C61280AD0722899
:1018900002D077283CD102E00125002405E0022592
:1018A000042402E0082448F2020511F8010B2B2859
:1018B00006D0622809D011F8010C74280AD00BE078
:1018C00045F0030544F00204EFE745F0040544F059
:1018D0000104EAE744F010043846214609F0D4FC3C
:1018E000411C15D00021316171604FF40071F56029
:1018F000F1617061200704D530460222002100F01A
:101900000DF9306D40F0010030653046BDE8F081E2
:101910000020FBE72DE9F0410D460646104C206DF6
:10192000C10704D0410804D020F00104F7E72246A3
:101930000EE0542000F0C3F807000ED0206D47F0F1
:101940000101084354212065384600F046F83A4624
:1019500029463046BDE8F0418CE70020D6E700007C
:10196000100100102DE9F04704464FF000094FF038
:10197000FF37C568D4E90486A80707D0204600F0E1
:101980007DF9304609F06EFC002802DA3846BDE8E1
:10199000F087280502D54046FFF76EFE4C21204611
:1019A00000F01BF8206D20F0010020654846EEE7AE
:1019B00010B50446AFF300802046BDE81040FEF7A6
:1019C0008ABC002801D0FFF7A7B9704710B500F016
:1019D000B3F9BDE81040FFF7F4BF4FF0000200B5C7
:1019E000134694469646203922BFA0E80C50A0E842
:1019F0000C50B1F12001BFF4F7AF090728BFA0E8F0
:101A00000C5048BF0CC05DF804EB890028BF40F8BB
:101A1000042B08BF704748BF20F8022B11F0804FFD
:101A200018BF00F8012B70470048704714020010DF
:101A3000704770477047704738B504460A46002023
:101A40006946AFF30080002808BF38BD0246009900
:101A5000204600F0C4F9012038BD012000F0FAB999
:101A6000F8B5AFF30080054600200C46102000BFFB
:101A70000646A819A0420DD9324669460020AFF3A8
:101A80000080070008BF00F0E5F90098A04218BFE9
:101A90000546C419FFF7C8FF05600746F01D20F092
:101AA00007004619284600F093F9B44208BFF8BD74
:101AB000A21B31463868BDE8F84000F090B970B517
:101AC0000646FFF7B1FF056806F10B0020F007049A
:101AD000B4429CBF002070BD2B466A68BAB1106842
:101AE000A04210D304F1080188423CBF50685860FE
:101AF00007D35168101941601168091B01605860D3
:101B00001460101D70BD13465268002AE7D12146AB
:101B10002846FFF791FF0028DED170BD2DE9F04186
:101B2000044616460D464769007B80072ED038468E
:101B300009F0A2FB50BB3EB3012E02D0022E25D1EC
:101B400004E0204600F065F905441DE03846002019
:101B500000BFE168002841F01001E16005DA20468D
:101B600000F058F80120BDE8F081C9030BD5626888
:101B7000E16A914200D81146A26911442269891A8A
:101B8000814200DD08460544002D01DA0220EAE723
:101B9000E16A6068E268814206D29103E06203D59F
:101BA00022F4003141F01002A6690027AE4213DC96
:101BB000E16A814201D90B4600E0034603EB060CC3
:101BC0002369ACEB030CAC4506DD814201D98C46A0
:101BD00000E084469C4505D1A760276042F02000C4
:101BE000A5620DE0AD1BE669AE1B8142A66000D97F
:101BF0000846C01A281A20605819606022F0200098
:101C000003490840E060002084F84870ABE700001A
:101C1000BFCFD7FFC16821F4001141F08001C1603E
:101C200000218160016070472DE9F047814614462C
:101C30000E464FF0FF383248D5685769054209D043
:101C40003846A1694FF0FF30002811DB2C48C04313
:101C50000540E5602B4632464946384609F042FBCE
:101C6000A16920F00042B21A11440028A16103D0FA
:101C70002046FFF7CFFF4046BDE8F08770B5044629
:101C80000569C06A6168884200D80846E16821F4A5
:101C90002011E160C90312D5A84208D02246411B99
:101CA0002846FFF7C1FF10B14FF0FF3070BD002094
:101CB000E562C4E90150E06820F48030E060002073
:101CC00070BD10B50446C06820F02000E060A16A35
:101CD000A06988420DD02046FFF7D0FFE06820F4CD
:101CE000405040F01000E060A06AA0612069E0620E
:101CF000606044F24001E0688843E06010BD00008D
:101D00001000020070B505460C460A2000E06D1C6C
:101D1000FEF7FBFF35B128780028F8D102E0641CFB
:101D2000FEF7F3FF14B120780028F8D1BDE8704029
:101D30000A20FEF7EABF000010B5014602A0FFF737
:101D4000E1FF012010BD0000534947525452454461
:101D50003A2052656469726563743A2063616E2744
:101D600074206F70656E3A200000000010B5203AB4
:101D7000C0F00B80B1E81850A0E81850B1E8185036
:101D8000A0E81850203ABFF4F5AF5FEA027C24BF08
:101D9000B1E81850A0E8185044BF18C918C0BDE8F1
:101DA00010405FEA827C24BF51F8043B40F8043BBA
:101DB00008BF7047D20728BF31F8023B48BF11F86F
:101DC000012B28BF20F8023B48BF00F8012B7047C9
:101DD00000210160C0E901107047102070470346E0
:101DE00040688C46002818BF88423CBF03464068C4
:101DF000F8D318681844884207D00CF1030020F08B
:101E00000700001D411A521A0146081D0A60FFF71B
:101E100033BC10B50146C268900703D0900607D5C1
:101E2000886A0AE0FEF702FE01210160881E10BDEB
:101E30008B69486818440B69C01A91F848301BB187
:101E400091F84910401A10BD1103FCD50028FADDA5
:101E5000401E10BD10B500F005F8BDE81040FFF7BA
:101E6000B0BD000010B5012805D0002103A0FFF788
:101E700049FF012010BD09A1F8E70000534947526E
:101E8000544D454D3A204F7574206F66206865614A
:101E900070206D656D6F7279000000003A20486512
:101EA0006170206D656D6F727920636F72727570ED
:101EB0007465640053EA020C00F069802DE9F04B70
:101EC0004FF00006002B1FBFB3FA83F503FA05F4A9
:101ED00024FA05F65E4012BF1643B2FA82F502FA02
:101EE00005F4C5F120051EBF22FA05FC44EA0C04E6
:101EF000203556EA044C4FEA144418BF641C4FF0D6
:101F000000084FF00009904271EB030C39D300290F
:101F100019BFB1FA81F701FA07F6B0FA80F700FAB3
:101F200007F6C7F120071EBF20FA07FC46EA0C0699
:101F30002037B6FBF4FCA7EB0507103F07F01F0B9B
:101F4000CBF120062CFA06F60CFA0BFB44BFB34685
:101F50000026202FA4BF5E464FF0000B5BEA060C64
:101F600008BF4FF0010B19EB0B0948EB0608ABFB60
:101F7000027C06FB02CC0BFB03CCC01B71EB0C01FB
:101F8000C1E70B46024641464846BDE8F08B13B513
:101F9000084318BF4FF0FF300146AFF30080BDE8A3
:101FA0001C407047032A40F2308010F0030C00F010
:101FB000158011F8013BBCF1020F624498BF11F883
:101FC00001CB00F8013B38BF11F8013BA2F104023C
:101FD00098BF00F801CB38BF00F8013B11F00303B4
:101FE0003FF4C4AE083AC0F0088051F8043B083A08
:101FF00051F804CBA0E80810F5E7121D5CBF51F8BA
:10200000043B40F8043BAFF30080D20724BF11F833
:10201000013B11F801CB48BF11F8012B24BF00F898
:10202000013B00F801CB48BF00F8012B704702F0DC
:10203000FF0343EA032242EA024200F00AB802F038
:10204000FF0343EA032242EA0242FFF7C8BC4FF013
:1020500000020429C0F0128010F0030C3FF4BFAC62
:10206000CCF1040CBCF1020F18BF00F8012BA8BF83
:1020700020F8022BA1EB0C01FFF7B1BC5FEAC17C99
:1020800024BF00F8012B00F8012B48BF00F8012BFA
:1020900070470000FEE700002DE9F04381B040F2F8
:1020A0008029C2F20009D9F80000466947688268B1
:1020B000C1680469D0F81880F30701D1002532E027
:1020C000D3070ED00123950783600AD453075ABF64
:1020D0004FF4805303EA42254FF40065D30503D43F
:1020E00010E00025D3050DD54FF4807C9305C0F892
:1020F00008C007D453055ABF02F4006345EAC3057C
:1021000005F50055D3030ED54FF4803C9303C0F87A
:1021100008C008D453034FBF05F500454FF4803382
:1021200003EAD2021544320706D511F010021EBF91
:1021300045F400751022C260720704D511F0080141
:102140001CBF0821C160B10744D5C168890741D0CF
:1021500099F820100139012932D8C168890732D095
:10216000D0F8B021D0F8B011520705D440F2A8221F
:10217000490DC2F200021160D0F8B011D0F8B411CC
:10218000D0F8B411D0F8B411D0F8B811D0F8B81113
:10219000D0F8B811D0F8B811D0F8BC11D0F8BC11F3
:1021A000D0F8BC11D0F8BC11C16841F02001C16069
:1021B0004AF6C470C2F20100006830F057FB09E033
:1021C0004FF4802001E04FF40010D9F824100843A8
:1021D000C9F82400700608D514F0100005D0D9F80D
:1021E000000045F4806510210161B00606D514F0A9
:1021F000080003D0D9F8000008210161F00602D5DB
:10220000D9F800000069B00306D517F0100003D01C
:10221000D9F8000010214160F00306D517F008003E
:1022200003D0D9F8000008214160300441D5780777
:102230003BD506F4807008EA102028435FEA8871D5
:10224000014648BF41F00201B20558BF01465FEAAE
:1022500048700D4648BF45F00405700558BF0D464F
:10226000300522D518F070001FD01038000905285D
:1022700015D8DFE800F00306090C0F1245F0080539
:102280000DE045F010050AE045F0200507E045F0B7
:10229000400504E045F0800501E045F48075D9F87B
:1022A0000000816921F070018161D9F800000421EA
:1022B000416025B1D9F824002843C9F8240001B0B1
:1022C000BDE8F08300207047002070474AF6683070
:1022D000C2F20100D0F8D41200EB8101D1F8C002A3
:1022E00098B14AF64472C2F2010201F53071C0F8A9
:1022F0000822096800220029C0F810221EBF4AF6F1
:102300004460C2F20100C1F80402002070470000DE
:102310002DE9F04F81B04AF66831C2F20101D1F8DF
:10232000D422804601EB8203D3F8C02222B103F508
:102330003070C2F804820268F2B10B7CD2F8040259
:10234000D1F8C8224027002B08BF4FF400770021A6
:102350001369C2F8C0120121C2F8B872A2F8A01223
:10236000012BC2F8B00208BFC2F8B402106802F52F
:102370002871DAB207F0C6F840462121FEF780FA4C
:10238000002800F0C08340F6B420C2F2000000250F
:10239000056040F6BC2040F6B826C2F200004FF0BF
:1023A000FF31C2F20006016040463560FEF7D4FA04
:1023B000002800F09E8340F2B02BC2F2000B4FF0D9
:1023C000FF3C4FF0000E00234FF000094FF0000AD1
:1023D00020E07B294FF0020108BF01214FEA0E17D0
:1023E0000BF8071040F6BC210432C2F200010AF1DA
:1023F000010AC2F80090C1F800E0F4469E4609F1D7
:10240000010940F6B4218145C2F20001C1F80090F3
:1024100080F0208318F809105D2900F24781DFE879
:1024200011F01903C301C301C301C301C301C301F7
:10243000C301C3015E005E00C301C3015E00C301AE
:10244000C301C301C301C301C301C301C301C3016C
:10245000C301C301C301C301C301C301C301C3015C
:10246000C3015E00C3015F00C301C301C301C30117
:10247000C301C301C301C301C3011E02C301C301E0
:10248000C301C301C301C301C301C301C301C3012C
:10249000C301C301C3014802C301C301C301C30196
:1024A000C301C301C301C301C301C301C301C3010C
:1024B000C301C301C301C301C301C301C301C301FC
:1024C000C301C301C301C301C301C301C301C301EC
:1024D000C301C301C301C301A801C30149018EE7C0
:1024E000CDF800A009F1010A40F6B4258245C2F2F8
:1024F0000005C5F800A080F0A082544606E000BFA9
:102500002246541C84422C6080F0978218F80410F4
:102510005C2905D0002900F090822229F0D1E5E164
:10252000621C8242ECD22A6018F80210A1F1220744
:10253000532F6FF0010100F28282DFE817F05400A0
:10254000800280028002800280028002800280027B
:102550008002800280028002540080028002800299
:10256000800280028002800280028002800280025B
:10257000800280028002800280028002800280024B
:10258000800280028002800280028002800280023B
:10259000800280028002800280028002800280022B
:1025A000800280028002800280028002800280021B
:1025B0008002540080028002800280028002540067
:1025C0008002800280025400800280028002800229
:1025D0008002800280025400800280028002540047
:1025E0008002540055008CE7A11C814229605AD218
:1025F00018F80120002A56D0A2F13001C9B20A29E8
:102600000AD36FF0600151FA82F1062904D3D1B2E6
:102610004139052900F21083E11C8142296042D230
:1026200018F80120002A3ED0A2F13001C9B20A29CF
:102630000AD36FF0600151FA82F1062904D3D1B2B6
:102640004139052900F2F882211D814229602AD2F0
:1026500018F801203AB3A2F13001C9B20A290AD30D
:102660006FF0600151FA82F1062904D3D1B24139E9
:10267000052900F2E182611D8142296013D218F818
:10268000012082B1A2F13001C9B20A290AD36FF048
:10269000600151FA82F1062904D3D1B241390529EA
:1026A00000F2CA82A11D4A1E2BE700BF7B2960D021
:1026B0007D2979D1CDF800A07D294FF0020A08BF0D
:1026C0004FF0010ABEF1010B00F1FC8040F2B02195
:1026D000C2F2000101EB0E11A1F13C0600236FF0E4
:1026E00003076FF002046FF001010DE0043B0EEBF5
:1026F00003020332ABF1040B043F403E043C032AC7
:10270000A1F1040140F39F81326B0EEB030501320E
:10271000A5F1010203D0756B013500F00981012A92
:10272000C0F29181356A013503D0756A013500F038
:102730000C81022AC0F287813569013503D07569A1
:10274000013500F00F81032AC0F27D813268013229
:10275000CCD072680132C9D1ABF1030140F2B02B89
:10276000C2F2000B0BEB011101F108030EEB0702A3
:1027700004E1BEF17F0F00F2CD810BEB0E124FF0A2
:10278000FF340EF1010394601CF101043360D56045
:102790003FF41FAE0BEB0C17FE680136FE6040F6EF
:1027A000B826C2F2000614E609F101023A291FD840
:1027B000DFE801F03622222222222222223636228D
:1027C00022362222222222222222222222222222D5
:1027D00022222222362222222222222222222222C5
:1027E00036222222222222222222222222223600C3
:1027F0005D2915D07D2913D07F3911F15F0FC0F00D
:10280000868140F6B4219042C2F200010A6000F0D5
:10281000968018F8021001323A297FF6C9AFE7E72F
:10282000511EBEF17F0F00F2FD810BEB0E120EF177
:1028300001034FEA0E170824C2E90191A1F1010931
:102840001CF101010AF1010A33600BF80740D56061
:1028500046D00BEB0C11CA680132CA60CEE51CF100
:10286000010140D04FEA0C111BF80110033911F19E
:10287000030F3FF6C4AD591E3FF5C1AD0BEB03117D
:1028800008391A4606E000BF013A002AA1F11001FA
:102890007FF7B5AD11F8084C013C012CF4D851F884
:1028A000044C0134F0D00C680134EDD1A2F1010CDC
:1028B00001E0A3F1010C40F6BC21C2F20001C1F815
:1028C00000C09CE5DDF800A040F2B02BBEF1000F87
:1028D0007346C2F2000B4FF000057FF490ADB2E0FA
:1028E0004FF0FF3C8AE54FF0FF3C88E5802B80F0FD
:1028F000A0810BEB0311C1E901A4DDF800A040F6B3
:10290000B826002503F1010EC2F200061A010423C5
:10291000CD601CF101010AF1010AC6F800E00BF8D4
:10292000023078D00BEB0C11CA680132CA6074E037
:1029300040F2B02B06F13403C2F2000B1EE0014658
:10294000BEF17F0F7FF671AF6CE1ABF1010240F297
:10295000B02BC2F2000B0BEB021202F108030EEBDC
:1029600001020BE0ABF1020140F2B02BC2F2000B0E
:102970000BEB011101F108030EEB040211011BF82E
:10298000011040F6B8268A45DDF800A0C2F2000624
:1029900059D140F6BC21C2F200014FF0FF370F6061
:1029A00009F1010119600BEB02110831002507E064
:1029B000032AA2F10402A1F140014FF0FF3C2DD9FE
:1029C00051F8043C013302D00B6801332CD0EAB13A
:1029D00051F8143C013303D051F8103C013320D09E
:1029E000022A13D351F8243C013303D051F8203C80
:1029F000013318D0032A09D351F8343C0133D7D01E
:102A000051F8303C0133D3D1033A0DE04FF0FF3C95
:102A10007346FFF7F4BC4FF0FF3CA1467346FFF747
:102A2000EEBC013A00E0023A40F6BC21C2F20001DD
:102A30000A6094467346FFF7E2BC6FF00201C5F8E6
:102A400000908A4601E06FF0010A8CA0514637F0F1
:102A500069FB51E0BEF101012FD40BEB01110EF126
:102A600003000C3903E00328A1F1400125DD0A69C8
:102A7000013202D04A6901321CD0043801281CDB23
:102A80000A68013202D04A68013213D0022814DBEE
:102A900051F8102C013203D051F80C2C013209D01E
:102AA00003280ADB51F8202C0132DCD051F81C2C11
:102AB0000132D8D16FF0020AC7E7BAF1FF3FC4DD97
:102AC000BAF1000F15D09BF80000012811D1BAF11E
:102AD000020F11D340F6B02644F6A04944F69C44B8
:102AE0000127C2F2000661A5C2F20109C2F2010487
:102AF00019E069A0FDF7AEFE4AF6C470C2F201000B
:102B000000682FF0B3FE002001B0BDE8F08F6FF039
:102B1000010189E04FF0FF3A97E737F003FB00BF70
:102B200001375745E8DA38011BF800000428F7D1CF
:102B30000BEB0711D1E90101091A0129F0D118F8AD
:102B4000000042381128EBD8DFE800F0190A090923
:102B50002837090909094609090909095561DFE703
:102B600001370BEB0710D0E9011044F6B44308EB32
:102B70000102C2F20103411A31A01A60CDE7013708
:102B80000BEB0710D0E9011044F6B04308EB01024B
:102B9000C2F201031A60411A2FA0BEE701370BEB06
:102BA00007104068314640440A22FDF71BFE44F6F8
:102BB000A841C2F201010870B2E701370BEB071020
:102BC000D0E9011044F6A44308EB0102C2F201036C
:102BD0001A60411A2846A0E701370BEB071040683E
:102BE000314640440A22FDF7FDFD44F6AC41C2F2F5
:102BF0000101087094E701370BEB0710406831467C
:102C000040440A22FDF7EEFDA9F8000088E70137ED
:102C10000BEB07104068314640440A22FDF7E2FD05
:102C200020807DE74FF0FF3140F6B425C2F2000569
:102C300005E74FF0FF3102E76FF00101FFE600BF4B
:102C40002D2043757272656E7454696D653A202546
:102C50002E2A730A000000002D2042657374546907
:102C60006D653A20252E2A730A0000002D20476545
:102C700061723A20252E2A730A0000004661696CB1
:102C8000656420746F207061727365204A534F4EE3
:102C90003A2025640A0000004F626A65637420656B
:102CA000787065637465640000207047F0B581B08A
:102CB0000020009040F2200040F20C14C1F200000D
:102CC000C2F200040268D4E9166048F2B51337680E
:102CD0000821C1F64E3381403942A2FB03250CD0B6
:102CE000226813685B0708D5136823F00403136098
:102CF000B160616D41F0010161650121814039429E
:102D000008D022685269120604D5B160616D41F0A5
:102D10000201616504218140394208D022681268AD
:102D2000920704D5B160616D41F004016165102125
:102D300001FA00F23A4216D021680B681B0712D53F
:102D4000B2600B680A685B0306D4D20506D40A6831
:102D500022F008020A6001E0110340D4216C11B195
:102D600020468847E06D202101FA00F23A4245D022
:102D700021680B68DB0641D5B26094F835300A68EB
:102D8000052B1CD122F016020A604A6922F080024B
:102D90004A61226CA36C1A4303D00A6822F008022D
:102DA0000A603F2101FA00F0B060012084F835008C
:102DB000216D0020002984F8340055D15CE00868BA
:102DC000520310D4C00512D4086820F01000086027
:102DD000012084F83500002084F8340007E0A16C5D
:102DE0000029BDD1BFE7000301D4616C00E0E16BB5
:102DF00021B140F20C10C2F200008847606DD8B3D8
:102E0000606DC0072ED0052084F835002068A90A1F
:102E1000026822F001020260009A01328A420092A6
:102E20001AD80268D20717D0009A01328A4200925B
:102E300012D80268D2070FD0009A01328A4200925B
:102E40000AD80268D20707D0009A01328A4200925B
:102E500002D80268D207DFD1012084F835000020B3
:102E600084F83400E16C39B140F20C10C2F2000079
:102E700001B0BDE8F040084701B0F0BD7047000068
:102E800010B540F2B81EC2F2000ED0F858C0DEF8FD
:102E9000003090F8351002293AD10168026C0C68B4
:102EA00024F016040C604C6924F080044C610AB9CB
:102EB000826C1AB10A6822F008020A600A6822F0DD
:102EC00001020A600A68D20725D0DEF80020D21A73
:102ED000052A17D80A68D2071DD0DEF80020D21ABA
:102EE000052A0FD80A68D20715D0DEF80020D21ABA
:102EF000052A07D80A68D2070DD0DEF80020D21ABA
:102F0000052ADFD920214165032180F835100BE027
:102F10008021416508E0C16D3F2202FA01F1CCF841
:102F20000810012180F83510002180F8341010BD00
:102F30002DE9F04F82B000F13E4241F6004502F12A
:102F4000FF77C4F2020508224FEAB726A84208BF5D
:102F50000722072E38BF4FEAB7224FF0010A00249C
:102F600000274FF00008009209E000BF08F10108B7
:102F70000437B8F1100F04F1020400F0B5800E68B8
:102F80000AFA08F916EA090FF0D0D1F804A00AF0FD
:102F9000030BABF10106012E18D80322866802FA52
:102FA00004FECA6826EA0E06A240324382604268E6
:102FB000CAF3001522EA090205FA08F54FEA480C9F
:102FC0006FEA0E062A4342600CE000BF0322A240D3
:102FD000D643BBF1030FA44604D1A4464FF0030B24
:102FE00022E000BFC2688D68324005FA0CF52A4322
:102FF000BBF1020FC26017D16FF0030202EA580260
:10300000024407F01C030F25D2F820E005FA03FA6A
:103010000D692EEA0A0E05FA03F343EA0E03136262
:10302000D1F804A00AF0030B02680BFA0CF332404B
:103030001A431AF4403F4FF0010A026096D0002272
:1030400043F644030192C4F202031A6843F6004EA9
:1030500042F480421A601A68C4F2010E02F48042FF
:103060000192019A28F003024FF6084C7244CFF601
:10307000FF7C52F80C3007F00C060F25B540AB432F
:10308000009D05FA06F6334342F80C30DEF80820BE
:103090004B6842EA090643F60C4CDD0258BF22EAAF
:1030A0000906CEF80860C4F2010CDCF800209D028D
:1030B00042EA090658BF22EA0906CCF80060DEF8A9
:1030C00004209D0342EA090658BF22EA0906CEF809
:1030D0000460DEF80020DB0342EA090658BF22EA5A
:1030E0000906CEF8006041E702B0BDE8F08F0000AD
:1030F000B0B582B0002143F608020191C4F2020289
:10310000936B49F24F3443F001039363936BC0F622
:10311000050403F001030193019B1368136813680E
:103120001568D2F8F85340F22005C1F200052D6869
:10313000126813F4E053C2F38222A25C18BF012389
:1031400025FA02F29A404DF68363C4F21B33A2FBC8
:10315000032304464FF0FF3040F26C1500EB934020
:10316000C2F200054FF0804240F2E733C5E900208B
:103170002846C5E902132961A96100F0E3F808B106
:1031800002B0B0BD95F83D000128F9D1022085F8C4
:103190003D00286841F2FF72C168C4F2000290420B
:1031A00041F00101C1600DDC40F2FF71C4F2000189
:1031B000884215DCB0F1804F29D040F20041C4F2C2
:1031C000000122E040F2FF31C4F20101884212DC2A
:1031D00041F60001C4F20001884218D0002112E03B
:1031E00040F60001C4F20001884210D040F60041D0
:1031F000C4F2000109E044F20001C4F20101884276
:1032000005D040F20041C4F20101884204D1816836
:1032100001F00701062903D0016841F001010160B6
:103220004EF20010CEF200004FF080510F2C0160E2
:10323000A6D84EF60C51CEF2000109684FF0FF33CC
:10324000C1F3022181F00702042A28BF04220339B6
:1032500003FA02F238BF0021D24302FA01F1090158
:1032600080F81C1340F2B410C2F20000012101707A
:1032700002B0B0BD10B501464AF6C870C2F20100F6
:10328000D0F8084579B194F89C02032818BF10BD06
:10329000D4F8B802826972B300232046C4F8D4324D
:1032A000BDE81040104701EBC10100EB8100D0F8F0
:1032B0008C02D4F8941203291DD1D4E957218A42F3
:1032C0001AD9531AD4F8C822C4F85C318B4238BFDB
:1032D00019461369C2F894120021C2F89C12A2F890
:1032E0007C12012BC2F88C0208BFC2F89002106851
:1032F00002F51F7120E010BD94F89C02032808D14C
:10330000D4F8B802016921B10020C4F8D4022046E3
:1033100088470420C4F89402D4F8C8024FF480729D
:103320000146036921F83C2F0022C2644265012B4B
:10333000C26508BF02650068DAB2BDE8104006F059
:1033400061B8000070B584B0002800F08F8004469A
:1033500090F83D00002840F0EF80216840F20042E4
:10336000C4F200020020914284F83C0000F0818009
:1033700040F60000C4F20000814200F0AB80002063
:10338000C4F20100814240F0D7804FF0000C43F6B8
:103390004000CDF80CC0C4F20200416846F2284259
:1033A00041F001014160406840F20C1100F0010061
:1033B00003900398C2F20001C4F202024FF0406091
:1033C0004023C1E9002001F108004FF4806E4FF462
:1033D00000654FF4005680E8085001F1140040F2F7
:1033E000B81380E86010C1E908CCC2F200030226DD
:1033F000186881F8356081F834C0166826F0010637
:1034000016601668F60740F0B680106848F23F0371
:10341000CFF21003184040F0406040F4315010608B
:1034200050696FF00F034AF6AB2653FA82F3CAF6DF
:10343000AA26A3FB066520F007005061280963A6B1
:10344000305C40F2FF36B2435F2B4FF03F0388BF42
:103450000432C1E9162003FA00F090600120C1F89F
:1034600054C081F8350061628C6365E0012004B0CE
:1034700070BD43F640010290C4F202010A6842F0B6
:1034800002020A60096801F00201029102994EF6F7
:103490000C51CEF200010968C1F3022181F007024C
:1034A000042A28BF0422033938BF01464FF0FF30F9
:1034B0009040052222EA000088404EF21D410001A2
:1034C000CEF2000108704EF20010CEF200004FF074
:1034D000005130E0002043F640010190C4F20201A7
:1034E0000A6842F004020A60096801F004010191CF
:1034F00001994EF60C51CEF200010968C1F3022188
:1035000081F00702042A28BF0422033938BF01468C
:103510004FF0FF309040052222EA000088404EF232
:103520001D410001CEF2000148704EF20010CEF2B3
:1035300000004FF080410160022084F83D002068C7
:10354000211D04F0B7FD012084F8460084F83E00F8
:1035500084F83F0084F8400084F8410084F8420079
:1035600084F8430084F8440084F8450084F83D0062
:10357000002004B070BD0A681E68361A052E1BD8DC
:103580001668F6073FF441AF1E68361A052E13D8A9
:103590001668F6073FF439AF1E68361A052E0BD8A9
:1035A0001668F6073FF431AF1E68361A052E03D8A9
:1035B0001668F607E0D128E720204865032081F847
:1035C0003500EFF3108072B6FEE700BF000610165C
:1035D0000006101680B590F83C20012A4FF0020238
:1035E00000F0BF8080F83D20D0F800C04FF6777221
:1035F000DCF8083023EA0202CCF808200B684F2BD5
:1036000028DC1F2B43DD202B44D0302B42D0402B15
:1036100040F0A980D1F804E0C968DCF82030DCF87B
:10362000202022F00102CCF82020DCF8182022F023
:10363000F00242EA011123F00A0242EA0E02CCF83B
:103640001810CCF82020DCF8081041F0470121F0D8
:1036500030017DE06F2B25DDB3F5005F46D0B3F57B
:10366000805F77D0702B7ED1D1E901E3C968DCF8A7
:10367000082043EA0E0322F47F4243EA012111436A
:10368000CCF80810DCF8081041F0770160E00BB1CD
:10369000102B68D1DCF8081021F07001194341F0BB
:1036A000070155E0502B34D0602B5CD1D1F804E0F9
:1036B000C968DCF8203023F01003CCF82030DCF8A7
:1036C0001830DCF8202023F4704322F0A00243EAF3
:1036D000013142EA0E12CCF81810CCF82020DCF8A8
:1036E000081041F0670121F0100131E0D1E901E358
:1036F000C968DCF8082043EA0E0322F47F4243EA5B
:1037000001211143CCF80810DCF8081041F4804185
:103710001EE0D1F804E0C968DCF82030DCF8202095
:1037200022F00102CCF82020DCF8182022F0F00270
:1037300042EA011123F00A0242EA0E02CCF8181004
:10374000CCF82020DCF8081041F0570121F02001CE
:10375000CCF808100022012180F83D10002180F8EB
:103760003C10104680BD0122F5E7000080B50168DD
:103770000A69920744BFCA685FEA827239D40A694B
:10378000520744BFCA685FEA427255D40A691207F9
:1037900044BFCA685FEA027272D40A69D20644BFA3
:1037A000CA685FEAC26200F18E800A69D2071CBF54
:1037B000CA685FEAC27240F0AA800869000641BF89
:1037C000C8685FEA00606FF0800008610869400621
:1037D00041BFC8685FEA40606FF040000861086957
:1037E000800641BFC8685FEA80606FF02000086112
:1037F00080BD6FF002020A618A69920740F0F8808A
:1038000040F6E07CC2F2000CDCF800200021DCF87D
:1038100024305163D16821F40071D16093F83510E0
:10382000022940F0B380052183F8351019680B6830
:1038300023F001030B60ABE06FF004020A618A69B8
:1038400012F4407F40F0098140F6E07CC2F2000CA7
:10385000DCF800200021DCF824305163D16821F429
:103860000071D16093F83510022940F0C480052121
:1038700083F8351019680B6823F001030B60BCE076
:103880006FF008020A61CA69920740F01B8140F696
:10389000E07CC2F2000CDCF800200021DCF82430CF
:1038A0005163D16821F40071D16093F83510022979
:1038B00040F0D680052183F8351019680B6823F095
:1038C00001030B60CEE06FF010020A61CA6912F4C6
:1038D000407F40F02C8140F6E07CC2F2000CDCF826
:1038E00000200021DCF824305163D16821F40071FC
:1038F000D16093F83510022940F0E780052183F864
:10390000351019680B6823F001030B60DFE06FF0DE
:103910000102B1F1804F0A6106D140F2B812C2F241
:10392000000213680133136040F2C402C2F20002C5
:1039300090421DD044F6C442C2F2010290427FF48C
:103940003CAF44F69140C2F2010002780132D3B29A
:10395000642B027040F0EE8044F69243C2F2010301
:103960001A784FF0000C013280F800C01A70E6E0BF
:1039700048F65820C2F200000022027048F65C208F
:10398000C2F2000002680132026016E78021596528
:10399000116A42F4806321F00101116240F200419A
:1039A000D2F820E0C4F201018B42C2F820E00DD130
:1039B000116A41F21113194208D1116A40F24443CD
:1039C000194203D1516C21F400415164116A41F252
:1039D0001113194208D1116A40F24443194203D12C
:1039E000116821F00101116001218CF83E1001687D
:1039F00000220277C3E680215965116A42F4806390
:103A000021F00101116240F20041D2F820E0C4F23D
:103A100001018B42C2F820E00DD1116A41F211136D
:103A2000194208D1116A40F24443194203D1516C42
:103A300021F400415164116A41F21113194208D175
:103A4000116A40F24443194203D1116821F0010187
:103A5000116001218CF83E1001680022027795E682
:103A600080215965116A42F4806321F001011162DD
:103A700040F20041D2F820E0C4F201018B42C2F8CA
:103A800020E00DD1116A41F21113194208D1116AD7
:103A900040F24443194203D1516C21F40041516476
:103AA000116A41F21113194208D1116A40F24443DC
:103AB000194203D1116821F00101116001218CF834
:103AC0003E1001680022027767E680215965116A7D
:103AD00042F4806321F00101116240F20041D2F80A
:103AE00020E0C4F201018B42C2F820E00DD1116A3E
:103AF00041F21113194208D1116A40F244431942AC
:103B000003D1516C21F400415164116A41F2111347
:103B1000194208D1116A40F24443194203D1116895
:103B200021F00101116001218CF83E100168002292
:103B300002773AE644F69242C2F201021278D2B219
:103B40003C2A0FD144F69343C2F201031A7844F69B
:103B5000924CC2F2010C4FF0000E01328CF800E0E2
:103B60001A7004E044F69342C2F201021278D2B213
:103B70003C2A7FF422AE0022027044F69340C2F247
:103B80000100027044F69240C2F20100027014E695
:103B9000B0B540F6E072C2F2000292F83E1002297F
:103BA00076D092F83E10012972D1022182F83E109F
:103BB000D2F800C0536A48F2D91248F2E521C0F6A3
:103BC0000002C0F60001C3E90F2193F8341048F257
:103BD000ED22C0F600020129DA6459D0012183F8F0
:103BE0003410D3F858E093F8351001294DD1022153
:103BF00083F835100021596519689A68DB6D0C68E7
:103C00000CF1340524F480240C60486040F6C02098
:103C1000C2F20000402A024604BF2A4605463F2061
:103C200098408A60CD60CEF80800086840F0160021
:103C30000860086840F008000860086840F001006B
:103C40000860DCF80C0041F2FF7140F40070CCF821
:103C50000C00DCF82000C4F2000120F00100CCF8D8
:103C60002000DCF820008C4540F00100CCF820005A
:103C70000FDC40F2FF70C4F2000084451BDCBCF195
:103C8000804F3ED040F200401DE0002083F8340019
:103C9000B0BD40F2FF30C4F20100844516DC41F6AD
:103CA0000000C4F2000084452BD00020C4F20100C3
:103CB000844518D02CE040F60000C4F20000844592
:103CC0001FD040F60040C4F2000009E040F200407E
:103CD000C4F20100844506D044F20000C4F20100A1
:103CE00084450ED014E0DCF8440040F200424CF46D
:103CF0008061C4F2010240F400409142CCF84400DB
:103D000006D1DCF8080000F00700062808BFB0BDA7
:103D1000DCF8000040F00100CCF80000B0BD00006D
:103D200070B582B0044600680268064656F80C3F3B
:103D3000456902F02F01202903F0200C08D1BCF1C5
:103D4000000F05D0204602B0BDE8704004F0F6BA7E
:103D50005FEA027E1EBF05F0010503F4907111EBCE
:103D6000050140F0CB80216B012905D112F0100133
:103D700018BF13F0100132D1110622D513F08001C3
:103D80001FD094F83D10212927D1A168B1F5805F9B
:103D900003D12169002900F06182216A4A1C226254
:103DA00009784160E08C01380104E08415D1306865
:103DB00020F080003060306840F04000306002B099
:103DC00070BD500609D513F0400006D0306820F0D1
:103DD00040003060202084F83D0002B070BD00211A
:103DE0000191016801914168019101994069400682
:103DF00000F18E80A08DE28DE18D002918BF9042E8
:103E0000EBD056E8000F216820F4907041E80302DF
:103E1000CAB3206850E8030F216820F4907041E88D
:103E2000030282B3206850E8030F216820F49070E9
:103E300041E803023AB3206850E8030F216820F4F8
:103E4000907041E80302F2B1206850E8030FDAE70E
:103E5000206850E8050F216820F0010041E80502C4
:103E6000DAB1206850E8050F216820F0010041E830
:103E7000050292B1206850E8050F216820F001008A
:103E800041E805024AB1206850E8050F216820F09A
:103E9000010041E80502002ADAD1202084F83E0022
:103EA00000202063206850E8030F216820F01000F4
:103EB00041E80302002A3FF490AF206850E8030F66
:103EC000216820F0100041E80302002A3FF485AF8A
:103ED000206850E8030F216820F0100041E8030239
:103EE000002A3FF47AAF206850E8030F216820F0E1
:103EF000100041E80302002AD4D16EE7D10718BFB1
:103F000013F4807140F0B680510700F1B980BCE035
:103F1000A06B01684A6893B2002B3FF45EAFA18D9D
:103F20008B42BFF45AAFE285C069B0F5807F00F0E4
:103F30009E8056E8000F216820F4807041E803025B
:103F4000F2B1206850E8030F216820F4807041E846
:103F50000302AAB1206850E8030F216820F48070A2
:103F600041E8030262B1206850E8030F216820F4A1
:103F7000807041E803021AB1206850E8030FDAE7C5
:103F8000206850E8050F216820F0010041E8050293
:103F9000DAB1206850E8050F216820F0010041E8FF
:103FA000050292B1206850E8050F216820F0010059
:103FB00041E805024AB1206850E8050F216820F069
:103FC000010041E80502002ADAD1206850E8050F17
:103FD000216820F0400041E80502DAB1206850E88D
:103FE000050F216820F0400041E8050292B12068E9
:103FF00050E8050F216820F0400041E805024AB171
:10400000206850E8050F216820F0400041E80502D3
:10401000002ADAD1202084F83E00002020632068A6
:1040200050E8030F216820F0100041E80302DAB1E4
:10403000206850E8030F216820F0100041E80302D7
:1040400092B1206850E8030F216820F0100041E889
:1040500003024AB1206850E8030F216820F01000E5
:1040600041E80302002ADAD1A06BFEF709FFE08DD8
:1040700002B070BD216C41F001012164510704D5EB
:104080001DB1216C41F002012164910704D51DB1DD
:10409000216C41F004012164BEF1000F06D55CEAF9
:1040A000050103D0216C41F008012164216C002935
:1040B0003FF493AE12F0200118BFBCF1000F03D003
:1040C000204604F03BF920684169226C01F0400170
:1040D00002F00802891800F0A68000BF50E8030F24
:1040E000216820F4907041E80302C2B3206850E8D0
:1040F000030F216820F4907041E803027AB320682E
:1041000050E8030F216820F4907041E8030232B3B5
:10411000206850E8030F216820F4907041E8030202
:10412000EAB12068DAE700BF206850E8050F21688F
:1041300020F0010041E80502DAB1206850E8050FDF
:10414000216820F0010041E8050292B1206850E8A2
:10415000050F216820F0010041E805024AB12068FE
:1041600050E8050F216820F0010041E80502002A0F
:10417000DAD1206B012824D1206850E8030F216890
:1041800020F0100041E80302DAB1206850E8030F84
:10419000216820F0100041E8030292B1206850E845
:1041A000030F216820F0100041E803024AB12068A3
:1041B00050E8030F216820F0100041E80302002AB4
:1041C000DAD1202084F83E0000202063206850F8D7
:1041D000141F49067FF501AE50E8000F216820F05A
:1041E000400041E8050212B3206850E8050F21683D
:1041F00020F0400041E80502CAB1206850E8050FF0
:10420000216820F0400041E8050282B1206850E8B2
:10421000050F216820F0400041E805023AB120680E
:1042200050E8050FDAE70020206402B070BDA06BF3
:1042300000283FF4D2AD48F23131C0F600010165EB
:1042400090F83510022911D1052180F83510006849
:10425000016821F00101016002B070BD216A31F8EE
:10426000022B6FF35F22426021629BE58021416552
:1042700002B0BDE8704004F05BB80000002804BF45
:10428000012070472DE9F04186B0044690F83D00CA
:1042900043F6300541F20006C4F202050028C4F2DC
:1042A00001067AD1216844F60002C4F2000200201F
:1042B000914284F83C00CDE90400CDE90200019070
:1042C0001DD0B14269D1002000906969252741F0D5
:1042D00010016961696901F0100100910099009075
:1042E000286840F001002860286800F00100009074
:1042F00000984FF4C060019006F5704019E00090FE
:104300002969272741F480212961296901F4802145
:10431000009100990090286840F002002860286809
:1043200000F00200009000984FF44060019006F504
:104330007440022102910321049107214FF00008EB
:10434000059101A9CDF80C80FEF7F2FD4EF60C5058
:10435000CEF2000000684FF0FF32C0F3022080F080
:104360000701042928BF0421033802FA01F14FF0A4
:10437000050238BF404622EA010101FA00F04EF280
:104380000411CEF2000100017A1882F8FC0207F055
:104390000700012202FA00F00860242084F83D00A2
:1043A0002768D4E90212E069FB6823F40053FB603C
:1043B0003B6923F440531A433A61D4E9042311437F
:1043C000FA68194349F20C6301439A431143F960B7
:1043D0007969A26921F440711143796106F5806120
:1043E0008F4240F220014FF00A02C1F2000108BFE3
:1043F0000D22096855F8283CB74208BF0D2223FA60
:1044000002F249F24F3302F00702C0F605039A5C4C
:104410006368D1401922B0F5004FA1FB02011CD105
:104420005A00DB0FFDF746FD48F21F51C5F2EB11B4
:10443000A0FB01235A096FF0630302FB0300322340
:1044400003EBC000A0FB01014FF4F87000EA11106B
:1044500000EB0210C1F342111AE09A009B0FFDF726
:1044600029FD48F21F51C5F2EB11A0FB01235A09A7
:104470006FF0630302FB0300322303EB0010A0FB89
:104480000101F02000EA511000EB0210C1F34311CA
:104490000844B8603869202120F490403861786978
:1044A00020F02A007861F86840F40050F86000209D
:1044B000206484F83D1084F83E1006B0BDE8F08119
:1044C000B0B590F83D30202B40F08C80002900F0F2
:1044D000898090F83C30012B08BFB0BD0024212317
:1044E00040F2B81C046480F83D30C2F2000CDCF8E5
:1044F00000308284C2848268B2F5805F07D102698D
:10450000002A1CBF0A4621468E46114601E04FF0A4
:10451000000E80F83C40C48C0268C4B3002400BF85
:1045200015682D0622D4DCF80050ED1AB5F5803F51
:104530005BD215682D0619D4DCF80050ED1AB4EBE7
:10454000154F52D115682D0610D4DCF80050ED1A25
:10455000B4EB154F49D115682D0607D4DCF800508F
:10456000ED1AB4EB154FDBD03FE000BF19B111F8E5
:10457000015B556005E03EF8021B6FF35F2151605F
:104580000021C58C013DC584C58C002DC8D11168A2
:10459000490624D40021DCF80050ED1AB5F5803F1F
:1045A00077D215686D061AD4DCF80050ED1AB1EB1D
:1045B000154F6ED115686D0611D4DCF80050ED1A58
:1045C000B1EB154F65D115686D0608D4DCF80050C5
:1045D000ED1AB1EB154F5CD115686D06DBD52021C6
:1045E00080F83D10B0BD00BF026852E8031F0268AA
:1045F00021F4D07142E80313E3B1016851E8031FCD
:10460000026821F4D07142E803139BB1016851E8BC
:10461000031F026821F4D07142E8031353B101680B
:1046200051E8031F026821F4D07142E80313002B04
:10463000DAD100BF016851E8051F026821F00101CD
:1046400042E80513DBB1016851E8051F026821F05B
:10465000010142E8051393B1016851E8051F0268A2
:1046600021F0010142E805134BB1016851E8051F33
:10467000026821F0010142E80513002BDAD1202164
:1046800080F83D1080F83E10002180F83C10B0BD4D
:10469000026852E8031F026821F4D07142E8031354
:1046A000D3B3016851E8031F026821F4D07142E8D6
:1046B00003138BB3016851E8031F026821F4D07122
:1046C00042E8031343B3016851E8031F026821F471
:1046D000D07142E80313002BDAD11DE0016851E8E4
:1046E000051F026821F0010142E80513002BC6D026
:1046F000016851E8051F026821F0010142E8051335
:10470000002BBCD0016851E8051F026821F00101AF
:1047100042E80513002BB2D0016851E8051F02687A
:1047200021F0010142E80513002BD7D1A7E70000D3
:10473000FEE700000020C6F210402A2120F8021CEB
:1047400000212B220180018020F8022C2C220180E4
:10475000018020F8022C4FF4163200BF803A01800D
:104760000180018001800180018001800180018041
:104770000180018001800180018001800180018031
:104780000180018001800180018001800180018021
:104790000180018001800180018001800180018011
:1047A0000180018001800180018001800180018001
:1047B00001800180018001800180018001800180F1
:1047C00001800180018001800180018001800180E1
:1047D00001800180018001800180018001800180D1
:1047E00001800180018001800180018001800180C1
:1047F00001800180018001800180018001800180B1
:1048000001800180018001800180018001800180A0
:104810000180018001800180018001800180018090
:104820000180018001800180018001800180018080
:104830000180018001800180018001800180018070
:104840000180018001800180018001800180018060
:1048500001800180018001800180018001807FF45E
:104860007DAF70472DE9F04740F2B811C2F2000168
:10487000086800BF0A68121A642A0BD80A68121A5C
:10488000642A07D80A68121A642A03D80A68121A16
:10489000652AEFD30020C6F21040F022C32320F88F
:1048A000022C0380962320F8022C0380362320F864
:1048B000023C4FF0380C4FF03A084FF00509B42392
:1048C000A0F800C020F8028CA0F8009020F8023C6C
:1048D0004FF0010EB123A0F800E020F8023C802345
:1048E000102403800480C02420F8024C0380642339
:1048F0000380C12320F8023C4FF0130AC223A0F822
:1049000000A020F8023CA7230380C52320F8023C26
:104910000927E823078020F8023C402303808A23EC
:104920000380002329250380038005801925058045
:10493000A52505803325E026058020F8026C062693
:104940000B240280068004800724048006802E2425
:104950004726A0F800900480058006801726A0F85E
:104960000080068016260680312604800680E12617
:1049700020F8026C0D26028007800680082607803A
:10498000068023260680048046242C270580048088
:10499000A0F800C0A0F800A0A0F800A0078032276F
:1049A00007803C2720F8022C078020F8022C69227F
:1049B0000280212220F8022C2B2220F8022C3F22F8
:1049C00003800380A0F800E002802A2220F8022C55
:1049D000DF2203800380A0F800E00280112220F88B
:1049E000022C0A680B689B1A782B0BD80B689B1A51
:1049F000782B07D80B689B1A782B03D80B689B1A67
:104A0000792BEFD3292220F8022C0A680B689B1A15
:104A1000322B0BD80B689B1A322B07D80B689B1ACA
:104A2000322B03D80B689B1A332BEFD32C222A216D
:104A300020F8022C20F8021C00212B230180018089
:104A400020F8023C0180018020F8022C4FF416323D
:104A5000803A018001800180018001800180018015
:104A6000018001800180018001800180018001803E
:104A7000018001800180018001800180018001802E
:104A8000018001800180018001800180018001801E
:104A9000018001800180018001800180018001800E
:104AA00001800180018001800180018001800180FE
:104AB00001800180018001800180018001800180EE
:104AC00001800180018001800180018001800180DE
:104AD00001800180018001800180018001800180CE
:104AE00001800180018001800180018001800180BE
:104AF00001800180018001800180018001800180AE
:104B0000018001800180018001800180018001809D
:104B1000018001800180018001800180018001808D
:104B2000018001800180018001800180018001807D
:104B3000018001800180018001800180018001806D
:104B4000018001800180018001800180018001805D
:104B500001807FF47DAFBDE8F0870000FEE7000034
:104B6000FEE700002DE9F04F89B04AF6C87CC2F29A
:104B7000010CDCF800B0DBF81400C00741F022851E
:104B8000DBF81400DBF81810014201F01B85DBF89C
:104B90000808C0F30D20CCF8FC04DBF81400DBF8A7
:104BA00018100840800705D5DBF8140000F002005B
:104BB000CBF81400DBF81400DBF818100BF50068D4
:104BC0000840C006584640F19080DBF8180020F0FD
:104BD0001000CBF81800DBF82020C2F34340062871
:104BE00002F00F0141D0022858467AD147F6F07002
:104BF00012EA0005584674D001EBC1000CEB8000AE
:104C000000F52373D0F88C022A09042AC5F3011792
:104C100047D34FF0FF3606EB9516032EC5F3811CE4
:104C200014D3AD0925F003054FF480545BF80460FC
:104C3000043D06605BF8046046605BF804608660D3
:104C40005BF80460C66000F11000EFD1BCF1000F0A
:104C500027D04FF480555BF805600446BCF1010F86
:104C600044F8046B0FD120461BE04FF480505BF8F2
:104C70000030C2F30A12CCF8C4345BF80000CCF860
:104C8000C804584624E05BF80560BCF1020F46609A
:104C900001D1083005E04FF480565BF8066086606D
:104CA0000C3067B14FF480565BF80660012F067038
:104CB00005D0350A022F45701CBF370C8770186865
:104CC0004AF6C87CC2F2010C8718DCF800001F60AD
:104CD00001EBC1010CEB8101D1F89C321A44C1F8FF
:104CE0009C22816941F01001816141698269CDF89E
:104CF0000C801140090340F12587D0F81818D0F82E
:104D00001C2811405FEA114900F01C8743F20A0594
:104D10000CF5277800244FF4306AC4F65475002649
:104D2000CDF814B01CE000BF0BEB0A00022181603B
:104D30005FEA8E6042BF0BEB0A00202181605FEAD0
:104D40008E4042BF0BEB0A004FF4005181600136E8
:104D50005FEA59090AF1200A08F1240800F0EE86FA
:104D60005FEAC970F3D0DCF800000AEB00018A6842
:104D7000D0F8143803EA020E5FEACE726ED00BEB65
:104D80000A0201239360036C8A68DCF81070012F1B
:104D900024D117072ED4970600F1238112F0280F93
:104DA0005CD16F1CBB4202D312F4004228D158F8E8
:104DB000042C096977466FF3DF41511ABAF5306F59
:104DC000C8F8001041D1DCF89422002A00F0568384
:104DD000DCF88C020844CCF88C0236E005F58077CC
:104DE000BB4210D110040BD47746900644BF20205C
:104DF00088602AE0681C834230D312F400402DD032
:104E00004FF40040EEE07746BAF5306F1DD1DCF884
:104E10009412D1B9016CA94203D9D0F8001B002922
:104E200013D4C0F8104BD0F8101B41F40021C0F887
:104E3000101BD0F8101B41F01801C0F8101BD0F85F
:104E4000101B41F0C041C0F8101BF0B2FEF712FA7F
:104E50004AF6C87CC2F2010CBE4600BF5FEA0E7083
:104E600040F1E08358465044082104968160DCF804
:104E70000000C346026C50448168AA42069205D9DC
:104E800011F400411CBF4FF400418160DCF808853B
:104E90009CF8C45408F2AA2488F8AA529CF8C53495
:104EA000029488F8AB329CF8C6149CF8C7040191B0
:104EB00041EA0020A8F8AC029CF8C8149CF8C97418
:104EC000012441EA0726A8F8AE62BCF8CA24A8F873
:104ED000B022C8F8944205F01F04022CCDF81C80C3
:104EE000C8F8982220D0012C3ED0002CD84664D19E
:104EF00015F0600100F09780DDF814B043F20A0568
:104F0000049E77464029C4F6547502D0202940F00B
:104F1000DA800798D0F8D41200EB8101D1F8B812EA
:104F20008A6802999047D7E015F0600700F0DB80AF
:104F3000059C43F20A05049E402FC4F65475D846DA
:104F400002D0202F40F0EC800798A346D0F8B8128A
:104F500000248A680021002AC0F8D41200F03483AB
:104F600002997746904722E015F06000059F43F2D2
:104F70000A05049E4FF00004C4F65475D84618BFC5
:104F800040283AD1079890F89C22013A022A2FD85B
:104F900011F0FE0FBB4600F0D78080217746044613
:104FA00004F0B0F920460021002404F0ABF9BE461D
:104FB0004AF6C87CC2F2010C06E3079805F08001AE
:104FC000744604F09FF94AF6C87CDDF814B0A64692
:104FD000C2F2010C002443F20A05049EC4F6547583
:104FE000F2E2202088605FEA0E703FF53BAF19E3E4
:104FF0008021AB467546044606E02028C2D0079CB7
:1050000080212046AB46754604F07CF920460021FD
:10501000002404F077F94AF6C87CAE465D46C2F239
:10502000010CBB46D0E2092B00F29981DFE813F0B6
:105030000A00EA0097010201970118013B0197015C
:1050400062018D01079890F89C120139022900F243
:105050003C82DDF814B043F20A05049E022A4FF0A8
:105060000004C4F6547540F09A82D0F8A4120223CA
:1050700000294FF0030108BF012140F80C1FC0F8C0
:1050800088320446C360D0F8BC024FF480720146F7
:10509000236121F83C2F02690025C4644365012A7D
:1050A000C56508BF04650068D2B2774604F0AAF966
:1050B0004AF6C87C43F20A05C2F2010CBE4600243F
:1050C000C4F6547580E2079C8021204604F01AF94A
:1050D0002046002104F016F94AF6C87CC2F2010C01
:1050E0000024BE4670E2059C43F20A05049E002B94
:1050F000C4F65475D8464FD0012B6ED0032BA3466F
:1051000045D1079B93F89C32032B00F03181022B91
:105110003DD1079C4806774620466ED1802146E265
:10512000AB46079D80212846774604F0EBF82846D9
:1051300000215D4604F0E6F84AF6C87CBE46C2F29D
:10514000010CA34600243FE2D0F8B8128A68002A76
:1051500000F03A820299C0F8D44277469047079A05
:105160004AF6C87CB2F8B012BE46C2F2010C002961
:1051700008BF002840F028820420C2F89402D2F828
:10518000C8024FF48072014621F83C2F06E1079CCB
:1051900080212046774647E1079B93F89C0203282D
:1051A00000F00D810228A34608BF5FEA416040F08D
:1051B000378101F07F0000EB800003EB800202F1F9
:1051C000140000240227CDF800E0090658BF02F5BC
:1051D000AA700460C3F8947267E2079BA34693F831
:1051E0009C22032A00F02D81022A40F01981774683
:1051F000480600F0D98118461C4604F083F8204682
:105200008021D8E1079A92F89C120139022900F214
:10521000608180B2DDF814B043F20A05049E0128D3
:105220004FF00004C4F6547540F0CE817746C2F8C2
:10523000A442A1E780B2022800F07F81DDF814B01B
:1052400043F20A05049E079A01284FF00004C4F6B1
:10525000547540F0918101207746C2F8A4028BE793
:10526000002E08BF002A40F07A8080B27F2800F22A
:105270007680079843F20A0590F89C12049E032951
:10528000C4F6547540F0888280217446074604F0C5
:1052900039F83846002104F035F84AF6C87CDDF8C4
:1052A00014B0A646C9E00024079FADF82240B7F825
:1052B000AC024FF0FF3101EB1021062900F23482DD
:1052C000CDF800E0DFE811F0070004021902300217
:1052D000300242025402D7F8B4020DF122010268F2
:1052E000387C9047DDF814B043F20A05049EC4F6FA
:1052F00054758AE3012A32D1079B43F20A0593F8D9
:105300009C02DDF814B0411E049E02294FF00004F7
:10531000C4F6547580F0BF8143F8084F0220C3F8EB
:105320008C02D3F8C002012401464FF480721C6144
:105330005C6121F83C2F0269446500247746C36410
:10534000012AC46508BF03652FE001994BF2F460A0
:1053500011F0FE0FC2F20100017000F0BF80079D46
:1053600080212846744603F0CDFF2846002128E618
:105370007746000406D111F07F0003D012B90798D8
:1053800003F0C0FF07990420C1F89402D1F8C802C5
:105390004FF48072014621F83C2F00240269C46456
:1053A0004465012AC46508BF04650068D2B204F0F0
:1053B00029F84AF6C87CC2F2010CBE4604E101F0AD
:1053C0000F0000EB800011F0800203EB8000A34689
:1053D00014BF808CB0F8640110B301F07F0404EBBB
:1053E000840003EB800707F11400002A08BF07F5CB
:1053F000AA70490600F0C680D3F8C81204EBC403B3
:1054000001EB830101F13E03002A08BF01F27E2374
:105410001978002900F0B680012101600024B3E072
:105420001846802177461C4603F06CFF2046002179
:1054300003F068FF4AF6C87CBE46C2F2010C0024A5
:10544000C2E000044FF0000440F0BE80480600F0C7
:105450004E83D3F8C80201F00F0243689A42079BBB
:1054600000F24583090600F15D8202EBC20100EB08
:10547000810303F51F7183F87D425CE2016CA94250
:1054800004D9D0F8001B00293FF5DFACC0F8104B61
:10549000D0F8101B41F40021C0F8101BD0F8101BED
:1054A00041F01801C0F8101BD0F8101B41F0C041AA
:1054B000C0F8101B0CF2C441C0F8141BD0F8001B3C
:1054C00041F08021C0F8001BBFE4802174460546EE
:1054D00049E7104680217446154644E7079B43F28E
:1054E0000A0593F89C02049E0328C4F6547500F044
:1054F0008E8102284FF0000440F0A781002900F0BF
:105500008E81D3F8B802CDF800E00028596000F091
:10551000C481026818469047079B002800F0BD81AF
:10552000184680211F4603F0EDFE3846002103F0A7
:10553000E9FE022087F89C02C8E107990420CDF813
:1055400000E081F8A072C1F89402D1F8C8024FF4CB
:105550008072014621F83C2F02690024DDF814B066
:1055600043F20A05049EC4644465012AC465C4F676
:10557000547508BF046584E210468021CDF800E030
:10558000174680E10024046007990227CDF800E067
:10559000C1F89472D1F8C8228F61CF6189E080216F
:1055A000CDF800E007466EE1184680211C4603F066
:1055B000A9FE2046002103F0A5FE4AF6C87CC2F2EF
:1055C000010CBE46002400BF0698A8422AD9DCF888
:1055D0001000012826D1DCF80000016CA94203D993
:1055E000D0F8001B00291DD4C0F8104BD0F8101BB8
:1055F00041F40021C0F8101BD0F8101B41F0180135
:10560000C0F8101BD0F8101B41F0C041C0F8101BAF
:105610000CF2C441C0F8141BD0F8001B41F08021EB
:10562000C0F8001B5FEACE6042BF0BEB0A001021FE
:1056300081605FEA8E707FF57BABDBF814000006BB
:1056400004D50399486840F48060486018F81D0C40
:1056500001287FF469ABDCF8080508F81D4CD0F888
:10566000D41200EB8101D1F8B81200293FF45CABF1
:1056700090F89C22032A7FF457AB4A6A002A3FF431
:1056800053ABF1B2774690474AF6C87CBE46C2F2A9
:10569000010CFFF749BB0328CDF800E040F0F08093
:1056A000181D02210127C3F89412D3F8C8229F6164
:1056B000DF6111464FF4807321F83C3F1369D064D9
:1056C0005765012BD46508BF10651068DAB2DAE1BE
:1056D000397CD7F8B8020029DDF814B043F20A0586
:1056E000049E0CBF816AC16A0DF12200C4F6547594
:1056F00088470221079F417087E1C0B2DDF814B0EE
:1057000043F20A05049E0528C4F6547500F261812F
:10571000DFE810F00600620166016A016E017201A5
:10572000D7F8B40242686AE138468021754603F032
:10573000E9FD3846002103F0E5FD4AF6C87CDDF8B6
:1057400014B0AE46C2F2010CFFF745BC387CDDF860
:1057500014B043F20A05049E0028C4F6547540F0C4
:105760007581D7F8B802416B0DF1220088474CE1F2
:10577000387CDDF814B043F20A05049E0028C4F614
:10578000547540F06381D7F8B802016B0DF1220027
:1057900088470721417038E1D0F8C872DDF804B0BD
:1057A00097F8BC140024012980F89EB213D087F822
:1057B00038B039680BF07F03D1F8002822F4FE627C
:1057C000C1F80028D1F80028079842EA0312C1F86E
:1057D000002887F8BC440421CDF800E0C0F89412FA
:1057E00039464FF4807221F83C2F51F82C2C0C6173
:1057F0008C61012A0C6208BF3C653868D2B203F0A4
:1058000001FEBBF1000F14BF022001205BE0002964
:105810004FF000045FD05868884240F0AB8004200D
:10582000C3F89402D3F8C8024FF48072014621F8FD
:105830003C2F0269DDF814B07746012AC464446540
:10584000C4657FF4B2AD0465AFE518468021F34628
:105850001F4603F057FD3846002103F053FDD7F8EB
:10586000B8024BF2F461C2F201010978426838468D
:105870009047DE464AF6C87CDDF814B0FFF79ABBC5
:10588000184680211F4603F03DFD3846002103F0F5
:1058900039FDDDF800E0FFF78BBB0420C3F894026C
:1058A000D3F8C8024FF48072014621F83C2F0269F8
:1058B000C4644465012AC46508BF04650068D2B2A7
:1058C00003F0A0FD0320079981F89C024AF6C87CEA
:1058D000DDF814B0DBE0022083F89C02D3F8B802B4
:1058E000596042681846002177461C4690470420BC
:1058F000C4F89402D4F8C8024FF48072014621F82B
:105900003C2F02690024C4644465012AC46508BFB1
:1059100004650068D2B203F075FD4AF6C87CDDF874
:1059200014B048E502EBC20100EB8103012703F14B
:105930003C0183F83D7090F8BC348C70012B079BC0
:105940000A7000F0D4804F780368012F03EB4212F5
:1059500040F0B980D2F8003923F40013C2F80039BE
:105960000979079B01F0FE01022940F0BE8002F593
:105970001061B6E0D3F8B812CDF800E04A68C1B2C1
:1059800018469047079F4BF2F461D7F8B802C2F26D
:1059900001010978DDF814B00028796000F08880F2
:1059A000026838469047079F002800F081803846FB
:1059B000802103F0A7FC3846002103F0A3FCD7F8B0
:1059C000B8023979426838469047022087F89C022D
:1059D0005BE03846802156E7D7F8B40282680EE0D3
:1059E000D7F8B402C2680AE0D7F8B402026906E048
:1059F000D7F8B402426902E0D7F8B4028269002AFB
:105A000049D0387C0DF122019047B7F8B02232B36B
:105A1000BDF822100024C9B1914238BF0A460221C4
:105A2000ADF82220C7F89412D7F8C832BA61FA61EB
:105A30005A651A6919464FF4807721F83C7FD8647B
:105A4000012ADC6508BF186518681BE0384680210C
:105A500003F058FC3846002103F054FC15E0042004
:105A6000C7F89402D7F8C8024FF48072014621F8B3
:105A70003C2F00240269C464012A4465C46500D136
:105A800004650068D2B203F0BDFC4AF6C87CDDF8BC
:105A900000E0FFF78FBA3846802103F033FC384628
:105AA000002103F02FFC4AF6C87CDDF800E0C4E4D6
:105AB0000420C7F89402D7F8C8024FF48072014658
:105AC00021F83C2FD6E7D2F8003B23F40013C2F8AC
:105AD000003B0979079B01F0FE01022905D102F57F
