:020000040800F2
:10000000D0E701202103000889430008593F000878
:10001000854300084D210008599B0008000000009E
:10002000000000000000000000000000715E0008F9
:10003000A526000800000000015E0008FD820008FF
:100040003B0300083B0300083B0300083B03000898
:100050003B0300083B0300083B0300083B03000888
:100060003B0300083B0300083B0300083B03000878
:100070003B0300083B0300083B0300083B03000868
:100080003B0300083B0300083B0300083B03000858
:10009000512100083B0300083B0300083B03000814
:1000A0003B0300083B0300083B0300083B03000838
:1000B00065830008718300087D8300083B03000806
:1000C0003B0300083B0300083B0300083B03000818
:1000D0003B030008158A00083B030008218A00083A
:1000E0003B0300083B0300083B0300083B030008F8
:1000F0003B0300083B0300083B0300083B030008E8
:100100003B0300083B0300083B0300083B030008D7
:100110003B0300083B0300083B0300083B030008C7
:100120003B030008D52400083B0300083B030008FC
:100130003B0300083B0300083B0300083B030008A7
:100140003B0300083B0300083B0300088D43000805
:100150003B0300083B0300083B0300083B03000887
:100160003B0300083B0300083B0300083B03000877
:100170003B0300083B0300083B03000800000000AD
:100180003B0300083B03000800F002F800F0B8F859
:100190000AA090E8000C82448344AAF10107DA45E2
:1001A00001D100F0ADF8AFF2090EBAE80F0013F07C
:1001B000010F18BFFB1A43F001031847A89605006A
:1001C000D89605000A4410F8014B14F00F0508BF3B
:1001D00010F8015B240908BF10F8014B6D1E05D013
:1001E00010F8013B6D1E01F8013BF9D1641E03D0EC
:1001F000641E01F8015BFBD19142E4D3704700001B
:10020000103A24BF78C878C1FAD8520724BF30C842
:1002100030C144BF04680C60704700000023002414
:1002200000250026103A28BF78C1FBD8520728BF06
:1002300030C148BF0B6070476E2900F05A857029A5
:1002400000F0758266293BF0208765293BF01D8709
:1002500067293BF01A8761293BF0198703681B0A5D
:1002600028BF41F08001692900F05081642900F025
:100270004D81752900F04A816F2900F003827829A9
:1002800000F04182E92900F0A387E42900F0A0876B
:10029000F52900F09D87EF2900F00082F82900F091
:1002A00040820368DB0928BF41F08001632900F028
:1002B0006D87732900F07287E32900F07D87F329A9
:1002C00000F08287002070471FB53BF0D1FE9DE80B
:1002D000030000F07FFC01F06FF804000020002113
:1002E0003BF09AFE401C6060002000213BF0AAFE1B
:1002F000E06001F003FB1FBD10B501F068FB10BD0D
:1003000001F0A0FB1146FFF7DFFF2FF00DF901F020
:100310007FFC03B4FFF7F0FF03BC01F043F80000DB
:100320000948804709480047FEE7FEE7FEE7FEE789
:10033000FEE7FEE7FEE7FEE7FEE7FEE704480549C5
:10034000054A064B704700005183000889010008E8
:10035000D0C30120D0E70120D0D50120D0D5012085
:1003600070B5064600F016FC056806F10B0020F09B
:100370000704B4429CBF002070BD2B466A68BAB126
:100380001068A04210D304F1080188423CBF5068B5
:10039000586007D35168101941601168091B01604A
:1003A00058601460101D70BD13465268002AE7D1D2
:1003B0002146284600F0FAFB0028DED170BD70B55A
:1003C0000446051F00F0E6FB0068002C14BF4468DB
:1003D00070BD002C18BFAC423CBF20466468F8D307
:1003E00001680A18AA4218BF456003D12A68054669
:1003F0001144016028684119A1421CBF6C6070BDA6
:100400006168696021680844286070BD7CB51D463C
:1004100016460C00009007D04142A14202D320446E
:10042000401E01E04FF0FF30064B7B442A466946F0
:100430000190304600F085FE002C02D0009A002189
:1004400011707CBD3B0D000070B5044685690068E5
:10045000C10601D5302600E02026C00707D070BDB8
:10046000D4E9012130469047206A401C20626D1E6D
:10047000F6D570BD70B5044685690078C00707D110
:1004800070BDD4E9012120209047206A401C2062E1
:100490006D1EF6D570BD09684A0501D540B270479A
:1004A000C905FCD500B2704709684A0501D5C0B23C
:1004B0007047C905FCD580B2704770B50C4605463B
:1004C000012A05D02878800600D5EA69002302E0D9
:1004D000012305E05B1C934202D2E05C0028F9D1C5
:1004E000A869E618C01AA861286A18442862284634
:1004F000FFF7AAFF04E0D5E9012114F8010B9047AA
:10050000B442F8D32846FFF7B5FF70BD2DE9F0419E
:100510000646002410687529314616A510D0FFF74D
:10052000BAFF002802DA404213A507E031688A07C3
:1005300001D512A502E0490704D511A5012401E067
:10054000FFF7B2FF00210A2206F1240709E0B0FB01
:10055000F2FCB0FBF2F302FB1C003030785418467A
:10056000491C0028F3D123462A463046BDE8F04115
:1005700000F066BB000000002D0000002B00000012
:10058000200000002DE9FF5F15468A460446DFF88B
:10059000AC80F8440027D8E900103E46CDE90010B1
:1005A00010E03AF816106A4602A800F09EFE411CC0
:1005B00007D02178890603D5E269391891420DD810
:1005C0000744761C2078800602D5E069B84205DD34
:1005D000AE42E6DB3AF816000028E2D1A069C01B63
:1005E000A0612046FFF730FFD8E90010CDE90010E8
:1005F000002017E03AF818106A4602A800F075FECD
:10060000B0F1FF3F81460BD000250DF1080B05E04E
:10061000D4E901211BF8050090476D1C4D45F7D327
:1006200008F10100B0428046E4DB206A38442062D1
:100630002046FFF71FFFBDE8FF9F0000FEBA030042
:1006400030B4002100F1240408E002F00705D208CC
:10065000303542EA4372DB086554491C52EA03050F
:10066000F3D10468002310A2250708D504F0200464
:100670000C4304D0C46901230CA2641EC46130BCC5
:1006800000F0DEBA10B5044621461068FFF70CFFF3
:1006900002462046BDE810400023D1E7D21D22F0DB
:1006A0000701D1E90023CBE7000000003000000083
:1006B000F0B40D460188090502D5214C7C4402E0C6
:1006C0001F4C7C440E34002100F1240608E002F0A7
:1006D0000F071209E75D42EA03721B097754491CB0
:1006E00052EA0307F3D102780023120704D5702DD4
:1006F00006D009B1022311342246F0BC00F0A0BAA2
:1007000001231034F8E770B504460D462146106801
:10071000FFF7CAFE024629462046BDE87040002386
:10072000C6E7D21D22F00703D3E90023C0E7036820
:10073000126843F0200303600823C3610023B7E776
:10074000DCB903002DE9F05F894604464FF0000A4A
:10075000DFF874B1FB44C0F820A02046E168884768
:10076000002874D0252806D0D4E901219047206ABA
:10077000401C2062F1E700265F462046E16888477A
:100780002028054607DB312D05D2781910F8200CFA
:1007900008B10643F1E7B00701D526F00406C4F816
:1007A0001CA00027C4F818A02A2D09D028463BF029
:1007B0002BFC38B304EB8708303DC8F8185019E01B
:1007C00059F8041B204604EB87029161E1688847D1
:1007D000012F054618D1E069002820DA26F020060E
:1007E0001DE0D8F8180000EB800005EB4000303821
:1007F000C8F818002046E168884705463BF004FC2D
:100800000028EED1012F0AD02E2D08D12046E16814
:1008100088477F1C0546022F46F02006C4DBA069EE
:10082000002803DA404246F00106A061F00701D03B
:1008300026F010066C2D0BD0682D09D04C2D39D028
:100840006A2D35D0742D35D07A2D33D016E038E0AE
:10085000E1682F4620468847B842054609D16C2FEB
:1008600026D04FF48060E16806432046884705465D
:1008700004E06C2F1AD04FF4807006430DB3A5F13D
:100880004100192802D8203546F400664A46294618
:10089000204626604E46FFF7CFFC80B101280BD0E2
:1008A000F61D26F0070000F1080956E74020E4E7AE
:1008B0008020D8E70020D6E706F104094DE7284656
:1008C00052E7206ABDE8F09F6CB903002DE9F047BC
:1008D00091460F4680460446002614F8015B2DB170
:1008E00000F050F90068405DC007F6D12B2D02D012
:1008F0002D2D18D0641E4A463946204600F0A6FC2D
:1009000027B13968A14201D1C7F800804FF0020435
:1009100071050BD54042002803DD00F03FF904606B
:10092000A007BDE8F08746F48066E4E70028F8DA1F
:1009300000F034F904606FF00040F2E710B50446AF
:1009400003E00FF0A3FC401C09D014F8010B05498B
:100950000028F6D1BDE810400A200FF097BC4FF0F8
:10096000FF3010BD6401002030B505460B462A4615
:1009700013F8014B12F8010B08B1A042F8D01CB1DA
:10098000002802D06D1CF1E7284630BD40EA010383
:1009900010B59B070FD1042A0DD310C808C9121F28
:1009A0009C42F8D020BA19BA884201D9012010BD62
:1009B0004FF0FF3010BD1AB1D30703D0521C07E02F
:1009C000002010BD10F8013B11F8014B1B1B07D193
:1009D00010F8013B11F8014B1B1B01D1921EF1D104
:1009E000184610BD40EA0103024630B59B0710D1FE
:1009F0004FF0013400E008C208C91D1B9D4315EAF1
:100A0000C41FF8D013F0FF0102F8011B0DD01B0A20
:100A1000F8E711F8013B002B02F8013B05D011F873
:100A2000013B002B02F8013BF3D130BD10B5431C54
:100A300002E010F8011B71B18107FAD14FF00132C9
:100A400002C88C1A8C4314EAC211F9D0C01A0A06E3
:100A500003D0C01E10BDC01A10BD0A0401D0801EF4
:100A600010BD0902FCD0401E10BD40EA010370B564
:100A70009B072ED14FF00136042A2AD308C810C98B
:100A80009D1B9D43121F15EAC61517D0D8B2E1B2BF
:100A9000401A50EA056110D198B2A1B2401A50EA4A
:100AA00005410AD123F07F4024F07F41401A50EAEB
:100AB000052102D1180EA0EB146070BDA342DBD05B
:100AC00018BA21BA884201D9012070BD4FF0FF3019
:100AD00070BD0AB9002070BD10F8013B11F8014B40
:100AE00063B1A3420AD1521E08D010F8013B11F89D
:100AF000014B1BB1A34201D1521EEDD1181B70BD99
:100B000030B44FF0013C50F8042B51F8043BCCFAC0
:100B100052F4D51A20D1FCB950F8042B51F8043BFB
:100B2000CCFA52F4D51A17D1B4B950F8042B51F8B5
:100B3000043BCCFA52F4D51A0ED16CB950F8042B00
:100B400051F8043BCCFA52F4D51A05D1002CDAD076
:100B500030BC4FF00000704729BAB1FA81F111F0B2
:100B60001801D1F120008440F2D1CA40CB4012F0EC
:100B7000FF0213F0FF0330BCD01A70477047704774
:100B80007047000010B500F017FC001D10BD00BF3D
:100B900089B40300004870471402002000487047E1
:100BA0000C020020704770477047704738B5044604
:100BB0000A4600206946AFF30080002808BF38BD10
:100BC00002460099204600F0FBFB012038BD0120C1
:100BD00000F030BFF8B5AFF30080054600200C46AA
:100BE000102000BF0646A819A0420DD9324669461A
:100BF0000020AFF30080070008BF00F01BFF009843
:100C0000A04218BF0546C419FFF7C4FF0560074698
:100C1000F01D20F007004619284600F00AF8B442FB
:100C200008BFF8BDA21B31463868BDE8F84000F0A7
:100C3000C7BB00210160C0E9011070471020704758
:100C40002DE9F0470D4699469246044600F12408E6
:100C50000168880604D5E06921F01001216000E0F8
:100C60000120A84201DD471B00E00027A1697A1995
:100C700002EB0900081AA0612078C00602D42046C1
:100C8000FFF7E2FB002608E0D4E901211AF806008C
:100C90009047206A401C761C20624E45F4DB207889
:100CA000C0060AD52046FFF7CFFB06E0D4E90121B4
:100CB00030209047206A401C2062381EA7F10107AF
:100CC000F4DC07E0D4E9012118F805009047206A18
:100CD000401C2062281EA5F10105F3DC2046FFF729
:100CE000C9FB2078000602D50220BDE8F08701206C
:100CF000FBE711680268006A530501D508700AE035
:100D0000D30501D5088006E0130603D5C217C1E953
:100D1000000200E00860012070472DE9FF4F0C46FB
:100D20001E464FF0FF378BB0D2E90001DDF860803E
:100D30000A908A46C1F30A5505B93D460021084686
:100D40004FF00000BAF1000F00F4400005DA00EBAC
:100D500080004FF4400101EA50004FEA9059B9F188
:100D6000010F00DDB9460A9850EA4A000ED044F659
:100D70001050A5F2FF3545432F14B8F1000F1ED0D7
:100D80007542291E1EDDC9F100021CE0B8F1010FF9
:100D90004FF0000001D0302103E0F24305E0215480
:100DA000401CB042FBDB30460022002121540B994D
:100DB000C1F80880C1E900200FB0BDE8F08FBD1B6D
:100DC0006D1CDEE74A4600DA694206A800F024FD01
:100DD00006AB93E8070003AB83E8070050460A9987
:100DE0003AF031FD8DE80700A0F500501F38009063
:100DF0000398002D0ADD42F21F014A4608440023F1
:100E000003A9039068463AF09BFF09E0A0F5005063
:100E10004A461F38002303A9039068463AF0A5FF0D
:100E20008DE807000004000C03D04FF0FF304108AC
:100E300000E01046B8F1000F03D0002200921546E2
:100E40001EE0751E05D400F0D5FA303262556D1ED5
:100E5000F9D5B3460122084302D000227F1C04E0EA
:100E60002078302801D100227F1E002A099784D0E3
:100E70001DE0112D07DA00F0BDFA303262556D1C0D
:100E800050EA0102F5D1084302D00098C8B10EE043
:100E90000021681E05E0235C625C63542254401EFE
:100EA000491C8142F7DBAB46A81B401E099000207D
:100EB00004F80B000B98099AC0F80880C0E9002BD1
:100EC0007AE711264FF0000857E72DE9F04F8846E2
:100ED0000446D21D22F0070191B0D1E90001CDE90D
:100EE0000A013BF079F802460B98C00F01D02D2083
:100EF00007E02068810701D52B2002E0202101EACC
:100F0000C000032A099001D0072A05DB03464146A9
:100F1000204600F033FC0BE12078800601D5E06923
:100F200000E00620B8F1650F814606D0B8F1660FE3
:100F300018D0B8F1670F70D131E00020B9F1110F6E
:100F4000009001DB112301E009F101030AAA01A9C4
:100F50000CA8FFF7E2FEDDE90C70002609F101059F
:100F6000834647E001204B4600904FF000470AAA15
:100F700001A90CA8FFF7D1FEDDE90DB00C995D4683
:100F8000002610B909F101000D18B9EB050003D4D2
:100F9000C0F1FF3609F10105A5EB09002BE0B9F11D
:100FA000010F01DA4FF001090020B9F1110F009093
:100FB000484601DD112300E003460AAA01A90CA856
:100FC000FFF7ABFEDDE90C704D4600268346207826
:100FD00000070AD4AB4500DA5D4601A8012D04DD07
:100FE000411911F8011C302907D04F4502DA17F1D9
:100FF000040F04DA012082460FE06D1EEEE7002F99
:1010000002DCED1B3E4403E0781CA84200DD7D1CA1
:10101000B81B00F1010A4FF000472078000703D405
:10102000AA4501DB4FF0FF3A0021B7F1004F0DF167
:1010300043088DF8431024D002202B23002F01DA1F
:101040007F422D230A21021EA0F1010000DC5FB1C6
:1010500097FBF1FC97FBF1F201FB1C7C17460CF1AE
:10106000300C08F801CDEEE7A8F1010003702188EB
:10107000090501D5452100E06521A0F1010800F82E
:10108000011C09980FA9A1EB0807FF1D00B1012061
:10109000411901EBEA70A1693844081A401EA061A9
:1010A0002078C00602D42046FFF7CEF9099828B16F
:1010B000D4E901219047206A401C20622078C006B4
:1010C00022D52046FFF7C0F91EE0002E04DBB34511
:1010D00002DD01A8805D00E03020D4E901219047C5
:1010E000206A401C2062761CAAF101005FEA000A17
:1010F0000AD100F061F9C0680168405CD4E90121BF
:101100009047206A401C2062281EA5F10105DCDC06
:1011100007E0D4E9012118F8010B9047206A401C30
:101120002062381EA7F10107F3DC2046FFF7A2F981
:10113000032011B041E6000001694A1C02610878F1
:10114000704700B58FB0CDE9013100210591054907
:101150007944CDE9031011466846FFF7F3FA0FB062
:1011600000BD0000E5FFFFFFD1E900239A4202D253
:10117000531C0B601070704710B5436913B1AFF387
:10118000008001E0FFF799F9012010BD127800F10D
:1011900024010A7000224A700122EDE711684FF025
:1011A000FF32E9E710B5436913B1AFF3008001E006
:1011B000FFF7E8F9012010BD128800F124018284B4
:1011C0000022C2840122EDE711684FF0FF32E9E707
:1011D0002DE9F0418046D21D22F007020025D2E918
:1011E0000002F52915A614D0011E72F1000106DADD
:1011F0000023D0EB030063EB020211A608E0D8F84D
:1012000000108B0701D50FA602E0490701D50EA6F5
:1012100001251146002408F1240704E000F0EAF853
:1012200030323A55641C50EA0102F7D12B4632465F
:1012300021464046BDE8F041FFF702BD0000000036
:101240002D0000002B000000200000002DE9F05FC1
:10125000824615468B4600270AF10104B9460078FC
:10126000302801D09DB113E014F8010B0127782834
:1012700003D0582801D045B10AE00DB1102D07D197
:10128000002714F8010B102502E0082500E00A25CC
:101290000026B0460EE005FB080005FB06F101271D
:1012A0001FFA80F801EB1046B6F5803F00D3B9462F
:1012B00014F8010B294600F0A1FA0028EBDABBF183
:1012C000000F05D00FB1641E00E05446CBF800407B
:1012D000B9F1000F06D0FFF761FC02210160C81EC2
:1012E000BDE8F09F48EA0640FAE72DE9F0411646CE
:1012F0000C460546FFF746FC036893F801010128F8
:1013000007D0FF2C12D8185D80B101202C70BDE8E9
:10131000F081D3F807013246214603F20713C718BC
:101320002846BC46BDE8F041002360474FF0FF303F
:10133000EDE710B5203AC0F00B80B1E81850A0E8F6
:101340001850B1E81850A0E81850203ABFF4F5AF93
:101350005FEA027C24BFB1E81850A0E8185044BFEF
:1013600018C918C0BDE810405FEA827C24BF51F85C
:10137000043B40F8043B08BF7047D20728BF31F850
:10138000023B48BF11F8012B28BF20F8023B48BFA1
:1013900000F8012B704708B569468DF8000003205E
:1013A000ABBE08BD01491820ABBEFEE72600020017
:1013B000004870470C020020004870472C020020B3
:1013C000034640688C46002818BF88423CBF03464D
:1013D0004068F8D318681844884207D00CF103001D
:1013E00020F00700001D411A521A0146081D0A602C
:1013F000FEF7E5BF30B5B0F10A0271F100034FEA24
:10140000900E4EEA817EB0EB0E0061EB91014FEA47
:10141000101E4EEA017E10EB0E0041EB11114FEA57
:10142000102E4EEA016E10EB0E0041EB11214FEA37
:10143000104E4EEA014E10EB0E0041EB11414018E8
:1014400041F100014FEAD00040EA41704FEAD1017A
:101450004FEA810444EA907410EB800544EB0104E8
:101460006D1944EB0404521BA3414FF0000348BF25
:101470000A3200D530BD401C41F1000130BD0000F2
:101480002DE9F04F04460D46D21D22F0070089B029
:10149000D0E90097484639463AF09EFD0246F80FDB
:1014A00001D02D2307E02068810701D52B2302E01E
:1014B000202101EAC0038DF820300BB1012000E0AB
:1014C0000020032A824601D0072A04DB2946204651
:1014D00000F054F93FE12078800601D40D2500E0AA
:1014E000E569C7F30A560D2D49DA00214FEA175B6B
:1014F00008464FF00000002F00F4400007DA00EB30
:1015000080004FF4400100EBD07001EA60008115CB
:10151000012901DD4FF0FF3100224FEA850CBCF1BB
:10152000180F06D31346ACF118004FF08052C2409A
:1015300003E04FF4801323FA0CF30CF10C0CBCF114
:10154000200F04D3ACF1200C09FA0CF001E007FAEB
:101550000CF000294FF0004801DD18B90FE00ED162
:1015600040450CD319EB02095F4121B9404502D136
:101570009F4329EA0209BBEB175F00D0761C208845
:10158000000502D57B48784402E07A48784419384F
:1015900008AA302302F80A30037C0AF10101002E68
:1015A0000AF1020A53546A4602DC4FF0300101E0AE
:1015B0004FF031014FF001088DF8001002D0A6F273
:1015C000FF3603E059EA470100D06B4E002D02DCE4
:1015D0002178090704D54FF002082E218DF801105B
:1015E000C44600210BE0C7F303433F01C35C491C21
:1015F0006D1E02F80830052908F1010801DA002DF6
:10160000F1DC00210CE000EB1973491C1B786D1E06
:10161000082902F808304FEA091908F1010801DA2F
:10162000002DF0DC21688B0602D516E0A8F1010838
:10163000E04505DD02EB080313F8013C302BF5D043
:10164000B8F1000F09DD02EB080313F8013C2E2B63
:1016500003D1090701D4A8F10108002D05DD3E21C1
:1016600002F808106D1E08F10108407C002E02F8F7
:10167000080008F1010804DA2D20764202F808007B
:1016800002E02B2002F808000A214FF47A7086420B
:1016900008F101080BDB96FBF0F3303302F8083059
:1016A00096FBF0F308F1010800FB136601E0642EDD
:1016B0000CDB642096FBF0F3303302F8083096FB25
:1016C000F0F308F1010800FB136601E00A2E06DBC7
:1016D00096FBF1F0303002F8080008F1010896FBA3
:1016E000F1F001FB1060303002F80800A16908F148
:1016F000010808EB050202EB0A00081AA061207835
:10170000C00602D42046FEF79FFE216A08AE01EB18
:101710000A00206204E0D4E9012116F8010B904789
:10172000BAF1010AF7D22078C00602D52046FEF7AA
:101730008BFE6E4609E016F8010B3E280FD0D4E967
:1017400001219047206A401C2062B8F10108F2D2C2
:101750002046FEF78FFE09B00320BDE8F08F206A17
:101760002844206203E0D4E90121302090476D1E17
:10177000EBD3F8E75EAB030002FCFFFF2DE9F0417D
:101780001F46044603260168072A01F4006004DBB3
:1017900008B116A505E016A503E008B115A500E0FF
:1017A00015A521F010002060A069C01EA0610FB136
:1017B000401EA0612046FEF747FE4FB1D4E901214B
:1017C00038469047206A401C2062C01C206206E018
:1017D000206AFAE7D4E9012115F8010B9047761E3B
:1017E000F8D22046FEF746FEBDE8F0814E414E009D
:1017F0006E616E00494E4600696E66003A2800D25E
:10180000303820F02002412A01D3A2F1370088426B
:1018100001D34FF0FF3070472DE9F047814616465F
:101820008AB0354878440DC88DE80D0032487844B8
:10183000801C03AC0DC884E80D0041F69B300844C1
:10184000372190FBF1F290FBF1F5A5F1800501FB4A
:1018500012041B3C02D56442012000E00020DFF8A6
:1018600098A080460027FA44AAF1BE0A0EE0E007DD
:101870000AD03246684607EB470101230AEB810193
:101880003AF073FA8DE8070064107F1C002CEED14B
:10189000194F7F44AE3F19E0E80715D007EB04105D
:1018A0000DF1180A90E80E008AE80E00C068F042B8
:1018B00001D1981908903246012306A903A83AF0ED
:1018C00054FA03AB83E807006D10641C002DE3D1CC
:1018D0004FF0010332466946B8F1000F03A802D069
:1018E0003AF02EFA01E03AF040FAC9E90001C9F8ED
:1018F00008200AB0BDE8F08750A9030010B542489F
:10190000542100F0C3F94148542100F0BFF9404888
:10191000542100F0BBF93F493B483C4A3F4B08602B
:101920003D490A603A491960531C0365481C10651B
:10193000012008653B48344A39A1784400F0CAF8D0
:1019400020B9384878440A3800F070F937482F4AEF
:1019500035A1784400F0BEF820B9344878440A38FC
:1019600000F064F932482A4A2FA1784400F0B2F816
:1019700020B92F4878440A3800F058F9402322480B
:10198000DC000021224600F082F820B1254878448E
:10199000543800F04BF91D4822464023002100F046
:1019A00076F820B121487844543800F03FF91848BF
:1019B00022461023002100F06AF8002806D01C48B7
:1019C0007844BDE81040563800F030B910BD1048DA
:1019D00070B5006D20F001040B4800F0F3F80B48DF
:1019E00000F0F0F80A4800F0EDF809E0206D20F072
:1019F0000105204600F0E6F82046FEF7E0FC2C4604
:101A0000002CF3D170BD0000100100206401002003
:101A1000B801002000000020040000200800002081
:101A200072000000D27D050077000000C17D050036
:101A3000B17D050010B500F001F9BDE8104000F0DF
:101A4000F0B870477546FFF7B3FCAE46050069462F
:101A5000534620F00700854618B020B5FEF76EFC0F
:101A6000BDE820404FF000064FF000074FF000089F
:101A70004FF0000BAC46ACE8C009ACE8C009ACE8DC
:101A8000C009ACE8C00921F007018D46704770B568
:101A9000C468A50713D0650211D4B2F5807F09D0C0
:101AA000B2F5007F06D0B2F5806F08D1012300F1B6
:101AB000240106E05D1E6FF07F46B54201D3012090
:101AC00070BD0161C361416024F470611143C16064
:101AD000002070BD2DE9F0410C461646070047D0A6
:101AE000104600F06FF82078611C61280AD0722837
:101AF00002D077283CD102E00125002405E0022530
:101B0000042402E0082448F2020511F8010B2B28F6
:101B100006D0622809D011F8010C74280AD00BE015
:101B200045F0030544F00204EFE745F0040544F0F6
:101B30000104EAE744F010043846214609F00EFD9E
:101B4000411C15D00021316171604FF40071F560C6
:101B5000F1617061200704D530460222002100F0B7
:101B6000BDF8306D40F0010030653046BDE8F081D1
:101B70000020FBE72DE9F0410D460646104C206D94
:101B8000C10704D0410804D020F00104F7E7224641
:101B90000EE05420FEF7E4FB07000ED0206D47F066
:101BA0000101084354212065384600F06FF83A4699
:101BB00029463046BDE8F0418CE70020D6E700001A
:101BC000100100202DE9F04704464FF000094FF0C6
:101BD000FF37C568D4E90486A80707D0204600F07F
:101BE0002DF9304609F0A8FC002802DA3846BDE895
:101BF000F087280502D54046FEF7E1FB4C21204640
:101C000000F044F8206D20F0010020654846EEE722
:101C100010B50446AFF300802046BDE81040FEF743
:101C200078BB002801D0FFF7BDBB704710B500F0AE
:101C300063F9BDE81040FFF7F4BF000010B50128BC
:101C400005D0002103A000F03DF9012010BD09A13D
:101C5000F8E7000053494752544D454D3A204F751F
:101C600074206F662068656170206D656D6F727994
:101C7000000000003A2048656170206D656D6F724C
:101C80007920636F72727570746564004FF00002A2
:101C900000B5134694469646203922BFA0E80C5062
:101CA000A0E80C50B1F12001BFF4F7AF090728BF3D
:101CB000A0E80C5048BF0CC05DF804EB890028BFB9
:101CC00040F8042B08BF704748BF20F8022B11F0E2
:101CD000804F18BF00F8012B704700002DE9F0413C
:101CE000044616460D464769007B80072ED03846CD
:101CF00009F02CFC50BB3EB3012E02D0022E25D1A0
:101D000004E0204600F012F905441DE038460020AA
:101D100000BFE168002841F01001E16005DA2046CB
:101D200000F058F80120BDE8F081C9030BD56268C6
:101D3000E16A914200D81146A26911442269891AC8
:101D4000814200DD08460544002D01DA0220EAE761
:101D5000E16A6068E268814206D29103E06203D5DD
:101D600022F4003141F01002A6690027AE4213DCD4
:101D7000E16A814201D90B4600E0034603EB060C01
:101D80002369ACEB030CAC4506DD814201D98C46DE
:101D900000E084469C4505D1A760276042F0200002
:101DA000A5620DE0AD1BE669AE1B8142A66000D9BD
:101DB0000846C01A281A20605819606022F02000D6
:101DC00003490840E060002084F84870ABE7000059
:101DD000BFCFD7FFC16821F4001141F08001C1607D
:101DE00000218160016070472DE9F047814614466B
:101DF0000E464FF0FF383248D5685769054209D082
:101E00003846A1694FF0FF30002811DB2C48C04351
:101E10000540E5602B4632464946384609F0CCFB82
:101E2000A16920F00042B21A11440028A16103D038
:101E30002046FFF7CFFF4046BDE8F08770B5044667
:101E40000569C06A6168884200D80846E16821F4E3
:101E50002011E160C90312D5A84208D02246411BD7
:101E60002846FFF7C1FF10B14FF0FF3070BD0020D2
:101E7000E562C4E90150E06820F48030E0600020B1
:101E800070BD10B50446C06820F02000E060A16A73
:101E9000A06988420DD02046FFF7D0FFE06820F40B
:101EA000405040F01000E060A06AA0612069E0624C
:101EB000606044F24001E0688843E06010BD0000CB
:101EC0001000020070B505460C460A2000E06D1CAB
:101ED000FFF761FA35B128780028F8D102E0641CD8
:101EE000FFF759FA14B120780028F8D1BDE8704006
:101EF0000A20FFF750BA000010B5014602A0FFF714
:101F0000E1FF012010BD000053494752545245449F
:101F10003A2052656469726563743A2063616E2782
:101F200074206F70656E3A200000000010B5014605
:101F3000C268900703D0900607D5886A0AE0FEF7CA
:101F40002DFE01210160881E10BD8B694868184470
:101F50000B69C01A91F848301BB191F84910401A2A
:101F600010BD1103FCD50028FADD401E10BD53EA58
:101F7000020C00F069802DE9F04B4FF00006002BB9
:101F80001FBFB3FA83F503FA05F424FA05F65E40A1
:101F900012BF1643B2FA82F502FA05F4C5F1200524
:101FA0001EBF22FA05FC44EA0C04203556EA044C14
:101FB0004FEA144418BF641C4FF000084FF00009AA
:101FC000904271EB030C39D3002919BFB1FA81F7A4
:101FD00001FA07F6B0FA80F700FA07F6C7F1200712
:101FE0001EBF20FA07FC46EA0C062037B6FBF4FCBD
:101FF000A7EB0507103F07F01F0BCBF120062CFACB
:1020000006F60CFA0BFB44BFB3460026202FA4BFF4
:102010005E464FF0000B5BEA060C08BF4FF0010B69
:1020200019EB0B0948EB0608ABFB027C06FB02CC64
:102030000BFB03CCC01B71EB0C01C1E70B46024646
:1020400041464846BDE8F08B13B5084318BF4FF032
:10205000FF300146AFF30080BDE81C407047032A03
:1020600040F2308010F0030C00F0158011F8013BB5
:10207000BCF1020F624498BF11F801CB00F8013B9C
:1020800038BF11F8013BA2F1040298BF00F801CB60
:1020900038BF00F8013B11F003033FF44AA9083AA6
:1020A000C0F0088051F8043B083A51F804CBA0E88E
:1020B0000810F5E7121D5CBF51F8043B40F8043BE3
:1020C000AFF30080D20724BF11F8013B11F801CB18
:1020D00048BF11F8012B24BF00F8013B00F801CBE9
:1020E00048BF00F8012B704702F0FF0343EA0322C8
:1020F00042EA024200F00AB802F0FF0343EA032278
:1021000042EA0242FFF7C4BD4FF000020429C0F0CA
:10211000128010F0030C3FF4BBADCCF1040CBCF109
:10212000020F18BF00F8012BA8BF20F8022BA1EB6B
:102130000C01FFF7ADBD5FEAC17C24BF00F8012BA5
:1021400000F8012B48BF00F8012B7047FEE70000A4
:102150002DE9F04381B040F2EC49C2F20009D9F810
:102160000000466947688268C1680469D0F8188031
:10217000F30701D1002532E0D3070ED001239507E4
:1021800083600AD453075ABF4FF4805303EA4225B1
:102190004FF40065D30503D410E00025D3050DD519
:1021A0004FF4807C9305C0F808C007D453055ABF8C
:1021B00002F4006345EAC30505F50055D3030ED5C7
:1021C0004FF4803C9303C0F808C008D453034FBFBA
:1021D00005F500454FF4803303EAD2021544320777
:1021E00006D511F010021EBF45F400751022C26022
:1021F000720704D511F008011CBF0821C160B107A6
:1022000044D5C168890741D099F8201001390129C6
:1022100032D8C168890732D0D0F8B021D0F8B011D7
:10222000520705D440F21452490DC2F20002116067
:10223000D0F8B011D0F8B411D0F8B411D0F8B4116E
:10224000D0F8B811D0F8B811D0F8B811D0F8B8114A
:10225000D0F8BC11D0F8BC11D0F8BC11D0F8BC112A
:10226000C16841F02001C1604BF69800C2F2010044
:10227000006830F0DBFC09E04FF4802001E04FF40F
:102280000010D9F824100843C9F82400700608D5B6
:1022900014F0100005D0D9F8000045F48065102135
:1022A0000161B00606D514F0080003D0D9F800008B
:1022B00008210161F00602D5D9F800000069B003D9
:1022C00006D517F0100003D0D9F8000010214160A6
:1022D000F00306D517F0080003D0D9F80000082154
:1022E0004160300441D578073BD506F4807008EA98
:1022F000102028435FEA8871014648BF41F002017F
:10230000B20558BF01465FEA48700D4648BF45F028
:102310000405700558BF0D46300522D518F0700031
:102320001FD010380009052815D8DFE800F0030693
:10233000090C0F1245F008050DE045F010050AE004
:1023400045F0200507E045F0400504E045F0800534
:1023500001E045F48075D9F80000816921F0700131
:102360008161D9F800000421416025B1D9F8240029
:102370002843C9F8240001B0BDE8F083002070476D
:10238000002070474BF2B850C2F20100D0F8D412CE
:1023900000EB8101D1F8C00298B140F61C02C1F2F5
:1023A000000201F53071C0F80822096800220029F6
:1023B000C0F810221EBF40F21C00C1F20000C1F89C
:1023C00004020020704700002DE9F0474BF2B8529C
:1023D000C2F20102D2F8D4320C4602EB8307D7F8DE
:1023E000C032054623B107F53070C3F804520368C4
:1023F000F3B1117CD3F804024023D2F8C82200299B
:1024000008BF4FF40073C2F8B83200211369C2F854
:10241000C0120121A2F8A012012BC2F8B00208BF1D
:10242000C2F8B402106802F52871DAB207F0D4F9E4
:102430004BF69409C2F2010999F800004BF69C088A
:102440000128C2F201080ED14BF69800C2F2010039
:10245000006830F0EBFB99F80010D8F800A00029D4
:1024600008BF8A4601E04FF0000A21684BF6A00E33
:102470004FF0000CC2F2010EE9B10EEB0A03002787
:10248000E95D7A1CD95521688A4215D2EE19717816
:10249000DA1951702168B81C88420DD2B07890705A
:1024A0002168F81C884207D2F0780437D070216880
:1024B0008F42E5D300E000210AEB0100C8F80000DC
:1024C0000EF800C00121002089F80010BDE8F08757
:1024D00000207047F0B581B00020009040F220004D
:1024E00040F27834C2F20000C2F200040268D4E97B
:1024F000166048F2B51337680821C1F64E338140A3
:102500003942A2FB03250CD0226813685B0708D56B
:10251000136823F004031360B160616D41F00101A1
:10252000616501218140394208D022685269120652
:1025300004D5B160616D41F0020161650421814003
:10254000394208D022681268920704D5B160616DE3
:1025500041F004016165102101FA00F23A4216D0FF
:1025600021680B681B0712D5B2600B680A685B0311
:1025700006D4D20506D40A6822F008020A6001E0F7
:10258000110340D4216C11B120468847E06D202111
:1025900001FA00F23A4245D021680B68DB0641D5CA
:1025A000B26094F835300A68052B1CD122F016026F
:1025B0000A604A6922F080024A61226CA36C1A43C5
:1025C00003D00A6822F008020A603F2101FA00F0F5
:1025D000B060012084F83500216D0020002984F8C6
:1025E000340055D15CE00868520310D4C00512D401
:1025F000086820F010000860012084F835000020F1
:1026000084F8340007E0A16C0029BDD1BFE70003C6
:1026100001D4616C00E0E16B21B140F27830C2F28C
:1026200000008847606DD8B3606DC0072ED00520CC
:1026300084F835002068A90A026822F001020260CD
:10264000009A01328A4200921AD80268D20717D043
:10265000009A01328A42009212D80268D2070FD043
:10266000009A01328A4200920AD80268D20707D043
:10267000009A01328A42009202D80268D207DFD162
:10268000012084F83500002084F83400E16C39B171
:1026900040F27830C2F2000001B0BDE8F0400847D7
:1026A00001B0F0BD7047000010B540F2244EC2F2F8
:1026B000000ED0F858C0DEF8003090F8351002292E
:1026C0003AD10168026C0C6824F016040C604C6965
:1026D00024F080044C610AB9826C1AB10A6822F0B5
:1026E00008020A600A6822F001020A600A68D2073A
:1026F00025D0DEF80020D21A052A17D80A68D2079A
:102700001DD0DEF80020D21A052A0FD80A68D20799
:1027100015D0DEF80020D21A052A07D80A68D20799
:102720000DD0DEF80020D21A052ADFD9202141651C
:10273000032180F835100BE08021416508E0C16D70
:102740003F2202FA01F1CCF80810012180F835107F
:10275000002180F8341010BD2DE9F04F82B000F157
:102760003E4241F6004502F1FF77C4F2020508221D
:102770004FEAB726A84208BF0722072E38BF4FEA04
:10278000B7224FF0010A002400274FF00008009202
:1027900009E000BF08F101080437B8F1100F04F197
:1027A000020400F0B5800E680AFA08F916EA090F6B
:1027B000F0D0D1F804A00AF0030BABF10106012E12
:1027C00018D80322866802FA04FECA6826EA0E06B2
:1027D000A240324382604268CAF3001522EA09022D
:1027E00005FA08F54FEA480C6FEA0E062A434260E4
:1027F0000CE000BF0322A240D643BBF1030FA44666
:1028000004D1A4464FF0030B22E000BFC2688D68DC
:10281000324005FA0CF52A43BBF1020FC26017D112
:102820006FF0030202EA5802024407F01C030F256E
:10283000D2F820E005FA03FA0D692EEA0A0E05FA2D
:1028400003F343EA0E031362D1F804A00AF0030B6A
:1028500002680BFA0CF332401A431AF4403F4FF06F
:10286000010A026096D0002243F644030192C4F2AA
:1028700002031A6843F6004E42F480421A601A6856
:10288000C4F2010E02F480420192019A28F0030280
:102890004FF6084C7244CFF6FF7C52F80C3007F02C
:1028A0000C060F25B540AB43009D05FA06F63343F1
:1028B00042F80C30DEF808204B6842EA090643F67D
:1028C0000C4CDD0258BF22EA0906CEF80860C4F2BB
:1028D000010CDCF800209D0242EA090658BF22EAFA
:1028E0000906CCF80060DEF804209D0342EA0906E0
:1028F00058BF22EA0906CEF80460DEF80020DB03A8
:1029000042EA090658BF22EA0906CEF8006041E70C
:1029100002B0BDE8F08F0000B0B582B0002143F6F0
:1029200008020191C4F20202936B49F2277443F04A
:1029300001039363936BC0F6050403F00103019355
:10294000019B1368136813681568D2F8F85340F2B6
:102950002005C2F200052D68126813F4E053C2F39B
:102960008222A25C18BF012325FA02F29A404DF69A
:102970008363C4F21B33A2FB032304464FF0FF30F2
:1029800040F2D83500EB9340C2F200054FF0804290
:1029900040F2E733C5E900202846C5E90213296162
:1029A000A96100F0E3F808B102B0B0BD95F83D00B0
:1029B0000128F9D1022085F83D00286841F2FF7214
:1029C000C168C4F20002904241F00101C1600DDC17
:1029D00040F2FF71C4F20001884215DCB0F1804F73
:1029E00029D040F20041C4F2000122E040F2FF3160
:1029F000C4F20101884212DC41F60001C4F2000178
:102A0000884218D0002112E040F60001C4F2000113
:102A1000884210D040F60041C4F2000109E044F2BF
:102A20000001C4F20101884205D040F20041C4F225
:102A30000101884204D1816801F00701062903D011
:102A4000016841F0010101604EF20010CEF2000079
:102A50004FF080510F2C0160A6D84EF60C51CEF2EB
:102A6000000109684FF0FF33C1F3022181F0070232
:102A7000042A28BF0422033903FA02F238BF0021D6
:102A8000D24302FA01F1090180F81C1340F2204000
:102A9000C2F200000121017002B0B0BD10B50146C4
:102AA0004BF6A040C2F20100D0F8084579B194F885
:102AB0009C02032818BF10BDD4F8B802826972B313
:102AC00000232046C4F8D432BDE81040104701EB83
:102AD000C10100EB8100D0F88C02D4F894120329D4
:102AE0001DD1D4E957218A421AD9531AD4F8C822E1
:102AF000C4F85C318B4238BF19461369C2F894128E
:102B00000021C2F89C12A2F87C12012BC2F88C02A0
:102B100008BFC2F89002106802F51F7120E010BDD6
:102B200094F89C02032808D1D4F8B802016921B1B5
:102B30000020C4F8D402204688470420C4F8940238
:102B4000D4F8C8024FF480720146036921F83C2F83
:102B50000022C2644265012BC26508BF026500689D
:102B6000DAB2BDE8104006F0B7BD000070B584B021
:102B7000002800F08F80044690F83D00002840F0C7
:102B8000EF80216840F20042C4F20002002091422E
:102B900084F83C0000F0818040F60000C4F20000A0
:102BA000814200F0AB800020C4F20100814240F07D
:102BB000D7804FF0000C43F64000CDF80CC0C4F2B3
:102BC0000200416846F2284241F00101416040683C
:102BD00040F2783100F0010003900398C2F2000146
:102BE000C4F202024FF040604023C1E9002001F12D
:102BF00008004FF4806E4FF400654FF4005680E8F3
:102C0000085001F1140040F2244380E86010C1E94B
:102C100008CCC2F200030226186881F8356081F8FA
:102C200034C0166826F0010616601668F60740F0F4
:102C3000B680106848F23F03CFF21003184040F00E
:102C4000406040F43150106050696FF00F034AF655
:102C5000AB2653FA82F3CAF6AA26A3FB066520F038
:102C600007005061280963A6305C40F2FF36B2438A
:102C70005F2B4FF03F0388BF0432C1E9162003FAEF
:102C800000F090600120C1F854C081F83500616205
:102C90008C6365E0012004B070BD43F640010290F2
:102CA000C4F202010A6842F002020A60096801F0F7
:102CB0000201029102994EF60C51CEF20001096810
:102CC000C1F3022181F00702042A28BF042203393C
:102CD00038BF01464FF0FF309040052222EA000045
:102CE00088404EF21D410001CEF2000108704EF204
:102CF0000010CEF200004FF0005130E0002043F60B
:102D000040010190C4F202010A6842F004020A6024
:102D1000096801F00401019101994EF60C51CEF2BF
:102D200000010968C1F3022181F00702042A28BFCB
:102D30000422033938BF01464FF0FF30904005228E
:102D400022EA000088404EF21D410001CEF200014F
:102D500048704EF20010CEF200004FF0804101604A
:102D6000022084F83D002068211D05F00DFB0120A4
:102D700084F8460084F83E0084F83F0084F8400060
:102D800084F8410084F8420084F8430084F8440049
:102D900084F8450084F83D00002004B070BD0A6846
:102DA0001E68361A052E1BD81668F6073FF441AF89
:102DB0001E68361A052E13D81668F6073FF439AF89
:102DC0001E68361A052E0BD81668F6073FF431AF89
:102DD0001E68361A052E03D81668F607E0D128E7D4
:102DE00020204865032081F83500EFF3108072B68B
:102DF000FEE700BF000610160006101680B590F81A
:102E00003C20012A4FF0020200F0BF8080F83D20F4
:102E1000D0F800C04FF67772DCF8083023EA0202DF
:102E2000CCF808200B684F2B28DC1F2B43DD202B10
:102E300044D0302B42D0402B40F0A980D1F804E0A0
:102E4000C968DCF82030DCF8202022F00102CCF840
:102E50002020DCF8182022F0F00242EA011123F0D1
:102E60000A0242EA0E02CCF81810CCF82020DCF856
:102E7000081041F0470121F030017DE06F2B25DD86
:102E8000B3F5005F46D0B3F5805F77D0702B7ED16D
:102E9000D1E901E3C968DCF8082043EA0E0322F413
:102EA0007F4243EA01211143CCF80810DCF80810F6
:102EB00041F0770160E00BB1102B68D1DCF808100D
:102EC00021F07001194341F0070155E0502B34D037
:102ED000602B5CD1D1F804E0C968DCF8203023F025
:102EE0001003CCF82030DCF81830DCF8202023F474
:102EF000704322F0A00243EA013142EA0E12CCF8FC
:102F00001810CCF82020DCF8081041F0670121F0FF
:102F1000100131E0D1E901E3C968DCF8082043EA97
:102F20000E0322F47F4243EA01211143CCF808103A
:102F3000DCF8081041F480411EE0D1F804E0C968D3
:102F4000DCF82030DCF8202022F00102CCF8202030
:102F5000DCF8182022F0F00242EA011123F00A0204
:102F600042EA0E02CCF81810CCF82020DCF8081049
:102F700041F0570121F02001CCF808100022012176
:102F800080F83D10002180F83C10104680BD0122E1
:102F9000F5E7000080B501680A69920744BFCA6876
:102FA0005FEA827239D40A69520744BFCA685FEA8D
:102FB000427255D40A69120744BFCA685FEA0272B6
:102FC00072D40A69D20644BFCA685FEAC26200F1DD
:102FD0008E800A69D2071CBFCA685FEAC27240F0DD
:102FE000AA800869000641BFC8685FEA00606FF008
:102FF000800008610869400641BFC8685FEA406018
:103000006FF0400008610869800641BFC8685FEA48
:1030100080606FF02000086180BD6FF002020A61DD
:103020008A69920740F0F88041F64C2CC2F2000CFD
:10303000DCF800200021DCF824305163D16821F451
:103040000071D16093F83510022940F0B38005215A
:1030500083F8351019680B6823F001030B60ABE0AF
:103060006FF004020A618A6912F4407F40F009811E
:1030700041F64C2CC2F2000CDCF800200021DCF8F8
:1030800024305163D16821F40071D16093F8351078
:10309000022940F0C480052183F8351019680B68B7
:1030A00023F001030B60BCE06FF008020A61CA69FB
:1030B000920740F01B8141F64C2CC2F2000CDCF868
:1030C00000200021DCF824305163D16821F4007124
:1030D000D16093F83510022940F0D680052183F89D
:1030E000351019680B6823F001030B60CEE06FF018
:1030F00010020A61CA6912F4407F40F02C8141F647
:103100004C2CC2F2000CDCF800200021DCF824304A
:103110005163D16821F40071D16093F83510022910
:1031200040F0E780052183F8351019680B6823F01B
:1031300001030B60DFE06FF00102B1F1804F0A6123
:1031400006D140F22442C2F2000213680133136038
:1031500040F23032C2F2000290421DD045F21472A9
:10316000C2F2010290427FF43CAF45F2FD60C2F230
:10317000010002780132D3B2642B027040F0EE807D
:1031800045F2FE63C2F201031A784FF0000C0132DF
:1031900080F800C01A70E6E049F2C440C2F20000B4
:1031A0000022027049F2C840C2F2000002680132F7
:1031B000026016E780215965116A42F4806321F0AC
:1031C0000101116240F20041D2F820E0C4F2010195
:1031D0008B42C2F820E00DD1116A41F2111319425D
:1031E00008D1116A40F24443194203D1516C21F4D1
:1031F00000415164116A41F21113194208D1116A58
:1032000040F24443194203D1116821F001011160D9
:1032100001218CF83E10016800220277C3E680216C
:103220005965116A42F4806321F00101116240F294
:103230000041D2F820E0C4F201018B42C2F820E044
:103240000DD1116A41F21113194208D1116A40F2ED
:103250004443194203D1516C21F400415164116A75
:1032600041F21113194208D1116A40F24443194244
:1032700003D1116821F00101116001218CF83E1089
:1032800001680022027795E680215965116A42F4AF
:10329000806321F00101116240F20041D2F820E088
:1032A000C4F201018B42C2F820E00DD1116A41F253
:1032B0001113194208D1116A40F24443194203D153
:1032C000516C21F400415164116A41F21113194209
:1032D00008D1116A40F24443194203D1116821F028
:1032E0000101116001218CF83E1001680022027773
:1032F00067E680215965116A42F4806321F001017B
:10330000116240F20041D2F820E0C4F201018B4288
:10331000C2F820E00DD1116A41F21113194208D10F
:10332000116A40F24443194203D1516C21F4004127
:103330005164116A41F21113194208D1116A40F225
:103340004443194203D1116821F0010111600121A8
:103350008CF83E100168002202773AE645F2FE62E0
:10336000C2F201021278D2B23C2A0FD145F2FF63B9
:10337000C2F201031A7845F2FE6CC2F2010C4FF062
:10338000000E01328CF800E01A7004E045F2FF6292
:10339000C2F201021278D2B23C2A7FF422AE00229D
:1033A000027045F2FF60C2F20100027045F2FE6059
:1033B000C2F20100027014E6B0B541F64C22C2F22E
:1033C000000292F83E10022976D092F83E100129B0
:1033D00072D1022182F83E10D2F800C0536A48F23E
:1033E000AD4248F2B951C0F60002C0F60001C3E98F
:1033F0000F2193F8341048F2C152C0F6000201299F
:10340000DA6459D0012183F83410D3F858E093F8E6
:10341000351001294DD1022183F83510002159655D
:1034200019689A68DB6D0C680CF1340524F480246B
:103430000C60486041F22C50C2F20000402A024663
:1034400004BF2A4605463F2098408A60CD60CEF8EA
:103450000800086840F016000860086840F008009E
:103460000860086840F001000860DCF80C0041F2D8
:10347000FF7140F40070CCF80C00DCF82000C4F2BE
:10348000000120F00100CCF82000DCF820008C4581
:1034900040F00100CCF820000FDC40F2FF70C4F2D5
:1034A000000084451BDCBCF1804F3ED040F2004060
:1034B0001DE0002083F83400B0BD40F2FF30C4F2BC
:1034C0000100844516DC41F60000C4F2000084458A
:1034D0002BD00020C4F20100844518D02CE040F627
:1034E0000000C4F2000084451FD040F60040C4F242
:1034F000000009E040F20040C4F20100844506D01B
:1035000044F20000C4F2010084450ED014E0DCF85F
:10351000440040F200424CF48061C4F2010240F4E5
:1035200000409142CCF8440006D1DCF8080000F0DD
:103530000700062808BFB0BDDCF8000040F001001D
:10354000CCF80000B0BD000070B582B00446006841
:103550000268064656F80C3F456902F02F01202903
:1035600003F0200C08D1BCF1000F05D0204602B0BA
:10357000BDE8704005F04CB85FEA027E1EBF05F062
:10358000010503F4907111EB050140F0CB80216B34
:10359000012905D112F0100118BF13F0100132D12A
:1035A000110622D513F080011FD094F83D10212977
:1035B00027D1A168B1F5805F03D12169002900F00E
:1035C0006182216A4A1C226209784160E08C0138DC
:1035D0000104E08415D1306820F08000306030684C
:1035E00040F04000306002B070BD500609D513F0C5
:1035F000400006D0306820F040003060202084F881
:103600003D0002B070BD0021019101680191416847
:10361000019101994069400600F18E80A08DE28DF4
:10362000E18D002918BF9042EBD056E8000F2168C9
:1036300020F4907041E80302CAB3206850E8030FF9
:10364000216820F4907041E8030282B3206850E8BA
:10365000030F216820F4907041E803023AB3206818
:1036600050E8030F216820F4907041E80302F2B1A2
:10367000206850E8030FDAE7206850E8050F21685A
:1036800020F0010041E80502DAB1206850E8050F9A
:10369000216820F0010041E8050292B1206850E85D
:1036A000050F216820F0010041E805024AB12068B9
:1036B00050E8050F216820F0010041E80502002ACA
:1036C000DAD1202084F83E0000202063206850E8F2
:1036D000030F216820F0100041E80302002A3FF4A4
:1036E00090AF206850E8030F216820F0100041E8F7
:1036F0000302002A3FF485AF206850E8030F2168D9
:1037000020F0100041E80302002A3FF47AAF20685D
:1037100050E8030F216820F0100041E80302002A5E
:10372000D4D16EE7D10718BF13F4807140F0B68092
:10373000510700F1B980BCE0A06B01684A6893B200
:10374000002B3FF45EAFA18D8B42BFF45AAFE285F0
:10375000C069B0F5807F00F09E8056E8000F2168B8
:1037600020F4807041E80302F2B1206850E8030FB2
:10377000216820F4807041E80302AAB1206850E873
:10378000030F216820F4807041E8030262B12068D1
:1037900050E8030F216820F4807041E803021AB159
:1037A000206850E8030FDAE7206850E8050F216829
:1037B00020F0010041E80502DAB1206850E8050F69
:1037C000216820F0010041E8050292B1206850E82C
:1037D000050F216820F0010041E805024AB1206888
:1037E00050E8050F216820F0010041E80502002A99
:1037F000DAD1206850E8050F216820F0400041E848
:103800000502DAB1206850E8050F216820F0400079
:1038100041E8050292B1206850E8050F216820F0C8
:10382000400041E805024AB1206850E8050F2168D0
:1038300020F0400041E80502002ADAD1202084F877
:103840003E0000202063206850E8030F216820F02C
:10385000100041E80302DAB1206850E8030F216844
:1038600020F0100041E8030292B1206850E8030FF5
:10387000216820F0100041E803024AB1206850E8B6
:10388000030F216820F0100041E80302002ADAD17A
:10389000A06BFEF709FFE08D02B070BD216C41F016
:1038A00001012164510704D51DB1216C41F00201D1
:1038B0002164910704D51DB1216C41F004012164FC
:1038C000BEF1000F06D55CEA050103D0216C41F082
:1038D00008012164216C00293FF493AE12F020010D
:1038E00018BFBCF1000F03D0204604F091FE206801
:1038F0004169226C01F0400102F00802891800F0D1
:10390000A68000BF50E8030F216820F4907041E8C2
:103910000302C2B3206850E8030F216820F49070BE
:1039200041E803027AB3206850E8030F216820F4CD
:10393000907041E8030232B3206850E8030F216819
:1039400020F4907041E80302EAB12068DAE700BF92
:10395000206850E8050F216820F0010041E80502C9
:10396000DAB1206850E8050F216820F0010041E835
:10397000050292B1206850E8050F216820F001008F
:1039800041E805024AB1206850E8050F216820F09F
:10399000010041E80502002ADAD1206B012824D178
:1039A000206850E8030F216820F0100041E803026E
:1039B000DAB1206850E8030F216820F0100041E8D8
:1039C000030292B1206850E8030F216820F0100034
:1039D00041E803024AB1206850E8030F216820F053
:1039E000100041E80302002ADAD1202084F83E00CA
:1039F00000202063206850F8141F49067FF501AEAF
:103A000050E8000F216820F0400041E8050212B3A1
:103A1000206850E8050F216820F0400041E80502C9
:103A2000CAB1206850E8050F216820F0400041E845
:103A3000050282B1206850E8050F216820F040009F
:103A400041E805023AB1206850E8050FDAE70020A6
:103A5000206402B070BDA06B00283FF4D2AD48F2E4
:103A60000561C0F60001016590F83510022911D1F9
:103A7000052180F835100068016821F0010101601E
:103A800002B070BD216A31F8022B6FF35F224260F1
:103A900021629BE58021416502B0BDE8704004F0E1
:103AA000B1BD0000002804BF012070472DE9F0419E
:103AB00086B0044690F83D0043F6300541F200061A
:103AC000C4F202050028C4F201067AD1216844F646
:103AD0000002C4F200020020914284F83C00CDE9CB
:103AE0000400CDE9020001901DD0B14269D100204F
:103AF00000906969252741F010016961696901F049
:103B00001001009100990090286840F001002860A1
:103B1000286800F00100009000984FF4C060019008
:103B200006F5704019E000902969272741F48021AB
:103B30002961296901F48021009100990090286889
:103B400040F002002860286800F002000090009811
:103B50004FF44060019006F5744002210291032168
:103B6000049107214FF00008059101A9CDF80C80C0
:103B7000FEF7F2FD4EF60C50CEF2000000684FF05A
:103B8000FF32C0F3022080F00701042928BF04217E
:103B9000033802FA01F14FF0050238BF404622EA2D
:103BA000010101FA00F04EF20411CEF20001000111
:103BB0007A1882F8FC0207F00700012202FA00F0EE
:103BC0000860242084F83D002768D4E90212E069E7
:103BD000FB6823F40053FB603B6923F440531A4312
:103BE0003A61D4E904231143FA68194349F20C639A
:103BF00001439A431143F9607969A26921F4407144
:103C00001143796106F580618F4240F220014FF047
:103C10000A02C2F2000108BF0D22096855F8283CCB
:103C2000B74208BF0D2223FA02F249F2277302F0CD
:103C30000702C0F605039A5C6368D1401922B0F50B
:103C4000004FA1FB02011CD15A00DB0FFEF78FF9D8
:103C500048F21F51C5F2EB11A0FB01235A096FF086
:103C6000630302FB0300322303EBC000A0FB01014E
:103C70004FF4F87000EA111000EB0210C1F342118A
:103C80001AE09A009B0FFEF772F948F21F51C5F235
:103C9000EB11A0FB01235A096FF0630302FB030041
:103CA000322303EB0010A0FB0101F02000EA5110C9
:103CB00000EB0210C1F343110844B86038692021B9
:103CC00020F490403861786920F02A007861F86823
:103CD00040F40050F8600020206484F83D1084F81F
:103CE0003E1006B0BDE8F081B0B590F83D30202B15
:103CF00040F08C80002900F0898090F83C30012B46
:103D000008BFB0BD0024212340F2244C046480F895
:103D10003D30C2F2000CDCF800308284C28482683C
:103D2000B2F5805F07D10269002A1CBF0A4621460E
:103D30008E46114601E04FF0000E80F83C40C48CE6
:103D40000268C4B3002400BF15682D0622D4DCF835
:103D50000050ED1AB5F5803F5BD215682D0619D4D9
:103D6000DCF80050ED1AB4EB154F52D115682D0652
:103D700010D4DCF80050ED1AB4EB154F49D115689A
:103D80002D0607D4DCF80050ED1AB4EB154FDBD04C
:103D90003FE000BF19B111F8015B556005E03EF846
:103DA000021B6FF35F2151600021C58C013DC5846A
:103DB000C58C002DC8D11168490624D40021DCF837
:103DC0000050ED1AB5F5803F77D215686D061AD40C
:103DD000DCF80050ED1AB1EB154F6ED115686D0689
:103DE00011D4DCF80050ED1AB1EB154F65D1156810
:103DF0006D0608D4DCF80050ED1AB1EB154F5CD11C
:103E000015686D06DBD5202180F83D10B0BD00BFE0
:103E1000026852E8031F026821F4D07142E80313DC
:103E2000E3B1016851E8031F026821F4D07142E850
:103E300003139BB1016851E8031F026821F4D0719C
:103E400042E8031353B1016851E8031F026821F4EB
:103E5000D07142E80313002BDAD100BF016851E8AA
:103E6000051F026821F0010142E80513DBB101687A
:103E700051E8051F026821F0010142E8051393B1E2
:103E8000016851E8051F026821F0010142E80513AD
:103E90004BB1016851E8051F026821F0010142E8B9
:103EA0000513002BDAD1202180F83D1080F83E1058
:103EB000002180F83C10B0BD026852E8031F026880
:103EC00021F4D07142E80313D3B3016851E8031F12
:103ED000026821F4D07142E803138BB3016851E802
:103EE000031F026821F4D07142E8031343B3016851
:103EF00051E8031F026821F4D07142E80313002B3C
:103F0000DAD11DE0016851E8051F026821F00101C6
:103F100042E80513002BC6D0016851E8051F02686E
:103F200021F0010142E80513002BBCD0016851E8E3
:103F3000051F026821F0010142E80513002BB2D0F1
:103F4000016851E8051F026821F0010142E80513EC
:103F5000002BD7D1A7E70000FEE700000020C6F243
:103F600010402A2120F8021C00212B220180018010
:103F700020F8022C2C220180018020F8022C4FF422
:103F8000163200BF803A01800180018001800180EB
:103F90000180018001800180018001800180018019
:103FA0000180018001800180018001800180018009
:103FB00001800180018001800180018001800180F9
:103FC00001800180018001800180018001800180E9
:103FD00001800180018001800180018001800180D9
:103FE00001800180018001800180018001800180C9
:103FF00001800180018001800180018001800180B9
:1040000001800180018001800180018001800180A8
:104010000180018001800180018001800180018098
:104020000180018001800180018001800180018088
:104030000180018001800180018001800180018078
:104040000180018001800180018001800180018068
:104050000180018001800180018001800180018058
:104060000180018001800180018001800180018048
:104070000180018001800180018001800180018038
:104080000180018001807FF47DAF70472DE9F0470A
:1040900040F22441C2F20001086800BF0A68121A07
:1040A000642A0BD80A68121A642A07D80A68121AF6
:1040B000642A03D80A68121A652AEFD30020C6F2D0
:1040C0001040F022C32320F8022C0380962320F80E
:1040D000022C0380362320F8023C4FF0380C4FF0BE
:1040E0003A084FF00509B423A0F800C020F8028C6C
:1040F000A0F8009020F8023C4FF0010EB123A0F888
:1041000000E020F8023C8023102403800480C024B7
:1041100020F8024C038064230380C12320F8023C72
:104120004FF0130AC223A0F800A020F8023CA723F6
:104130000380C52320F8023C0927E823078020F8E4
:10414000023C402303808A23038000232925038027
:104150000380058019250580A52505803325E026E7
:10416000058020F8026C06260B240280068004805D
:104170000724048006802E244726A0F8009004809F
:10418000058006801726A0F8008006801626068087
:10419000312604800680E12620F8026C0D2602807C
:1041A0000780068008260780068023260680048074
:1041B00046242C2705800480A0F800C0A0F800A0A9
:1041C000A0F800A00780322707803C2720F8022CA7
:1041D000078020F8022C69220280212220F8022C7C
:1041E0002B2220F8022C3F2203800380A0F800E05D
:1041F00002802A2220F8022CDF2203800380A0F80C
:1042000000E00280112220F8022C0A680B689B1A39
:10421000782B0BD80B689B1A782B07D80B689B1A46
:10422000782B03D80B689B1A792BEFD3292220F81F
:10423000022C0A680B689B1A322B0BD80B689B1A4E
:10424000322B07D80B689B1A322B03D80B689B1AAA
:10425000332BEFD32C222A2120F8022C20F8021C29
:1042600000212B230180018020F8023C0180018085
:1042700020F8022C4FF41632803A01800180018030
:104280000180018001800180018001800180018026
:104290000180018001800180018001800180018016
:1042A0000180018001800180018001800180018006
:1042B00001800180018001800180018001800180F6
:1042C00001800180018001800180018001800180E6
:1042D00001800180018001800180018001800180D6
:1042E00001800180018001800180018001800180C6
:1042F00001800180018001800180018001800180B6
:1043000001800180018001800180018001800180A5
:104310000180018001800180018001800180018095
:104320000180018001800180018001800180018085
:104330000180018001800180018001800180018075
:104340000180018001800180018001800180018065
:104350000180018001800180018001800180018055
:104360000180018001800180018001800180018045
:10437000018001800180018001807FF47DAFBDE874
:10438000F0870000FEE70000FEE700002DE9F04F97
:1043900089B04BF6A04CC2F2010CDCF800B0DBF89F
:1043A0001400C00741F02285DBF81400DBF8181078
:1043B000014201F01B85DBF80808C0F30D20CCF8A2
:1043C000FC04DBF81400DBF818100840800705D562
:1043D000DBF8140000F00200CBF81400DBF8140046
:1043E000DBF818100BF500680840C006584640F18D
:1043F0009080DBF8180020F01000CBF81800DBF8F4
:104400002020C2F34340062802F00F0141D00228C9
:1044100058467AD147F6F07012EA0005584674D033
:1044200001EBC1000CEB800000F52373D0F88C0287
:104430002A09042AC5F3011747D34FF0FF3606EBCC
:104440009516032EC5F3811C14D3AD0925F0030581
:104450004FF480545BF80460043D06605BF8046030
:1044600046605BF8046086605BF80460C66000F13B
:104470001000EFD1BCF1000F27D04FF480555BF84E
:1044800005600446BCF1010F44F8046B0FD12046CF
:104490001BE04FF480505BF80030C2F30A12CCF8F6
:1044A000C4345BF80000CCF8C804584624E05BF83C
:1044B0000560BCF1020F466001D1083005E04FF401
:1044C00080565BF8066086600C3067B14FF480560A
:1044D0005BF80660012F067005D0350A022F457083
:1044E0001CBF370C877018684BF6A04CC2F2010C49
:1044F0008718DCF800001F6001EBC1010CEB8101A3
:10450000D1F89C321A44C1F89C22816941F0100113
:10451000816141698269CDF80C801140090340F145
:104520002587D0F81818D0F81C2811405FEA1149E7
:1045300000F01C8743F20A050CF5277800244FF49D
:10454000306AC4F654750026CDF814B01CE000BFE4
:104550000BEB0A00022181605FEA8E6042BF0BEB29
:104560000A00202181605FEA8E4042BF0BEB0A0007
:104570004FF40051816001365FEA59090AF1200ABF
:1045800008F1240800F0EE865FEAC970F3D0DCF889
:1045900000000AEB00018A68D0F8143803EA020E22
:1045A0005FEACE726ED00BEB0A0201239360036CBC
:1045B0008A68DCF81070012F24D117072ED49706D3
:1045C00000F1238112F0280F5CD16F1CBB4202D393
:1045D00012F4004228D158F8042C096977466FF389
:1045E000DF41511ABAF5306FC8F8001041D1DCF83C
:1045F0009422002A00F05683DCF88C020844CCF8A0
:104600008C0236E005F58077BB4210D110040BD444
:104610007746900644BF202088602AE0681C8342C9
:1046200030D312F400402DD04FF40040EEE0774636
:10463000BAF5306F1DD1DCF89412D1B9016CA942E2
:1046400003D9D0F8001B002913D4C0F8104BD0F8C0
:10465000101B41F40021C0F8101BD0F8101B41F0D2
:104660001801C0F8101BD0F8101B41F0C041C0F871
:10467000101BF0B2FEF712FA4BF6A04CC2F2010C7E
:10468000BE4600BF5FEA0E7040F1E08358465044DA
:10469000082104968160DCF80000C346026C504497
:1046A0008168AA42069205D911F400411CBF4FF45B
:1046B00000418160DCF808859CF8C45408F2AA2403
:1046C00088F8AA529CF8C534029488F8AB329CF85A
:1046D000C6149CF8C704019141EA0020A8F8AC0276
:1046E0009CF8C8149CF8C974012441EA0726A8F86C
:1046F000AE62BCF8CA24A8F8B022C8F8944205F00B
:104700001F04022CCDF81C80C8F8982220D0012C60
:104710003ED0002CD84664D115F0600100F097809F
:10472000DDF814B043F20A05049E77464029C4F62A
:10473000547502D0202940F0DA800798D0F8D412BE
:1047400000EB8101D1F8B8128A6802999047D7E04E
:1047500015F0600700F0DB80059C43F20A05049E1B
:10476000402FC4F65475D84602D0202F40F0EC807C
:104770000798A346D0F8B81200248A680021002ABE
:10478000C0F8D41200F0348302997746904722E0B3
:1047900015F06000059F43F20A05049E4FF00004E7
:1047A000C4F65475D84618BF40283AD1079890F8F7
:1047B0009C22013A022A2FD811F0FE0FBB4600F0CE
:1047C000D78080217746044604F006FF204600216A
:1047D000002404F001FFBE464BF6A04CC2F2010CCF
:1047E00006E3079805F08001744604F0F5FE4BF6E9
:1047F000A04CDDF814B0A646C2F2010C002443F22E
:104800000A05049EC4F65475F2E2202088605FEA2F
:104810000E703FF53BAF19E38021AB467546044669
:1048200006E02028C2D0079C80212046AB46754672
:1048300004F0D2FE20460021002404F0CDFE4BF609
:10484000A04CAE465D46C2F2010CBB46D0E2092B3D
:1048500000F29981DFE813F00A00EA0097010201F3
:10486000970118013B01970162018D01079890F8AB
:104870009C120139022900F23C82DDF814B043F2A7
:104880000A05049E022A4FF00004C4F6547540F055
:104890009A82D0F8A412022300294FF0030108BF26
:1048A000012140F80C1FC0F888320446C360D0F8DC
:1048B000BC024FF480720146236121F83C2F02694B
:1048C0000025C4644365012AC56508BF0465006806
:1048D000D2B2774604F000FF4BF6A04C43F20A0533
:1048E000C2F2010CBE460024C4F6547580E2079C57
:1048F0008021204604F070FE2046002104F06CFE6A
:104900004BF6A04CC2F2010C0024BE4670E2059C9E
:1049100043F20A05049E002BC4F65475D8464FD0C6
:10492000012B6ED0032BA34645D1079B93F89C32F5
:10493000032B00F03181022B3DD1079C48067746BE
:1049400020466ED1802146E2AB46079D8021284655
:10495000774604F041FE284600215D4604F03CFE07
:104960004BF6A04CBE46C2F2010CA34600243FE227
:10497000D0F8B8128A68002A00F03A820299C0F88A
:10498000D44277469047079A4BF6A04CB2F8B01243
:10499000BE46C2F2010C002908BF002840F0288260
:1049A0000420C2F89402D2F8C8024FF48072014683
:1049B00021F83C2F06E1079C80212046774647E1FD
:1049C000079B93F89C02032800F00D810228A34660
:1049D00008BF5FEA416040F0378101F07F0000EBE3
:1049E000800003EB800202F1140000240227CDF8BE
:1049F00000E0090658BF02F5AA700460C3F894727B
:104A000067E2079BA34693F89C22032A00F02D81BE
:104A1000022A40F019817746480600F0D9811846ED
:104A20001C4604F0D9FD20468021D8E1079A92F86F
:104A30009C120139022900F2608180B2DDF814B0C5
:104A400043F20A05049E01284FF00004C4F6547591
:104A500040F0CE817746C2F8A442A1E780B2022896
:104A600000F07F81DDF814B043F20A05049E079A36
:104A700001284FF00004C4F6547540F091810120E4
:104A80007746C2F8A4028BE7002E08BF002A40F048
:104A90007A8080B27F2800F27680079843F20A0578
:104AA00090F89C12049E0329C4F6547540F0888245
:104AB00080217446074604F08FFD3846002104F03B
:104AC0008BFD4BF6A04CDDF814B0A646C9E00024DF
:104AD000079FADF82240B7F8AC024FF0FF3101EB71
:104AE0001021062900F23482CDF800E0DFE811F051
:104AF0000700040219023002300242025402D7F8C1
:104B0000B4020DF122010268387C9047DDF814B040
:104B100043F20A05049EC4F654758AE3012A32D191
:104B2000079B43F20A0593F89C02DDF814B0411E7E
:104B3000049E02294FF00004C4F6547580F0BF8132
:104B400043F8084F0220C3F88C02D3F8C0020124B6
:104B500001464FF480721C615C6121F83C2F0269B0
:104B6000446500247746C364012AC46508BF036511
:104B70002FE001994CF2CC3011F0FE0FC2F201008F
:104B8000017000F0BF80079D80212846744604F024
:104B900023FD2846002128E67746000406D111F0BF
:104BA0007F0003D012B9079804F016FD079904207E
:104BB000C1F89402D1F8C8024FF48072014621F87E
:104BC0003C2F00240269C4644465012AC46508BFFF
:104BD00004650068D2B204F07FFD4BF6A04CC2F22F
:104BE000010CBE4604E101F00F0000EB800011F063
:104BF000800203EB8000A34614BF808CB0F86401F0
:104C000010B301F07F0404EB840003EB800707F18D
:104C10001400002A08BF07F5AA70490600F0C680F4
:104C2000D3F8C81204EBC40301EB830101F13E0386
:104C3000002A08BF01F27E231978002900F0B6800F
:104C4000012101600024B3E01846802177461C460C
:104C500004F0C2FC2046002104F0BEFC4BF6A04C40
:104C6000BE46C2F2010C0024C2E000044FF0000472
:104C700040F0BE80480600F04E83D3F8C80201F031
:104C80000F0243689A42079B00F24583090600F130
:104C90005D8202EBC20100EB810303F51F7183F813
:104CA0007D425CE2016CA94204D9D0F8001B0029C6
:104CB0003FF5DFACC0F8104BD0F8101B41F40021D9
:104CC000C0F8101BD0F8101B41F01801C0F8101BE1
:104CD000D0F8101B41F0C041C0F8101B0CF2C441C9
:104CE000C0F8141BD0F8001B41F08021C0F8001B55
:104CF000BFE480217446054649E71046802174468A
:104D0000154644E7079B43F20A0593F89C02049E6C
:104D10000328C4F6547500F08E8102284FF0000479
:104D200040F0A781002900F08E81D3F8B802CDF8B9
:104D300000E00028596000F0C481026818469047DE
:104D4000079B002800F0BD81184680211F4604F013
:104D500043FC3846002104F03FFC022087F89C0207
:104D6000C8E107990420CDF800E081F8A072C1F8ED
:104D70009402D1F8C8024FF48072014621F83C2F0A
:104D800002690024DDF814B043F20A05049EC464ED
:104D90004465012AC465C4F6547508BF046584E2FD
:104DA00010468021CDF800E0174680E10024046021
:104DB00007990227CDF800E0C1F89472D1F8C82213
:104DC0008F61CF6189E08021CDF800E007466EE178
:104DD000184680211C4604F0FFFB2046002104F009
:104DE000FBFB4BF6A04CC2F2010CBE46002400BFF8
:104DF0000698A8422AD9DCF81000012826D1DCF850
:104E00000000016CA94203D9D0F8001B00291DD471
:104E1000C0F8104BD0F8101B41F40021C0F8101B53
:104E2000D0F8101B41F01801C0F8101BD0F8101B6F
:104E300041F0C041C0F8101B0CF2C441C0F8141B73
:104E4000D0F8001B41F08021C0F8001B5FEACE6063
:104E500042BF0BEB0A00102181605FEA8E707FF584
:104E60007BABDBF81400000604D50399486840F4D6
:104E70008060486018F81D0C01287FF469ABDCF8ED
:104E8000080508F81D4CD0F8D41200EB8101D1F8C8
:104E9000B81200293FF45CAB90F89C22032A7FF4FF
:104EA00057AB4A6A002A3FF453ABF1B277469047BA
:104EB0004BF6A04CBE46C2F2010CFFF749BB0328DB
:104EC000CDF800E040F0F080181D02210127C3F862
:104ED0009412D3F8C8229F61DF6111464FF48073AA
:104EE00021F83C3F1369D0645765012BD46508BF96
:104EF00010651068DAB2DAE1397CD7F8B802002917
:104F0000DDF814B043F20A05049E0CBF816AC16A41
:104F10000DF12200C4F6547588470221079F4170A5
:104F200087E1C0B2DDF814B043F20A05049E0528FB
:104F3000C4F6547500F26181DFE810F006006201EA
:104F400066016A016E017201D7F8B40242686AE133
:104F500038468021754604F03FFB3846002104F0B6
:104F60003BFB4BF6A04CDDF814B0AE46C2F2010C90
:104F7000FFF745BC387CDDF814B043F20A05049E07
:104F80000028C4F6547540F07581D7F8B802416B1B
:104F90000DF1220088474CE1387CDDF814B043F273
:104FA0000A05049E0028C4F6547540F06381D7F8C2
:104FB000B802016B0DF1220088470721417038E1EA
:104FC000D0F8C872DDF804B097F8BC1400240129A9
:104FD00080F89EB213D087F838B039680BF07F03A1
:104FE000D1F8002822F4FE62C1F80028D1F8002888
:104FF000079842EA0312C1F8002887F8BC4404214C
:10500000CDF800E0C0F8941239464FF4807221F8D0
:105010003C2F51F82C2C0C618C61012A0C6208BFCA
:105020003C653868D2B204F057FBBBF1000F14BFE7
:10503000022001205BE000294FF000045FD0586897
:10504000884240F0AB800420C3F89402D3F8C80231
:105050004FF48072014621F83C2F0269DDF814B04C
:105060007746012AC4644465C4657FF4B2AD046523
:10507000AFE518468021F3461F4604F0ADFA3846E6
:10508000002104F0A9FAD7F8B8024CF2CC31C2F2F0
:1050900001010978426838469047DE464BF6A04C3D
:1050A000DDF814B0FFF79ABB184680211F4604F0C4
:1050B00093FA3846002104F08FFADDF800E0FFF79C
:1050C0008BBB0420C3F89402D3F8C8024FF480725B
:1050D000014621F83C2F0269C4644465012AC46575
:1050E00008BF04650068D2B204F0F6FA03200799FD
:1050F00081F89C024BF6A04CDDF814B0DBE00220F6
:1051000083F89C02D3F8B80259604268184600211F
:1051100077461C4690470420C4F89402D4F8C8028D
:105120004FF48072014621F83C2F02690024C464C8
:105130004465012AC46508BF04650068D2B204F062
:10514000CBFA4BF6A04CDDF814B048E502EBC201F7
:1051500000EB8103012703F13C0183F83D7090F8D7
:10516000BC348C70012B079B0A7000F0D4804F7800
:105170000368012F03EB421240F0B980D2F80039E6
:1051800023F40013C2F800390979079B01F0FE01EE
:10519000022940F0BE8002F51061B6E0D3F8B812E3
:1051A000CDF800E04A68C1B218469047079F4CF21C
:1051B000CC31D7F8B802C2F201010978DDF814B099
:1051C0000028796000F08880026838469047079F81
:1051D000002800F081803846802104F0FDF938462F
:1051E000002104F0F9F9D7F8B80239794268384655
:1051F0009047022087F89C025BE03846802156E702
:10520000D7F8B40282680EE0D7F8B402C2680AE0A8
:10521000D7F8B402026906E0D7F8B402426902E0A6
:10522000D7F8B4028269002A49D0387C0DF12201F6
:105230009047B7F8B02232B3BDF822100024C9B1AC
:10524000914238BF0A460221ADF82220C7F89412D5
:10525000D7F8C832BA61FA615A651A6919464FF42B
:10526000807721F83C7FD864012ADC6508BF186587
:1052700018681BE03846802104F0AEF9384600215A
:1052800004F0AAF915E00420C7F89402D7F8C80280
:105290004FF48072014621F83C2F00240269C46457
:1052A000012A4465C46500D104650068D2B204F0E7
:1052B00013FA4BF6A04CDDF800E0FFF78FBA384642
:1052C000802104F089F93846002104F085F94BF675
:1052D000A04CDDF800E0C4E40420C7F89402D7F83D
:1052E000C8024FF48072014621F83C2FD6E7D2F86D
:1052F000003B23F40013C2F8003B0979079B01F03F
:10530000FE01022905D102F530610A6842F080529F
:105310000A6080F8BC440420C3F89402D3F8C802A1
:105320004FF48072014621F83C2F0269C464446541
:10533000012AC46508BF04650068D2B2774604F04C
:10534000CBF907984BF6A04CD0F8B812C2F2010C7A
:105350008A68BE46002AC0F8D4423FF449AD02999B
:10536000FFF714BADCF80000DDF80C8041698269AF
:105370001140490340F1EE81D0F81818D0F81C28EC
:1053800011408CB2002C00F0E581CDF814B00BF583
:10539000106A4FF0030B002605E000BF640806F119
:1053A000010600F0D181E007F8D0DCF8000006F03B
:1053B0000F05D0F81018D0F8342800EB4613EA4057
:1053C000D201D2B2D3F80839114301EA03095FEAE6
:1053D000C9714FEA4618069600F0E180039B012749
:1053E000596B07FA05F2914359630AEB08018F6084
:1053F000DCF81010012909D1069F07EBC7010CEB5F
:105400008101D1E912231A44CA640FB30699DCF86A
:105410000865080616D096F89C02032840F0BF8065
:10542000D6F8B8024269002A00F0B9800020C6F818
:10543000D4020698C1B2304690474BF6A04CC2F257
:10544000010CACE001EBC1000CEB80004C3030E013
:10545000DCF8541049BB016C43F20A02C4F65472E2
:10546000914203D9D0F8001B00291ED40021C0F8B6
:10547000101BD0F8101B41F40021C0F8101BD0F80D
:10548000101B41F01801C0F8101BD0F8101B41F0A0
:10549000C041C0F8101B0CF2C441C0F8141BD0F876
:1054A000001B41F08021C0F8001BDCF808650CF1FE
:1054B0004C000068D6F89412022969D1D6E9071287
:1054C000914215D98B1AD6F8C822F36111464FF4D0
:1054D00080775365136921F83C7F0027D064012B46
:1054E000D76508BF10651068DAB204F0F5F835E04A
:1054F0004FF000031ED1B06988421BD3D6F8981232
:10550000884217D2D6F8C8024FF48072014621F8BB
:105510003C2F0269C3644365012AC36508BF036564
:105520000068D2B204F0D8F8D6F8C8020023C6F852
:10553000983216E096F89C020022032807D1D6F88C
:10554000B802C16819B13046C6F8D422884730463F
:10555000802104F041F80520C6F89402D6F8C8026C
:10556000002300F51F710269C0F88C32C0F8943234
:10557000C0F89C32012AA0F87C3208BFC0F89032F3
:105580000068D2B204F0A8F84BF6A04CC2F2010CAD
:1055900096F8A00200281CBF002086F8A0025FEA4F
:1055A000097042BF0AEB0800082181605FEAC96008
:1055B000069E42BF0AEB0800102181605FEA496045
:1055C000049542BF0AEB0800402181605FEA8970C0
:1055D0002AD50598314604F067FA4BF6A04CC2F282
:1055E000010C06EBC6000CEB800111F83F0F0128FF
:1055F00016D1DCF808050023D0F8D4220B7000EB9C
:105600008202D2F8B8225AB190F89C12032907D12D
:10561000126A2AB1F1B290474BF6A04CC2F2010CCB
:105620000AEB0800022181605FEA09607FF5B6AEEF
:1056300006EBC6000CEB800EF14659F8547F4B4642
:1056400053F8085FAF42FFF4A9AEDCF800005EF843
:10565000481F7E1B02948E4288BF0E460190404434
:10566000D0F818490336A4B2B4EB960F28BFAF4266
:105670000ED8069E029CAF423FF690AE019B0121E0
:10568000D3F83408049A91408843C3F8340885E677
:10569000019A00F510600EF1040802F58054069A94
:1056A0000790D8F8000016037F1B9CF810508F421B
:1056B00088BF0F46A5BB390432D01BFA87F14FF0E3
:1056C000FF3202EB9105032D05461BD38D08D3460F
:1056D00025F0030C054600BFD5F800A0BCF1040C72
:1056E00046F804A06A683251AA683251EA6805F1A6
:1056F00010053251F0D14BF6A04CC2F2010CDA4643
:105700004FF0030BC1F3810151B12A6801293251D5
:1057100006D06A68022932511CBFA968315100BF06
:1057200019683844CD190799C8F800001D608969C7
:10573000FA1C89B2D9F80070B1EB920F28BFAF42C2
:1057400097D9DEF80010AFE7DCF80000DDF814B000
:10575000DDF80C80416982691140B1F1FF3F1BDC2B
:10576000D8F8041021F00101C8F804109CF8F414D2
:10577000012903D100218CF8F41409E0DCF80815A4
:1057800091F89C22042A04BF91F89D2281F89C2262
:10579000416901F000414161416982691140090597
:1057A00021D5D8F80810C90719D0DCF8081591F8E8
:1057B0009C2281F89D22042281F89C22D0F8001EB0
:1057C00041F00101C0F8001EDCF8201039B14EF69E
:1057D0001051CEF200010A6842F006020A604169E7
:1057E00001F400614161416982691140C90440F1DD
:1057F0002881DBF80418644621F00101CBF8041875
:10580000102104F051F96068002800F0BC80411EAE
:10581000032900F0030C01D200216BE020F0030EFD
:105820004FF6A0564FF6C0554FF6E0544FF60060C5
:105830000BF5366300214FF67F37CFF6FF76CFF6B4
:10584000FF75CFF6FF74CFF6FF7000BFA3F5187297
:1058500097609A59043122F400129A5143F8587C07
:1058600053F8602C8E4522F4001243F8602C53F854
:10587000602C42F0006243F8602CA3F51072976030
:105880005A5922F400125A5143F8387C53F8402CEC
:1058900022F4001243F8402C53F8402C42F00062EE
:1058A00043F8402CA3F5087297601A5922F40012AD
:1058B0001A5143F8187C53F8202C22F4001243F8B4
:1058C000202C53F8202C42F0006243F8202CA3F542
:1058D000007297601A5822F400121A509F601A68DA
:1058E00022F400121A601A6842F000621A6003F192
:1058F0008003ABD1BCF1000F45D00BF5106000EB7D
:1059000041124FF67F374B019760C6580BF5306256
:1059100026F4001602EB4111C6508F60D158BCF13D
:10592000010F21F40011D150D15841F00061D15044
:1059300029D003F120014618B7604658BCF1020F88
:1059400026F40016465002EB0106B760575827F4BC
:1059500000175750575847F00067575013D003F1BE
:10596000400143184FF67F379F60435823F40013DC
:10597000435050188760505820F400105050505831
:1059800040F000605050D8F81C004BF6A04C40F09E
:105990000110C8F81C00C2F2010CDCF8300040B164
:1059A000D8F8840040F00B00C8F8840008F14400E7
:1059B00008E0D8F8140042F22B010843C8F814009C
:1059C00008F11000016843F20A0341F00B01016085
:1059D000D8F80000C4F6547320F4FE60C8F8000044
:1059E000DCF80000DCF81010026C9A4203D9D0F801
:1059F000002B002A21D40022C0F8102BD0F8102B45
:105A0000C9B242F40022C0F8102BD0F8102B0129A3
:105A100042F01802C0F8102BD0F8102B42F0C04210
:105A2000C0F8102B09D10CF2C441C0F8141BD0F8F7
:105A3000001B41F08021C0F8001B416901F4805136
:105A40004161416982691140890440F1EB80D0F8DD
:105A5000001940F2FF729143C0F80019D0F8041801
:105A600041F48071C0F80418D0F8081801F006025B
:105A700089074FF0020158BF0F21002A08BF1146C5
:105A80000229CCF80C1012D140F22001C2F2000120
:105A9000096845F24032CFF6277243F200530A44B8
:105AA000C0F20C039A4212D24FF470517FE0C268E8
:105AB00022F47052C260C26842F41052C260A1B1B6
:105AC00002297BD0EFF3108072B600BFFEE741F6EB
:105AD0004062CFF61B7244F240230A44C0F20F0327
